{
	"CoinToss/CoinToss2.sol": {
		"CoinTossOptimized": {
			"abi": [
				{
					"inputs": [],
					"stateMutability": "nonpayable",
					"type": "constructor"
				},
				{
					"inputs": [],
					"name": "REQUIRED_AMOUNT",
					"outputs": [
						{
							"internalType": "uint256",
							"name": "",
							"type": "uint256"
						}
					],
					"stateMutability": "view",
					"type": "function"
				},
				{
					"inputs": [],
					"name": "bothPaid",
					"outputs": [
						{
							"internalType": "bool",
							"name": "",
							"type": "bool"
						}
					],
					"stateMutability": "view",
					"type": "function"
				},
				{
					"inputs": [
						{
							"internalType": "uint8",
							"name": "_choice",
							"type": "uint8"
						},
						{
							"internalType": "string",
							"name": "_secret",
							"type": "string"
						}
					],
					"name": "commit",
					"outputs": [],
					"stateMutability": "nonpayable",
					"type": "function"
				},
				{
					"inputs": [],
					"name": "commitTime",
					"outputs": [
						{
							"internalType": "uint256",
							"name": "",
							"type": "uint256"
						}
					],
					"stateMutability": "view",
					"type": "function"
				},
				{
					"inputs": [],
					"name": "englandCaptain",
					"outputs": [
						{
							"internalType": "address",
							"name": "",
							"type": "address"
						}
					],
					"stateMutability": "view",
					"type": "function"
				},
				{
					"inputs": [],
					"name": "englandChoice",
					"outputs": [
						{
							"internalType": "uint8",
							"name": "",
							"type": "uint8"
						}
					],
					"stateMutability": "view",
					"type": "function"
				},
				{
					"inputs": [],
					"name": "englandHash",
					"outputs": [
						{
							"internalType": "bytes32",
							"name": "",
							"type": "bytes32"
						}
					],
					"stateMutability": "view",
					"type": "function"
				},
				{
					"inputs": [],
					"name": "englandRevealed",
					"outputs": [
						{
							"internalType": "bool",
							"name": "",
							"type": "bool"
						}
					],
					"stateMutability": "view",
					"type": "function"
				},
				{
					"inputs": [],
					"name": "indianCaptain",
					"outputs": [
						{
							"internalType": "address",
							"name": "",
							"type": "address"
						}
					],
					"stateMutability": "view",
					"type": "function"
				},
				{
					"inputs": [],
					"name": "indianChoice",
					"outputs": [
						{
							"internalType": "uint8",
							"name": "",
							"type": "uint8"
						}
					],
					"stateMutability": "view",
					"type": "function"
				},
				{
					"inputs": [],
					"name": "indianHash",
					"outputs": [
						{
							"internalType": "bytes32",
							"name": "",
							"type": "bytes32"
						}
					],
					"stateMutability": "view",
					"type": "function"
				},
				{
					"inputs": [],
					"name": "indianRevealed",
					"outputs": [
						{
							"internalType": "bool",
							"name": "",
							"type": "bool"
						}
					],
					"stateMutability": "view",
					"type": "function"
				},
				{
					"inputs": [
						{
							"internalType": "address",
							"name": "",
							"type": "address"
						}
					],
					"name": "payments",
					"outputs": [
						{
							"internalType": "uint256",
							"name": "",
							"type": "uint256"
						}
					],
					"stateMutability": "view",
					"type": "function"
				},
				{
					"inputs": [],
					"name": "referee",
					"outputs": [
						{
							"internalType": "address",
							"name": "",
							"type": "address"
						}
					],
					"stateMutability": "view",
					"type": "function"
				},
				{
					"inputs": [
						{
							"internalType": "uint8",
							"name": "_choice",
							"type": "uint8"
						},
						{
							"internalType": "string",
							"name": "_secret",
							"type": "string"
						}
					],
					"name": "reveal",
					"outputs": [],
					"stateMutability": "nonpayable",
					"type": "function"
				},
				{
					"inputs": [],
					"name": "revealDeadline",
					"outputs": [
						{
							"internalType": "uint256",
							"name": "",
							"type": "uint256"
						}
					],
					"stateMutability": "view",
					"type": "function"
				},
				{
					"inputs": [
						{
							"internalType": "address",
							"name": "_indian",
							"type": "address"
						},
						{
							"internalType": "address",
							"name": "_england",
							"type": "address"
						}
					],
					"name": "setCaptains",
					"outputs": [],
					"stateMutability": "nonpayable",
					"type": "function"
				},
				{
					"inputs": [],
					"name": "settle",
					"outputs": [],
					"stateMutability": "nonpayable",
					"type": "function"
				},
				{
					"stateMutability": "payable",
					"type": "receive"
				}
			],
			"devdoc": {
				"kind": "dev",
				"methods": {},
				"version": 1
			},
			"evm": {
				"assembly": "    /* \"CoinToss/CoinToss2.sol\":61:4551  contract CoinTossOptimized {... */\n  mstore(0x40, 0xa0)\n    /* \"CoinToss/CoinToss2.sol\":759:812  constructor() {... */\n  callvalue\n  dup1\n  iszero\n  tag_1\n  jumpi\n  revert(0x00, 0x00)\ntag_1:\n  pop\n    /* \"CoinToss/CoinToss2.sol\":794:804  msg.sender */\n  caller\n    /* \"CoinToss/CoinToss2.sol\":784:804  referee = msg.sender */\n  0xffffffffffffffffffffffffffffffffffffffff\n  and\n  0x80\n  dup2\n  0xffffffffffffffffffffffffffffffffffffffff\n  and\n  dup2\n  mstore\n  pop\n  pop\n    /* \"CoinToss/CoinToss2.sol\":61:4551  contract CoinTossOptimized {... */\n  mload(0x80)\n  codecopy(0x00, dataOffset(sub_0), dataSize(sub_0))\n  0x00\n  assignImmutable(\"0x2a80e1ef1d7842f27f2e6be0972bb708b9a135c38860dbe73c27c3486c34f4de\")\n  return(0x00, dataSize(sub_0))\nstop\n\nsub_0: assembly {\n        /* \"CoinToss/CoinToss2.sol\":61:4551  contract CoinTossOptimized {... */\n      mstore(0x40, 0x80)\n      jumpi(tag_1, lt(calldatasize, 0x04))\n      shr(0xe0, calldataload(0x00))\n      dup1\n      0x810a8999\n      gt\n      tag_21\n      jumpi\n      dup1\n      0xa2485451\n      gt\n      tag_22\n      jumpi\n      dup1\n      0xa2485451\n      eq\n      tag_16\n      jumpi\n      dup1\n      0xb14b28a3\n      eq\n      tag_17\n      jumpi\n      dup1\n      0xbd41d253\n      eq\n      tag_18\n      jumpi\n      dup1\n      0xca3ed9e8\n      eq\n      tag_19\n      jumpi\n      dup1\n      0xe2982c21\n      eq\n      tag_20\n      jumpi\n      jump(tag_2)\n    tag_22:\n      dup1\n      0x810a8999\n      eq\n      tag_12\n      jumpi\n      dup1\n      0x87e69625\n      eq\n      tag_13\n      jumpi\n      dup1\n      0x92881152\n      eq\n      tag_14\n      jumpi\n      dup1\n      0x93d67246\n      eq\n      tag_15\n      jumpi\n      jump(tag_2)\n    tag_21:\n      dup1\n      0x3b1bebd1\n      gt\n      tag_23\n      jumpi\n      dup1\n      0x3b1bebd1\n      eq\n      tag_7\n      jumpi\n      dup1\n      0x458698ff\n      eq\n      tag_8\n      jumpi\n      dup1\n      0x49c2bd83\n      eq\n      tag_9\n      jumpi\n      dup1\n      0x5e63d890\n      eq\n      tag_10\n      jumpi\n      dup1\n      0x737af77a\n      eq\n      tag_11\n      jumpi\n      jump(tag_2)\n    tag_23:\n      dup1\n      0x0f8f655e\n      eq\n      tag_3\n      jumpi\n      dup1\n      0x11da60b4\n      eq\n      tag_4\n      jumpi\n      dup1\n      0x360eb12c\n      eq\n      tag_5\n      jumpi\n      dup1\n      0x38625556\n      eq\n      tag_6\n      jumpi\n      jump(tag_2)\n    tag_1:\n      jumpi(tag_2, calldatasize)\n        /* \"CoinToss/CoinToss2.sol\":645:658  indianCaptain */\n      0x00\n      0x00\n      swap1\n      sload\n      swap1\n      0x0100\n      exp\n      swap1\n      div\n      0xffffffffffffffffffffffffffffffffffffffff\n      and\n        /* \"CoinToss/CoinToss2.sol\":631:658  msg.sender == indianCaptain */\n      0xffffffffffffffffffffffffffffffffffffffff\n      and\n        /* \"CoinToss/CoinToss2.sol\":631:641  msg.sender */\n      caller\n        /* \"CoinToss/CoinToss2.sol\":631:658  msg.sender == indianCaptain */\n      0xffffffffffffffffffffffffffffffffffffffff\n      and\n      eq\n        /* \"CoinToss/CoinToss2.sol\":631:690  msg.sender == indianCaptain || msg.sender == englandCaptain */\n      dup1\n      tag_26\n      jumpi\n      pop\n        /* \"CoinToss/CoinToss2.sol\":676:690  englandCaptain */\n      0x01\n      0x00\n      swap1\n      sload\n      swap1\n      0x0100\n      exp\n      swap1\n      div\n      0xffffffffffffffffffffffffffffffffffffffff\n      and\n        /* \"CoinToss/CoinToss2.sol\":662:690  msg.sender == englandCaptain */\n      0xffffffffffffffffffffffffffffffffffffffff\n      and\n        /* \"CoinToss/CoinToss2.sol\":662:672  msg.sender */\n      caller\n        /* \"CoinToss/CoinToss2.sol\":662:690  msg.sender == englandCaptain */\n      0xffffffffffffffffffffffffffffffffffffffff\n      and\n      eq\n        /* \"CoinToss/CoinToss2.sol\":631:690  msg.sender == indianCaptain || msg.sender == englandCaptain */\n    tag_26:\n        /* \"CoinToss/CoinToss2.sol\":623:731  require(msg.sender == indianCaptain || msg.sender == englandCaptain, \"Only captains can call this function\") */\n      tag_27\n      jumpi\n      mload(0x40)\n      0x08c379a000000000000000000000000000000000000000000000000000000000\n      dup2\n      mstore\n      0x04\n      add\n      tag_28\n      swap1\n      tag_29\n      jump\t// in\n    tag_28:\n      mload(0x40)\n      dup1\n      swap2\n      sub\n      swap1\n      revert\n    tag_27:\n        /* \"CoinToss/CoinToss2.sol\":247:258  0.002 ether */\n      0x071afd498d0000\n        /* \"CoinToss/CoinToss2.sol\":1207:1216  msg.value */\n      callvalue\n        /* \"CoinToss/CoinToss2.sol\":1207:1235  msg.value == REQUIRED_AMOUNT */\n      eq\n        /* \"CoinToss/CoinToss2.sol\":1199:1267  require(msg.value == REQUIRED_AMOUNT, \"Must send exactly 0.002 ETH\") */\n      tag_31\n      jumpi\n      mload(0x40)\n      0x08c379a000000000000000000000000000000000000000000000000000000000\n      dup2\n      mstore\n      0x04\n      add\n      tag_32\n      swap1\n      tag_33\n      jump\t// in\n    tag_32:\n      mload(0x40)\n      dup1\n      swap2\n      sub\n      swap1\n      revert\n    tag_31:\n        /* \"CoinToss/CoinToss2.sol\":1310:1311  0 */\n      0x00\n        /* \"CoinToss/CoinToss2.sol\":1286:1294  payments */\n      0x02\n        /* \"CoinToss/CoinToss2.sol\":1286:1306  payments[msg.sender] */\n      0x00\n        /* \"CoinToss/CoinToss2.sol\":1295:1305  msg.sender */\n      caller\n        /* \"CoinToss/CoinToss2.sol\":1286:1306  payments[msg.sender] */\n      0xffffffffffffffffffffffffffffffffffffffff\n      and\n      0xffffffffffffffffffffffffffffffffffffffff\n      and\n      dup2\n      mstore\n      0x20\n      add\n      swap1\n      dup2\n      mstore\n      0x20\n      add\n      0x00\n      keccak256\n      sload\n        /* \"CoinToss/CoinToss2.sol\":1286:1311  payments[msg.sender] == 0 */\n      eq\n        /* \"CoinToss/CoinToss2.sol\":1278:1328  require(payments[msg.sender] == 0, \"Already paid\") */\n      tag_34\n      jumpi\n      mload(0x40)\n      0x08c379a000000000000000000000000000000000000000000000000000000000\n      dup2\n      mstore\n      0x04\n      add\n      tag_35\n      swap1\n      tag_36\n      jump\t// in\n    tag_35:\n      mload(0x40)\n      dup1\n      swap2\n      sub\n      swap1\n      revert\n    tag_34:\n        /* \"CoinToss/CoinToss2.sol\":1362:1371  msg.value */\n      callvalue\n        /* \"CoinToss/CoinToss2.sol\":1339:1347  payments */\n      0x02\n        /* \"CoinToss/CoinToss2.sol\":1339:1359  payments[msg.sender] */\n      0x00\n        /* \"CoinToss/CoinToss2.sol\":1348:1358  msg.sender */\n      caller\n        /* \"CoinToss/CoinToss2.sol\":1339:1359  payments[msg.sender] */\n      0xffffffffffffffffffffffffffffffffffffffff\n      and\n      0xffffffffffffffffffffffffffffffffffffffff\n      and\n      dup2\n      mstore\n      0x20\n      add\n      swap1\n      dup2\n      mstore\n      0x20\n      add\n      0x00\n      keccak256\n        /* \"CoinToss/CoinToss2.sol\":1339:1371  payments[msg.sender] = msg.value */\n      dup2\n      swap1\n      sstore\n      stop\n        /* \"CoinToss/CoinToss2.sol\":61:4551  contract CoinTossOptimized {... */\n    tag_2:\n      revert(0x00, 0x00)\n        /* \"CoinToss/CoinToss2.sol\":482:509  bool public englandRevealed */\n    tag_3:\n      callvalue\n      dup1\n      iszero\n      tag_37\n      jumpi\n      revert(0x00, 0x00)\n    tag_37:\n      pop\n      tag_38\n      tag_39\n      jump\t// in\n    tag_38:\n      mload(0x40)\n      tag_40\n      swap2\n      swap1\n      tag_41\n      jump\t// in\n    tag_40:\n      mload(0x40)\n      dup1\n      swap2\n      sub\n      swap1\n      return\n        /* \"CoinToss/CoinToss2.sol\":3259:4548  function settle() external {... */\n    tag_4:\n      callvalue\n      dup1\n      iszero\n      tag_42\n      jumpi\n      revert(0x00, 0x00)\n    tag_42:\n      pop\n      tag_43\n      tag_44\n      jump\t// in\n    tag_43:\n      stop\n        /* \"CoinToss/CoinToss2.sol\":351:377  bytes32 public englandHash */\n    tag_5:\n      callvalue\n      dup1\n      iszero\n      tag_45\n      jumpi\n      revert(0x00, 0x00)\n    tag_45:\n      pop\n      tag_46\n      tag_47\n      jump\t// in\n    tag_46:\n      mload(0x40)\n      tag_48\n      swap2\n      swap1\n      tag_49\n      jump\t// in\n    tag_48:\n      mload(0x40)\n      dup1\n      swap2\n      sub\n      swap1\n      return\n        /* \"CoinToss/CoinToss2.sol\":134:162  address public indianCaptain */\n    tag_6:\n      callvalue\n      dup1\n      iszero\n      tag_50\n      jumpi\n      revert(0x00, 0x00)\n    tag_50:\n      pop\n      tag_51\n      tag_52\n      jump\t// in\n    tag_51:\n      mload(0x40)\n      tag_53\n      swap2\n      swap1\n      tag_54\n      jump\t// in\n    tag_53:\n      mload(0x40)\n      dup1\n      swap2\n      sub\n      swap1\n      return\n        /* \"CoinToss/CoinToss2.sol\":95:127  address public immutable referee */\n    tag_7:\n      callvalue\n      dup1\n      iszero\n      tag_55\n      jumpi\n      revert(0x00, 0x00)\n    tag_55:\n      pop\n      tag_56\n      tag_57\n      jump\t// in\n    tag_56:\n      mload(0x40)\n      tag_58\n      swap2\n      swap1\n      tag_54\n      jump\t// in\n    tag_58:\n      mload(0x40)\n      dup1\n      swap2\n      sub\n      swap1\n      return\n        /* \"CoinToss/CoinToss2.sol\":319:344  bytes32 public indianHash */\n    tag_8:\n      callvalue\n      dup1\n      iszero\n      tag_59\n      jumpi\n      revert(0x00, 0x00)\n    tag_59:\n      pop\n      tag_60\n      tag_61\n      jump\t// in\n    tag_60:\n      mload(0x40)\n      tag_62\n      swap2\n      swap1\n      tag_49\n      jump\t// in\n    tag_62:\n      mload(0x40)\n      dup1\n      swap2\n      sub\n      swap1\n      return\n        /* \"CoinToss/CoinToss2.sol\":1387:1551  function bothPaid() public view returns (bool) {... */\n    tag_9:\n      callvalue\n      dup1\n      iszero\n      tag_63\n      jumpi\n      revert(0x00, 0x00)\n    tag_63:\n      pop\n      tag_64\n      tag_65\n      jump\t// in\n    tag_64:\n      mload(0x40)\n      tag_66\n      swap2\n      swap1\n      tag_41\n      jump\t// in\n    tag_66:\n      mload(0x40)\n      dup1\n      swap2\n      sub\n      swap1\n      return\n        /* \"CoinToss/CoinToss2.sol\":518:543  uint256 public commitTime */\n    tag_10:\n      callvalue\n      dup1\n      iszero\n      tag_67\n      jumpi\n      revert(0x00, 0x00)\n    tag_67:\n      pop\n      tag_68\n      tag_69\n      jump\t// in\n    tag_68:\n      mload(0x40)\n      tag_70\n      swap2\n      swap1\n      tag_71\n      jump\t// in\n    tag_70:\n      mload(0x40)\n      dup1\n      swap2\n      sub\n      swap1\n      return\n        /* \"CoinToss/CoinToss2.sol\":1559:2175  function commit(uint8 _choice, string memory _secret) external onlyCaptains {... */\n    tag_11:\n      callvalue\n      dup1\n      iszero\n      tag_72\n      jumpi\n      revert(0x00, 0x00)\n    tag_72:\n      pop\n      tag_73\n      0x04\n      dup1\n      calldatasize\n      sub\n      dup2\n      add\n      swap1\n      tag_74\n      swap2\n      swap1\n      tag_75\n      jump\t// in\n    tag_74:\n      tag_76\n      jump\t// in\n    tag_73:\n      stop\n        /* \"CoinToss/CoinToss2.sol\":384:409  uint8 public indianChoice */\n    tag_12:\n      callvalue\n      dup1\n      iszero\n      tag_77\n      jumpi\n      revert(0x00, 0x00)\n    tag_77:\n      pop\n      tag_78\n      tag_79\n      jump\t// in\n    tag_78:\n      mload(0x40)\n      tag_80\n      swap2\n      swap1\n      tag_81\n      jump\t// in\n    tag_80:\n      mload(0x40)\n      dup1\n      swap2\n      sub\n      swap1\n      return\n        /* \"CoinToss/CoinToss2.sol\":205:258  uint256 public constant REQUIRED_AMOUNT = 0.002 ether */\n    tag_13:\n      callvalue\n      dup1\n      iszero\n      tag_82\n      jumpi\n      revert(0x00, 0x00)\n    tag_82:\n      pop\n      tag_83\n      tag_84\n      jump\t// in\n    tag_83:\n      mload(0x40)\n      tag_85\n      swap2\n      swap1\n      tag_71\n      jump\t// in\n    tag_85:\n      mload(0x40)\n      dup1\n      swap2\n      sub\n      swap1\n      return\n        /* \"CoinToss/CoinToss2.sol\":169:198  address public englandCaptain */\n    tag_14:\n      callvalue\n      dup1\n      iszero\n      tag_86\n      jumpi\n      revert(0x00, 0x00)\n    tag_86:\n      pop\n      tag_87\n      tag_88\n      jump\t// in\n    tag_87:\n      mload(0x40)\n      tag_89\n      swap2\n      swap1\n      tag_54\n      jump\t// in\n    tag_89:\n      mload(0x40)\n      dup1\n      swap2\n      sub\n      swap1\n      return\n        /* \"CoinToss/CoinToss2.sol\":820:1140  function setCaptains(address _indian, address _england) external {... */\n    tag_15:\n      callvalue\n      dup1\n      iszero\n      tag_90\n      jumpi\n      revert(0x00, 0x00)\n    tag_90:\n      pop\n      tag_91\n      0x04\n      dup1\n      calldatasize\n      sub\n      dup2\n      add\n      swap1\n      tag_92\n      swap2\n      swap1\n      tag_93\n      jump\t// in\n    tag_92:\n      tag_94\n      jump\t// in\n    tag_91:\n      stop\n        /* \"CoinToss/CoinToss2.sol\":416:442  uint8 public englandChoice */\n    tag_16:\n      callvalue\n      dup1\n      iszero\n      tag_95\n      jumpi\n      revert(0x00, 0x00)\n    tag_95:\n      pop\n      tag_96\n      tag_97\n      jump\t// in\n    tag_96:\n      mload(0x40)\n      tag_98\n      swap2\n      swap1\n      tag_81\n      jump\t// in\n    tag_98:\n      mload(0x40)\n      dup1\n      swap2\n      sub\n      swap1\n      return\n        /* \"CoinToss/CoinToss2.sol\":550:579  uint256 public revealDeadline */\n    tag_17:\n      callvalue\n      dup1\n      iszero\n      tag_99\n      jumpi\n      revert(0x00, 0x00)\n    tag_99:\n      pop\n      tag_100\n      tag_101\n      jump\t// in\n    tag_100:\n      mload(0x40)\n      tag_102\n      swap2\n      swap1\n      tag_71\n      jump\t// in\n    tag_102:\n      mload(0x40)\n      dup1\n      swap2\n      sub\n      swap1\n      return\n        /* \"CoinToss/CoinToss2.sol\":449:475  bool public indianRevealed */\n    tag_18:\n      callvalue\n      dup1\n      iszero\n      tag_103\n      jumpi\n      revert(0x00, 0x00)\n    tag_103:\n      pop\n      tag_104\n      tag_105\n      jump\t// in\n    tag_104:\n      mload(0x40)\n      tag_106\n      swap2\n      swap1\n      tag_41\n      jump\t// in\n    tag_106:\n      mload(0x40)\n      dup1\n      swap2\n      sub\n      swap1\n      return\n        /* \"CoinToss/CoinToss2.sol\":2183:3011  function reveal(uint8 _choice, string memory _secret) external onlyCaptains {... */\n    tag_19:\n      callvalue\n      dup1\n      iszero\n      tag_107\n      jumpi\n      revert(0x00, 0x00)\n    tag_107:\n      pop\n      tag_108\n      0x04\n      dup1\n      calldatasize\n      sub\n      dup2\n      add\n      swap1\n      tag_109\n      swap2\n      swap1\n      tag_75\n      jump\t// in\n    tag_109:\n      tag_110\n      jump\t// in\n    tag_108:\n      stop\n        /* \"CoinToss/CoinToss2.sol\":267:310  mapping(address => uint256) public payments */\n    tag_20:\n      callvalue\n      dup1\n      iszero\n      tag_111\n      jumpi\n      revert(0x00, 0x00)\n    tag_111:\n      pop\n      tag_112\n      0x04\n      dup1\n      calldatasize\n      sub\n      dup2\n      add\n      swap1\n      tag_113\n      swap2\n      swap1\n      tag_114\n      jump\t// in\n    tag_113:\n      tag_115\n      jump\t// in\n    tag_112:\n      mload(0x40)\n      tag_116\n      swap2\n      swap1\n      tag_71\n      jump\t// in\n    tag_116:\n      mload(0x40)\n      dup1\n      swap2\n      sub\n      swap1\n      return\n        /* \"CoinToss/CoinToss2.sol\":482:509  bool public englandRevealed */\n    tag_39:\n      0x05\n      0x03\n      swap1\n      sload\n      swap1\n      0x0100\n      exp\n      swap1\n      div\n      0xff\n      and\n      dup2\n      jump\t// out\n        /* \"CoinToss/CoinToss2.sol\":3259:4548  function settle() external {... */\n    tag_44:\n        /* \"CoinToss/CoinToss2.sol\":3319:3326  referee */\n      immutable(\"0x2a80e1ef1d7842f27f2e6be0972bb708b9a135c38860dbe73c27c3486c34f4de\")\n        /* \"CoinToss/CoinToss2.sol\":3305:3326  msg.sender == referee */\n      0xffffffffffffffffffffffffffffffffffffffff\n      and\n        /* \"CoinToss/CoinToss2.sol\":3305:3315  msg.sender */\n      caller\n        /* \"CoinToss/CoinToss2.sol\":3305:3326  msg.sender == referee */\n      0xffffffffffffffffffffffffffffffffffffffff\n      and\n      eq\n        /* \"CoinToss/CoinToss2.sol\":3297:3354  require(msg.sender == referee, \"Only referee can settle\") */\n      tag_118\n      jumpi\n      mload(0x40)\n      0x08c379a000000000000000000000000000000000000000000000000000000000\n      dup2\n      mstore\n      0x04\n      add\n      tag_119\n      swap1\n      tag_120\n      jump\t// in\n    tag_119:\n      mload(0x40)\n      dup1\n      swap2\n      sub\n      swap1\n      revert\n    tag_118:\n        /* \"CoinToss/CoinToss2.sol\":3391:3392  0 */\n      0x00\n        /* \"CoinToss/CoinToss2.sol\":3373:3387  revealDeadline */\n      sload(0x07)\n        /* \"CoinToss/CoinToss2.sol\":3373:3392  revealDeadline != 0 */\n      eq\n      iszero\n        /* \"CoinToss/CoinToss2.sol\":3373:3429  revealDeadline != 0 && block.timestamp >= revealDeadline */\n      dup1\n      iszero\n      tag_121\n      jumpi\n      pop\n        /* \"CoinToss/CoinToss2.sol\":3415:3429  revealDeadline */\n      sload(0x07)\n        /* \"CoinToss/CoinToss2.sol\":3396:3411  block.timestamp */\n      timestamp\n        /* \"CoinToss/CoinToss2.sol\":3396:3429  block.timestamp >= revealDeadline */\n      lt\n      iszero\n        /* \"CoinToss/CoinToss2.sol\":3373:3429  revealDeadline != 0 && block.timestamp >= revealDeadline */\n    tag_121:\n        /* \"CoinToss/CoinToss2.sol\":3365:3458  require(revealDeadline != 0 && block.timestamp >= revealDeadline, \"Deadline not reached yet\") */\n      tag_122\n      jumpi\n      mload(0x40)\n      0x08c379a000000000000000000000000000000000000000000000000000000000\n      dup2\n      mstore\n      0x04\n      add\n      tag_123\n      swap1\n      tag_124\n      jump\t// in\n    tag_123:\n      mload(0x40)\n      dup1\n      swap2\n      sub\n      swap1\n      revert\n    tag_122:\n        /* \"CoinToss/CoinToss2.sol\":3471:3482  uint256 pot */\n      0x00\n        /* \"CoinToss/CoinToss2.sol\":3485:3506  address(this).balance */\n      selfbalance\n        /* \"CoinToss/CoinToss2.sol\":3471:3506  uint256 pot = address(this).balance */\n      swap1\n      pop\n        /* \"CoinToss/CoinToss2.sol\":3523:3537  indianRevealed */\n      0x05\n      0x02\n      swap1\n      sload\n      swap1\n      0x0100\n      exp\n      swap1\n      div\n      0xff\n      and\n        /* \"CoinToss/CoinToss2.sol\":3523:3556  indianRevealed && englandRevealed */\n      dup1\n      iszero\n      tag_125\n      jumpi\n      pop\n        /* \"CoinToss/CoinToss2.sol\":3541:3556  englandRevealed */\n      0x05\n      0x03\n      swap1\n      sload\n      swap1\n      0x0100\n      exp\n      swap1\n      div\n      0xff\n      and\n        /* \"CoinToss/CoinToss2.sol\":3523:3556  indianRevealed && englandRevealed */\n    tag_125:\n        /* \"CoinToss/CoinToss2.sol\":3519:4541  if (indianRevealed && englandRevealed) {... */\n      iszero\n      tag_126\n      jumpi\n        /* \"CoinToss/CoinToss2.sol\":3609:3610  1 */\n      0x01\n        /* \"CoinToss/CoinToss2.sol\":3592:3605  englandChoice */\n      0x05\n      0x01\n      swap1\n      sload\n      swap1\n      0x0100\n      exp\n      swap1\n      div\n      0xff\n      and\n        /* \"CoinToss/CoinToss2.sol\":3577:3589  indianChoice */\n      0x05\n      0x00\n      swap1\n      sload\n      swap1\n      0x0100\n      exp\n      swap1\n      div\n      0xff\n      and\n        /* \"CoinToss/CoinToss2.sol\":3577:3605  indianChoice ^ englandChoice */\n      xor\n        /* \"CoinToss/CoinToss2.sol\":3577:3610  indianChoice ^ englandChoice == 1 */\n      0xff\n      and\n      sub\n        /* \"CoinToss/CoinToss2.sol\":3573:4287  if (indianChoice ^ englandChoice == 1) {... */\n      tag_127\n      jumpi\n        /* \"CoinToss/CoinToss2.sol\":3836:3837  1 */\n      0x01\n        /* \"CoinToss/CoinToss2.sol\":3820:3832  indianChoice */\n      0x05\n      0x00\n      swap1\n      sload\n      swap1\n      0x0100\n      exp\n      swap1\n      div\n      0xff\n      and\n        /* \"CoinToss/CoinToss2.sol\":3820:3837  indianChoice == 1 */\n      0xff\n      and\n      sub\n        /* \"CoinToss/CoinToss2.sol\":3816:4057  if (indianChoice == 1) { // 1 ^ 0 = 1, Indian wins... */\n      tag_128\n      jumpi\n        /* \"CoinToss/CoinToss2.sol\":3896:3909  indianCaptain */\n      0x00\n      0x00\n      swap1\n      sload\n      swap1\n      0x0100\n      exp\n      swap1\n      div\n      0xffffffffffffffffffffffffffffffffffffffff\n      and\n        /* \"CoinToss/CoinToss2.sol\":3888:3919  payable(indianCaptain).transfer */\n      0xffffffffffffffffffffffffffffffffffffffff\n      and\n        /* \"CoinToss/CoinToss2.sol\":3888:3924  payable(indianCaptain).transfer(pot) */\n      0x08fc\n        /* \"CoinToss/CoinToss2.sol\":3920:3923  pot */\n      dup3\n        /* \"CoinToss/CoinToss2.sol\":3888:3924  payable(indianCaptain).transfer(pot) */\n      swap1\n      dup2\n      iszero\n      mul\n      swap1\n      mload(0x40)\n      0x00\n      mload(0x40)\n      dup1\n      dup4\n      sub\n      dup2\n      dup6\n      dup9\n      dup9\n      call\n      swap4\n      pop\n      pop\n      pop\n      pop\n      iszero\n      dup1\n      iszero\n      tag_130\n      jumpi\n      returndatacopy(0x00, 0x00, returndatasize)\n      revert(0x00, returndatasize)\n    tag_130:\n      pop\n        /* \"CoinToss/CoinToss2.sol\":3816:4057  if (indianChoice == 1) { // 1 ^ 0 = 1, Indian wins... */\n      jump(tag_131)\n    tag_128:\n        /* \"CoinToss/CoinToss2.sol\":4008:4022  englandCaptain */\n      0x01\n      0x00\n      swap1\n      sload\n      swap1\n      0x0100\n      exp\n      swap1\n      div\n      0xffffffffffffffffffffffffffffffffffffffff\n      and\n        /* \"CoinToss/CoinToss2.sol\":4000:4032  payable(englandCaptain).transfer */\n      0xffffffffffffffffffffffffffffffffffffffff\n      and\n        /* \"CoinToss/CoinToss2.sol\":4000:4037  payable(englandCaptain).transfer(pot) */\n      0x08fc\n        /* \"CoinToss/CoinToss2.sol\":4033:4036  pot */\n      dup3\n        /* \"CoinToss/CoinToss2.sol\":4000:4037  payable(englandCaptain).transfer(pot) */\n      swap1\n      dup2\n      iszero\n      mul\n      swap1\n      mload(0x40)\n      0x00\n      mload(0x40)\n      dup1\n      dup4\n      sub\n      dup2\n      dup6\n      dup9\n      dup9\n      call\n      swap4\n      pop\n      pop\n      pop\n      pop\n      iszero\n      dup1\n      iszero\n      tag_133\n      jumpi\n      returndatacopy(0x00, 0x00, returndatasize)\n      revert(0x00, returndatasize)\n    tag_133:\n      pop\n        /* \"CoinToss/CoinToss2.sol\":3816:4057  if (indianChoice == 1) { // 1 ^ 0 = 1, Indian wins... */\n    tag_131:\n        /* \"CoinToss/CoinToss2.sol\":3573:4287  if (indianChoice ^ englandChoice == 1) {... */\n      jump(tag_134)\n    tag_127:\n        /* \"CoinToss/CoinToss2.sol\":4163:4176  indianCaptain */\n      0x00\n      0x00\n      swap1\n      sload\n      swap1\n      0x0100\n      exp\n      swap1\n      div\n      0xffffffffffffffffffffffffffffffffffffffff\n      and\n        /* \"CoinToss/CoinToss2.sol\":4155:4186  payable(indianCaptain).transfer */\n      0xffffffffffffffffffffffffffffffffffffffff\n      and\n        /* \"CoinToss/CoinToss2.sol\":4155:4203  payable(indianCaptain).transfer(REQUIRED_AMOUNT) */\n      0x08fc\n        /* \"CoinToss/CoinToss2.sol\":247:258  0.002 ether */\n      0x071afd498d0000\n        /* \"CoinToss/CoinToss2.sol\":4155:4203  payable(indianCaptain).transfer(REQUIRED_AMOUNT) */\n      swap1\n      dup2\n      iszero\n      mul\n      swap1\n      mload(0x40)\n      0x00\n      mload(0x40)\n      dup1\n      dup4\n      sub\n      dup2\n      dup6\n      dup9\n      dup9\n      call\n      swap4\n      pop\n      pop\n      pop\n      pop\n      iszero\n      dup1\n      iszero\n      tag_136\n      jumpi\n      returndatacopy(0x00, 0x00, returndatasize)\n      revert(0x00, returndatasize)\n    tag_136:\n      pop\n        /* \"CoinToss/CoinToss2.sol\":4230:4244  englandCaptain */\n      0x01\n      0x00\n      swap1\n      sload\n      swap1\n      0x0100\n      exp\n      swap1\n      div\n      0xffffffffffffffffffffffffffffffffffffffff\n      and\n        /* \"CoinToss/CoinToss2.sol\":4222:4254  payable(englandCaptain).transfer */\n      0xffffffffffffffffffffffffffffffffffffffff\n      and\n        /* \"CoinToss/CoinToss2.sol\":4222:4271  payable(englandCaptain).transfer(REQUIRED_AMOUNT) */\n      0x08fc\n        /* \"CoinToss/CoinToss2.sol\":247:258  0.002 ether */\n      0x071afd498d0000\n        /* \"CoinToss/CoinToss2.sol\":4222:4271  payable(englandCaptain).transfer(REQUIRED_AMOUNT) */\n      swap1\n      dup2\n      iszero\n      mul\n      swap1\n      mload(0x40)\n      0x00\n      mload(0x40)\n      dup1\n      dup4\n      sub\n      dup2\n      dup6\n      dup9\n      dup9\n      call\n      swap4\n      pop\n      pop\n      pop\n      pop\n      iszero\n      dup1\n      iszero\n      tag_138\n      jumpi\n      returndatacopy(0x00, 0x00, returndatasize)\n      revert(0x00, returndatasize)\n    tag_138:\n      pop\n        /* \"CoinToss/CoinToss2.sol\":3573:4287  if (indianChoice ^ englandChoice == 1) {... */\n    tag_134:\n        /* \"CoinToss/CoinToss2.sol\":3519:4541  if (indianRevealed && englandRevealed) {... */\n      jump(tag_139)\n    tag_126:\n        /* \"CoinToss/CoinToss2.sol\":4308:4322  indianRevealed */\n      0x05\n      0x02\n      swap1\n      sload\n      swap1\n      0x0100\n      exp\n      swap1\n      div\n      0xff\n      and\n        /* \"CoinToss/CoinToss2.sol\":4304:4541  if (indianRevealed) {... */\n      iszero\n      tag_140\n      jumpi\n        /* \"CoinToss/CoinToss2.sol\":4347:4360  indianCaptain */\n      0x00\n      0x00\n      swap1\n      sload\n      swap1\n      0x0100\n      exp\n      swap1\n      div\n      0xffffffffffffffffffffffffffffffffffffffff\n      and\n        /* \"CoinToss/CoinToss2.sol\":4339:4370  payable(indianCaptain).transfer */\n      0xffffffffffffffffffffffffffffffffffffffff\n      and\n        /* \"CoinToss/CoinToss2.sol\":4339:4375  payable(indianCaptain).transfer(pot) */\n      0x08fc\n        /* \"CoinToss/CoinToss2.sol\":4371:4374  pot */\n      dup3\n        /* \"CoinToss/CoinToss2.sol\":4339:4375  payable(indianCaptain).transfer(pot) */\n      swap1\n      dup2\n      iszero\n      mul\n      swap1\n      mload(0x40)\n      0x00\n      mload(0x40)\n      dup1\n      dup4\n      sub\n      dup2\n      dup6\n      dup9\n      dup9\n      call\n      swap4\n      pop\n      pop\n      pop\n      pop\n      iszero\n      dup1\n      iszero\n      tag_142\n      jumpi\n      returndatacopy(0x00, 0x00, returndatasize)\n      revert(0x00, returndatasize)\n    tag_142:\n      pop\n        /* \"CoinToss/CoinToss2.sol\":4304:4541  if (indianRevealed) {... */\n      jump(tag_143)\n    tag_140:\n        /* \"CoinToss/CoinToss2.sol\":4397:4412  englandRevealed */\n      0x05\n      0x03\n      swap1\n      sload\n      swap1\n      0x0100\n      exp\n      swap1\n      div\n      0xff\n      and\n        /* \"CoinToss/CoinToss2.sol\":4393:4541  if (englandRevealed) {... */\n      iszero\n      tag_144\n      jumpi\n        /* \"CoinToss/CoinToss2.sol\":4437:4451  englandCaptain */\n      0x01\n      0x00\n      swap1\n      sload\n      swap1\n      0x0100\n      exp\n      swap1\n      div\n      0xffffffffffffffffffffffffffffffffffffffff\n      and\n        /* \"CoinToss/CoinToss2.sol\":4429:4461  payable(englandCaptain).transfer */\n      0xffffffffffffffffffffffffffffffffffffffff\n      and\n        /* \"CoinToss/CoinToss2.sol\":4429:4466  payable(englandCaptain).transfer(pot) */\n      0x08fc\n        /* \"CoinToss/CoinToss2.sol\":4462:4465  pot */\n      dup3\n        /* \"CoinToss/CoinToss2.sol\":4429:4466  payable(englandCaptain).transfer(pot) */\n      swap1\n      dup2\n      iszero\n      mul\n      swap1\n      mload(0x40)\n      0x00\n      mload(0x40)\n      dup1\n      dup4\n      sub\n      dup2\n      dup6\n      dup9\n      dup9\n      call\n      swap4\n      pop\n      pop\n      pop\n      pop\n      iszero\n      dup1\n      iszero\n      tag_146\n      jumpi\n      returndatacopy(0x00, 0x00, returndatasize)\n      revert(0x00, returndatasize)\n    tag_146:\n      pop\n        /* \"CoinToss/CoinToss2.sol\":4393:4541  if (englandRevealed) {... */\n      jump(tag_147)\n    tag_144:\n        /* \"CoinToss/CoinToss2.sol\":4507:4514  referee */\n      immutable(\"0x2a80e1ef1d7842f27f2e6be0972bb708b9a135c38860dbe73c27c3486c34f4de\")\n        /* \"CoinToss/CoinToss2.sol\":4499:4524  payable(referee).transfer */\n      0xffffffffffffffffffffffffffffffffffffffff\n      and\n        /* \"CoinToss/CoinToss2.sol\":4499:4529  payable(referee).transfer(pot) */\n      0x08fc\n        /* \"CoinToss/CoinToss2.sol\":4525:4528  pot */\n      dup3\n        /* \"CoinToss/CoinToss2.sol\":4499:4529  payable(referee).transfer(pot) */\n      swap1\n      dup2\n      iszero\n      mul\n      swap1\n      mload(0x40)\n      0x00\n      mload(0x40)\n      dup1\n      dup4\n      sub\n      dup2\n      dup6\n      dup9\n      dup9\n      call\n      swap4\n      pop\n      pop\n      pop\n      pop\n      iszero\n      dup1\n      iszero\n      tag_149\n      jumpi\n      returndatacopy(0x00, 0x00, returndatasize)\n      revert(0x00, returndatasize)\n    tag_149:\n      pop\n        /* \"CoinToss/CoinToss2.sol\":4393:4541  if (englandRevealed) {... */\n    tag_147:\n        /* \"CoinToss/CoinToss2.sol\":4304:4541  if (indianRevealed) {... */\n    tag_143:\n        /* \"CoinToss/CoinToss2.sol\":3519:4541  if (indianRevealed && englandRevealed) {... */\n    tag_139:\n        /* \"CoinToss/CoinToss2.sol\":3286:4548  {... */\n      pop\n        /* \"CoinToss/CoinToss2.sol\":3259:4548  function settle() external {... */\n      jump\t// out\n        /* \"CoinToss/CoinToss2.sol\":351:377  bytes32 public englandHash */\n    tag_47:\n      sload(0x04)\n      dup2\n      jump\t// out\n        /* \"CoinToss/CoinToss2.sol\":134:162  address public indianCaptain */\n    tag_52:\n      0x00\n      0x00\n      swap1\n      sload\n      swap1\n      0x0100\n      exp\n      swap1\n      div\n      0xffffffffffffffffffffffffffffffffffffffff\n      and\n      dup2\n      jump\t// out\n        /* \"CoinToss/CoinToss2.sol\":95:127  address public immutable referee */\n    tag_57:\n      immutable(\"0x2a80e1ef1d7842f27f2e6be0972bb708b9a135c38860dbe73c27c3486c34f4de\")\n      dup2\n      jump\t// out\n        /* \"CoinToss/CoinToss2.sol\":319:344  bytes32 public indianHash */\n    tag_61:\n      sload(0x03)\n      dup2\n      jump\t// out\n        /* \"CoinToss/CoinToss2.sol\":1387:1551  function bothPaid() public view returns (bool) {... */\n    tag_65:\n        /* \"CoinToss/CoinToss2.sol\":1428:1432  bool */\n      0x00\n        /* \"CoinToss/CoinToss2.sol\":247:258  0.002 ether */\n      0x071afd498d0000\n        /* \"CoinToss/CoinToss2.sol\":1453:1461  payments */\n      0x02\n        /* \"CoinToss/CoinToss2.sol\":1453:1476  payments[indianCaptain] */\n      0x00\n        /* \"CoinToss/CoinToss2.sol\":1462:1475  indianCaptain */\n      0x00\n      0x00\n      swap1\n      sload\n      swap1\n      0x0100\n      exp\n      swap1\n      div\n      0xffffffffffffffffffffffffffffffffffffffff\n      and\n        /* \"CoinToss/CoinToss2.sol\":1453:1476  payments[indianCaptain] */\n      0xffffffffffffffffffffffffffffffffffffffff\n      and\n      0xffffffffffffffffffffffffffffffffffffffff\n      and\n      dup2\n      mstore\n      0x20\n      add\n      swap1\n      dup2\n      mstore\n      0x20\n      add\n      0x00\n      keccak256\n      sload\n        /* \"CoinToss/CoinToss2.sol\":1453:1495  payments[indianCaptain] == REQUIRED_AMOUNT */\n      eq\n        /* \"CoinToss/CoinToss2.sol\":1453:1542  payments[indianCaptain] == REQUIRED_AMOUNT && payments[englandCaptain] == REQUIRED_AMOUNT */\n      dup1\n      iszero\n      tag_151\n      jumpi\n      pop\n        /* \"CoinToss/CoinToss2.sol\":247:258  0.002 ether */\n      0x071afd498d0000\n        /* \"CoinToss/CoinToss2.sol\":1499:1507  payments */\n      0x02\n        /* \"CoinToss/CoinToss2.sol\":1499:1523  payments[englandCaptain] */\n      0x00\n        /* \"CoinToss/CoinToss2.sol\":1508:1522  englandCaptain */\n      0x01\n      0x00\n      swap1\n      sload\n      swap1\n      0x0100\n      exp\n      swap1\n      div\n      0xffffffffffffffffffffffffffffffffffffffff\n      and\n        /* \"CoinToss/CoinToss2.sol\":1499:1523  payments[englandCaptain] */\n      0xffffffffffffffffffffffffffffffffffffffff\n      and\n      0xffffffffffffffffffffffffffffffffffffffff\n      and\n      dup2\n      mstore\n      0x20\n      add\n      swap1\n      dup2\n      mstore\n      0x20\n      add\n      0x00\n      keccak256\n      sload\n        /* \"CoinToss/CoinToss2.sol\":1499:1542  payments[englandCaptain] == REQUIRED_AMOUNT */\n      eq\n        /* \"CoinToss/CoinToss2.sol\":1453:1542  payments[indianCaptain] == REQUIRED_AMOUNT && payments[englandCaptain] == REQUIRED_AMOUNT */\n    tag_151:\n        /* \"CoinToss/CoinToss2.sol\":1445:1543  return (payments[indianCaptain] == REQUIRED_AMOUNT && payments[englandCaptain] == REQUIRED_AMOUNT) */\n      swap1\n      pop\n        /* \"CoinToss/CoinToss2.sol\":1387:1551  function bothPaid() public view returns (bool) {... */\n      swap1\n      jump\t// out\n        /* \"CoinToss/CoinToss2.sol\":518:543  uint256 public commitTime */\n    tag_69:\n      sload(0x06)\n      dup2\n      jump\t// out\n        /* \"CoinToss/CoinToss2.sol\":1559:2175  function commit(uint8 _choice, string memory _secret) external onlyCaptains {... */\n    tag_76:\n        /* \"CoinToss/CoinToss2.sol\":645:658  indianCaptain */\n      0x00\n      0x00\n      swap1\n      sload\n      swap1\n      0x0100\n      exp\n      swap1\n      div\n      0xffffffffffffffffffffffffffffffffffffffff\n      and\n        /* \"CoinToss/CoinToss2.sol\":631:658  msg.sender == indianCaptain */\n      0xffffffffffffffffffffffffffffffffffffffff\n      and\n        /* \"CoinToss/CoinToss2.sol\":631:641  msg.sender */\n      caller\n        /* \"CoinToss/CoinToss2.sol\":631:658  msg.sender == indianCaptain */\n      0xffffffffffffffffffffffffffffffffffffffff\n      and\n      eq\n        /* \"CoinToss/CoinToss2.sol\":631:690  msg.sender == indianCaptain || msg.sender == englandCaptain */\n      dup1\n      tag_153\n      jumpi\n      pop\n        /* \"CoinToss/CoinToss2.sol\":676:690  englandCaptain */\n      0x01\n      0x00\n      swap1\n      sload\n      swap1\n      0x0100\n      exp\n      swap1\n      div\n      0xffffffffffffffffffffffffffffffffffffffff\n      and\n        /* \"CoinToss/CoinToss2.sol\":662:690  msg.sender == englandCaptain */\n      0xffffffffffffffffffffffffffffffffffffffff\n      and\n        /* \"CoinToss/CoinToss2.sol\":662:672  msg.sender */\n      caller\n        /* \"CoinToss/CoinToss2.sol\":662:690  msg.sender == englandCaptain */\n      0xffffffffffffffffffffffffffffffffffffffff\n      and\n      eq\n        /* \"CoinToss/CoinToss2.sol\":631:690  msg.sender == indianCaptain || msg.sender == englandCaptain */\n    tag_153:\n        /* \"CoinToss/CoinToss2.sol\":623:731  require(msg.sender == indianCaptain || msg.sender == englandCaptain, \"Only captains can call this function\") */\n      tag_154\n      jumpi\n      mload(0x40)\n      0x08c379a000000000000000000000000000000000000000000000000000000000\n      dup2\n      mstore\n      0x04\n      add\n      tag_155\n      swap1\n      tag_29\n      jump\t// in\n    tag_155:\n      mload(0x40)\n      dup1\n      swap2\n      sub\n      swap1\n      revert\n    tag_154:\n        /* \"CoinToss/CoinToss2.sol\":1654:1664  bothPaid() */\n      tag_157\n        /* \"CoinToss/CoinToss2.sol\":1654:1662  bothPaid */\n      tag_65\n        /* \"CoinToss/CoinToss2.sol\":1654:1664  bothPaid() */\n      jump\t// in\n    tag_157:\n        /* \"CoinToss/CoinToss2.sol\":1646:1697  require(bothPaid(), \"Both captains must pay first\") */\n      tag_158\n      jumpi\n      mload(0x40)\n      0x08c379a000000000000000000000000000000000000000000000000000000000\n      dup2\n      mstore\n      0x04\n      add\n      tag_159\n      swap1\n      tag_160\n      jump\t// in\n    tag_159:\n      mload(0x40)\n      dup1\n      swap2\n      sub\n      swap1\n      revert\n    tag_158:\n        /* \"CoinToss/CoinToss2.sol\":1727:1728  0 */\n      0x00\n        /* \"CoinToss/CoinToss2.sol\":1716:1723  _choice */\n      dup3\n        /* \"CoinToss/CoinToss2.sol\":1716:1728  _choice == 0 */\n      0xff\n      and\n      eq\n        /* \"CoinToss/CoinToss2.sol\":1716:1744  _choice == 0 || _choice == 1 */\n      dup1\n      tag_161\n      jumpi\n      pop\n        /* \"CoinToss/CoinToss2.sol\":1743:1744  1 */\n      0x01\n        /* \"CoinToss/CoinToss2.sol\":1732:1739  _choice */\n      dup3\n        /* \"CoinToss/CoinToss2.sol\":1732:1744  _choice == 1 */\n      0xff\n      and\n      eq\n        /* \"CoinToss/CoinToss2.sol\":1716:1744  _choice == 0 || _choice == 1 */\n    tag_161:\n        /* \"CoinToss/CoinToss2.sol\":1708:1770  require(_choice == 0 || _choice == 1, \"Choice must be 0 or 1\") */\n      tag_162\n      jumpi\n      mload(0x40)\n      0x08c379a000000000000000000000000000000000000000000000000000000000\n      dup2\n      mstore\n      0x04\n      add\n      tag_163\n      swap1\n      tag_164\n      jump\t// in\n    tag_163:\n      mload(0x40)\n      dup1\n      swap2\n      sub\n      swap1\n      revert\n    tag_162:\n        /* \"CoinToss/CoinToss2.sol\":1783:1795  bytes32 hash */\n      0x00\n        /* \"CoinToss/CoinToss2.sol\":1825:1832  _choice */\n      dup3\n        /* \"CoinToss/CoinToss2.sol\":1834:1841  _secret */\n      dup3\n        /* \"CoinToss/CoinToss2.sol\":1808:1842  abi.encodePacked(_choice, _secret) */\n      add(0x20, mload(0x40))\n      tag_165\n      swap3\n      swap2\n      swap1\n      tag_166\n      jump\t// in\n    tag_165:\n      mload(0x40)\n      0x20\n      dup2\n      dup4\n      sub\n      sub\n      dup2\n      mstore\n      swap1\n      0x40\n      mstore\n        /* \"CoinToss/CoinToss2.sol\":1798:1843  keccak256(abi.encodePacked(_choice, _secret)) */\n      dup1\n      mload\n      swap1\n      0x20\n      add\n      keccak256\n        /* \"CoinToss/CoinToss2.sol\":1783:1843  bytes32 hash = keccak256(abi.encodePacked(_choice, _secret)) */\n      swap1\n      pop\n        /* \"CoinToss/CoinToss2.sol\":1874:1887  indianCaptain */\n      0x00\n      0x00\n      swap1\n      sload\n      swap1\n      0x0100\n      exp\n      swap1\n      div\n      0xffffffffffffffffffffffffffffffffffffffff\n      and\n        /* \"CoinToss/CoinToss2.sol\":1860:1887  msg.sender == indianCaptain */\n      0xffffffffffffffffffffffffffffffffffffffff\n      and\n        /* \"CoinToss/CoinToss2.sol\":1860:1870  msg.sender */\n      caller\n        /* \"CoinToss/CoinToss2.sol\":1860:1887  msg.sender == indianCaptain */\n      0xffffffffffffffffffffffffffffffffffffffff\n      and\n      sub\n        /* \"CoinToss/CoinToss2.sol\":1856:2136  if (msg.sender == indianCaptain) {... */\n      tag_167\n      jumpi\n        /* \"CoinToss/CoinToss2.sol\":1926:1927  0 */\n      0x00\n        /* \"CoinToss/CoinToss2.sol\":1912:1927  indianHash == 0 */\n      0x00\n      shl\n        /* \"CoinToss/CoinToss2.sol\":1912:1922  indianHash */\n      sload(0x03)\n        /* \"CoinToss/CoinToss2.sol\":1912:1927  indianHash == 0 */\n      eq\n        /* \"CoinToss/CoinToss2.sol\":1904:1964  require(indianHash == 0, \"Indian captain already committed\") */\n      tag_168\n      jumpi\n      mload(0x40)\n      0x08c379a000000000000000000000000000000000000000000000000000000000\n      dup2\n      mstore\n      0x04\n      add\n      tag_169\n      swap1\n      tag_170\n      jump\t// in\n    tag_169:\n      mload(0x40)\n      dup1\n      swap2\n      sub\n      swap1\n      revert\n    tag_168:\n        /* \"CoinToss/CoinToss2.sol\":1992:1996  hash */\n      dup1\n        /* \"CoinToss/CoinToss2.sol\":1979:1989  indianHash */\n      0x03\n        /* \"CoinToss/CoinToss2.sol\":1979:1996  indianHash = hash */\n      dup2\n      swap1\n      sstore\n      pop\n        /* \"CoinToss/CoinToss2.sol\":1856:2136  if (msg.sender == indianCaptain) {... */\n      jump(tag_171)\n    tag_167:\n        /* \"CoinToss/CoinToss2.sol\":2052:2053  0 */\n      0x00\n        /* \"CoinToss/CoinToss2.sol\":2037:2053  englandHash == 0 */\n      0x00\n      shl\n        /* \"CoinToss/CoinToss2.sol\":2037:2048  englandHash */\n      sload(0x04)\n        /* \"CoinToss/CoinToss2.sol\":2037:2053  englandHash == 0 */\n      eq\n        /* \"CoinToss/CoinToss2.sol\":2029:2091  require(englandHash == 0, \"England captain already committed\") */\n      tag_172\n      jumpi\n      mload(0x40)\n      0x08c379a000000000000000000000000000000000000000000000000000000000\n      dup2\n      mstore\n      0x04\n      add\n      tag_173\n      swap1\n      tag_174\n      jump\t// in\n    tag_173:\n      mload(0x40)\n      dup1\n      swap2\n      sub\n      swap1\n      revert\n    tag_172:\n        /* \"CoinToss/CoinToss2.sol\":2120:2124  hash */\n      dup1\n        /* \"CoinToss/CoinToss2.sol\":2106:2117  englandHash */\n      0x04\n        /* \"CoinToss/CoinToss2.sol\":2106:2124  englandHash = hash */\n      dup2\n      swap1\n      sstore\n      pop\n        /* \"CoinToss/CoinToss2.sol\":1856:2136  if (msg.sender == indianCaptain) {... */\n    tag_171:\n        /* \"CoinToss/CoinToss2.sol\":2146:2167  _checkStartDeadline() */\n      tag_175\n        /* \"CoinToss/CoinToss2.sol\":2146:2165  _checkStartDeadline */\n      tag_176\n        /* \"CoinToss/CoinToss2.sol\":2146:2167  _checkStartDeadline() */\n      jump\t// in\n    tag_175:\n        /* \"CoinToss/CoinToss2.sol\":1635:2175  {... */\n      pop\n        /* \"CoinToss/CoinToss2.sol\":1559:2175  function commit(uint8 _choice, string memory _secret) external onlyCaptains {... */\n      pop\n      pop\n      jump\t// out\n        /* \"CoinToss/CoinToss2.sol\":384:409  uint8 public indianChoice */\n    tag_79:\n      0x05\n      0x00\n      swap1\n      sload\n      swap1\n      0x0100\n      exp\n      swap1\n      div\n      0xff\n      and\n      dup2\n      jump\t// out\n        /* \"CoinToss/CoinToss2.sol\":205:258  uint256 public constant REQUIRED_AMOUNT = 0.002 ether */\n    tag_84:\n        /* \"CoinToss/CoinToss2.sol\":247:258  0.002 ether */\n      0x071afd498d0000\n        /* \"CoinToss/CoinToss2.sol\":205:258  uint256 public constant REQUIRED_AMOUNT = 0.002 ether */\n      dup2\n      jump\t// out\n        /* \"CoinToss/CoinToss2.sol\":169:198  address public englandCaptain */\n    tag_88:\n      0x01\n      0x00\n      swap1\n      sload\n      swap1\n      0x0100\n      exp\n      swap1\n      div\n      0xffffffffffffffffffffffffffffffffffffffff\n      and\n      dup2\n      jump\t// out\n        /* \"CoinToss/CoinToss2.sol\":820:1140  function setCaptains(address _indian, address _england) external {... */\n    tag_94:\n        /* \"CoinToss/CoinToss2.sol\":918:925  referee */\n      immutable(\"0x2a80e1ef1d7842f27f2e6be0972bb708b9a135c38860dbe73c27c3486c34f4de\")\n        /* \"CoinToss/CoinToss2.sol\":904:925  msg.sender == referee */\n      0xffffffffffffffffffffffffffffffffffffffff\n      and\n        /* \"CoinToss/CoinToss2.sol\":904:914  msg.sender */\n      caller\n        /* \"CoinToss/CoinToss2.sol\":904:925  msg.sender == referee */\n      0xffffffffffffffffffffffffffffffffffffffff\n      and\n      eq\n        /* \"CoinToss/CoinToss2.sol\":896:959  require(msg.sender == referee, \"Only referee can set captains\") */\n      tag_178\n      jumpi\n      mload(0x40)\n      0x08c379a000000000000000000000000000000000000000000000000000000000\n      dup2\n      mstore\n      0x04\n      add\n      tag_179\n      swap1\n      tag_180\n      jump\t// in\n    tag_179:\n      mload(0x40)\n      dup1\n      swap2\n      sub\n      swap1\n      revert\n    tag_178:\n        /* \"CoinToss/CoinToss2.sol\":1003:1004  0 */\n      0x00\n        /* \"CoinToss/CoinToss2.sol\":978:1005  indianCaptain == address(0) */\n      0xffffffffffffffffffffffffffffffffffffffff\n      and\n        /* \"CoinToss/CoinToss2.sol\":978:991  indianCaptain */\n      0x00\n      0x00\n      swap1\n      sload\n      swap1\n      0x0100\n      exp\n      swap1\n      div\n      0xffffffffffffffffffffffffffffffffffffffff\n      and\n        /* \"CoinToss/CoinToss2.sol\":978:1005  indianCaptain == address(0) */\n      0xffffffffffffffffffffffffffffffffffffffff\n      and\n      eq\n        /* \"CoinToss/CoinToss2.sol\":978:1037  indianCaptain == address(0) && englandCaptain == address(0) */\n      dup1\n      iszero\n      tag_181\n      jumpi\n      pop\n        /* \"CoinToss/CoinToss2.sol\":1035:1036  0 */\n      0x00\n        /* \"CoinToss/CoinToss2.sol\":1009:1037  englandCaptain == address(0) */\n      0xffffffffffffffffffffffffffffffffffffffff\n      and\n        /* \"CoinToss/CoinToss2.sol\":1009:1023  englandCaptain */\n      0x01\n      0x00\n      swap1\n      sload\n      swap1\n      0x0100\n      exp\n      swap1\n      div\n      0xffffffffffffffffffffffffffffffffffffffff\n      and\n        /* \"CoinToss/CoinToss2.sol\":1009:1037  englandCaptain == address(0) */\n      0xffffffffffffffffffffffffffffffffffffffff\n      and\n      eq\n        /* \"CoinToss/CoinToss2.sol\":978:1037  indianCaptain == address(0) && englandCaptain == address(0) */\n    tag_181:\n        /* \"CoinToss/CoinToss2.sol\":970:1062  require(indianCaptain == address(0) && englandCaptain == address(0), \"Captains already set\") */\n      tag_182\n      jumpi\n      mload(0x40)\n      0x08c379a000000000000000000000000000000000000000000000000000000000\n      dup2\n      mstore\n      0x04\n      add\n      tag_183\n      swap1\n      tag_184\n      jump\t// in\n    tag_183:\n      mload(0x40)\n      dup1\n      swap2\n      sub\n      swap1\n      revert\n    tag_182:\n        /* \"CoinToss/CoinToss2.sol\":1089:1096  _indian */\n      dup2\n        /* \"CoinToss/CoinToss2.sol\":1073:1086  indianCaptain */\n      0x00\n      0x00\n        /* \"CoinToss/CoinToss2.sol\":1073:1096  indianCaptain = _indian */\n      0x0100\n      exp\n      dup2\n      sload\n      dup2\n      0xffffffffffffffffffffffffffffffffffffffff\n      mul\n      not\n      and\n      swap1\n      dup4\n      0xffffffffffffffffffffffffffffffffffffffff\n      and\n      mul\n      or\n      swap1\n      sstore\n      pop\n        /* \"CoinToss/CoinToss2.sol\":1124:1132  _england */\n      dup1\n        /* \"CoinToss/CoinToss2.sol\":1107:1121  englandCaptain */\n      0x01\n      0x00\n        /* \"CoinToss/CoinToss2.sol\":1107:1132  englandCaptain = _england */\n      0x0100\n      exp\n      dup2\n      sload\n      dup2\n      0xffffffffffffffffffffffffffffffffffffffff\n      mul\n      not\n      and\n      swap1\n      dup4\n      0xffffffffffffffffffffffffffffffffffffffff\n      and\n      mul\n      or\n      swap1\n      sstore\n      pop\n        /* \"CoinToss/CoinToss2.sol\":820:1140  function setCaptains(address _indian, address _england) external {... */\n      pop\n      pop\n      jump\t// out\n        /* \"CoinToss/CoinToss2.sol\":416:442  uint8 public englandChoice */\n    tag_97:\n      0x05\n      0x01\n      swap1\n      sload\n      swap1\n      0x0100\n      exp\n      swap1\n      div\n      0xff\n      and\n      dup2\n      jump\t// out\n        /* \"CoinToss/CoinToss2.sol\":550:579  uint256 public revealDeadline */\n    tag_101:\n      sload(0x07)\n      dup2\n      jump\t// out\n        /* \"CoinToss/CoinToss2.sol\":449:475  bool public indianRevealed */\n    tag_105:\n      0x05\n      0x02\n      swap1\n      sload\n      swap1\n      0x0100\n      exp\n      swap1\n      div\n      0xff\n      and\n      dup2\n      jump\t// out\n        /* \"CoinToss/CoinToss2.sol\":2183:3011  function reveal(uint8 _choice, string memory _secret) external onlyCaptains {... */\n    tag_110:\n        /* \"CoinToss/CoinToss2.sol\":645:658  indianCaptain */\n      0x00\n      0x00\n      swap1\n      sload\n      swap1\n      0x0100\n      exp\n      swap1\n      div\n      0xffffffffffffffffffffffffffffffffffffffff\n      and\n        /* \"CoinToss/CoinToss2.sol\":631:658  msg.sender == indianCaptain */\n      0xffffffffffffffffffffffffffffffffffffffff\n      and\n        /* \"CoinToss/CoinToss2.sol\":631:641  msg.sender */\n      caller\n        /* \"CoinToss/CoinToss2.sol\":631:658  msg.sender == indianCaptain */\n      0xffffffffffffffffffffffffffffffffffffffff\n      and\n      eq\n        /* \"CoinToss/CoinToss2.sol\":631:690  msg.sender == indianCaptain || msg.sender == englandCaptain */\n      dup1\n      tag_186\n      jumpi\n      pop\n        /* \"CoinToss/CoinToss2.sol\":676:690  englandCaptain */\n      0x01\n      0x00\n      swap1\n      sload\n      swap1\n      0x0100\n      exp\n      swap1\n      div\n      0xffffffffffffffffffffffffffffffffffffffff\n      and\n        /* \"CoinToss/CoinToss2.sol\":662:690  msg.sender == englandCaptain */\n      0xffffffffffffffffffffffffffffffffffffffff\n      and\n        /* \"CoinToss/CoinToss2.sol\":662:672  msg.sender */\n      caller\n        /* \"CoinToss/CoinToss2.sol\":662:690  msg.sender == englandCaptain */\n      0xffffffffffffffffffffffffffffffffffffffff\n      and\n      eq\n        /* \"CoinToss/CoinToss2.sol\":631:690  msg.sender == indianCaptain || msg.sender == englandCaptain */\n    tag_186:\n        /* \"CoinToss/CoinToss2.sol\":623:731  require(msg.sender == indianCaptain || msg.sender == englandCaptain, \"Only captains can call this function\") */\n      tag_187\n      jumpi\n      mload(0x40)\n      0x08c379a000000000000000000000000000000000000000000000000000000000\n      dup2\n      mstore\n      0x04\n      add\n      tag_188\n      swap1\n      tag_29\n      jump\t// in\n    tag_188:\n      mload(0x40)\n      dup1\n      swap2\n      sub\n      swap1\n      revert\n    tag_187:\n        /* \"CoinToss/CoinToss2.sol\":2297:2311  revealDeadline */\n      sload(0x07)\n        /* \"CoinToss/CoinToss2.sol\":2278:2293  block.timestamp */\n      timestamp\n        /* \"CoinToss/CoinToss2.sol\":2278:2311  block.timestamp <= revealDeadline */\n      gt\n      iszero\n        /* \"CoinToss/CoinToss2.sol\":2270:2335  require(block.timestamp <= revealDeadline, \"Reveal period ended\") */\n      tag_190\n      jumpi\n      mload(0x40)\n      0x08c379a000000000000000000000000000000000000000000000000000000000\n      dup2\n      mstore\n      0x04\n      add\n      tag_191\n      swap1\n      tag_192\n      jump\t// in\n    tag_191:\n      mload(0x40)\n      dup1\n      swap2\n      sub\n      swap1\n      revert\n    tag_190:\n        /* \"CoinToss/CoinToss2.sol\":2365:2366  0 */\n      0x00\n        /* \"CoinToss/CoinToss2.sol\":2354:2361  _choice */\n      dup3\n        /* \"CoinToss/CoinToss2.sol\":2354:2366  _choice == 0 */\n      0xff\n      and\n      eq\n        /* \"CoinToss/CoinToss2.sol\":2354:2382  _choice == 0 || _choice == 1 */\n      dup1\n      tag_193\n      jumpi\n      pop\n        /* \"CoinToss/CoinToss2.sol\":2381:2382  1 */\n      0x01\n        /* \"CoinToss/CoinToss2.sol\":2370:2377  _choice */\n      dup3\n        /* \"CoinToss/CoinToss2.sol\":2370:2382  _choice == 1 */\n      0xff\n      and\n      eq\n        /* \"CoinToss/CoinToss2.sol\":2354:2382  _choice == 0 || _choice == 1 */\n    tag_193:\n        /* \"CoinToss/CoinToss2.sol\":2346:2408  require(_choice == 0 || _choice == 1, \"Choice must be 0 or 1\") */\n      tag_194\n      jumpi\n      mload(0x40)\n      0x08c379a000000000000000000000000000000000000000000000000000000000\n      dup2\n      mstore\n      0x04\n      add\n      tag_195\n      swap1\n      tag_164\n      jump\t// in\n    tag_195:\n      mload(0x40)\n      dup1\n      swap2\n      sub\n      swap1\n      revert\n    tag_194:\n        /* \"CoinToss/CoinToss2.sol\":2421:2438  bytes32 hashValue */\n      0x00\n        /* \"CoinToss/CoinToss2.sol\":2468:2475  _choice */\n      dup3\n        /* \"CoinToss/CoinToss2.sol\":2477:2484  _secret */\n      dup3\n        /* \"CoinToss/CoinToss2.sol\":2451:2485  abi.encodePacked(_choice, _secret) */\n      add(0x20, mload(0x40))\n      tag_196\n      swap3\n      swap2\n      swap1\n      tag_166\n      jump\t// in\n    tag_196:\n      mload(0x40)\n      0x20\n      dup2\n      dup4\n      sub\n      sub\n      dup2\n      mstore\n      swap1\n      0x40\n      mstore\n        /* \"CoinToss/CoinToss2.sol\":2441:2486  keccak256(abi.encodePacked(_choice, _secret)) */\n      dup1\n      mload\n      swap1\n      0x20\n      add\n      keccak256\n        /* \"CoinToss/CoinToss2.sol\":2421:2486  bytes32 hashValue = keccak256(abi.encodePacked(_choice, _secret)) */\n      swap1\n      pop\n        /* \"CoinToss/CoinToss2.sol\":2517:2530  indianCaptain */\n      0x00\n      0x00\n      swap1\n      sload\n      swap1\n      0x0100\n      exp\n      swap1\n      div\n      0xffffffffffffffffffffffffffffffffffffffff\n      and\n        /* \"CoinToss/CoinToss2.sol\":2503:2530  msg.sender == indianCaptain */\n      0xffffffffffffffffffffffffffffffffffffffff\n      and\n        /* \"CoinToss/CoinToss2.sol\":2503:2513  msg.sender */\n      caller\n        /* \"CoinToss/CoinToss2.sol\":2503:2530  msg.sender == indianCaptain */\n      0xffffffffffffffffffffffffffffffffffffffff\n      and\n      sub\n        /* \"CoinToss/CoinToss2.sol\":2499:3004  if (msg.sender == indianCaptain) {... */\n      tag_197\n      jumpi\n        /* \"CoinToss/CoinToss2.sol\":2556:2570  indianRevealed */\n      0x05\n      0x02\n      swap1\n      sload\n      swap1\n      0x0100\n      exp\n      swap1\n      div\n      0xff\n      and\n        /* \"CoinToss/CoinToss2.sol\":2555:2570  !indianRevealed */\n      iszero\n        /* \"CoinToss/CoinToss2.sol\":2547:2606  require(!indianRevealed, \"Indian captain already revealed\") */\n      tag_198\n      jumpi\n      mload(0x40)\n      0x08c379a000000000000000000000000000000000000000000000000000000000\n      dup2\n      mstore\n      0x04\n      add\n      tag_199\n      swap1\n      tag_200\n      jump\t// in\n    tag_199:\n      mload(0x40)\n      dup1\n      swap2\n      sub\n      swap1\n      revert\n    tag_198:\n        /* \"CoinToss/CoinToss2.sol\":2642:2652  indianHash */\n      sload(0x03)\n        /* \"CoinToss/CoinToss2.sol\":2629:2638  hashValue */\n      dup2\n        /* \"CoinToss/CoinToss2.sol\":2629:2652  hashValue == indianHash */\n      eq\n        /* \"CoinToss/CoinToss2.sol\":2621:2677  require(hashValue == indianHash, \"Indian hash mismatch\") */\n      tag_201\n      jumpi\n      mload(0x40)\n      0x08c379a000000000000000000000000000000000000000000000000000000000\n      dup2\n      mstore\n      0x04\n      add\n      tag_202\n      swap1\n      tag_203\n      jump\t// in\n    tag_202:\n      mload(0x40)\n      dup1\n      swap2\n      sub\n      swap1\n      revert\n    tag_201:\n        /* \"CoinToss/CoinToss2.sol\":2707:2714  _choice */\n      dup3\n        /* \"CoinToss/CoinToss2.sol\":2692:2704  indianChoice */\n      0x05\n      0x00\n        /* \"CoinToss/CoinToss2.sol\":2692:2714  indianChoice = _choice */\n      0x0100\n      exp\n      dup2\n      sload\n      dup2\n      0xff\n      mul\n      not\n      and\n      swap1\n      dup4\n      0xff\n      and\n      mul\n      or\n      swap1\n      sstore\n      pop\n        /* \"CoinToss/CoinToss2.sol\":2746:2750  true */\n      0x01\n        /* \"CoinToss/CoinToss2.sol\":2729:2743  indianRevealed */\n      0x05\n      0x02\n        /* \"CoinToss/CoinToss2.sol\":2729:2750  indianRevealed = true */\n      0x0100\n      exp\n      dup2\n      sload\n      dup2\n      0xff\n      mul\n      not\n      and\n      swap1\n      dup4\n      iszero\n      iszero\n      mul\n      or\n      swap1\n      sstore\n      pop\n        /* \"CoinToss/CoinToss2.sol\":2499:3004  if (msg.sender == indianCaptain) {... */\n      jump(tag_204)\n    tag_197:\n        /* \"CoinToss/CoinToss2.sol\":2792:2807  englandRevealed */\n      0x05\n      0x03\n      swap1\n      sload\n      swap1\n      0x0100\n      exp\n      swap1\n      div\n      0xff\n      and\n        /* \"CoinToss/CoinToss2.sol\":2791:2807  !englandRevealed */\n      iszero\n        /* \"CoinToss/CoinToss2.sol\":2783:2844  require(!englandRevealed, \"England captain already revealed\") */\n      tag_205\n      jumpi\n      mload(0x40)\n      0x08c379a000000000000000000000000000000000000000000000000000000000\n      dup2\n      mstore\n      0x04\n      add\n      tag_206\n      swap1\n      tag_207\n      jump\t// in\n    tag_206:\n      mload(0x40)\n      dup1\n      swap2\n      sub\n      swap1\n      revert\n    tag_205:\n        /* \"CoinToss/CoinToss2.sol\":2880:2891  englandHash */\n      sload(0x04)\n        /* \"CoinToss/CoinToss2.sol\":2867:2876  hashValue */\n      dup2\n        /* \"CoinToss/CoinToss2.sol\":2867:2891  hashValue == englandHash */\n      eq\n        /* \"CoinToss/CoinToss2.sol\":2859:2917  require(hashValue == englandHash, \"England hash mismatch\") */\n      tag_208\n      jumpi\n      mload(0x40)\n      0x08c379a000000000000000000000000000000000000000000000000000000000\n      dup2\n      mstore\n      0x04\n      add\n      tag_209\n      swap1\n      tag_210\n      jump\t// in\n    tag_209:\n      mload(0x40)\n      dup1\n      swap2\n      sub\n      swap1\n      revert\n    tag_208:\n        /* \"CoinToss/CoinToss2.sol\":2948:2955  _choice */\n      dup3\n        /* \"CoinToss/CoinToss2.sol\":2932:2945  englandChoice */\n      0x05\n      0x01\n        /* \"CoinToss/CoinToss2.sol\":2932:2955  englandChoice = _choice */\n      0x0100\n      exp\n      dup2\n      sload\n      dup2\n      0xff\n      mul\n      not\n      and\n      swap1\n      dup4\n      0xff\n      and\n      mul\n      or\n      swap1\n      sstore\n      pop\n        /* \"CoinToss/CoinToss2.sol\":2988:2992  true */\n      0x01\n        /* \"CoinToss/CoinToss2.sol\":2970:2985  englandRevealed */\n      0x05\n      0x03\n        /* \"CoinToss/CoinToss2.sol\":2970:2992  englandRevealed = true */\n      0x0100\n      exp\n      dup2\n      sload\n      dup2\n      0xff\n      mul\n      not\n      and\n      swap1\n      dup4\n      iszero\n      iszero\n      mul\n      or\n      swap1\n      sstore\n      pop\n        /* \"CoinToss/CoinToss2.sol\":2499:3004  if (msg.sender == indianCaptain) {... */\n    tag_204:\n        /* \"CoinToss/CoinToss2.sol\":2259:3011  {... */\n      pop\n        /* \"CoinToss/CoinToss2.sol\":2183:3011  function reveal(uint8 _choice, string memory _secret) external onlyCaptains {... */\n      pop\n      pop\n      jump\t// out\n        /* \"CoinToss/CoinToss2.sol\":267:310  mapping(address => uint256) public payments */\n    tag_115:\n      mstore(0x20, 0x02)\n      dup1\n      0x00\n      mstore\n      keccak256(0x00, 0x40)\n      0x00\n      swap2\n      pop\n      swap1\n      pop\n      sload\n      dup2\n      jump\t// out\n        /* \"CoinToss/CoinToss2.sol\":3019:3251  function _checkStartDeadline() internal {... */\n    tag_176:\n        /* \"CoinToss/CoinToss2.sol\":3088:3089  0 */\n      0x00\n        /* \"CoinToss/CoinToss2.sol\":3074:3089  indianHash != 0 */\n      0x00\n      shl\n        /* \"CoinToss/CoinToss2.sol\":3074:3084  indianHash */\n      sload(0x03)\n        /* \"CoinToss/CoinToss2.sol\":3074:3089  indianHash != 0 */\n      eq\n      iszero\n        /* \"CoinToss/CoinToss2.sol\":3074:3109  indianHash != 0 && englandHash != 0 */\n      dup1\n      iszero\n      tag_212\n      jumpi\n      pop\n        /* \"CoinToss/CoinToss2.sol\":3108:3109  0 */\n      0x00\n        /* \"CoinToss/CoinToss2.sol\":3093:3109  englandHash != 0 */\n      0x00\n      shl\n        /* \"CoinToss/CoinToss2.sol\":3093:3104  englandHash */\n      sload(0x04)\n        /* \"CoinToss/CoinToss2.sol\":3093:3109  englandHash != 0 */\n      eq\n      iszero\n        /* \"CoinToss/CoinToss2.sol\":3074:3109  indianHash != 0 && englandHash != 0 */\n    tag_212:\n        /* \"CoinToss/CoinToss2.sol\":3074:3128  indianHash != 0 && englandHash != 0 && commitTime == 0 */\n      dup1\n      iszero\n      tag_213\n      jumpi\n      pop\n        /* \"CoinToss/CoinToss2.sol\":3127:3128  0 */\n      0x00\n        /* \"CoinToss/CoinToss2.sol\":3113:3123  commitTime */\n      sload(0x06)\n        /* \"CoinToss/CoinToss2.sol\":3113:3128  commitTime == 0 */\n      eq\n        /* \"CoinToss/CoinToss2.sol\":3074:3128  indianHash != 0 && englandHash != 0 && commitTime == 0 */\n    tag_213:\n        /* \"CoinToss/CoinToss2.sol\":3070:3244  if (indianHash != 0 && englandHash != 0 && commitTime == 0) {... */\n      iszero\n      tag_214\n      jumpi\n        /* \"CoinToss/CoinToss2.sol\":3158:3173  block.timestamp */\n      timestamp\n        /* \"CoinToss/CoinToss2.sol\":3145:3155  commitTime */\n      0x06\n        /* \"CoinToss/CoinToss2.sol\":3145:3173  commitTime = block.timestamp */\n      dup2\n      swap1\n      sstore\n      pop\n        /* \"CoinToss/CoinToss2.sol\":3223:3232  3 minutes */\n      0xb4\n        /* \"CoinToss/CoinToss2.sol\":3205:3220  block.timestamp */\n      timestamp\n        /* \"CoinToss/CoinToss2.sol\":3205:3232  block.timestamp + 3 minutes */\n      tag_215\n      swap2\n      swap1\n      tag_216\n      jump\t// in\n    tag_215:\n        /* \"CoinToss/CoinToss2.sol\":3188:3202  revealDeadline */\n      0x07\n        /* \"CoinToss/CoinToss2.sol\":3188:3232  revealDeadline = block.timestamp + 3 minutes */\n      dup2\n      swap1\n      sstore\n      pop\n        /* \"CoinToss/CoinToss2.sol\":3070:3244  if (indianHash != 0 && englandHash != 0 && commitTime == 0) {... */\n    tag_214:\n        /* \"CoinToss/CoinToss2.sol\":3019:3251  function _checkStartDeadline() internal {... */\n      jump\t// out\n        /* \"#utility.yul\":7:176   */\n    tag_217:\n        /* \"#utility.yul\":91:102   */\n      0x00\n        /* \"#utility.yul\":125:131   */\n      dup3\n        /* \"#utility.yul\":120:123   */\n      dup3\n        /* \"#utility.yul\":113:132   */\n      mstore\n        /* \"#utility.yul\":165:169   */\n      0x20\n        /* \"#utility.yul\":160:163   */\n      dup3\n        /* \"#utility.yul\":156:170   */\n      add\n        /* \"#utility.yul\":141:170   */\n      swap1\n      pop\n        /* \"#utility.yul\":7:176   */\n      swap3\n      swap2\n      pop\n      pop\n      jump\t// out\n        /* \"#utility.yul\":182:405   */\n    tag_218:\n        /* \"#utility.yul\":322:356   */\n      0x4f6e6c79206361707461696e732063616e2063616c6c20746869732066756e63\n        /* \"#utility.yul\":318:319   */\n      0x00\n        /* \"#utility.yul\":310:316   */\n      dup3\n        /* \"#utility.yul\":306:320   */\n      add\n        /* \"#utility.yul\":299:357   */\n      mstore\n        /* \"#utility.yul\":391:397   */\n      0x74696f6e00000000000000000000000000000000000000000000000000000000\n        /* \"#utility.yul\":386:388   */\n      0x20\n        /* \"#utility.yul\":378:384   */\n      dup3\n        /* \"#utility.yul\":374:389   */\n      add\n        /* \"#utility.yul\":367:398   */\n      mstore\n        /* \"#utility.yul\":182:405   */\n      pop\n      jump\t// out\n        /* \"#utility.yul\":411:777   */\n    tag_219:\n        /* \"#utility.yul\":553:556   */\n      0x00\n        /* \"#utility.yul\":574:641   */\n      tag_290\n        /* \"#utility.yul\":638:640   */\n      0x24\n        /* \"#utility.yul\":633:636   */\n      dup4\n        /* \"#utility.yul\":574:641   */\n      tag_217\n      jump\t// in\n    tag_290:\n        /* \"#utility.yul\":567:641   */\n      swap2\n      pop\n        /* \"#utility.yul\":650:743   */\n      tag_291\n        /* \"#utility.yul\":739:742   */\n      dup3\n        /* \"#utility.yul\":650:743   */\n      tag_218\n      jump\t// in\n    tag_291:\n        /* \"#utility.yul\":768:770   */\n      0x40\n        /* \"#utility.yul\":763:766   */\n      dup3\n        /* \"#utility.yul\":759:771   */\n      add\n        /* \"#utility.yul\":752:771   */\n      swap1\n      pop\n        /* \"#utility.yul\":411:777   */\n      swap2\n      swap1\n      pop\n      jump\t// out\n        /* \"#utility.yul\":783:1202   */\n    tag_29:\n        /* \"#utility.yul\":949:953   */\n      0x00\n        /* \"#utility.yul\":987:989   */\n      0x20\n        /* \"#utility.yul\":976:985   */\n      dup3\n        /* \"#utility.yul\":972:990   */\n      add\n        /* \"#utility.yul\":964:990   */\n      swap1\n      pop\n        /* \"#utility.yul\":1036:1045   */\n      dup2\n        /* \"#utility.yul\":1030:1034   */\n      dup2\n        /* \"#utility.yul\":1026:1046   */\n      sub\n        /* \"#utility.yul\":1022:1023   */\n      0x00\n        /* \"#utility.yul\":1011:1020   */\n      dup4\n        /* \"#utility.yul\":1007:1024   */\n      add\n        /* \"#utility.yul\":1000:1047   */\n      mstore\n        /* \"#utility.yul\":1064:1195   */\n      tag_293\n        /* \"#utility.yul\":1190:1194   */\n      dup2\n        /* \"#utility.yul\":1064:1195   */\n      tag_219\n      jump\t// in\n    tag_293:\n        /* \"#utility.yul\":1056:1195   */\n      swap1\n      pop\n        /* \"#utility.yul\":783:1202   */\n      swap2\n      swap1\n      pop\n      jump\t// out\n        /* \"#utility.yul\":1208:1385   */\n    tag_220:\n        /* \"#utility.yul\":1348:1377   */\n      0x4d7573742073656e642065786163746c7920302e303032204554480000000000\n        /* \"#utility.yul\":1344:1345   */\n      0x00\n        /* \"#utility.yul\":1336:1342   */\n      dup3\n        /* \"#utility.yul\":1332:1346   */\n      add\n        /* \"#utility.yul\":1325:1378   */\n      mstore\n        /* \"#utility.yul\":1208:1385   */\n      pop\n      jump\t// out\n        /* \"#utility.yul\":1391:1757   */\n    tag_221:\n        /* \"#utility.yul\":1533:1536   */\n      0x00\n        /* \"#utility.yul\":1554:1621   */\n      tag_296\n        /* \"#utility.yul\":1618:1620   */\n      0x1b\n        /* \"#utility.yul\":1613:1616   */\n      dup4\n        /* \"#utility.yul\":1554:1621   */\n      tag_217\n      jump\t// in\n    tag_296:\n        /* \"#utility.yul\":1547:1621   */\n      swap2\n      pop\n        /* \"#utility.yul\":1630:1723   */\n      tag_297\n        /* \"#utility.yul\":1719:1722   */\n      dup3\n        /* \"#utility.yul\":1630:1723   */\n      tag_220\n      jump\t// in\n    tag_297:\n        /* \"#utility.yul\":1748:1750   */\n      0x20\n        /* \"#utility.yul\":1743:1746   */\n      dup3\n        /* \"#utility.yul\":1739:1751   */\n      add\n        /* \"#utility.yul\":1732:1751   */\n      swap1\n      pop\n        /* \"#utility.yul\":1391:1757   */\n      swap2\n      swap1\n      pop\n      jump\t// out\n        /* \"#utility.yul\":1763:2182   */\n    tag_33:\n        /* \"#utility.yul\":1929:1933   */\n      0x00\n        /* \"#utility.yul\":1967:1969   */\n      0x20\n        /* \"#utility.yul\":1956:1965   */\n      dup3\n        /* \"#utility.yul\":1952:1970   */\n      add\n        /* \"#utility.yul\":1944:1970   */\n      swap1\n      pop\n        /* \"#utility.yul\":2016:2025   */\n      dup2\n        /* \"#utility.yul\":2010:2014   */\n      dup2\n        /* \"#utility.yul\":2006:2026   */\n      sub\n        /* \"#utility.yul\":2002:2003   */\n      0x00\n        /* \"#utility.yul\":1991:2000   */\n      dup4\n        /* \"#utility.yul\":1987:2004   */\n      add\n        /* \"#utility.yul\":1980:2027   */\n      mstore\n        /* \"#utility.yul\":2044:2175   */\n      tag_299\n        /* \"#utility.yul\":2170:2174   */\n      dup2\n        /* \"#utility.yul\":2044:2175   */\n      tag_221\n      jump\t// in\n    tag_299:\n        /* \"#utility.yul\":2036:2175   */\n      swap1\n      pop\n        /* \"#utility.yul\":1763:2182   */\n      swap2\n      swap1\n      pop\n      jump\t// out\n        /* \"#utility.yul\":2188:2350   */\n    tag_222:\n        /* \"#utility.yul\":2328:2342   */\n      0x416c726561647920706169640000000000000000000000000000000000000000\n        /* \"#utility.yul\":2324:2325   */\n      0x00\n        /* \"#utility.yul\":2316:2322   */\n      dup3\n        /* \"#utility.yul\":2312:2326   */\n      add\n        /* \"#utility.yul\":2305:2343   */\n      mstore\n        /* \"#utility.yul\":2188:2350   */\n      pop\n      jump\t// out\n        /* \"#utility.yul\":2356:2722   */\n    tag_223:\n        /* \"#utility.yul\":2498:2501   */\n      0x00\n        /* \"#utility.yul\":2519:2586   */\n      tag_302\n        /* \"#utility.yul\":2583:2585   */\n      0x0c\n        /* \"#utility.yul\":2578:2581   */\n      dup4\n        /* \"#utility.yul\":2519:2586   */\n      tag_217\n      jump\t// in\n    tag_302:\n        /* \"#utility.yul\":2512:2586   */\n      swap2\n      pop\n        /* \"#utility.yul\":2595:2688   */\n      tag_303\n        /* \"#utility.yul\":2684:2687   */\n      dup3\n        /* \"#utility.yul\":2595:2688   */\n      tag_222\n      jump\t// in\n    tag_303:\n        /* \"#utility.yul\":2713:2715   */\n      0x20\n        /* \"#utility.yul\":2708:2711   */\n      dup3\n        /* \"#utility.yul\":2704:2716   */\n      add\n        /* \"#utility.yul\":2697:2716   */\n      swap1\n      pop\n        /* \"#utility.yul\":2356:2722   */\n      swap2\n      swap1\n      pop\n      jump\t// out\n        /* \"#utility.yul\":2728:3147   */\n    tag_36:\n        /* \"#utility.yul\":2894:2898   */\n      0x00\n        /* \"#utility.yul\":2932:2934   */\n      0x20\n        /* \"#utility.yul\":2921:2930   */\n      dup3\n        /* \"#utility.yul\":2917:2935   */\n      add\n        /* \"#utility.yul\":2909:2935   */\n      swap1\n      pop\n        /* \"#utility.yul\":2981:2990   */\n      dup2\n        /* \"#utility.yul\":2975:2979   */\n      dup2\n        /* \"#utility.yul\":2971:2991   */\n      sub\n        /* \"#utility.yul\":2967:2968   */\n      0x00\n        /* \"#utility.yul\":2956:2965   */\n      dup4\n        /* \"#utility.yul\":2952:2969   */\n      add\n        /* \"#utility.yul\":2945:2992   */\n      mstore\n        /* \"#utility.yul\":3009:3140   */\n      tag_305\n        /* \"#utility.yul\":3135:3139   */\n      dup2\n        /* \"#utility.yul\":3009:3140   */\n      tag_223\n      jump\t// in\n    tag_305:\n        /* \"#utility.yul\":3001:3140   */\n      swap1\n      pop\n        /* \"#utility.yul\":2728:3147   */\n      swap2\n      swap1\n      pop\n      jump\t// out\n        /* \"#utility.yul\":3153:3243   */\n    tag_224:\n        /* \"#utility.yul\":3187:3194   */\n      0x00\n        /* \"#utility.yul\":3230:3235   */\n      dup2\n        /* \"#utility.yul\":3223:3236   */\n      iszero\n        /* \"#utility.yul\":3216:3237   */\n      iszero\n        /* \"#utility.yul\":3205:3237   */\n      swap1\n      pop\n        /* \"#utility.yul\":3153:3243   */\n      swap2\n      swap1\n      pop\n      jump\t// out\n        /* \"#utility.yul\":3249:3358   */\n    tag_225:\n        /* \"#utility.yul\":3330:3351   */\n      tag_308\n        /* \"#utility.yul\":3345:3350   */\n      dup2\n        /* \"#utility.yul\":3330:3351   */\n      tag_224\n      jump\t// in\n    tag_308:\n        /* \"#utility.yul\":3325:3328   */\n      dup3\n        /* \"#utility.yul\":3318:3352   */\n      mstore\n        /* \"#utility.yul\":3249:3358   */\n      pop\n      pop\n      jump\t// out\n        /* \"#utility.yul\":3364:3574   */\n    tag_41:\n        /* \"#utility.yul\":3451:3455   */\n      0x00\n        /* \"#utility.yul\":3489:3491   */\n      0x20\n        /* \"#utility.yul\":3478:3487   */\n      dup3\n        /* \"#utility.yul\":3474:3492   */\n      add\n        /* \"#utility.yul\":3466:3492   */\n      swap1\n      pop\n        /* \"#utility.yul\":3502:3567   */\n      tag_310\n        /* \"#utility.yul\":3564:3565   */\n      0x00\n        /* \"#utility.yul\":3553:3562   */\n      dup4\n        /* \"#utility.yul\":3549:3566   */\n      add\n        /* \"#utility.yul\":3540:3546   */\n      dup5\n        /* \"#utility.yul\":3502:3567   */\n      tag_225\n      jump\t// in\n    tag_310:\n        /* \"#utility.yul\":3364:3574   */\n      swap3\n      swap2\n      pop\n      pop\n      jump\t// out\n        /* \"#utility.yul\":3580:3657   */\n    tag_226:\n        /* \"#utility.yul\":3617:3624   */\n      0x00\n        /* \"#utility.yul\":3646:3651   */\n      dup2\n        /* \"#utility.yul\":3635:3651   */\n      swap1\n      pop\n        /* \"#utility.yul\":3580:3657   */\n      swap2\n      swap1\n      pop\n      jump\t// out\n        /* \"#utility.yul\":3663:3781   */\n    tag_227:\n        /* \"#utility.yul\":3750:3774   */\n      tag_313\n        /* \"#utility.yul\":3768:3773   */\n      dup2\n        /* \"#utility.yul\":3750:3774   */\n      tag_226\n      jump\t// in\n    tag_313:\n        /* \"#utility.yul\":3745:3748   */\n      dup3\n        /* \"#utility.yul\":3738:3775   */\n      mstore\n        /* \"#utility.yul\":3663:3781   */\n      pop\n      pop\n      jump\t// out\n        /* \"#utility.yul\":3787:4009   */\n    tag_49:\n        /* \"#utility.yul\":3880:3884   */\n      0x00\n        /* \"#utility.yul\":3918:3920   */\n      0x20\n        /* \"#utility.yul\":3907:3916   */\n      dup3\n        /* \"#utility.yul\":3903:3921   */\n      add\n        /* \"#utility.yul\":3895:3921   */\n      swap1\n      pop\n        /* \"#utility.yul\":3931:4002   */\n      tag_315\n        /* \"#utility.yul\":3999:4000   */\n      0x00\n        /* \"#utility.yul\":3988:3997   */\n      dup4\n        /* \"#utility.yul\":3984:4001   */\n      add\n        /* \"#utility.yul\":3975:3981   */\n      dup5\n        /* \"#utility.yul\":3931:4002   */\n      tag_227\n      jump\t// in\n    tag_315:\n        /* \"#utility.yul\":3787:4009   */\n      swap3\n      swap2\n      pop\n      pop\n      jump\t// out\n        /* \"#utility.yul\":4015:4141   */\n    tag_228:\n        /* \"#utility.yul\":4052:4059   */\n      0x00\n        /* \"#utility.yul\":4092:4134   */\n      0xffffffffffffffffffffffffffffffffffffffff\n        /* \"#utility.yul\":4085:4090   */\n      dup3\n        /* \"#utility.yul\":4081:4135   */\n      and\n        /* \"#utility.yul\":4070:4135   */\n      swap1\n      pop\n        /* \"#utility.yul\":4015:4141   */\n      swap2\n      swap1\n      pop\n      jump\t// out\n        /* \"#utility.yul\":4147:4243   */\n    tag_229:\n        /* \"#utility.yul\":4184:4191   */\n      0x00\n        /* \"#utility.yul\":4213:4237   */\n      tag_318\n        /* \"#utility.yul\":4231:4236   */\n      dup3\n        /* \"#utility.yul\":4213:4237   */\n      tag_228\n      jump\t// in\n    tag_318:\n        /* \"#utility.yul\":4202:4237   */\n      swap1\n      pop\n        /* \"#utility.yul\":4147:4243   */\n      swap2\n      swap1\n      pop\n      jump\t// out\n        /* \"#utility.yul\":4249:4367   */\n    tag_230:\n        /* \"#utility.yul\":4336:4360   */\n      tag_320\n        /* \"#utility.yul\":4354:4359   */\n      dup2\n        /* \"#utility.yul\":4336:4360   */\n      tag_229\n      jump\t// in\n    tag_320:\n        /* \"#utility.yul\":4331:4334   */\n      dup3\n        /* \"#utility.yul\":4324:4361   */\n      mstore\n        /* \"#utility.yul\":4249:4367   */\n      pop\n      pop\n      jump\t// out\n        /* \"#utility.yul\":4373:4595   */\n    tag_54:\n        /* \"#utility.yul\":4466:4470   */\n      0x00\n        /* \"#utility.yul\":4504:4506   */\n      0x20\n        /* \"#utility.yul\":4493:4502   */\n      dup3\n        /* \"#utility.yul\":4489:4507   */\n      add\n        /* \"#utility.yul\":4481:4507   */\n      swap1\n      pop\n        /* \"#utility.yul\":4517:4588   */\n      tag_322\n        /* \"#utility.yul\":4585:4586   */\n      0x00\n        /* \"#utility.yul\":4574:4583   */\n      dup4\n        /* \"#utility.yul\":4570:4587   */\n      add\n        /* \"#utility.yul\":4561:4567   */\n      dup5\n        /* \"#utility.yul\":4517:4588   */\n      tag_230\n      jump\t// in\n    tag_322:\n        /* \"#utility.yul\":4373:4595   */\n      swap3\n      swap2\n      pop\n      pop\n      jump\t// out\n        /* \"#utility.yul\":4601:4678   */\n    tag_231:\n        /* \"#utility.yul\":4638:4645   */\n      0x00\n        /* \"#utility.yul\":4667:4672   */\n      dup2\n        /* \"#utility.yul\":4656:4672   */\n      swap1\n      pop\n        /* \"#utility.yul\":4601:4678   */\n      swap2\n      swap1\n      pop\n      jump\t// out\n        /* \"#utility.yul\":4684:4802   */\n    tag_232:\n        /* \"#utility.yul\":4771:4795   */\n      tag_325\n        /* \"#utility.yul\":4789:4794   */\n      dup2\n        /* \"#utility.yul\":4771:4795   */\n      tag_231\n      jump\t// in\n    tag_325:\n        /* \"#utility.yul\":4766:4769   */\n      dup3\n        /* \"#utility.yul\":4759:4796   */\n      mstore\n        /* \"#utility.yul\":4684:4802   */\n      pop\n      pop\n      jump\t// out\n        /* \"#utility.yul\":4808:5030   */\n    tag_71:\n        /* \"#utility.yul\":4901:4905   */\n      0x00\n        /* \"#utility.yul\":4939:4941   */\n      0x20\n        /* \"#utility.yul\":4928:4937   */\n      dup3\n        /* \"#utility.yul\":4924:4942   */\n      add\n        /* \"#utility.yul\":4916:4942   */\n      swap1\n      pop\n        /* \"#utility.yul\":4952:5023   */\n      tag_327\n        /* \"#utility.yul\":5020:5021   */\n      0x00\n        /* \"#utility.yul\":5009:5018   */\n      dup4\n        /* \"#utility.yul\":5005:5022   */\n      add\n        /* \"#utility.yul\":4996:5002   */\n      dup5\n        /* \"#utility.yul\":4952:5023   */\n      tag_232\n      jump\t// in\n    tag_327:\n        /* \"#utility.yul\":4808:5030   */\n      swap3\n      swap2\n      pop\n      pop\n      jump\t// out\n        /* \"#utility.yul\":5036:5111   */\n    tag_233:\n        /* \"#utility.yul\":5069:5075   */\n      0x00\n        /* \"#utility.yul\":5102:5104   */\n      0x40\n        /* \"#utility.yul\":5096:5105   */\n      mload\n        /* \"#utility.yul\":5086:5105   */\n      swap1\n      pop\n        /* \"#utility.yul\":5036:5111   */\n      swap1\n      jump\t// out\n        /* \"#utility.yul\":5117:5234   */\n    tag_234:\n        /* \"#utility.yul\":5226:5227   */\n      0x00\n        /* \"#utility.yul\":5223:5224   */\n      0x00\n        /* \"#utility.yul\":5216:5228   */\n      revert\n        /* \"#utility.yul\":5240:5357   */\n    tag_235:\n        /* \"#utility.yul\":5349:5350   */\n      0x00\n        /* \"#utility.yul\":5346:5347   */\n      0x00\n        /* \"#utility.yul\":5339:5351   */\n      revert\n        /* \"#utility.yul\":5363:5449   */\n    tag_236:\n        /* \"#utility.yul\":5398:5405   */\n      0x00\n        /* \"#utility.yul\":5438:5442   */\n      0xff\n        /* \"#utility.yul\":5431:5436   */\n      dup3\n        /* \"#utility.yul\":5427:5443   */\n      and\n        /* \"#utility.yul\":5416:5443   */\n      swap1\n      pop\n        /* \"#utility.yul\":5363:5449   */\n      swap2\n      swap1\n      pop\n      jump\t// out\n        /* \"#utility.yul\":5455:5573   */\n    tag_237:\n        /* \"#utility.yul\":5526:5548   */\n      tag_333\n        /* \"#utility.yul\":5542:5547   */\n      dup2\n        /* \"#utility.yul\":5526:5548   */\n      tag_236\n      jump\t// in\n    tag_333:\n        /* \"#utility.yul\":5519:5524   */\n      dup2\n        /* \"#utility.yul\":5516:5549   */\n      eq\n        /* \"#utility.yul\":5506:5567   */\n      tag_334\n      jumpi\n        /* \"#utility.yul\":5563:5564   */\n      0x00\n        /* \"#utility.yul\":5560:5561   */\n      0x00\n        /* \"#utility.yul\":5553:5565   */\n      revert\n        /* \"#utility.yul\":5506:5567   */\n    tag_334:\n        /* \"#utility.yul\":5455:5573   */\n      pop\n      jump\t// out\n        /* \"#utility.yul\":5579:5714   */\n    tag_238:\n        /* \"#utility.yul\":5623:5628   */\n      0x00\n        /* \"#utility.yul\":5661:5667   */\n      dup2\n        /* \"#utility.yul\":5648:5668   */\n      calldataload\n        /* \"#utility.yul\":5639:5668   */\n      swap1\n      pop\n        /* \"#utility.yul\":5677:5708   */\n      tag_336\n        /* \"#utility.yul\":5702:5707   */\n      dup2\n        /* \"#utility.yul\":5677:5708   */\n      tag_237\n      jump\t// in\n    tag_336:\n        /* \"#utility.yul\":5579:5714   */\n      swap3\n      swap2\n      pop\n      pop\n      jump\t// out\n        /* \"#utility.yul\":5720:5837   */\n    tag_239:\n        /* \"#utility.yul\":5829:5830   */\n      0x00\n        /* \"#utility.yul\":5826:5827   */\n      0x00\n        /* \"#utility.yul\":5819:5831   */\n      revert\n        /* \"#utility.yul\":5843:5960   */\n    tag_240:\n        /* \"#utility.yul\":5952:5953   */\n      0x00\n        /* \"#utility.yul\":5949:5950   */\n      0x00\n        /* \"#utility.yul\":5942:5954   */\n      revert\n        /* \"#utility.yul\":5966:6068   */\n    tag_241:\n        /* \"#utility.yul\":6007:6013   */\n      0x00\n        /* \"#utility.yul\":6058:6060   */\n      0x1f\n        /* \"#utility.yul\":6054:6061   */\n      not\n        /* \"#utility.yul\":6049:6051   */\n      0x1f\n        /* \"#utility.yul\":6042:6047   */\n      dup4\n        /* \"#utility.yul\":6038:6052   */\n      add\n        /* \"#utility.yul\":6034:6062   */\n      and\n        /* \"#utility.yul\":6024:6062   */\n      swap1\n      pop\n        /* \"#utility.yul\":5966:6068   */\n      swap2\n      swap1\n      pop\n      jump\t// out\n        /* \"#utility.yul\":6074:6254   */\n    tag_242:\n        /* \"#utility.yul\":6122:6199   */\n      0x4e487b7100000000000000000000000000000000000000000000000000000000\n        /* \"#utility.yul\":6119:6120   */\n      0x00\n        /* \"#utility.yul\":6112:6200   */\n      mstore\n        /* \"#utility.yul\":6219:6223   */\n      0x41\n        /* \"#utility.yul\":6216:6217   */\n      0x04\n        /* \"#utility.yul\":6209:6224   */\n      mstore\n        /* \"#utility.yul\":6243:6247   */\n      0x24\n        /* \"#utility.yul\":6240:6241   */\n      0x00\n        /* \"#utility.yul\":6233:6248   */\n      revert\n        /* \"#utility.yul\":6260:6541   */\n    tag_243:\n        /* \"#utility.yul\":6343:6370   */\n      tag_342\n        /* \"#utility.yul\":6365:6369   */\n      dup3\n        /* \"#utility.yul\":6343:6370   */\n      tag_241\n      jump\t// in\n    tag_342:\n        /* \"#utility.yul\":6335:6341   */\n      dup2\n        /* \"#utility.yul\":6331:6371   */\n      add\n        /* \"#utility.yul\":6473:6479   */\n      dup2\n        /* \"#utility.yul\":6461:6471   */\n      dup2\n        /* \"#utility.yul\":6458:6480   */\n      lt\n        /* \"#utility.yul\":6437:6455   */\n      0xffffffffffffffff\n        /* \"#utility.yul\":6425:6435   */\n      dup3\n        /* \"#utility.yul\":6422:6456   */\n      gt\n        /* \"#utility.yul\":6419:6481   */\n      or\n        /* \"#utility.yul\":6416:6504   */\n      iszero\n      tag_343\n      jumpi\n        /* \"#utility.yul\":6484:6502   */\n      tag_344\n      tag_242\n      jump\t// in\n    tag_344:\n        /* \"#utility.yul\":6416:6504   */\n    tag_343:\n        /* \"#utility.yul\":6524:6534   */\n      dup1\n        /* \"#utility.yul\":6520:6522   */\n      0x40\n        /* \"#utility.yul\":6513:6535   */\n      mstore\n        /* \"#utility.yul\":6303:6541   */\n      pop\n        /* \"#utility.yul\":6260:6541   */\n      pop\n      pop\n      jump\t// out\n        /* \"#utility.yul\":6547:6676   */\n    tag_244:\n        /* \"#utility.yul\":6581:6587   */\n      0x00\n        /* \"#utility.yul\":6608:6628   */\n      tag_346\n      tag_233\n      jump\t// in\n    tag_346:\n        /* \"#utility.yul\":6598:6628   */\n      swap1\n      pop\n        /* \"#utility.yul\":6637:6670   */\n      tag_347\n        /* \"#utility.yul\":6665:6669   */\n      dup3\n        /* \"#utility.yul\":6657:6663   */\n      dup3\n        /* \"#utility.yul\":6637:6670   */\n      tag_243\n      jump\t// in\n    tag_347:\n        /* \"#utility.yul\":6547:6676   */\n      swap2\n      swap1\n      pop\n      jump\t// out\n        /* \"#utility.yul\":6682:6990   */\n    tag_245:\n        /* \"#utility.yul\":6744:6748   */\n      0x00\n        /* \"#utility.yul\":6834:6852   */\n      0xffffffffffffffff\n        /* \"#utility.yul\":6826:6832   */\n      dup3\n        /* \"#utility.yul\":6823:6853   */\n      gt\n        /* \"#utility.yul\":6820:6876   */\n      iszero\n      tag_349\n      jumpi\n        /* \"#utility.yul\":6856:6874   */\n      tag_350\n      tag_242\n      jump\t// in\n    tag_350:\n        /* \"#utility.yul\":6820:6876   */\n    tag_349:\n        /* \"#utility.yul\":6894:6923   */\n      tag_351\n        /* \"#utility.yul\":6916:6922   */\n      dup3\n        /* \"#utility.yul\":6894:6923   */\n      tag_241\n      jump\t// in\n    tag_351:\n        /* \"#utility.yul\":6886:6923   */\n      swap1\n      pop\n        /* \"#utility.yul\":6978:6982   */\n      0x20\n        /* \"#utility.yul\":6972:6976   */\n      dup2\n        /* \"#utility.yul\":6968:6983   */\n      add\n        /* \"#utility.yul\":6960:6983   */\n      swap1\n      pop\n        /* \"#utility.yul\":6682:6990   */\n      swap2\n      swap1\n      pop\n      jump\t// out\n        /* \"#utility.yul\":6996:7144   */\n    tag_246:\n        /* \"#utility.yul\":7094:7100   */\n      dup3\n        /* \"#utility.yul\":7089:7092   */\n      dup2\n        /* \"#utility.yul\":7084:7087   */\n      dup4\n        /* \"#utility.yul\":7071:7101   */\n      calldatacopy\n        /* \"#utility.yul\":7135:7136   */\n      0x00\n        /* \"#utility.yul\":7126:7132   */\n      dup4\n        /* \"#utility.yul\":7121:7124   */\n      dup4\n        /* \"#utility.yul\":7117:7133   */\n      add\n        /* \"#utility.yul\":7110:7137   */\n      mstore\n        /* \"#utility.yul\":6996:7144   */\n      pop\n      pop\n      pop\n      jump\t// out\n        /* \"#utility.yul\":7150:7575   */\n    tag_247:\n        /* \"#utility.yul\":7228:7233   */\n      0x00\n        /* \"#utility.yul\":7253:7319   */\n      tag_354\n        /* \"#utility.yul\":7269:7318   */\n      tag_355\n        /* \"#utility.yul\":7311:7317   */\n      dup5\n        /* \"#utility.yul\":7269:7318   */\n      tag_245\n      jump\t// in\n    tag_355:\n        /* \"#utility.yul\":7253:7319   */\n      tag_244\n      jump\t// in\n    tag_354:\n        /* \"#utility.yul\":7244:7319   */\n      swap1\n      pop\n        /* \"#utility.yul\":7342:7348   */\n      dup3\n        /* \"#utility.yul\":7335:7340   */\n      dup2\n        /* \"#utility.yul\":7328:7349   */\n      mstore\n        /* \"#utility.yul\":7380:7384   */\n      0x20\n        /* \"#utility.yul\":7373:7378   */\n      dup2\n        /* \"#utility.yul\":7369:7385   */\n      add\n        /* \"#utility.yul\":7418:7421   */\n      dup5\n        /* \"#utility.yul\":7409:7415   */\n      dup5\n        /* \"#utility.yul\":7404:7407   */\n      dup5\n        /* \"#utility.yul\":7400:7416   */\n      add\n        /* \"#utility.yul\":7397:7422   */\n      gt\n        /* \"#utility.yul\":7394:7506   */\n      iszero\n      tag_356\n      jumpi\n        /* \"#utility.yul\":7425:7504   */\n      tag_357\n      tag_240\n      jump\t// in\n    tag_357:\n        /* \"#utility.yul\":7394:7506   */\n    tag_356:\n        /* \"#utility.yul\":7515:7569   */\n      tag_358\n        /* \"#utility.yul\":7562:7568   */\n      dup5\n        /* \"#utility.yul\":7557:7560   */\n      dup3\n        /* \"#utility.yul\":7552:7555   */\n      dup6\n        /* \"#utility.yul\":7515:7569   */\n      tag_246\n      jump\t// in\n    tag_358:\n        /* \"#utility.yul\":7234:7575   */\n      pop\n        /* \"#utility.yul\":7150:7575   */\n      swap4\n      swap3\n      pop\n      pop\n      pop\n      jump\t// out\n        /* \"#utility.yul\":7595:7935   */\n    tag_248:\n        /* \"#utility.yul\":7651:7656   */\n      0x00\n        /* \"#utility.yul\":7700:7703   */\n      dup3\n        /* \"#utility.yul\":7693:7697   */\n      0x1f\n        /* \"#utility.yul\":7685:7691   */\n      dup4\n        /* \"#utility.yul\":7681:7698   */\n      add\n        /* \"#utility.yul\":7677:7704   */\n      slt\n        /* \"#utility.yul\":7667:7789   */\n      tag_360\n      jumpi\n        /* \"#utility.yul\":7708:7787   */\n      tag_361\n      tag_239\n      jump\t// in\n    tag_361:\n        /* \"#utility.yul\":7667:7789   */\n    tag_360:\n        /* \"#utility.yul\":7825:7831   */\n      dup2\n        /* \"#utility.yul\":7812:7832   */\n      calldataload\n        /* \"#utility.yul\":7850:7929   */\n      tag_362\n        /* \"#utility.yul\":7925:7928   */\n      dup5\n        /* \"#utility.yul\":7917:7923   */\n      dup3\n        /* \"#utility.yul\":7910:7914   */\n      0x20\n        /* \"#utility.yul\":7902:7908   */\n      dup7\n        /* \"#utility.yul\":7898:7915   */\n      add\n        /* \"#utility.yul\":7850:7929   */\n      tag_247\n      jump\t// in\n    tag_362:\n        /* \"#utility.yul\":7841:7929   */\n      swap2\n      pop\n        /* \"#utility.yul\":7657:7935   */\n      pop\n        /* \"#utility.yul\":7595:7935   */\n      swap3\n      swap2\n      pop\n      pop\n      jump\t// out\n        /* \"#utility.yul\":7941:8591   */\n    tag_75:\n        /* \"#utility.yul\":8017:8023   */\n      0x00\n        /* \"#utility.yul\":8025:8031   */\n      0x00\n        /* \"#utility.yul\":8074:8076   */\n      0x40\n        /* \"#utility.yul\":8062:8071   */\n      dup4\n        /* \"#utility.yul\":8053:8060   */\n      dup6\n        /* \"#utility.yul\":8049:8072   */\n      sub\n        /* \"#utility.yul\":8045:8077   */\n      slt\n        /* \"#utility.yul\":8042:8161   */\n      iszero\n      tag_364\n      jumpi\n        /* \"#utility.yul\":8080:8159   */\n      tag_365\n      tag_234\n      jump\t// in\n    tag_365:\n        /* \"#utility.yul\":8042:8161   */\n    tag_364:\n        /* \"#utility.yul\":8200:8201   */\n      0x00\n        /* \"#utility.yul\":8225:8276   */\n      tag_366\n        /* \"#utility.yul\":8268:8275   */\n      dup6\n        /* \"#utility.yul\":8259:8265   */\n      dup3\n        /* \"#utility.yul\":8248:8257   */\n      dup7\n        /* \"#utility.yul\":8244:8266   */\n      add\n        /* \"#utility.yul\":8225:8276   */\n      tag_238\n      jump\t// in\n    tag_366:\n        /* \"#utility.yul\":8215:8276   */\n      swap3\n      pop\n        /* \"#utility.yul\":8171:8286   */\n      pop\n        /* \"#utility.yul\":8353:8355   */\n      0x20\n        /* \"#utility.yul\":8342:8351   */\n      dup4\n        /* \"#utility.yul\":8338:8356   */\n      add\n        /* \"#utility.yul\":8325:8357   */\n      calldataload\n        /* \"#utility.yul\":8384:8402   */\n      0xffffffffffffffff\n        /* \"#utility.yul\":8376:8382   */\n      dup2\n        /* \"#utility.yul\":8373:8403   */\n      gt\n        /* \"#utility.yul\":8370:8487   */\n      iszero\n      tag_367\n      jumpi\n        /* \"#utility.yul\":8406:8485   */\n      tag_368\n      tag_235\n      jump\t// in\n    tag_368:\n        /* \"#utility.yul\":8370:8487   */\n    tag_367:\n        /* \"#utility.yul\":8511:8574   */\n      tag_369\n        /* \"#utility.yul\":8566:8573   */\n      dup6\n        /* \"#utility.yul\":8557:8563   */\n      dup3\n        /* \"#utility.yul\":8546:8555   */\n      dup7\n        /* \"#utility.yul\":8542:8564   */\n      add\n        /* \"#utility.yul\":8511:8574   */\n      tag_248\n      jump\t// in\n    tag_369:\n        /* \"#utility.yul\":8501:8574   */\n      swap2\n      pop\n        /* \"#utility.yul\":8296:8584   */\n      pop\n        /* \"#utility.yul\":7941:8591   */\n      swap3\n      pop\n      swap3\n      swap1\n      pop\n      jump\t// out\n        /* \"#utility.yul\":8597:8709   */\n    tag_249:\n        /* \"#utility.yul\":8680:8702   */\n      tag_371\n        /* \"#utility.yul\":8696:8701   */\n      dup2\n        /* \"#utility.yul\":8680:8702   */\n      tag_236\n      jump\t// in\n    tag_371:\n        /* \"#utility.yul\":8675:8678   */\n      dup3\n        /* \"#utility.yul\":8668:8703   */\n      mstore\n        /* \"#utility.yul\":8597:8709   */\n      pop\n      pop\n      jump\t// out\n        /* \"#utility.yul\":8715:8929   */\n    tag_81:\n        /* \"#utility.yul\":8804:8808   */\n      0x00\n        /* \"#utility.yul\":8842:8844   */\n      0x20\n        /* \"#utility.yul\":8831:8840   */\n      dup3\n        /* \"#utility.yul\":8827:8845   */\n      add\n        /* \"#utility.yul\":8819:8845   */\n      swap1\n      pop\n        /* \"#utility.yul\":8855:8922   */\n      tag_373\n        /* \"#utility.yul\":8919:8920   */\n      0x00\n        /* \"#utility.yul\":8908:8917   */\n      dup4\n        /* \"#utility.yul\":8904:8921   */\n      add\n        /* \"#utility.yul\":8895:8901   */\n      dup5\n        /* \"#utility.yul\":8855:8922   */\n      tag_249\n      jump\t// in\n    tag_373:\n        /* \"#utility.yul\":8715:8929   */\n      swap3\n      swap2\n      pop\n      pop\n      jump\t// out\n        /* \"#utility.yul\":8935:9057   */\n    tag_250:\n        /* \"#utility.yul\":9008:9032   */\n      tag_375\n        /* \"#utility.yul\":9026:9031   */\n      dup2\n        /* \"#utility.yul\":9008:9032   */\n      tag_229\n      jump\t// in\n    tag_375:\n        /* \"#utility.yul\":9001:9006   */\n      dup2\n        /* \"#utility.yul\":8998:9033   */\n      eq\n        /* \"#utility.yul\":8988:9051   */\n      tag_376\n      jumpi\n        /* \"#utility.yul\":9047:9048   */\n      0x00\n        /* \"#utility.yul\":9044:9045   */\n      0x00\n        /* \"#utility.yul\":9037:9049   */\n      revert\n        /* \"#utility.yul\":8988:9051   */\n    tag_376:\n        /* \"#utility.yul\":8935:9057   */\n      pop\n      jump\t// out\n        /* \"#utility.yul\":9063:9202   */\n    tag_251:\n        /* \"#utility.yul\":9109:9114   */\n      0x00\n        /* \"#utility.yul\":9147:9153   */\n      dup2\n        /* \"#utility.yul\":9134:9154   */\n      calldataload\n        /* \"#utility.yul\":9125:9154   */\n      swap1\n      pop\n        /* \"#utility.yul\":9163:9196   */\n      tag_378\n        /* \"#utility.yul\":9190:9195   */\n      dup2\n        /* \"#utility.yul\":9163:9196   */\n      tag_250\n      jump\t// in\n    tag_378:\n        /* \"#utility.yul\":9063:9202   */\n      swap3\n      swap2\n      pop\n      pop\n      jump\t// out\n        /* \"#utility.yul\":9208:9682   */\n    tag_93:\n        /* \"#utility.yul\":9276:9282   */\n      0x00\n        /* \"#utility.yul\":9284:9290   */\n      0x00\n        /* \"#utility.yul\":9333:9335   */\n      0x40\n        /* \"#utility.yul\":9321:9330   */\n      dup4\n        /* \"#utility.yul\":9312:9319   */\n      dup6\n        /* \"#utility.yul\":9308:9331   */\n      sub\n        /* \"#utility.yul\":9304:9336   */\n      slt\n        /* \"#utility.yul\":9301:9420   */\n      iszero\n      tag_380\n      jumpi\n        /* \"#utility.yul\":9339:9418   */\n      tag_381\n      tag_234\n      jump\t// in\n    tag_381:\n        /* \"#utility.yul\":9301:9420   */\n    tag_380:\n        /* \"#utility.yul\":9459:9460   */\n      0x00\n        /* \"#utility.yul\":9484:9537   */\n      tag_382\n        /* \"#utility.yul\":9529:9536   */\n      dup6\n        /* \"#utility.yul\":9520:9526   */\n      dup3\n        /* \"#utility.yul\":9509:9518   */\n      dup7\n        /* \"#utility.yul\":9505:9527   */\n      add\n        /* \"#utility.yul\":9484:9537   */\n      tag_251\n      jump\t// in\n    tag_382:\n        /* \"#utility.yul\":9474:9537   */\n      swap3\n      pop\n        /* \"#utility.yul\":9430:9547   */\n      pop\n        /* \"#utility.yul\":9586:9588   */\n      0x20\n        /* \"#utility.yul\":9612:9665   */\n      tag_383\n        /* \"#utility.yul\":9657:9664   */\n      dup6\n        /* \"#utility.yul\":9648:9654   */\n      dup3\n        /* \"#utility.yul\":9637:9646   */\n      dup7\n        /* \"#utility.yul\":9633:9655   */\n      add\n        /* \"#utility.yul\":9612:9665   */\n      tag_251\n      jump\t// in\n    tag_383:\n        /* \"#utility.yul\":9602:9665   */\n      swap2\n      pop\n        /* \"#utility.yul\":9557:9675   */\n      pop\n        /* \"#utility.yul\":9208:9682   */\n      swap3\n      pop\n      swap3\n      swap1\n      pop\n      jump\t// out\n        /* \"#utility.yul\":9688:10017   */\n    tag_114:\n        /* \"#utility.yul\":9747:9753   */\n      0x00\n        /* \"#utility.yul\":9796:9798   */\n      0x20\n        /* \"#utility.yul\":9784:9793   */\n      dup3\n        /* \"#utility.yul\":9775:9782   */\n      dup5\n        /* \"#utility.yul\":9771:9794   */\n      sub\n        /* \"#utility.yul\":9767:9799   */\n      slt\n        /* \"#utility.yul\":9764:9883   */\n      iszero\n      tag_385\n      jumpi\n        /* \"#utility.yul\":9802:9881   */\n      tag_386\n      tag_234\n      jump\t// in\n    tag_386:\n        /* \"#utility.yul\":9764:9883   */\n    tag_385:\n        /* \"#utility.yul\":9922:9923   */\n      0x00\n        /* \"#utility.yul\":9947:10000   */\n      tag_387\n        /* \"#utility.yul\":9992:9999   */\n      dup5\n        /* \"#utility.yul\":9983:9989   */\n      dup3\n        /* \"#utility.yul\":9972:9981   */\n      dup6\n        /* \"#utility.yul\":9968:9990   */\n      add\n        /* \"#utility.yul\":9947:10000   */\n      tag_251\n      jump\t// in\n    tag_387:\n        /* \"#utility.yul\":9937:10000   */\n      swap2\n      pop\n        /* \"#utility.yul\":9893:10010   */\n      pop\n        /* \"#utility.yul\":9688:10017   */\n      swap3\n      swap2\n      pop\n      pop\n      jump\t// out\n        /* \"#utility.yul\":10023:10196   */\n    tag_252:\n        /* \"#utility.yul\":10163:10188   */\n      0x4f6e6c7920726566657265652063616e20736574746c65000000000000000000\n        /* \"#utility.yul\":10159:10160   */\n      0x00\n        /* \"#utility.yul\":10151:10157   */\n      dup3\n        /* \"#utility.yul\":10147:10161   */\n      add\n        /* \"#utility.yul\":10140:10189   */\n      mstore\n        /* \"#utility.yul\":10023:10196   */\n      pop\n      jump\t// out\n        /* \"#utility.yul\":10202:10568   */\n    tag_253:\n        /* \"#utility.yul\":10344:10347   */\n      0x00\n        /* \"#utility.yul\":10365:10432   */\n      tag_390\n        /* \"#utility.yul\":10429:10431   */\n      0x17\n        /* \"#utility.yul\":10424:10427   */\n      dup4\n        /* \"#utility.yul\":10365:10432   */\n      tag_217\n      jump\t// in\n    tag_390:\n        /* \"#utility.yul\":10358:10432   */\n      swap2\n      pop\n        /* \"#utility.yul\":10441:10534   */\n      tag_391\n        /* \"#utility.yul\":10530:10533   */\n      dup3\n        /* \"#utility.yul\":10441:10534   */\n      tag_252\n      jump\t// in\n    tag_391:\n        /* \"#utility.yul\":10559:10561   */\n      0x20\n        /* \"#utility.yul\":10554:10557   */\n      dup3\n        /* \"#utility.yul\":10550:10562   */\n      add\n        /* \"#utility.yul\":10543:10562   */\n      swap1\n      pop\n        /* \"#utility.yul\":10202:10568   */\n      swap2\n      swap1\n      pop\n      jump\t// out\n        /* \"#utility.yul\":10574:10993   */\n    tag_120:\n        /* \"#utility.yul\":10740:10744   */\n      0x00\n        /* \"#utility.yul\":10778:10780   */\n      0x20\n        /* \"#utility.yul\":10767:10776   */\n      dup3\n        /* \"#utility.yul\":10763:10781   */\n      add\n        /* \"#utility.yul\":10755:10781   */\n      swap1\n      pop\n        /* \"#utility.yul\":10827:10836   */\n      dup2\n        /* \"#utility.yul\":10821:10825   */\n      dup2\n        /* \"#utility.yul\":10817:10837   */\n      sub\n        /* \"#utility.yul\":10813:10814   */\n      0x00\n        /* \"#utility.yul\":10802:10811   */\n      dup4\n        /* \"#utility.yul\":10798:10815   */\n      add\n        /* \"#utility.yul\":10791:10838   */\n      mstore\n        /* \"#utility.yul\":10855:10986   */\n      tag_393\n        /* \"#utility.yul\":10981:10985   */\n      dup2\n        /* \"#utility.yul\":10855:10986   */\n      tag_253\n      jump\t// in\n    tag_393:\n        /* \"#utility.yul\":10847:10986   */\n      swap1\n      pop\n        /* \"#utility.yul\":10574:10993   */\n      swap2\n      swap1\n      pop\n      jump\t// out\n        /* \"#utility.yul\":10999:11173   */\n    tag_254:\n        /* \"#utility.yul\":11139:11165   */\n      0x446561646c696e65206e6f742072656163686564207965740000000000000000\n        /* \"#utility.yul\":11135:11136   */\n      0x00\n        /* \"#utility.yul\":11127:11133   */\n      dup3\n        /* \"#utility.yul\":11123:11137   */\n      add\n        /* \"#utility.yul\":11116:11166   */\n      mstore\n        /* \"#utility.yul\":10999:11173   */\n      pop\n      jump\t// out\n        /* \"#utility.yul\":11179:11545   */\n    tag_255:\n        /* \"#utility.yul\":11321:11324   */\n      0x00\n        /* \"#utility.yul\":11342:11409   */\n      tag_396\n        /* \"#utility.yul\":11406:11408   */\n      0x18\n        /* \"#utility.yul\":11401:11404   */\n      dup4\n        /* \"#utility.yul\":11342:11409   */\n      tag_217\n      jump\t// in\n    tag_396:\n        /* \"#utility.yul\":11335:11409   */\n      swap2\n      pop\n        /* \"#utility.yul\":11418:11511   */\n      tag_397\n        /* \"#utility.yul\":11507:11510   */\n      dup3\n        /* \"#utility.yul\":11418:11511   */\n      tag_254\n      jump\t// in\n    tag_397:\n        /* \"#utility.yul\":11536:11538   */\n      0x20\n        /* \"#utility.yul\":11531:11534   */\n      dup3\n        /* \"#utility.yul\":11527:11539   */\n      add\n        /* \"#utility.yul\":11520:11539   */\n      swap1\n      pop\n        /* \"#utility.yul\":11179:11545   */\n      swap2\n      swap1\n      pop\n      jump\t// out\n        /* \"#utility.yul\":11551:11970   */\n    tag_124:\n        /* \"#utility.yul\":11717:11721   */\n      0x00\n        /* \"#utility.yul\":11755:11757   */\n      0x20\n        /* \"#utility.yul\":11744:11753   */\n      dup3\n        /* \"#utility.yul\":11740:11758   */\n      add\n        /* \"#utility.yul\":11732:11758   */\n      swap1\n      pop\n        /* \"#utility.yul\":11804:11813   */\n      dup2\n        /* \"#utility.yul\":11798:11802   */\n      dup2\n        /* \"#utility.yul\":11794:11814   */\n      sub\n        /* \"#utility.yul\":11790:11791   */\n      0x00\n        /* \"#utility.yul\":11779:11788   */\n      dup4\n        /* \"#utility.yul\":11775:11792   */\n      add\n        /* \"#utility.yul\":11768:11815   */\n      mstore\n        /* \"#utility.yul\":11832:11963   */\n      tag_399\n        /* \"#utility.yul\":11958:11962   */\n      dup2\n        /* \"#utility.yul\":11832:11963   */\n      tag_255\n      jump\t// in\n    tag_399:\n        /* \"#utility.yul\":11824:11963   */\n      swap1\n      pop\n        /* \"#utility.yul\":11551:11970   */\n      swap2\n      swap1\n      pop\n      jump\t// out\n        /* \"#utility.yul\":11976:12154   */\n    tag_256:\n        /* \"#utility.yul\":12116:12146   */\n      0x426f7468206361707461696e73206d7573742070617920666972737400000000\n        /* \"#utility.yul\":12112:12113   */\n      0x00\n        /* \"#utility.yul\":12104:12110   */\n      dup3\n        /* \"#utility.yul\":12100:12114   */\n      add\n        /* \"#utility.yul\":12093:12147   */\n      mstore\n        /* \"#utility.yul\":11976:12154   */\n      pop\n      jump\t// out\n        /* \"#utility.yul\":12160:12526   */\n    tag_257:\n        /* \"#utility.yul\":12302:12305   */\n      0x00\n        /* \"#utility.yul\":12323:12390   */\n      tag_402\n        /* \"#utility.yul\":12387:12389   */\n      0x1c\n        /* \"#utility.yul\":12382:12385   */\n      dup4\n        /* \"#utility.yul\":12323:12390   */\n      tag_217\n      jump\t// in\n    tag_402:\n        /* \"#utility.yul\":12316:12390   */\n      swap2\n      pop\n        /* \"#utility.yul\":12399:12492   */\n      tag_403\n        /* \"#utility.yul\":12488:12491   */\n      dup3\n        /* \"#utility.yul\":12399:12492   */\n      tag_256\n      jump\t// in\n    tag_403:\n        /* \"#utility.yul\":12517:12519   */\n      0x20\n        /* \"#utility.yul\":12512:12515   */\n      dup3\n        /* \"#utility.yul\":12508:12520   */\n      add\n        /* \"#utility.yul\":12501:12520   */\n      swap1\n      pop\n        /* \"#utility.yul\":12160:12526   */\n      swap2\n      swap1\n      pop\n      jump\t// out\n        /* \"#utility.yul\":12532:12951   */\n    tag_160:\n        /* \"#utility.yul\":12698:12702   */\n      0x00\n        /* \"#utility.yul\":12736:12738   */\n      0x20\n        /* \"#utility.yul\":12725:12734   */\n      dup3\n        /* \"#utility.yul\":12721:12739   */\n      add\n        /* \"#utility.yul\":12713:12739   */\n      swap1\n      pop\n        /* \"#utility.yul\":12785:12794   */\n      dup2\n        /* \"#utility.yul\":12779:12783   */\n      dup2\n        /* \"#utility.yul\":12775:12795   */\n      sub\n        /* \"#utility.yul\":12771:12772   */\n      0x00\n        /* \"#utility.yul\":12760:12769   */\n      dup4\n        /* \"#utility.yul\":12756:12773   */\n      add\n        /* \"#utility.yul\":12749:12796   */\n      mstore\n        /* \"#utility.yul\":12813:12944   */\n      tag_405\n        /* \"#utility.yul\":12939:12943   */\n      dup2\n        /* \"#utility.yul\":12813:12944   */\n      tag_257\n      jump\t// in\n    tag_405:\n        /* \"#utility.yul\":12805:12944   */\n      swap1\n      pop\n        /* \"#utility.yul\":12532:12951   */\n      swap2\n      swap1\n      pop\n      jump\t// out\n        /* \"#utility.yul\":12957:13128   */\n    tag_258:\n        /* \"#utility.yul\":13097:13120   */\n      0x43686f696365206d7573742062652030206f7220310000000000000000000000\n        /* \"#utility.yul\":13093:13094   */\n      0x00\n        /* \"#utility.yul\":13085:13091   */\n      dup3\n        /* \"#utility.yul\":13081:13095   */\n      add\n        /* \"#utility.yul\":13074:13121   */\n      mstore\n        /* \"#utility.yul\":12957:13128   */\n      pop\n      jump\t// out\n        /* \"#utility.yul\":13134:13500   */\n    tag_259:\n        /* \"#utility.yul\":13276:13279   */\n      0x00\n        /* \"#utility.yul\":13297:13364   */\n      tag_408\n        /* \"#utility.yul\":13361:13363   */\n      0x15\n        /* \"#utility.yul\":13356:13359   */\n      dup4\n        /* \"#utility.yul\":13297:13364   */\n      tag_217\n      jump\t// in\n    tag_408:\n        /* \"#utility.yul\":13290:13364   */\n      swap2\n      pop\n        /* \"#utility.yul\":13373:13466   */\n      tag_409\n        /* \"#utility.yul\":13462:13465   */\n      dup3\n        /* \"#utility.yul\":13373:13466   */\n      tag_258\n      jump\t// in\n    tag_409:\n        /* \"#utility.yul\":13491:13493   */\n      0x20\n        /* \"#utility.yul\":13486:13489   */\n      dup3\n        /* \"#utility.yul\":13482:13494   */\n      add\n        /* \"#utility.yul\":13475:13494   */\n      swap1\n      pop\n        /* \"#utility.yul\":13134:13500   */\n      swap2\n      swap1\n      pop\n      jump\t// out\n        /* \"#utility.yul\":13506:13925   */\n    tag_164:\n        /* \"#utility.yul\":13672:13676   */\n      0x00\n        /* \"#utility.yul\":13710:13712   */\n      0x20\n        /* \"#utility.yul\":13699:13708   */\n      dup3\n        /* \"#utility.yul\":13695:13713   */\n      add\n        /* \"#utility.yul\":13687:13713   */\n      swap1\n      pop\n        /* \"#utility.yul\":13759:13768   */\n      dup2\n        /* \"#utility.yul\":13753:13757   */\n      dup2\n        /* \"#utility.yul\":13749:13769   */\n      sub\n        /* \"#utility.yul\":13745:13746   */\n      0x00\n        /* \"#utility.yul\":13734:13743   */\n      dup4\n        /* \"#utility.yul\":13730:13747   */\n      add\n        /* \"#utility.yul\":13723:13770   */\n      mstore\n        /* \"#utility.yul\":13787:13918   */\n      tag_411\n        /* \"#utility.yul\":13913:13917   */\n      dup2\n        /* \"#utility.yul\":13787:13918   */\n      tag_259\n      jump\t// in\n    tag_411:\n        /* \"#utility.yul\":13779:13918   */\n      swap1\n      pop\n        /* \"#utility.yul\":13506:13925   */\n      swap2\n      swap1\n      pop\n      jump\t// out\n        /* \"#utility.yul\":13931:14027   */\n    tag_260:\n        /* \"#utility.yul\":13965:13973   */\n      0x00\n        /* \"#utility.yul\":14014:14019   */\n      dup2\n        /* \"#utility.yul\":14009:14012   */\n      0xf8\n        /* \"#utility.yul\":14005:14020   */\n      shl\n        /* \"#utility.yul\":13984:14020   */\n      swap1\n      pop\n        /* \"#utility.yul\":13931:14027   */\n      swap2\n      swap1\n      pop\n      jump\t// out\n        /* \"#utility.yul\":14033:14126   */\n    tag_261:\n        /* \"#utility.yul\":14070:14077   */\n      0x00\n        /* \"#utility.yul\":14099:14120   */\n      tag_414\n        /* \"#utility.yul\":14114:14119   */\n      dup3\n        /* \"#utility.yul\":14099:14120   */\n      tag_260\n      jump\t// in\n    tag_414:\n        /* \"#utility.yul\":14088:14120   */\n      swap1\n      pop\n        /* \"#utility.yul\":14033:14126   */\n      swap2\n      swap1\n      pop\n      jump\t// out\n        /* \"#utility.yul\":14132:14281   */\n    tag_262:\n        /* \"#utility.yul\":14233:14274   */\n      tag_416\n        /* \"#utility.yul\":14251:14273   */\n      tag_417\n        /* \"#utility.yul\":14267:14272   */\n      dup3\n        /* \"#utility.yul\":14251:14273   */\n      tag_236\n      jump\t// in\n    tag_417:\n        /* \"#utility.yul\":14233:14274   */\n      tag_261\n      jump\t// in\n    tag_416:\n        /* \"#utility.yul\":14228:14231   */\n      dup3\n        /* \"#utility.yul\":14221:14275   */\n      mstore\n        /* \"#utility.yul\":14132:14281   */\n      pop\n      pop\n      jump\t// out\n        /* \"#utility.yul\":14287:14386   */\n    tag_263:\n        /* \"#utility.yul\":14339:14345   */\n      0x00\n        /* \"#utility.yul\":14373:14378   */\n      dup2\n        /* \"#utility.yul\":14367:14379   */\n      mload\n        /* \"#utility.yul\":14357:14379   */\n      swap1\n      pop\n        /* \"#utility.yul\":14287:14386   */\n      swap2\n      swap1\n      pop\n      jump\t// out\n        /* \"#utility.yul\":14392:14540   */\n    tag_264:\n        /* \"#utility.yul\":14494:14505   */\n      0x00\n        /* \"#utility.yul\":14531:14534   */\n      dup2\n        /* \"#utility.yul\":14516:14534   */\n      swap1\n      pop\n        /* \"#utility.yul\":14392:14540   */\n      swap3\n      swap2\n      pop\n      pop\n      jump\t// out\n        /* \"#utility.yul\":14546:14685   */\n    tag_265:\n        /* \"#utility.yul\":14635:14641   */\n      dup3\n        /* \"#utility.yul\":14630:14633   */\n      dup2\n        /* \"#utility.yul\":14625:14628   */\n      dup4\n        /* \"#utility.yul\":14619:14642   */\n      mcopy\n        /* \"#utility.yul\":14676:14677   */\n      0x00\n        /* \"#utility.yul\":14667:14673   */\n      dup4\n        /* \"#utility.yul\":14662:14665   */\n      dup4\n        /* \"#utility.yul\":14658:14674   */\n      add\n        /* \"#utility.yul\":14651:14678   */\n      mstore\n        /* \"#utility.yul\":14546:14685   */\n      pop\n      pop\n      pop\n      jump\t// out\n        /* \"#utility.yul\":14691:15081   */\n    tag_266:\n        /* \"#utility.yul\":14797:14800   */\n      0x00\n        /* \"#utility.yul\":14825:14864   */\n      tag_422\n        /* \"#utility.yul\":14858:14863   */\n      dup3\n        /* \"#utility.yul\":14825:14864   */\n      tag_263\n      jump\t// in\n    tag_422:\n        /* \"#utility.yul\":14880:14969   */\n      tag_423\n        /* \"#utility.yul\":14962:14968   */\n      dup2\n        /* \"#utility.yul\":14957:14960   */\n      dup6\n        /* \"#utility.yul\":14880:14969   */\n      tag_264\n      jump\t// in\n    tag_423:\n        /* \"#utility.yul\":14873:14969   */\n      swap4\n      pop\n        /* \"#utility.yul\":14978:15043   */\n      tag_424\n        /* \"#utility.yul\":15036:15042   */\n      dup2\n        /* \"#utility.yul\":15031:15034   */\n      dup6\n        /* \"#utility.yul\":15024:15028   */\n      0x20\n        /* \"#utility.yul\":15017:15022   */\n      dup7\n        /* \"#utility.yul\":15013:15029   */\n      add\n        /* \"#utility.yul\":14978:15043   */\n      tag_265\n      jump\t// in\n    tag_424:\n        /* \"#utility.yul\":15068:15074   */\n      dup1\n        /* \"#utility.yul\":15063:15066   */\n      dup5\n        /* \"#utility.yul\":15059:15075   */\n      add\n        /* \"#utility.yul\":15052:15075   */\n      swap2\n      pop\n        /* \"#utility.yul\":14801:15081   */\n      pop\n        /* \"#utility.yul\":14691:15081   */\n      swap3\n      swap2\n      pop\n      pop\n      jump\t// out\n        /* \"#utility.yul\":15087:15494   */\n    tag_166:\n        /* \"#utility.yul\":15243:15246   */\n      0x00\n        /* \"#utility.yul\":15258:15329   */\n      tag_426\n        /* \"#utility.yul\":15325:15328   */\n      dup3\n        /* \"#utility.yul\":15316:15322   */\n      dup6\n        /* \"#utility.yul\":15258:15329   */\n      tag_262\n      jump\t// in\n    tag_426:\n        /* \"#utility.yul\":15354:15355   */\n      0x01\n        /* \"#utility.yul\":15349:15352   */\n      dup3\n        /* \"#utility.yul\":15345:15356   */\n      add\n        /* \"#utility.yul\":15338:15356   */\n      swap2\n      pop\n        /* \"#utility.yul\":15373:15468   */\n      tag_427\n        /* \"#utility.yul\":15464:15467   */\n      dup3\n        /* \"#utility.yul\":15455:15461   */\n      dup5\n        /* \"#utility.yul\":15373:15468   */\n      tag_266\n      jump\t// in\n    tag_427:\n        /* \"#utility.yul\":15366:15468   */\n      swap2\n      pop\n        /* \"#utility.yul\":15485:15488   */\n      dup2\n        /* \"#utility.yul\":15478:15488   */\n      swap1\n      pop\n        /* \"#utility.yul\":15087:15494   */\n      swap4\n      swap3\n      pop\n      pop\n      pop\n      jump\t// out\n        /* \"#utility.yul\":15500:15682   */\n    tag_267:\n        /* \"#utility.yul\":15640:15674   */\n      0x496e6469616e206361707461696e20616c726561647920636f6d6d6974746564\n        /* \"#utility.yul\":15636:15637   */\n      0x00\n        /* \"#utility.yul\":15628:15634   */\n      dup3\n        /* \"#utility.yul\":15624:15638   */\n      add\n        /* \"#utility.yul\":15617:15675   */\n      mstore\n        /* \"#utility.yul\":15500:15682   */\n      pop\n      jump\t// out\n        /* \"#utility.yul\":15688:16054   */\n    tag_268:\n        /* \"#utility.yul\":15830:15833   */\n      0x00\n        /* \"#utility.yul\":15851:15918   */\n      tag_430\n        /* \"#utility.yul\":15915:15917   */\n      0x20\n        /* \"#utility.yul\":15910:15913   */\n      dup4\n        /* \"#utility.yul\":15851:15918   */\n      tag_217\n      jump\t// in\n    tag_430:\n        /* \"#utility.yul\":15844:15918   */\n      swap2\n      pop\n        /* \"#utility.yul\":15927:16020   */\n      tag_431\n        /* \"#utility.yul\":16016:16019   */\n      dup3\n        /* \"#utility.yul\":15927:16020   */\n      tag_267\n      jump\t// in\n    tag_431:\n        /* \"#utility.yul\":16045:16047   */\n      0x20\n        /* \"#utility.yul\":16040:16043   */\n      dup3\n        /* \"#utility.yul\":16036:16048   */\n      add\n        /* \"#utility.yul\":16029:16048   */\n      swap1\n      pop\n        /* \"#utility.yul\":15688:16054   */\n      swap2\n      swap1\n      pop\n      jump\t// out\n        /* \"#utility.yul\":16060:16479   */\n    tag_170:\n        /* \"#utility.yul\":16226:16230   */\n      0x00\n        /* \"#utility.yul\":16264:16266   */\n      0x20\n        /* \"#utility.yul\":16253:16262   */\n      dup3\n        /* \"#utility.yul\":16249:16267   */\n      add\n        /* \"#utility.yul\":16241:16267   */\n      swap1\n      pop\n        /* \"#utility.yul\":16313:16322   */\n      dup2\n        /* \"#utility.yul\":16307:16311   */\n      dup2\n        /* \"#utility.yul\":16303:16323   */\n      sub\n        /* \"#utility.yul\":16299:16300   */\n      0x00\n        /* \"#utility.yul\":16288:16297   */\n      dup4\n        /* \"#utility.yul\":16284:16301   */\n      add\n        /* \"#utility.yul\":16277:16324   */\n      mstore\n        /* \"#utility.yul\":16341:16472   */\n      tag_433\n        /* \"#utility.yul\":16467:16471   */\n      dup2\n        /* \"#utility.yul\":16341:16472   */\n      tag_268\n      jump\t// in\n    tag_433:\n        /* \"#utility.yul\":16333:16472   */\n      swap1\n      pop\n        /* \"#utility.yul\":16060:16479   */\n      swap2\n      swap1\n      pop\n      jump\t// out\n        /* \"#utility.yul\":16485:16705   */\n    tag_269:\n        /* \"#utility.yul\":16625:16659   */\n      0x456e676c616e64206361707461696e20616c726561647920636f6d6d69747465\n        /* \"#utility.yul\":16621:16622   */\n      0x00\n        /* \"#utility.yul\":16613:16619   */\n      dup3\n        /* \"#utility.yul\":16609:16623   */\n      add\n        /* \"#utility.yul\":16602:16660   */\n      mstore\n        /* \"#utility.yul\":16694:16697   */\n      0x6400000000000000000000000000000000000000000000000000000000000000\n        /* \"#utility.yul\":16689:16691   */\n      0x20\n        /* \"#utility.yul\":16681:16687   */\n      dup3\n        /* \"#utility.yul\":16677:16692   */\n      add\n        /* \"#utility.yul\":16670:16698   */\n      mstore\n        /* \"#utility.yul\":16485:16705   */\n      pop\n      jump\t// out\n        /* \"#utility.yul\":16711:17077   */\n    tag_270:\n        /* \"#utility.yul\":16853:16856   */\n      0x00\n        /* \"#utility.yul\":16874:16941   */\n      tag_436\n        /* \"#utility.yul\":16938:16940   */\n      0x21\n        /* \"#utility.yul\":16933:16936   */\n      dup4\n        /* \"#utility.yul\":16874:16941   */\n      tag_217\n      jump\t// in\n    tag_436:\n        /* \"#utility.yul\":16867:16941   */\n      swap2\n      pop\n        /* \"#utility.yul\":16950:17043   */\n      tag_437\n        /* \"#utility.yul\":17039:17042   */\n      dup3\n        /* \"#utility.yul\":16950:17043   */\n      tag_269\n      jump\t// in\n    tag_437:\n        /* \"#utility.yul\":17068:17070   */\n      0x40\n        /* \"#utility.yul\":17063:17066   */\n      dup3\n        /* \"#utility.yul\":17059:17071   */\n      add\n        /* \"#utility.yul\":17052:17071   */\n      swap1\n      pop\n        /* \"#utility.yul\":16711:17077   */\n      swap2\n      swap1\n      pop\n      jump\t// out\n        /* \"#utility.yul\":17083:17502   */\n    tag_174:\n        /* \"#utility.yul\":17249:17253   */\n      0x00\n        /* \"#utility.yul\":17287:17289   */\n      0x20\n        /* \"#utility.yul\":17276:17285   */\n      dup3\n        /* \"#utility.yul\":17272:17290   */\n      add\n        /* \"#utility.yul\":17264:17290   */\n      swap1\n      pop\n        /* \"#utility.yul\":17336:17345   */\n      dup2\n        /* \"#utility.yul\":17330:17334   */\n      dup2\n        /* \"#utility.yul\":17326:17346   */\n      sub\n        /* \"#utility.yul\":17322:17323   */\n      0x00\n        /* \"#utility.yul\":17311:17320   */\n      dup4\n        /* \"#utility.yul\":17307:17324   */\n      add\n        /* \"#utility.yul\":17300:17347   */\n      mstore\n        /* \"#utility.yul\":17364:17495   */\n      tag_439\n        /* \"#utility.yul\":17490:17494   */\n      dup2\n        /* \"#utility.yul\":17364:17495   */\n      tag_270\n      jump\t// in\n    tag_439:\n        /* \"#utility.yul\":17356:17495   */\n      swap1\n      pop\n        /* \"#utility.yul\":17083:17502   */\n      swap2\n      swap1\n      pop\n      jump\t// out\n        /* \"#utility.yul\":17508:17687   */\n    tag_271:\n        /* \"#utility.yul\":17648:17679   */\n      0x4f6e6c7920726566657265652063616e20736574206361707461696e73000000\n        /* \"#utility.yul\":17644:17645   */\n      0x00\n        /* \"#utility.yul\":17636:17642   */\n      dup3\n        /* \"#utility.yul\":17632:17646   */\n      add\n        /* \"#utility.yul\":17625:17680   */\n      mstore\n        /* \"#utility.yul\":17508:17687   */\n      pop\n      jump\t// out\n        /* \"#utility.yul\":17693:18059   */\n    tag_272:\n        /* \"#utility.yul\":17835:17838   */\n      0x00\n        /* \"#utility.yul\":17856:17923   */\n      tag_442\n        /* \"#utility.yul\":17920:17922   */\n      0x1d\n        /* \"#utility.yul\":17915:17918   */\n      dup4\n        /* \"#utility.yul\":17856:17923   */\n      tag_217\n      jump\t// in\n    tag_442:\n        /* \"#utility.yul\":17849:17923   */\n      swap2\n      pop\n        /* \"#utility.yul\":17932:18025   */\n      tag_443\n        /* \"#utility.yul\":18021:18024   */\n      dup3\n        /* \"#utility.yul\":17932:18025   */\n      tag_271\n      jump\t// in\n    tag_443:\n        /* \"#utility.yul\":18050:18052   */\n      0x20\n        /* \"#utility.yul\":18045:18048   */\n      dup3\n        /* \"#utility.yul\":18041:18053   */\n      add\n        /* \"#utility.yul\":18034:18053   */\n      swap1\n      pop\n        /* \"#utility.yul\":17693:18059   */\n      swap2\n      swap1\n      pop\n      jump\t// out\n        /* \"#utility.yul\":18065:18484   */\n    tag_180:\n        /* \"#utility.yul\":18231:18235   */\n      0x00\n        /* \"#utility.yul\":18269:18271   */\n      0x20\n        /* \"#utility.yul\":18258:18267   */\n      dup3\n        /* \"#utility.yul\":18254:18272   */\n      add\n        /* \"#utility.yul\":18246:18272   */\n      swap1\n      pop\n        /* \"#utility.yul\":18318:18327   */\n      dup2\n        /* \"#utility.yul\":18312:18316   */\n      dup2\n        /* \"#utility.yul\":18308:18328   */\n      sub\n        /* \"#utility.yul\":18304:18305   */\n      0x00\n        /* \"#utility.yul\":18293:18302   */\n      dup4\n        /* \"#utility.yul\":18289:18306   */\n      add\n        /* \"#utility.yul\":18282:18329   */\n      mstore\n        /* \"#utility.yul\":18346:18477   */\n      tag_445\n        /* \"#utility.yul\":18472:18476   */\n      dup2\n        /* \"#utility.yul\":18346:18477   */\n      tag_272\n      jump\t// in\n    tag_445:\n        /* \"#utility.yul\":18338:18477   */\n      swap1\n      pop\n        /* \"#utility.yul\":18065:18484   */\n      swap2\n      swap1\n      pop\n      jump\t// out\n        /* \"#utility.yul\":18490:18660   */\n    tag_273:\n        /* \"#utility.yul\":18630:18652   */\n      0x4361707461696e7320616c726561647920736574000000000000000000000000\n        /* \"#utility.yul\":18626:18627   */\n      0x00\n        /* \"#utility.yul\":18618:18624   */\n      dup3\n        /* \"#utility.yul\":18614:18628   */\n      add\n        /* \"#utility.yul\":18607:18653   */\n      mstore\n        /* \"#utility.yul\":18490:18660   */\n      pop\n      jump\t// out\n        /* \"#utility.yul\":18666:19032   */\n    tag_274:\n        /* \"#utility.yul\":18808:18811   */\n      0x00\n        /* \"#utility.yul\":18829:18896   */\n      tag_448\n        /* \"#utility.yul\":18893:18895   */\n      0x14\n        /* \"#utility.yul\":18888:18891   */\n      dup4\n        /* \"#utility.yul\":18829:18896   */\n      tag_217\n      jump\t// in\n    tag_448:\n        /* \"#utility.yul\":18822:18896   */\n      swap2\n      pop\n        /* \"#utility.yul\":18905:18998   */\n      tag_449\n        /* \"#utility.yul\":18994:18997   */\n      dup3\n        /* \"#utility.yul\":18905:18998   */\n      tag_273\n      jump\t// in\n    tag_449:\n        /* \"#utility.yul\":19023:19025   */\n      0x20\n        /* \"#utility.yul\":19018:19021   */\n      dup3\n        /* \"#utility.yul\":19014:19026   */\n      add\n        /* \"#utility.yul\":19007:19026   */\n      swap1\n      pop\n        /* \"#utility.yul\":18666:19032   */\n      swap2\n      swap1\n      pop\n      jump\t// out\n        /* \"#utility.yul\":19038:19457   */\n    tag_184:\n        /* \"#utility.yul\":19204:19208   */\n      0x00\n        /* \"#utility.yul\":19242:19244   */\n      0x20\n        /* \"#utility.yul\":19231:19240   */\n      dup3\n        /* \"#utility.yul\":19227:19245   */\n      add\n        /* \"#utility.yul\":19219:19245   */\n      swap1\n      pop\n        /* \"#utility.yul\":19291:19300   */\n      dup2\n        /* \"#utility.yul\":19285:19289   */\n      dup2\n        /* \"#utility.yul\":19281:19301   */\n      sub\n        /* \"#utility.yul\":19277:19278   */\n      0x00\n        /* \"#utility.yul\":19266:19275   */\n      dup4\n        /* \"#utility.yul\":19262:19279   */\n      add\n        /* \"#utility.yul\":19255:19302   */\n      mstore\n        /* \"#utility.yul\":19319:19450   */\n      tag_451\n        /* \"#utility.yul\":19445:19449   */\n      dup2\n        /* \"#utility.yul\":19319:19450   */\n      tag_274\n      jump\t// in\n    tag_451:\n        /* \"#utility.yul\":19311:19450   */\n      swap1\n      pop\n        /* \"#utility.yul\":19038:19457   */\n      swap2\n      swap1\n      pop\n      jump\t// out\n        /* \"#utility.yul\":19463:19632   */\n    tag_275:\n        /* \"#utility.yul\":19603:19624   */\n      0x52657665616c20706572696f6420656e64656400000000000000000000000000\n        /* \"#utility.yul\":19599:19600   */\n      0x00\n        /* \"#utility.yul\":19591:19597   */\n      dup3\n        /* \"#utility.yul\":19587:19601   */\n      add\n        /* \"#utility.yul\":19580:19625   */\n      mstore\n        /* \"#utility.yul\":19463:19632   */\n      pop\n      jump\t// out\n        /* \"#utility.yul\":19638:20004   */\n    tag_276:\n        /* \"#utility.yul\":19780:19783   */\n      0x00\n        /* \"#utility.yul\":19801:19868   */\n      tag_454\n        /* \"#utility.yul\":19865:19867   */\n      0x13\n        /* \"#utility.yul\":19860:19863   */\n      dup4\n        /* \"#utility.yul\":19801:19868   */\n      tag_217\n      jump\t// in\n    tag_454:\n        /* \"#utility.yul\":19794:19868   */\n      swap2\n      pop\n        /* \"#utility.yul\":19877:19970   */\n      tag_455\n        /* \"#utility.yul\":19966:19969   */\n      dup3\n        /* \"#utility.yul\":19877:19970   */\n      tag_275\n      jump\t// in\n    tag_455:\n        /* \"#utility.yul\":19995:19997   */\n      0x20\n        /* \"#utility.yul\":19990:19993   */\n      dup3\n        /* \"#utility.yul\":19986:19998   */\n      add\n        /* \"#utility.yul\":19979:19998   */\n      swap1\n      pop\n        /* \"#utility.yul\":19638:20004   */\n      swap2\n      swap1\n      pop\n      jump\t// out\n        /* \"#utility.yul\":20010:20429   */\n    tag_192:\n        /* \"#utility.yul\":20176:20180   */\n      0x00\n        /* \"#utility.yul\":20214:20216   */\n      0x20\n        /* \"#utility.yul\":20203:20212   */\n      dup3\n        /* \"#utility.yul\":20199:20217   */\n      add\n        /* \"#utility.yul\":20191:20217   */\n      swap1\n      pop\n        /* \"#utility.yul\":20263:20272   */\n      dup2\n        /* \"#utility.yul\":20257:20261   */\n      dup2\n        /* \"#utility.yul\":20253:20273   */\n      sub\n        /* \"#utility.yul\":20249:20250   */\n      0x00\n        /* \"#utility.yul\":20238:20247   */\n      dup4\n        /* \"#utility.yul\":20234:20251   */\n      add\n        /* \"#utility.yul\":20227:20274   */\n      mstore\n        /* \"#utility.yul\":20291:20422   */\n      tag_457\n        /* \"#utility.yul\":20417:20421   */\n      dup2\n        /* \"#utility.yul\":20291:20422   */\n      tag_276\n      jump\t// in\n    tag_457:\n        /* \"#utility.yul\":20283:20422   */\n      swap1\n      pop\n        /* \"#utility.yul\":20010:20429   */\n      swap2\n      swap1\n      pop\n      jump\t// out\n        /* \"#utility.yul\":20435:20616   */\n    tag_277:\n        /* \"#utility.yul\":20575:20608   */\n      0x496e6469616e206361707461696e20616c72656164792072657665616c656400\n        /* \"#utility.yul\":20571:20572   */\n      0x00\n        /* \"#utility.yul\":20563:20569   */\n      dup3\n        /* \"#utility.yul\":20559:20573   */\n      add\n        /* \"#utility.yul\":20552:20609   */\n      mstore\n        /* \"#utility.yul\":20435:20616   */\n      pop\n      jump\t// out\n        /* \"#utility.yul\":20622:20988   */\n    tag_278:\n        /* \"#utility.yul\":20764:20767   */\n      0x00\n        /* \"#utility.yul\":20785:20852   */\n      tag_460\n        /* \"#utility.yul\":20849:20851   */\n      0x1f\n        /* \"#utility.yul\":20844:20847   */\n      dup4\n        /* \"#utility.yul\":20785:20852   */\n      tag_217\n      jump\t// in\n    tag_460:\n        /* \"#utility.yul\":20778:20852   */\n      swap2\n      pop\n        /* \"#utility.yul\":20861:20954   */\n      tag_461\n        /* \"#utility.yul\":20950:20953   */\n      dup3\n        /* \"#utility.yul\":20861:20954   */\n      tag_277\n      jump\t// in\n    tag_461:\n        /* \"#utility.yul\":20979:20981   */\n      0x20\n        /* \"#utility.yul\":20974:20977   */\n      dup3\n        /* \"#utility.yul\":20970:20982   */\n      add\n        /* \"#utility.yul\":20963:20982   */\n      swap1\n      pop\n        /* \"#utility.yul\":20622:20988   */\n      swap2\n      swap1\n      pop\n      jump\t// out\n        /* \"#utility.yul\":20994:21413   */\n    tag_200:\n        /* \"#utility.yul\":21160:21164   */\n      0x00\n        /* \"#utility.yul\":21198:21200   */\n      0x20\n        /* \"#utility.yul\":21187:21196   */\n      dup3\n        /* \"#utility.yul\":21183:21201   */\n      add\n        /* \"#utility.yul\":21175:21201   */\n      swap1\n      pop\n        /* \"#utility.yul\":21247:21256   */\n      dup2\n        /* \"#utility.yul\":21241:21245   */\n      dup2\n        /* \"#utility.yul\":21237:21257   */\n      sub\n        /* \"#utility.yul\":21233:21234   */\n      0x00\n        /* \"#utility.yul\":21222:21231   */\n      dup4\n        /* \"#utility.yul\":21218:21235   */\n      add\n        /* \"#utility.yul\":21211:21258   */\n      mstore\n        /* \"#utility.yul\":21275:21406   */\n      tag_463\n        /* \"#utility.yul\":21401:21405   */\n      dup2\n        /* \"#utility.yul\":21275:21406   */\n      tag_278\n      jump\t// in\n    tag_463:\n        /* \"#utility.yul\":21267:21406   */\n      swap1\n      pop\n        /* \"#utility.yul\":20994:21413   */\n      swap2\n      swap1\n      pop\n      jump\t// out\n        /* \"#utility.yul\":21419:21589   */\n    tag_279:\n        /* \"#utility.yul\":21559:21581   */\n      0x496e6469616e2068617368206d69736d61746368000000000000000000000000\n        /* \"#utility.yul\":21555:21556   */\n      0x00\n        /* \"#utility.yul\":21547:21553   */\n      dup3\n        /* \"#utility.yul\":21543:21557   */\n      add\n        /* \"#utility.yul\":21536:21582   */\n      mstore\n        /* \"#utility.yul\":21419:21589   */\n      pop\n      jump\t// out\n        /* \"#utility.yul\":21595:21961   */\n    tag_280:\n        /* \"#utility.yul\":21737:21740   */\n      0x00\n        /* \"#utility.yul\":21758:21825   */\n      tag_466\n        /* \"#utility.yul\":21822:21824   */\n      0x14\n        /* \"#utility.yul\":21817:21820   */\n      dup4\n        /* \"#utility.yul\":21758:21825   */\n      tag_217\n      jump\t// in\n    tag_466:\n        /* \"#utility.yul\":21751:21825   */\n      swap2\n      pop\n        /* \"#utility.yul\":21834:21927   */\n      tag_467\n        /* \"#utility.yul\":21923:21926   */\n      dup3\n        /* \"#utility.yul\":21834:21927   */\n      tag_279\n      jump\t// in\n    tag_467:\n        /* \"#utility.yul\":21952:21954   */\n      0x20\n        /* \"#utility.yul\":21947:21950   */\n      dup3\n        /* \"#utility.yul\":21943:21955   */\n      add\n        /* \"#utility.yul\":21936:21955   */\n      swap1\n      pop\n        /* \"#utility.yul\":21595:21961   */\n      swap2\n      swap1\n      pop\n      jump\t// out\n        /* \"#utility.yul\":21967:22386   */\n    tag_203:\n        /* \"#utility.yul\":22133:22137   */\n      0x00\n        /* \"#utility.yul\":22171:22173   */\n      0x20\n        /* \"#utility.yul\":22160:22169   */\n      dup3\n        /* \"#utility.yul\":22156:22174   */\n      add\n        /* \"#utility.yul\":22148:22174   */\n      swap1\n      pop\n        /* \"#utility.yul\":22220:22229   */\n      dup2\n        /* \"#utility.yul\":22214:22218   */\n      dup2\n        /* \"#utility.yul\":22210:22230   */\n      sub\n        /* \"#utility.yul\":22206:22207   */\n      0x00\n        /* \"#utility.yul\":22195:22204   */\n      dup4\n        /* \"#utility.yul\":22191:22208   */\n      add\n        /* \"#utility.yul\":22184:22231   */\n      mstore\n        /* \"#utility.yul\":22248:22379   */\n      tag_469\n        /* \"#utility.yul\":22374:22378   */\n      dup2\n        /* \"#utility.yul\":22248:22379   */\n      tag_280\n      jump\t// in\n    tag_469:\n        /* \"#utility.yul\":22240:22379   */\n      swap1\n      pop\n        /* \"#utility.yul\":21967:22386   */\n      swap2\n      swap1\n      pop\n      jump\t// out\n        /* \"#utility.yul\":22392:22574   */\n    tag_281:\n        /* \"#utility.yul\":22532:22566   */\n      0x456e676c616e64206361707461696e20616c72656164792072657665616c6564\n        /* \"#utility.yul\":22528:22529   */\n      0x00\n        /* \"#utility.yul\":22520:22526   */\n      dup3\n        /* \"#utility.yul\":22516:22530   */\n      add\n        /* \"#utility.yul\":22509:22567   */\n      mstore\n        /* \"#utility.yul\":22392:22574   */\n      pop\n      jump\t// out\n        /* \"#utility.yul\":22580:22946   */\n    tag_282:\n        /* \"#utility.yul\":22722:22725   */\n      0x00\n        /* \"#utility.yul\":22743:22810   */\n      tag_472\n        /* \"#utility.yul\":22807:22809   */\n      0x20\n        /* \"#utility.yul\":22802:22805   */\n      dup4\n        /* \"#utility.yul\":22743:22810   */\n      tag_217\n      jump\t// in\n    tag_472:\n        /* \"#utility.yul\":22736:22810   */\n      swap2\n      pop\n        /* \"#utility.yul\":22819:22912   */\n      tag_473\n        /* \"#utility.yul\":22908:22911   */\n      dup3\n        /* \"#utility.yul\":22819:22912   */\n      tag_281\n      jump\t// in\n    tag_473:\n        /* \"#utility.yul\":22937:22939   */\n      0x20\n        /* \"#utility.yul\":22932:22935   */\n      dup3\n        /* \"#utility.yul\":22928:22940   */\n      add\n        /* \"#utility.yul\":22921:22940   */\n      swap1\n      pop\n        /* \"#utility.yul\":22580:22946   */\n      swap2\n      swap1\n      pop\n      jump\t// out\n        /* \"#utility.yul\":22952:23371   */\n    tag_207:\n        /* \"#utility.yul\":23118:23122   */\n      0x00\n        /* \"#utility.yul\":23156:23158   */\n      0x20\n        /* \"#utility.yul\":23145:23154   */\n      dup3\n        /* \"#utility.yul\":23141:23159   */\n      add\n        /* \"#utility.yul\":23133:23159   */\n      swap1\n      pop\n        /* \"#utility.yul\":23205:23214   */\n      dup2\n        /* \"#utility.yul\":23199:23203   */\n      dup2\n        /* \"#utility.yul\":23195:23215   */\n      sub\n        /* \"#utility.yul\":23191:23192   */\n      0x00\n        /* \"#utility.yul\":23180:23189   */\n      dup4\n        /* \"#utility.yul\":23176:23193   */\n      add\n        /* \"#utility.yul\":23169:23216   */\n      mstore\n        /* \"#utility.yul\":23233:23364   */\n      tag_475\n        /* \"#utility.yul\":23359:23363   */\n      dup2\n        /* \"#utility.yul\":23233:23364   */\n      tag_282\n      jump\t// in\n    tag_475:\n        /* \"#utility.yul\":23225:23364   */\n      swap1\n      pop\n        /* \"#utility.yul\":22952:23371   */\n      swap2\n      swap1\n      pop\n      jump\t// out\n        /* \"#utility.yul\":23377:23548   */\n    tag_283:\n        /* \"#utility.yul\":23517:23540   */\n      0x456e676c616e642068617368206d69736d617463680000000000000000000000\n        /* \"#utility.yul\":23513:23514   */\n      0x00\n        /* \"#utility.yul\":23505:23511   */\n      dup3\n        /* \"#utility.yul\":23501:23515   */\n      add\n        /* \"#utility.yul\":23494:23541   */\n      mstore\n        /* \"#utility.yul\":23377:23548   */\n      pop\n      jump\t// out\n        /* \"#utility.yul\":23554:23920   */\n    tag_284:\n        /* \"#utility.yul\":23696:23699   */\n      0x00\n        /* \"#utility.yul\":23717:23784   */\n      tag_478\n        /* \"#utility.yul\":23781:23783   */\n      0x15\n        /* \"#utility.yul\":23776:23779   */\n      dup4\n        /* \"#utility.yul\":23717:23784   */\n      tag_217\n      jump\t// in\n    tag_478:\n        /* \"#utility.yul\":23710:23784   */\n      swap2\n      pop\n        /* \"#utility.yul\":23793:23886   */\n      tag_479\n        /* \"#utility.yul\":23882:23885   */\n      dup3\n        /* \"#utility.yul\":23793:23886   */\n      tag_283\n      jump\t// in\n    tag_479:\n        /* \"#utility.yul\":23911:23913   */\n      0x20\n        /* \"#utility.yul\":23906:23909   */\n      dup3\n        /* \"#utility.yul\":23902:23914   */\n      add\n        /* \"#utility.yul\":23895:23914   */\n      swap1\n      pop\n        /* \"#utility.yul\":23554:23920   */\n      swap2\n      swap1\n      pop\n      jump\t// out\n        /* \"#utility.yul\":23926:24345   */\n    tag_210:\n        /* \"#utility.yul\":24092:24096   */\n      0x00\n        /* \"#utility.yul\":24130:24132   */\n      0x20\n        /* \"#utility.yul\":24119:24128   */\n      dup3\n        /* \"#utility.yul\":24115:24133   */\n      add\n        /* \"#utility.yul\":24107:24133   */\n      swap1\n      pop\n        /* \"#utility.yul\":24179:24188   */\n      dup2\n        /* \"#utility.yul\":24173:24177   */\n      dup2\n        /* \"#utility.yul\":24169:24189   */\n      sub\n        /* \"#utility.yul\":24165:24166   */\n      0x00\n        /* \"#utility.yul\":24154:24163   */\n      dup4\n        /* \"#utility.yul\":24150:24167   */\n      add\n        /* \"#utility.yul\":24143:24190   */\n      mstore\n        /* \"#utility.yul\":24207:24338   */\n      tag_481\n        /* \"#utility.yul\":24333:24337   */\n      dup2\n        /* \"#utility.yul\":24207:24338   */\n      tag_284\n      jump\t// in\n    tag_481:\n        /* \"#utility.yul\":24199:24338   */\n      swap1\n      pop\n        /* \"#utility.yul\":23926:24345   */\n      swap2\n      swap1\n      pop\n      jump\t// out\n        /* \"#utility.yul\":24351:24531   */\n    tag_285:\n        /* \"#utility.yul\":24399:24476   */\n      0x4e487b7100000000000000000000000000000000000000000000000000000000\n        /* \"#utility.yul\":24396:24397   */\n      0x00\n        /* \"#utility.yul\":24389:24477   */\n      mstore\n        /* \"#utility.yul\":24496:24500   */\n      0x11\n        /* \"#utility.yul\":24493:24494   */\n      0x04\n        /* \"#utility.yul\":24486:24501   */\n      mstore\n        /* \"#utility.yul\":24520:24524   */\n      0x24\n        /* \"#utility.yul\":24517:24518   */\n      0x00\n        /* \"#utility.yul\":24510:24525   */\n      revert\n        /* \"#utility.yul\":24537:24728   */\n    tag_216:\n        /* \"#utility.yul\":24577:24580   */\n      0x00\n        /* \"#utility.yul\":24596:24616   */\n      tag_484\n        /* \"#utility.yul\":24614:24615   */\n      dup3\n        /* \"#utility.yul\":24596:24616   */\n      tag_231\n      jump\t// in\n    tag_484:\n        /* \"#utility.yul\":24591:24616   */\n      swap2\n      pop\n        /* \"#utility.yul\":24630:24650   */\n      tag_485\n        /* \"#utility.yul\":24648:24649   */\n      dup4\n        /* \"#utility.yul\":24630:24650   */\n      tag_231\n      jump\t// in\n    tag_485:\n        /* \"#utility.yul\":24625:24650   */\n      swap3\n      pop\n        /* \"#utility.yul\":24673:24674   */\n      dup3\n        /* \"#utility.yul\":24670:24671   */\n      dup3\n        /* \"#utility.yul\":24666:24675   */\n      add\n        /* \"#utility.yul\":24659:24675   */\n      swap1\n      pop\n        /* \"#utility.yul\":24694:24697   */\n      dup1\n        /* \"#utility.yul\":24691:24692   */\n      dup3\n        /* \"#utility.yul\":24688:24698   */\n      gt\n        /* \"#utility.yul\":24685:24721   */\n      iszero\n      tag_486\n      jumpi\n        /* \"#utility.yul\":24701:24719   */\n      tag_487\n      tag_285\n      jump\t// in\n    tag_487:\n        /* \"#utility.yul\":24685:24721   */\n    tag_486:\n        /* \"#utility.yul\":24537:24728   */\n      swap3\n      swap2\n      pop\n      pop\n      jump\t// out\n\n    auxdata: 0xa26469706673582212208fe267c228486bfc817fe6c303c6feb4d75b54ce91a2f167c3619ffb942cafc464736f6c634300081e0033\n}\n",
				"bytecode": {
					"linkReferences": {},
					"object": "60a0604052348015600e575f5ffd5b503373ffffffffffffffffffffffffffffffffffffffff1660808173ffffffffffffffffffffffffffffffffffffffff16815250506080516120526100705f395f818161060601528181610a0901528181610a9d0152610e9701526120525ff3fe60806040526004361061010c575f3560e01c8063810a899911610094578063a248545111610063578063a24854511461050f578063b14b28a314610539578063bd41d25314610563578063ca3ed9e81461058d578063e2982c21146105b557610301565b8063810a89991461046957806387e696251461049357806392881152146104bd57806393d67246146104e757610301565b80633b1bebd1116100db5780633b1bebd114610399578063458698ff146103c357806349c2bd83146103ed5780635e63d89014610417578063737af77a1461044157610301565b80630f8f655e1461030557806311da60b41461032f578063360eb12c14610345578063386255561461036f57610301565b36610301575f5f9054906101000a900473ffffffffffffffffffffffffffffffffffffffff1673ffffffffffffffffffffffffffffffffffffffff163373ffffffffffffffffffffffffffffffffffffffff1614806101b7575060015f9054906101000a900473ffffffffffffffffffffffffffffffffffffffff1673ffffffffffffffffffffffffffffffffffffffff163373ffffffffffffffffffffffffffffffffffffffff16145b6101f6576040517f08c379a00000000000000000000000000000000000000000000000000000000081526004016101ed9061152e565b60405180910390fd5b66071afd498d0000341461023f576040517f08c379a000000000000000000000000000000000000000000000000000000000815260040161023690611596565b60405180910390fd5b5f60025f3373ffffffffffffffffffffffffffffffffffffffff1673ffffffffffffffffffffffffffffffffffffffff1681526020019081526020015f2054146102be576040517f08c379a00000000000000000000000000000000000000000000000000000000081526004016102b5906115fe565b60405180910390fd5b3460025f3373ffffffffffffffffffffffffffffffffffffffff1673ffffffffffffffffffffffffffffffffffffffff1681526020019081526020015f20819055005b5f5ffd5b348015610310575f5ffd5b506103196105f1565b6040516103269190611636565b60405180910390f35b34801561033a575f5ffd5b50610343610604565b005b348015610350575f5ffd5b50610359610a71565b6040516103669190611667565b60405180910390f35b34801561037a575f5ffd5b50610383610a77565b60405161039091906116bf565b60405180910390f35b3480156103a4575f5ffd5b506103ad610a9b565b6040516103ba91906116bf565b60405180910390f35b3480156103ce575f5ffd5b506103d7610abf565b6040516103e49190611667565b60405180910390f35b3480156103f8575f5ffd5b50610401610ac5565b60405161040e9190611636565b60405180910390f35b348015610422575f5ffd5b5061042b610ba2565b60405161043891906116f0565b60405180910390f35b34801561044c575f5ffd5b506104676004803603810190610462919061188c565b610ba8565b005b348015610474575f5ffd5b5061047d610e53565b60405161048a91906118f5565b60405180910390f35b34801561049e575f5ffd5b506104a7610e65565b6040516104b491906116f0565b60405180910390f35b3480156104c8575f5ffd5b506104d1610e70565b6040516104de91906116bf565b60405180910390f35b3480156104f2575f5ffd5b5061050d60048036038101906105089190611938565b610e95565b005b34801561051a575f5ffd5b5061052361108c565b60405161053091906118f5565b60405180910390f35b348015610544575f5ffd5b5061054d61109f565b60405161055a91906116f0565b60405180910390f35b34801561056e575f5ffd5b506105776110a5565b6040516105849190611636565b60405180910390f35b348015610598575f5ffd5b506105b360048036038101906105ae919061188c565b6110b8565b005b3480156105c0575f5ffd5b506105db60048036038101906105d69190611976565b611452565b6040516105e891906116f0565b60405180910390f35b600560039054906101000a900460ff1681565b7f000000000000000000000000000000000000000000000000000000000000000073ffffffffffffffffffffffffffffffffffffffff163373ffffffffffffffffffffffffffffffffffffffff1614610692576040517f08c379a0000000000000000000000000000000000000000000000000000000008152600401610689906119eb565b60405180910390fd5b5f600754141580156106a657506007544210155b6106e5576040517f08c379a00000000000000000000000000000000000000000000000000000000081526004016106dc90611a53565b60405180910390fd5b5f479050600560029054906101000a900460ff1680156107115750600560039054906101000a900460ff165b1561090a576001600560019054906101000a900460ff1660055f9054906101000a900460ff161860ff160361082d57600160055f9054906101000a900460ff1660ff16036107c2575f5f9054906101000a900473ffffffffffffffffffffffffffffffffffffffff1673ffffffffffffffffffffffffffffffffffffffff166108fc8290811502906040515f60405180830381858888f193505050501580156107bc573d5f5f3e3d5ffd5b50610828565b60015f9054906101000a900473ffffffffffffffffffffffffffffffffffffffff1673ffffffffffffffffffffffffffffffffffffffff166108fc8290811502906040515f60405180830381858888f19350505050158015610826573d5f5f3e3d5ffd5b505b610905565b5f5f9054906101000a900473ffffffffffffffffffffffffffffffffffffffff1673ffffffffffffffffffffffffffffffffffffffff166108fc66071afd498d000090811502906040515f60405180830381858888f19350505050158015610897573d5f5f3e3d5ffd5b5060015f9054906101000a900473ffffffffffffffffffffffffffffffffffffffff1673ffffffffffffffffffffffffffffffffffffffff166108fc66071afd498d000090811502906040515f60405180830381858888f19350505050158015610903573d5f5f3e3d5ffd5b505b610a6e565b600560029054906101000a900460ff1615610988575f5f9054906101000a900473ffffffffffffffffffffffffffffffffffffffff1673ffffffffffffffffffffffffffffffffffffffff166108fc8290811502906040515f60405180830381858888f19350505050158015610982573d5f5f3e3d5ffd5b50610a6d565b600560039054906101000a900460ff1615610a075760015f9054906101000a900473ffffffffffffffffffffffffffffffffffffffff1673ffffffffffffffffffffffffffffffffffffffff166108fc8290811502906040515f60405180830381858888f19350505050158015610a01573d5f5f3e3d5ffd5b50610a6c565b7f000000000000000000000000000000000000000000000000000000000000000073ffffffffffffffffffffffffffffffffffffffff166108fc8290811502906040515f60405180830381858888f19350505050158015610a6a573d5f5f3e3d5ffd5b505b5b5b50565b60045481565b5f5f9054906101000a900473ffffffffffffffffffffffffffffffffffffffff1681565b7f000000000000000000000000000000000000000000000000000000000000000081565b60035481565b5f66071afd498d000060025f5f5f9054906101000a900473ffffffffffffffffffffffffffffffffffffffff1673ffffffffffffffffffffffffffffffffffffffff1673ffffffffffffffffffffffffffffffffffffffff1681526020019081526020015f2054148015610b9d575066071afd498d000060025f60015f9054906101000a900473ffffffffffffffffffffffffffffffffffffffff1673ffffffffffffffffffffffffffffffffffffffff1673ffffffffffffffffffffffffffffffffffffffff1681526020019081526020015f2054145b905090565b60065481565b5f5f9054906101000a900473ffffffffffffffffffffffffffffffffffffffff1673ffffffffffffffffffffffffffffffffffffffff163373ffffffffffffffffffffffffffffffffffffffff161480610c4e575060015f9054906101000a900473ffffffffffffffffffffffffffffffffffffffff1673ffffffffffffffffffffffffffffffffffffffff163373ffffffffffffffffffffffffffffffffffffffff16145b610c8d576040517f08c379a0000000000000000000000000000000000000000000000000000000008152600401610c849061152e565b60405180910390fd5b610c95610ac5565b610cd4576040517f08c379a0000000000000000000000000000000000000000000000000000000008152600401610ccb90611abb565b60405180910390fd5b5f8260ff161480610ce8575060018260ff16145b610d27576040517f08c379a0000000000000000000000000000000000000000000000000000000008152600401610d1e90611b23565b60405180910390fd5b5f8282604051602001610d3b929190611bc7565b6040516020818303038152906040528051906020012090505f5f9054906101000a900473ffffffffffffffffffffffffffffffffffffffff1673ffffffffffffffffffffffffffffffffffffffff163373ffffffffffffffffffffffffffffffffffffffff1603610df8575f5f1b60035414610dec576040517f08c379a0000000000000000000000000000000000000000000000000000000008152600401610de390611c38565b60405180910390fd5b80600381905550610e46565b5f5f1b60045414610e3e576040517f08c379a0000000000000000000000000000000000000000000000000000000008152600401610e3590611cc6565b60405180910390fd5b806004819055505b610e4e611467565b505050565b60055f9054906101000a900460ff1681565b66071afd498d000081565b60015f9054906101000a900473ffffffffffffffffffffffffffffffffffffffff1681565b7f000000000000000000000000000000000000000000000000000000000000000073ffffffffffffffffffffffffffffffffffffffff163373ffffffffffffffffffffffffffffffffffffffff1614610f23576040517f08c379a0000000000000000000000000000000000000000000000000000000008152600401610f1a90611d2e565b60405180910390fd5b5f73ffffffffffffffffffffffffffffffffffffffff165f5f9054906101000a900473ffffffffffffffffffffffffffffffffffffffff1673ffffffffffffffffffffffffffffffffffffffff16148015610fca57505f73ffffffffffffffffffffffffffffffffffffffff1660015f9054906101000a900473ffffffffffffffffffffffffffffffffffffffff1673ffffffffffffffffffffffffffffffffffffffff16145b611009576040517f08c379a000000000000000000000000000000000000000000000000000000000815260040161100090611d96565b60405180910390fd5b815f5f6101000a81548173ffffffffffffffffffffffffffffffffffffffff021916908373ffffffffffffffffffffffffffffffffffffffff1602179055508060015f6101000a81548173ffffffffffffffffffffffffffffffffffffffff021916908373ffffffffffffffffffffffffffffffffffffffff1602179055505050565b600560019054906101000a900460ff1681565b60075481565b600560029054906101000a900460ff1681565b5f5f9054906101000a900473ffffffffffffffffffffffffffffffffffffffff1673ffffffffffffffffffffffffffffffffffffffff163373ffffffffffffffffffffffffffffffffffffffff16148061115e575060015f9054906101000a900473ffffffffffffffffffffffffffffffffffffffff1673ffffffffffffffffffffffffffffffffffffffff163373ffffffffffffffffffffffffffffffffffffffff16145b61119d576040517f08c379a00000000000000000000000000000000000000000000000000000000081526004016111949061152e565b60405180910390fd5b6007544211156111e2576040517f08c379a00000000000000000000000000000000000000000000000000000000081526004016111d990611dfe565b60405180910390fd5b5f8260ff1614806111f6575060018260ff16145b611235576040517f08c379a000000000000000000000000000000000000000000000000000000000815260040161122c90611b23565b60405180910390fd5b5f8282604051602001611249929190611bc7565b6040516020818303038152906040528051906020012090505f5f9054906101000a900473ffffffffffffffffffffffffffffffffffffffff1673ffffffffffffffffffffffffffffffffffffffff163373ffffffffffffffffffffffffffffffffffffffff160361138257600560029054906101000a900460ff1615611304576040517f08c379a00000000000000000000000000000000000000000000000000000000081526004016112fb90611e66565b60405180910390fd5b6003548114611348576040517f08c379a000000000000000000000000000000000000000000000000000000000815260040161133f90611ece565b60405180910390fd5b8260055f6101000a81548160ff021916908360ff1602179055506001600560026101000a81548160ff02191690831515021790555061144d565b600560039054906101000a900460ff16156113d2576040517f08c379a00000000000000000000000000000000000000000000000000000000081526004016113c990611f36565b60405180910390fd5b6004548114611416576040517f08c379a000000000000000000000000000000000000000000000000000000000815260040161140d90611f9e565b60405180910390fd5b82600560016101000a81548160ff021916908360ff1602179055506001600560036101000a81548160ff0219169083151502179055505b505050565b6002602052805f5260405f205f915090505481565b5f5f1b6003541415801561147f57505f5f1b60045414155b801561148c57505f600654145b156114ac574260068190555060b4426114a59190611fe9565b6007819055505b565b5f82825260208201905092915050565b7f4f6e6c79206361707461696e732063616e2063616c6c20746869732066756e635f8201527f74696f6e00000000000000000000000000000000000000000000000000000000602082015250565b5f6115186024836114ae565b9150611523826114be565b604082019050919050565b5f6020820190508181035f8301526115458161150c565b9050919050565b7f4d7573742073656e642065786163746c7920302e3030322045544800000000005f82015250565b5f611580601b836114ae565b915061158b8261154c565b602082019050919050565b5f6020820190508181035f8301526115ad81611574565b9050919050565b7f416c7265616479207061696400000000000000000000000000000000000000005f82015250565b5f6115e8600c836114ae565b91506115f3826115b4565b602082019050919050565b5f6020820190508181035f830152611615816115dc565b9050919050565b5f8115159050919050565b6116308161161c565b82525050565b5f6020820190506116495f830184611627565b92915050565b5f819050919050565b6116618161164f565b82525050565b5f60208201905061167a5f830184611658565b92915050565b5f73ffffffffffffffffffffffffffffffffffffffff82169050919050565b5f6116a982611680565b9050919050565b6116b98161169f565b82525050565b5f6020820190506116d25f8301846116b0565b92915050565b5f819050919050565b6116ea816116d8565b82525050565b5f6020820190506117035f8301846116e1565b92915050565b5f604051905090565b5f5ffd5b5f5ffd5b5f60ff82169050919050565b61172f8161171a565b8114611739575f5ffd5b50565b5f8135905061174a81611726565b92915050565b5f5ffd5b5f5ffd5b5f601f19601f8301169050919050565b7f4e487b71000000000000000000000000000000000000000000000000000000005f52604160045260245ffd5b61179e82611758565b810181811067ffffffffffffffff821117156117bd576117bc611768565b5b80604052505050565b5f6117cf611709565b90506117db8282611795565b919050565b5f67ffffffffffffffff8211156117fa576117f9611768565b5b61180382611758565b9050602081019050919050565b828183375f83830152505050565b5f61183061182b846117e0565b6117c6565b90508281526020810184848401111561184c5761184b611754565b5b611857848285611810565b509392505050565b5f82601f83011261187357611872611750565b5b813561188384826020860161181e565b91505092915050565b5f5f604083850312156118a2576118a1611712565b5b5f6118af8582860161173c565b925050602083013567ffffffffffffffff8111156118d0576118cf611716565b5b6118dc8582860161185f565b9150509250929050565b6118ef8161171a565b82525050565b5f6020820190506119085f8301846118e6565b92915050565b6119178161169f565b8114611921575f5ffd5b50565b5f813590506119328161190e565b92915050565b5f5f6040838503121561194e5761194d611712565b5b5f61195b85828601611924565b925050602061196c85828601611924565b9150509250929050565b5f6020828403121561198b5761198a611712565b5b5f61199884828501611924565b91505092915050565b7f4f6e6c7920726566657265652063616e20736574746c650000000000000000005f82015250565b5f6119d56017836114ae565b91506119e0826119a1565b602082019050919050565b5f6020820190508181035f830152611a02816119c9565b9050919050565b7f446561646c696e65206e6f7420726561636865642079657400000000000000005f82015250565b5f611a3d6018836114ae565b9150611a4882611a09565b602082019050919050565b5f6020820190508181035f830152611a6a81611a31565b9050919050565b7f426f7468206361707461696e73206d75737420706179206669727374000000005f82015250565b5f611aa5601c836114ae565b9150611ab082611a71565b602082019050919050565b5f6020820190508181035f830152611ad281611a99565b9050919050565b7f43686f696365206d7573742062652030206f72203100000000000000000000005f82015250565b5f611b0d6015836114ae565b9150611b1882611ad9565b602082019050919050565b5f6020820190508181035f830152611b3a81611b01565b9050919050565b5f8160f81b9050919050565b5f611b5782611b41565b9050919050565b611b6f611b6a8261171a565b611b4d565b82525050565b5f81519050919050565b5f81905092915050565b8281835e5f83830152505050565b5f611ba182611b75565b611bab8185611b7f565b9350611bbb818560208601611b89565b80840191505092915050565b5f611bd28285611b5e565b600182019150611be28284611b97565b91508190509392505050565b7f496e6469616e206361707461696e20616c726561647920636f6d6d69747465645f82015250565b5f611c226020836114ae565b9150611c2d82611bee565b602082019050919050565b5f6020820190508181035f830152611c4f81611c16565b9050919050565b7f456e676c616e64206361707461696e20616c726561647920636f6d6d697474655f8201527f6400000000000000000000000000000000000000000000000000000000000000602082015250565b5f611cb06021836114ae565b9150611cbb82611c56565b604082019050919050565b5f6020820190508181035f830152611cdd81611ca4565b9050919050565b7f4f6e6c7920726566657265652063616e20736574206361707461696e730000005f82015250565b5f611d18601d836114ae565b9150611d2382611ce4565b602082019050919050565b5f6020820190508181035f830152611d4581611d0c565b9050919050565b7f4361707461696e7320616c7265616479207365740000000000000000000000005f82015250565b5f611d806014836114ae565b9150611d8b82611d4c565b602082019050919050565b5f6020820190508181035f830152611dad81611d74565b9050919050565b7f52657665616c20706572696f6420656e646564000000000000000000000000005f82015250565b5f611de86013836114ae565b9150611df382611db4565b602082019050919050565b5f6020820190508181035f830152611e1581611ddc565b9050919050565b7f496e6469616e206361707461696e20616c72656164792072657665616c6564005f82015250565b5f611e50601f836114ae565b9150611e5b82611e1c565b602082019050919050565b5f6020820190508181035f830152611e7d81611e44565b9050919050565b7f496e6469616e2068617368206d69736d617463680000000000000000000000005f82015250565b5f611eb86014836114ae565b9150611ec382611e84565b602082019050919050565b5f6020820190508181035f830152611ee581611eac565b9050919050565b7f456e676c616e64206361707461696e20616c72656164792072657665616c65645f82015250565b5f611f206020836114ae565b9150611f2b82611eec565b602082019050919050565b5f6020820190508181035f830152611f4d81611f14565b9050919050565b7f456e676c616e642068617368206d69736d6174636800000000000000000000005f82015250565b5f611f886015836114ae565b9150611f9382611f54565b602082019050919050565b5f6020820190508181035f830152611fb581611f7c565b9050919050565b7f4e487b71000000000000000000000000000000000000000000000000000000005f52601160045260245ffd5b5f611ff3826116d8565b9150611ffe836116d8565b925082820190508082111561201657612015611fbc565b5b9291505056fea26469706673582212208fe267c228486bfc817fe6c303c6feb4d75b54ce91a2f167c3619ffb942cafc464736f6c634300081e0033",
					"opcodes": "PUSH1 0xA0 PUSH1 0x40 MSTORE CALLVALUE DUP1 ISZERO PUSH1 0xE JUMPI PUSH0 PUSH0 REVERT JUMPDEST POP CALLER PUSH20 0xFFFFFFFFFFFFFFFFFFFFFFFFFFFFFFFFFFFFFFFF AND PUSH1 0x80 DUP2 PUSH20 0xFFFFFFFFFFFFFFFFFFFFFFFFFFFFFFFFFFFFFFFF AND DUP2 MSTORE POP POP PUSH1 0x80 MLOAD PUSH2 0x2052 PUSH2 0x70 PUSH0 CODECOPY PUSH0 DUP2 DUP2 PUSH2 0x606 ADD MSTORE DUP2 DUP2 PUSH2 0xA09 ADD MSTORE DUP2 DUP2 PUSH2 0xA9D ADD MSTORE PUSH2 0xE97 ADD MSTORE PUSH2 0x2052 PUSH0 RETURN INVALID PUSH1 0x80 PUSH1 0x40 MSTORE PUSH1 0x4 CALLDATASIZE LT PUSH2 0x10C JUMPI PUSH0 CALLDATALOAD PUSH1 0xE0 SHR DUP1 PUSH4 0x810A8999 GT PUSH2 0x94 JUMPI DUP1 PUSH4 0xA2485451 GT PUSH2 0x63 JUMPI DUP1 PUSH4 0xA2485451 EQ PUSH2 0x50F JUMPI DUP1 PUSH4 0xB14B28A3 EQ PUSH2 0x539 JUMPI DUP1 PUSH4 0xBD41D253 EQ PUSH2 0x563 JUMPI DUP1 PUSH4 0xCA3ED9E8 EQ PUSH2 0x58D JUMPI DUP1 PUSH4 0xE2982C21 EQ PUSH2 0x5B5 JUMPI PUSH2 0x301 JUMP JUMPDEST DUP1 PUSH4 0x810A8999 EQ PUSH2 0x469 JUMPI DUP1 PUSH4 0x87E69625 EQ PUSH2 0x493 JUMPI DUP1 PUSH4 0x92881152 EQ PUSH2 0x4BD JUMPI DUP1 PUSH4 0x93D67246 EQ PUSH2 0x4E7 JUMPI PUSH2 0x301 JUMP JUMPDEST DUP1 PUSH4 0x3B1BEBD1 GT PUSH2 0xDB JUMPI DUP1 PUSH4 0x3B1BEBD1 EQ PUSH2 0x399 JUMPI DUP1 PUSH4 0x458698FF EQ PUSH2 0x3C3 JUMPI DUP1 PUSH4 0x49C2BD83 EQ PUSH2 0x3ED JUMPI DUP1 PUSH4 0x5E63D890 EQ PUSH2 0x417 JUMPI DUP1 PUSH4 0x737AF77A EQ PUSH2 0x441 JUMPI PUSH2 0x301 JUMP JUMPDEST DUP1 PUSH4 0xF8F655E EQ PUSH2 0x305 JUMPI DUP1 PUSH4 0x11DA60B4 EQ PUSH2 0x32F JUMPI DUP1 PUSH4 0x360EB12C EQ PUSH2 0x345 JUMPI DUP1 PUSH4 0x38625556 EQ PUSH2 0x36F JUMPI PUSH2 0x301 JUMP JUMPDEST CALLDATASIZE PUSH2 0x301 JUMPI PUSH0 PUSH0 SWAP1 SLOAD SWAP1 PUSH2 0x100 EXP SWAP1 DIV PUSH20 0xFFFFFFFFFFFFFFFFFFFFFFFFFFFFFFFFFFFFFFFF AND PUSH20 0xFFFFFFFFFFFFFFFFFFFFFFFFFFFFFFFFFFFFFFFF AND CALLER PUSH20 0xFFFFFFFFFFFFFFFFFFFFFFFFFFFFFFFFFFFFFFFF AND EQ DUP1 PUSH2 0x1B7 JUMPI POP PUSH1 0x1 PUSH0 SWAP1 SLOAD SWAP1 PUSH2 0x100 EXP SWAP1 DIV PUSH20 0xFFFFFFFFFFFFFFFFFFFFFFFFFFFFFFFFFFFFFFFF AND PUSH20 0xFFFFFFFFFFFFFFFFFFFFFFFFFFFFFFFFFFFFFFFF AND CALLER PUSH20 0xFFFFFFFFFFFFFFFFFFFFFFFFFFFFFFFFFFFFFFFF AND EQ JUMPDEST PUSH2 0x1F6 JUMPI PUSH1 0x40 MLOAD PUSH32 0x8C379A000000000000000000000000000000000000000000000000000000000 DUP2 MSTORE PUSH1 0x4 ADD PUSH2 0x1ED SWAP1 PUSH2 0x152E JUMP JUMPDEST PUSH1 0x40 MLOAD DUP1 SWAP2 SUB SWAP1 REVERT JUMPDEST PUSH7 0x71AFD498D0000 CALLVALUE EQ PUSH2 0x23F JUMPI PUSH1 0x40 MLOAD PUSH32 0x8C379A000000000000000000000000000000000000000000000000000000000 DUP2 MSTORE PUSH1 0x4 ADD PUSH2 0x236 SWAP1 PUSH2 0x1596 JUMP JUMPDEST PUSH1 0x40 MLOAD DUP1 SWAP2 SUB SWAP1 REVERT JUMPDEST PUSH0 PUSH1 0x2 PUSH0 CALLER PUSH20 0xFFFFFFFFFFFFFFFFFFFFFFFFFFFFFFFFFFFFFFFF AND PUSH20 0xFFFFFFFFFFFFFFFFFFFFFFFFFFFFFFFFFFFFFFFF AND DUP2 MSTORE PUSH1 0x20 ADD SWAP1 DUP2 MSTORE PUSH1 0x20 ADD PUSH0 KECCAK256 SLOAD EQ PUSH2 0x2BE JUMPI PUSH1 0x40 MLOAD PUSH32 0x8C379A000000000000000000000000000000000000000000000000000000000 DUP2 MSTORE PUSH1 0x4 ADD PUSH2 0x2B5 SWAP1 PUSH2 0x15FE JUMP JUMPDEST PUSH1 0x40 MLOAD DUP1 SWAP2 SUB SWAP1 REVERT JUMPDEST CALLVALUE PUSH1 0x2 PUSH0 CALLER PUSH20 0xFFFFFFFFFFFFFFFFFFFFFFFFFFFFFFFFFFFFFFFF AND PUSH20 0xFFFFFFFFFFFFFFFFFFFFFFFFFFFFFFFFFFFFFFFF AND DUP2 MSTORE PUSH1 0x20 ADD SWAP1 DUP2 MSTORE PUSH1 0x20 ADD PUSH0 KECCAK256 DUP2 SWAP1 SSTORE STOP JUMPDEST PUSH0 PUSH0 REVERT JUMPDEST CALLVALUE DUP1 ISZERO PUSH2 0x310 JUMPI PUSH0 PUSH0 REVERT JUMPDEST POP PUSH2 0x319 PUSH2 0x5F1 JUMP JUMPDEST PUSH1 0x40 MLOAD PUSH2 0x326 SWAP2 SWAP1 PUSH2 0x1636 JUMP JUMPDEST PUSH1 0x40 MLOAD DUP1 SWAP2 SUB SWAP1 RETURN JUMPDEST CALLVALUE DUP1 ISZERO PUSH2 0x33A JUMPI PUSH0 PUSH0 REVERT JUMPDEST POP PUSH2 0x343 PUSH2 0x604 JUMP JUMPDEST STOP JUMPDEST CALLVALUE DUP1 ISZERO PUSH2 0x350 JUMPI PUSH0 PUSH0 REVERT JUMPDEST POP PUSH2 0x359 PUSH2 0xA71 JUMP JUMPDEST PUSH1 0x40 MLOAD PUSH2 0x366 SWAP2 SWAP1 PUSH2 0x1667 JUMP JUMPDEST PUSH1 0x40 MLOAD DUP1 SWAP2 SUB SWAP1 RETURN JUMPDEST CALLVALUE DUP1 ISZERO PUSH2 0x37A JUMPI PUSH0 PUSH0 REVERT JUMPDEST POP PUSH2 0x383 PUSH2 0xA77 JUMP JUMPDEST PUSH1 0x40 MLOAD PUSH2 0x390 SWAP2 SWAP1 PUSH2 0x16BF JUMP JUMPDEST PUSH1 0x40 MLOAD DUP1 SWAP2 SUB SWAP1 RETURN JUMPDEST CALLVALUE DUP1 ISZERO PUSH2 0x3A4 JUMPI PUSH0 PUSH0 REVERT JUMPDEST POP PUSH2 0x3AD PUSH2 0xA9B JUMP JUMPDEST PUSH1 0x40 MLOAD PUSH2 0x3BA SWAP2 SWAP1 PUSH2 0x16BF JUMP JUMPDEST PUSH1 0x40 MLOAD DUP1 SWAP2 SUB SWAP1 RETURN JUMPDEST CALLVALUE DUP1 ISZERO PUSH2 0x3CE JUMPI PUSH0 PUSH0 REVERT JUMPDEST POP PUSH2 0x3D7 PUSH2 0xABF JUMP JUMPDEST PUSH1 0x40 MLOAD PUSH2 0x3E4 SWAP2 SWAP1 PUSH2 0x1667 JUMP JUMPDEST PUSH1 0x40 MLOAD DUP1 SWAP2 SUB SWAP1 RETURN JUMPDEST CALLVALUE DUP1 ISZERO PUSH2 0x3F8 JUMPI PUSH0 PUSH0 REVERT JUMPDEST POP PUSH2 0x401 PUSH2 0xAC5 JUMP JUMPDEST PUSH1 0x40 MLOAD PUSH2 0x40E SWAP2 SWAP1 PUSH2 0x1636 JUMP JUMPDEST PUSH1 0x40 MLOAD DUP1 SWAP2 SUB SWAP1 RETURN JUMPDEST CALLVALUE DUP1 ISZERO PUSH2 0x422 JUMPI PUSH0 PUSH0 REVERT JUMPDEST POP PUSH2 0x42B PUSH2 0xBA2 JUMP JUMPDEST PUSH1 0x40 MLOAD PUSH2 0x438 SWAP2 SWAP1 PUSH2 0x16F0 JUMP JUMPDEST PUSH1 0x40 MLOAD DUP1 SWAP2 SUB SWAP1 RETURN JUMPDEST CALLVALUE DUP1 ISZERO PUSH2 0x44C JUMPI PUSH0 PUSH0 REVERT JUMPDEST POP PUSH2 0x467 PUSH1 0x4 DUP1 CALLDATASIZE SUB DUP2 ADD SWAP1 PUSH2 0x462 SWAP2 SWAP1 PUSH2 0x188C JUMP JUMPDEST PUSH2 0xBA8 JUMP JUMPDEST STOP JUMPDEST CALLVALUE DUP1 ISZERO PUSH2 0x474 JUMPI PUSH0 PUSH0 REVERT JUMPDEST POP PUSH2 0x47D PUSH2 0xE53 JUMP JUMPDEST PUSH1 0x40 MLOAD PUSH2 0x48A SWAP2 SWAP1 PUSH2 0x18F5 JUMP JUMPDEST PUSH1 0x40 MLOAD DUP1 SWAP2 SUB SWAP1 RETURN JUMPDEST CALLVALUE DUP1 ISZERO PUSH2 0x49E JUMPI PUSH0 PUSH0 REVERT JUMPDEST POP PUSH2 0x4A7 PUSH2 0xE65 JUMP JUMPDEST PUSH1 0x40 MLOAD PUSH2 0x4B4 SWAP2 SWAP1 PUSH2 0x16F0 JUMP JUMPDEST PUSH1 0x40 MLOAD DUP1 SWAP2 SUB SWAP1 RETURN JUMPDEST CALLVALUE DUP1 ISZERO PUSH2 0x4C8 JUMPI PUSH0 PUSH0 REVERT JUMPDEST POP PUSH2 0x4D1 PUSH2 0xE70 JUMP JUMPDEST PUSH1 0x40 MLOAD PUSH2 0x4DE SWAP2 SWAP1 PUSH2 0x16BF JUMP JUMPDEST PUSH1 0x40 MLOAD DUP1 SWAP2 SUB SWAP1 RETURN JUMPDEST CALLVALUE DUP1 ISZERO PUSH2 0x4F2 JUMPI PUSH0 PUSH0 REVERT JUMPDEST POP PUSH2 0x50D PUSH1 0x4 DUP1 CALLDATASIZE SUB DUP2 ADD SWAP1 PUSH2 0x508 SWAP2 SWAP1 PUSH2 0x1938 JUMP JUMPDEST PUSH2 0xE95 JUMP JUMPDEST STOP JUMPDEST CALLVALUE DUP1 ISZERO PUSH2 0x51A JUMPI PUSH0 PUSH0 REVERT JUMPDEST POP PUSH2 0x523 PUSH2 0x108C JUMP JUMPDEST PUSH1 0x40 MLOAD PUSH2 0x530 SWAP2 SWAP1 PUSH2 0x18F5 JUMP JUMPDEST PUSH1 0x40 MLOAD DUP1 SWAP2 SUB SWAP1 RETURN JUMPDEST CALLVALUE DUP1 ISZERO PUSH2 0x544 JUMPI PUSH0 PUSH0 REVERT JUMPDEST POP PUSH2 0x54D PUSH2 0x109F JUMP JUMPDEST PUSH1 0x40 MLOAD PUSH2 0x55A SWAP2 SWAP1 PUSH2 0x16F0 JUMP JUMPDEST PUSH1 0x40 MLOAD DUP1 SWAP2 SUB SWAP1 RETURN JUMPDEST CALLVALUE DUP1 ISZERO PUSH2 0x56E JUMPI PUSH0 PUSH0 REVERT JUMPDEST POP PUSH2 0x577 PUSH2 0x10A5 JUMP JUMPDEST PUSH1 0x40 MLOAD PUSH2 0x584 SWAP2 SWAP1 PUSH2 0x1636 JUMP JUMPDEST PUSH1 0x40 MLOAD DUP1 SWAP2 SUB SWAP1 RETURN JUMPDEST CALLVALUE DUP1 ISZERO PUSH2 0x598 JUMPI PUSH0 PUSH0 REVERT JUMPDEST POP PUSH2 0x5B3 PUSH1 0x4 DUP1 CALLDATASIZE SUB DUP2 ADD SWAP1 PUSH2 0x5AE SWAP2 SWAP1 PUSH2 0x188C JUMP JUMPDEST PUSH2 0x10B8 JUMP JUMPDEST STOP JUMPDEST CALLVALUE DUP1 ISZERO PUSH2 0x5C0 JUMPI PUSH0 PUSH0 REVERT JUMPDEST POP PUSH2 0x5DB PUSH1 0x4 DUP1 CALLDATASIZE SUB DUP2 ADD SWAP1 PUSH2 0x5D6 SWAP2 SWAP1 PUSH2 0x1976 JUMP JUMPDEST PUSH2 0x1452 JUMP JUMPDEST PUSH1 0x40 MLOAD PUSH2 0x5E8 SWAP2 SWAP1 PUSH2 0x16F0 JUMP JUMPDEST PUSH1 0x40 MLOAD DUP1 SWAP2 SUB SWAP1 RETURN JUMPDEST PUSH1 0x5 PUSH1 0x3 SWAP1 SLOAD SWAP1 PUSH2 0x100 EXP SWAP1 DIV PUSH1 0xFF AND DUP2 JUMP JUMPDEST PUSH32 0x0 PUSH20 0xFFFFFFFFFFFFFFFFFFFFFFFFFFFFFFFFFFFFFFFF AND CALLER PUSH20 0xFFFFFFFFFFFFFFFFFFFFFFFFFFFFFFFFFFFFFFFF AND EQ PUSH2 0x692 JUMPI PUSH1 0x40 MLOAD PUSH32 0x8C379A000000000000000000000000000000000000000000000000000000000 DUP2 MSTORE PUSH1 0x4 ADD PUSH2 0x689 SWAP1 PUSH2 0x19EB JUMP JUMPDEST PUSH1 0x40 MLOAD DUP1 SWAP2 SUB SWAP1 REVERT JUMPDEST PUSH0 PUSH1 0x7 SLOAD EQ ISZERO DUP1 ISZERO PUSH2 0x6A6 JUMPI POP PUSH1 0x7 SLOAD TIMESTAMP LT ISZERO JUMPDEST PUSH2 0x6E5 JUMPI PUSH1 0x40 MLOAD PUSH32 0x8C379A000000000000000000000000000000000000000000000000000000000 DUP2 MSTORE PUSH1 0x4 ADD PUSH2 0x6DC SWAP1 PUSH2 0x1A53 JUMP JUMPDEST PUSH1 0x40 MLOAD DUP1 SWAP2 SUB SWAP1 REVERT JUMPDEST PUSH0 SELFBALANCE SWAP1 POP PUSH1 0x5 PUSH1 0x2 SWAP1 SLOAD SWAP1 PUSH2 0x100 EXP SWAP1 DIV PUSH1 0xFF AND DUP1 ISZERO PUSH2 0x711 JUMPI POP PUSH1 0x5 PUSH1 0x3 SWAP1 SLOAD SWAP1 PUSH2 0x100 EXP SWAP1 DIV PUSH1 0xFF AND JUMPDEST ISZERO PUSH2 0x90A JUMPI PUSH1 0x1 PUSH1 0x5 PUSH1 0x1 SWAP1 SLOAD SWAP1 PUSH2 0x100 EXP SWAP1 DIV PUSH1 0xFF AND PUSH1 0x5 PUSH0 SWAP1 SLOAD SWAP1 PUSH2 0x100 EXP SWAP1 DIV PUSH1 0xFF AND XOR PUSH1 0xFF AND SUB PUSH2 0x82D JUMPI PUSH1 0x1 PUSH1 0x5 PUSH0 SWAP1 SLOAD SWAP1 PUSH2 0x100 EXP SWAP1 DIV PUSH1 0xFF AND PUSH1 0xFF AND SUB PUSH2 0x7C2 JUMPI PUSH0 PUSH0 SWAP1 SLOAD SWAP1 PUSH2 0x100 EXP SWAP1 DIV PUSH20 0xFFFFFFFFFFFFFFFFFFFFFFFFFFFFFFFFFFFFFFFF AND PUSH20 0xFFFFFFFFFFFFFFFFFFFFFFFFFFFFFFFFFFFFFFFF AND PUSH2 0x8FC DUP3 SWAP1 DUP2 ISZERO MUL SWAP1 PUSH1 0x40 MLOAD PUSH0 PUSH1 0x40 MLOAD DUP1 DUP4 SUB DUP2 DUP6 DUP9 DUP9 CALL SWAP4 POP POP POP POP ISZERO DUP1 ISZERO PUSH2 0x7BC JUMPI RETURNDATASIZE PUSH0 PUSH0 RETURNDATACOPY RETURNDATASIZE PUSH0 REVERT JUMPDEST POP PUSH2 0x828 JUMP JUMPDEST PUSH1 0x1 PUSH0 SWAP1 SLOAD SWAP1 PUSH2 0x100 EXP SWAP1 DIV PUSH20 0xFFFFFFFFFFFFFFFFFFFFFFFFFFFFFFFFFFFFFFFF AND PUSH20 0xFFFFFFFFFFFFFFFFFFFFFFFFFFFFFFFFFFFFFFFF AND PUSH2 0x8FC DUP3 SWAP1 DUP2 ISZERO MUL SWAP1 PUSH1 0x40 MLOAD PUSH0 PUSH1 0x40 MLOAD DUP1 DUP4 SUB DUP2 DUP6 DUP9 DUP9 CALL SWAP4 POP POP POP POP ISZERO DUP1 ISZERO PUSH2 0x826 JUMPI RETURNDATASIZE PUSH0 PUSH0 RETURNDATACOPY RETURNDATASIZE PUSH0 REVERT JUMPDEST POP JUMPDEST PUSH2 0x905 JUMP JUMPDEST PUSH0 PUSH0 SWAP1 SLOAD SWAP1 PUSH2 0x100 EXP SWAP1 DIV PUSH20 0xFFFFFFFFFFFFFFFFFFFFFFFFFFFFFFFFFFFFFFFF AND PUSH20 0xFFFFFFFFFFFFFFFFFFFFFFFFFFFFFFFFFFFFFFFF AND PUSH2 0x8FC PUSH7 0x71AFD498D0000 SWAP1 DUP2 ISZERO MUL SWAP1 PUSH1 0x40 MLOAD PUSH0 PUSH1 0x40 MLOAD DUP1 DUP4 SUB DUP2 DUP6 DUP9 DUP9 CALL SWAP4 POP POP POP POP ISZERO DUP1 ISZERO PUSH2 0x897 JUMPI RETURNDATASIZE PUSH0 PUSH0 RETURNDATACOPY RETURNDATASIZE PUSH0 REVERT JUMPDEST POP PUSH1 0x1 PUSH0 SWAP1 SLOAD SWAP1 PUSH2 0x100 EXP SWAP1 DIV PUSH20 0xFFFFFFFFFFFFFFFFFFFFFFFFFFFFFFFFFFFFFFFF AND PUSH20 0xFFFFFFFFFFFFFFFFFFFFFFFFFFFFFFFFFFFFFFFF AND PUSH2 0x8FC PUSH7 0x71AFD498D0000 SWAP1 DUP2 ISZERO MUL SWAP1 PUSH1 0x40 MLOAD PUSH0 PUSH1 0x40 MLOAD DUP1 DUP4 SUB DUP2 DUP6 DUP9 DUP9 CALL SWAP4 POP POP POP POP ISZERO DUP1 ISZERO PUSH2 0x903 JUMPI RETURNDATASIZE PUSH0 PUSH0 RETURNDATACOPY RETURNDATASIZE PUSH0 REVERT JUMPDEST POP JUMPDEST PUSH2 0xA6E JUMP JUMPDEST PUSH1 0x5 PUSH1 0x2 SWAP1 SLOAD SWAP1 PUSH2 0x100 EXP SWAP1 DIV PUSH1 0xFF AND ISZERO PUSH2 0x988 JUMPI PUSH0 PUSH0 SWAP1 SLOAD SWAP1 PUSH2 0x100 EXP SWAP1 DIV PUSH20 0xFFFFFFFFFFFFFFFFFFFFFFFFFFFFFFFFFFFFFFFF AND PUSH20 0xFFFFFFFFFFFFFFFFFFFFFFFFFFFFFFFFFFFFFFFF AND PUSH2 0x8FC DUP3 SWAP1 DUP2 ISZERO MUL SWAP1 PUSH1 0x40 MLOAD PUSH0 PUSH1 0x40 MLOAD DUP1 DUP4 SUB DUP2 DUP6 DUP9 DUP9 CALL SWAP4 POP POP POP POP ISZERO DUP1 ISZERO PUSH2 0x982 JUMPI RETURNDATASIZE PUSH0 PUSH0 RETURNDATACOPY RETURNDATASIZE PUSH0 REVERT JUMPDEST POP PUSH2 0xA6D JUMP JUMPDEST PUSH1 0x5 PUSH1 0x3 SWAP1 SLOAD SWAP1 PUSH2 0x100 EXP SWAP1 DIV PUSH1 0xFF AND ISZERO PUSH2 0xA07 JUMPI PUSH1 0x1 PUSH0 SWAP1 SLOAD SWAP1 PUSH2 0x100 EXP SWAP1 DIV PUSH20 0xFFFFFFFFFFFFFFFFFFFFFFFFFFFFFFFFFFFFFFFF AND PUSH20 0xFFFFFFFFFFFFFFFFFFFFFFFFFFFFFFFFFFFFFFFF AND PUSH2 0x8FC DUP3 SWAP1 DUP2 ISZERO MUL SWAP1 PUSH1 0x40 MLOAD PUSH0 PUSH1 0x40 MLOAD DUP1 DUP4 SUB DUP2 DUP6 DUP9 DUP9 CALL SWAP4 POP POP POP POP ISZERO DUP1 ISZERO PUSH2 0xA01 JUMPI RETURNDATASIZE PUSH0 PUSH0 RETURNDATACOPY RETURNDATASIZE PUSH0 REVERT JUMPDEST POP PUSH2 0xA6C JUMP JUMPDEST PUSH32 0x0 PUSH20 0xFFFFFFFFFFFFFFFFFFFFFFFFFFFFFFFFFFFFFFFF AND PUSH2 0x8FC DUP3 SWAP1 DUP2 ISZERO MUL SWAP1 PUSH1 0x40 MLOAD PUSH0 PUSH1 0x40 MLOAD DUP1 DUP4 SUB DUP2 DUP6 DUP9 DUP9 CALL SWAP4 POP POP POP POP ISZERO DUP1 ISZERO PUSH2 0xA6A JUMPI RETURNDATASIZE PUSH0 PUSH0 RETURNDATACOPY RETURNDATASIZE PUSH0 REVERT JUMPDEST POP JUMPDEST JUMPDEST JUMPDEST POP JUMP JUMPDEST PUSH1 0x4 SLOAD DUP2 JUMP JUMPDEST PUSH0 PUSH0 SWAP1 SLOAD SWAP1 PUSH2 0x100 EXP SWAP1 DIV PUSH20 0xFFFFFFFFFFFFFFFFFFFFFFFFFFFFFFFFFFFFFFFF AND DUP2 JUMP JUMPDEST PUSH32 0x0 DUP2 JUMP JUMPDEST PUSH1 0x3 SLOAD DUP2 JUMP JUMPDEST PUSH0 PUSH7 0x71AFD498D0000 PUSH1 0x2 PUSH0 PUSH0 PUSH0 SWAP1 SLOAD SWAP1 PUSH2 0x100 EXP SWAP1 DIV PUSH20 0xFFFFFFFFFFFFFFFFFFFFFFFFFFFFFFFFFFFFFFFF AND PUSH20 0xFFFFFFFFFFFFFFFFFFFFFFFFFFFFFFFFFFFFFFFF AND PUSH20 0xFFFFFFFFFFFFFFFFFFFFFFFFFFFFFFFFFFFFFFFF AND DUP2 MSTORE PUSH1 0x20 ADD SWAP1 DUP2 MSTORE PUSH1 0x20 ADD PUSH0 KECCAK256 SLOAD EQ DUP1 ISZERO PUSH2 0xB9D JUMPI POP PUSH7 0x71AFD498D0000 PUSH1 0x2 PUSH0 PUSH1 0x1 PUSH0 SWAP1 SLOAD SWAP1 PUSH2 0x100 EXP SWAP1 DIV PUSH20 0xFFFFFFFFFFFFFFFFFFFFFFFFFFFFFFFFFFFFFFFF AND PUSH20 0xFFFFFFFFFFFFFFFFFFFFFFFFFFFFFFFFFFFFFFFF AND PUSH20 0xFFFFFFFFFFFFFFFFFFFFFFFFFFFFFFFFFFFFFFFF AND DUP2 MSTORE PUSH1 0x20 ADD SWAP1 DUP2 MSTORE PUSH1 0x20 ADD PUSH0 KECCAK256 SLOAD EQ JUMPDEST SWAP1 POP SWAP1 JUMP JUMPDEST PUSH1 0x6 SLOAD DUP2 JUMP JUMPDEST PUSH0 PUSH0 SWAP1 SLOAD SWAP1 PUSH2 0x100 EXP SWAP1 DIV PUSH20 0xFFFFFFFFFFFFFFFFFFFFFFFFFFFFFFFFFFFFFFFF AND PUSH20 0xFFFFFFFFFFFFFFFFFFFFFFFFFFFFFFFFFFFFFFFF AND CALLER PUSH20 0xFFFFFFFFFFFFFFFFFFFFFFFFFFFFFFFFFFFFFFFF AND EQ DUP1 PUSH2 0xC4E JUMPI POP PUSH1 0x1 PUSH0 SWAP1 SLOAD SWAP1 PUSH2 0x100 EXP SWAP1 DIV PUSH20 0xFFFFFFFFFFFFFFFFFFFFFFFFFFFFFFFFFFFFFFFF AND PUSH20 0xFFFFFFFFFFFFFFFFFFFFFFFFFFFFFFFFFFFFFFFF AND CALLER PUSH20 0xFFFFFFFFFFFFFFFFFFFFFFFFFFFFFFFFFFFFFFFF AND EQ JUMPDEST PUSH2 0xC8D JUMPI PUSH1 0x40 MLOAD PUSH32 0x8C379A000000000000000000000000000000000000000000000000000000000 DUP2 MSTORE PUSH1 0x4 ADD PUSH2 0xC84 SWAP1 PUSH2 0x152E JUMP JUMPDEST PUSH1 0x40 MLOAD DUP1 SWAP2 SUB SWAP1 REVERT JUMPDEST PUSH2 0xC95 PUSH2 0xAC5 JUMP JUMPDEST PUSH2 0xCD4 JUMPI PUSH1 0x40 MLOAD PUSH32 0x8C379A000000000000000000000000000000000000000000000000000000000 DUP2 MSTORE PUSH1 0x4 ADD PUSH2 0xCCB SWAP1 PUSH2 0x1ABB JUMP JUMPDEST PUSH1 0x40 MLOAD DUP1 SWAP2 SUB SWAP1 REVERT JUMPDEST PUSH0 DUP3 PUSH1 0xFF AND EQ DUP1 PUSH2 0xCE8 JUMPI POP PUSH1 0x1 DUP3 PUSH1 0xFF AND EQ JUMPDEST PUSH2 0xD27 JUMPI PUSH1 0x40 MLOAD PUSH32 0x8C379A000000000000000000000000000000000000000000000000000000000 DUP2 MSTORE PUSH1 0x4 ADD PUSH2 0xD1E SWAP1 PUSH2 0x1B23 JUMP JUMPDEST PUSH1 0x40 MLOAD DUP1 SWAP2 SUB SWAP1 REVERT JUMPDEST PUSH0 DUP3 DUP3 PUSH1 0x40 MLOAD PUSH1 0x20 ADD PUSH2 0xD3B SWAP3 SWAP2 SWAP1 PUSH2 0x1BC7 JUMP JUMPDEST PUSH1 0x40 MLOAD PUSH1 0x20 DUP2 DUP4 SUB SUB DUP2 MSTORE SWAP1 PUSH1 0x40 MSTORE DUP1 MLOAD SWAP1 PUSH1 0x20 ADD KECCAK256 SWAP1 POP PUSH0 PUSH0 SWAP1 SLOAD SWAP1 PUSH2 0x100 EXP SWAP1 DIV PUSH20 0xFFFFFFFFFFFFFFFFFFFFFFFFFFFFFFFFFFFFFFFF AND PUSH20 0xFFFFFFFFFFFFFFFFFFFFFFFFFFFFFFFFFFFFFFFF AND CALLER PUSH20 0xFFFFFFFFFFFFFFFFFFFFFFFFFFFFFFFFFFFFFFFF AND SUB PUSH2 0xDF8 JUMPI PUSH0 PUSH0 SHL PUSH1 0x3 SLOAD EQ PUSH2 0xDEC JUMPI PUSH1 0x40 MLOAD PUSH32 0x8C379A000000000000000000000000000000000000000000000000000000000 DUP2 MSTORE PUSH1 0x4 ADD PUSH2 0xDE3 SWAP1 PUSH2 0x1C38 JUMP JUMPDEST PUSH1 0x40 MLOAD DUP1 SWAP2 SUB SWAP1 REVERT JUMPDEST DUP1 PUSH1 0x3 DUP2 SWAP1 SSTORE POP PUSH2 0xE46 JUMP JUMPDEST PUSH0 PUSH0 SHL PUSH1 0x4 SLOAD EQ PUSH2 0xE3E JUMPI PUSH1 0x40 MLOAD PUSH32 0x8C379A000000000000000000000000000000000000000000000000000000000 DUP2 MSTORE PUSH1 0x4 ADD PUSH2 0xE35 SWAP1 PUSH2 0x1CC6 JUMP JUMPDEST PUSH1 0x40 MLOAD DUP1 SWAP2 SUB SWAP1 REVERT JUMPDEST DUP1 PUSH1 0x4 DUP2 SWAP1 SSTORE POP JUMPDEST PUSH2 0xE4E PUSH2 0x1467 JUMP JUMPDEST POP POP POP JUMP JUMPDEST PUSH1 0x5 PUSH0 SWAP1 SLOAD SWAP1 PUSH2 0x100 EXP SWAP1 DIV PUSH1 0xFF AND DUP2 JUMP JUMPDEST PUSH7 0x71AFD498D0000 DUP2 JUMP JUMPDEST PUSH1 0x1 PUSH0 SWAP1 SLOAD SWAP1 PUSH2 0x100 EXP SWAP1 DIV PUSH20 0xFFFFFFFFFFFFFFFFFFFFFFFFFFFFFFFFFFFFFFFF AND DUP2 JUMP JUMPDEST PUSH32 0x0 PUSH20 0xFFFFFFFFFFFFFFFFFFFFFFFFFFFFFFFFFFFFFFFF AND CALLER PUSH20 0xFFFFFFFFFFFFFFFFFFFFFFFFFFFFFFFFFFFFFFFF AND EQ PUSH2 0xF23 JUMPI PUSH1 0x40 MLOAD PUSH32 0x8C379A000000000000000000000000000000000000000000000000000000000 DUP2 MSTORE PUSH1 0x4 ADD PUSH2 0xF1A SWAP1 PUSH2 0x1D2E JUMP JUMPDEST PUSH1 0x40 MLOAD DUP1 SWAP2 SUB SWAP1 REVERT JUMPDEST PUSH0 PUSH20 0xFFFFFFFFFFFFFFFFFFFFFFFFFFFFFFFFFFFFFFFF AND PUSH0 PUSH0 SWAP1 SLOAD SWAP1 PUSH2 0x100 EXP SWAP1 DIV PUSH20 0xFFFFFFFFFFFFFFFFFFFFFFFFFFFFFFFFFFFFFFFF AND PUSH20 0xFFFFFFFFFFFFFFFFFFFFFFFFFFFFFFFFFFFFFFFF AND EQ DUP1 ISZERO PUSH2 0xFCA JUMPI POP PUSH0 PUSH20 0xFFFFFFFFFFFFFFFFFFFFFFFFFFFFFFFFFFFFFFFF AND PUSH1 0x1 PUSH0 SWAP1 SLOAD SWAP1 PUSH2 0x100 EXP SWAP1 DIV PUSH20 0xFFFFFFFFFFFFFFFFFFFFFFFFFFFFFFFFFFFFFFFF AND PUSH20 0xFFFFFFFFFFFFFFFFFFFFFFFFFFFFFFFFFFFFFFFF AND EQ JUMPDEST PUSH2 0x1009 JUMPI PUSH1 0x40 MLOAD PUSH32 0x8C379A000000000000000000000000000000000000000000000000000000000 DUP2 MSTORE PUSH1 0x4 ADD PUSH2 0x1000 SWAP1 PUSH2 0x1D96 JUMP JUMPDEST PUSH1 0x40 MLOAD DUP1 SWAP2 SUB SWAP1 REVERT JUMPDEST DUP2 PUSH0 PUSH0 PUSH2 0x100 EXP DUP2 SLOAD DUP2 PUSH20 0xFFFFFFFFFFFFFFFFFFFFFFFFFFFFFFFFFFFFFFFF MUL NOT AND SWAP1 DUP4 PUSH20 0xFFFFFFFFFFFFFFFFFFFFFFFFFFFFFFFFFFFFFFFF AND MUL OR SWAP1 SSTORE POP DUP1 PUSH1 0x1 PUSH0 PUSH2 0x100 EXP DUP2 SLOAD DUP2 PUSH20 0xFFFFFFFFFFFFFFFFFFFFFFFFFFFFFFFFFFFFFFFF MUL NOT AND SWAP1 DUP4 PUSH20 0xFFFFFFFFFFFFFFFFFFFFFFFFFFFFFFFFFFFFFFFF AND MUL OR SWAP1 SSTORE POP POP POP JUMP JUMPDEST PUSH1 0x5 PUSH1 0x1 SWAP1 SLOAD SWAP1 PUSH2 0x100 EXP SWAP1 DIV PUSH1 0xFF AND DUP2 JUMP JUMPDEST PUSH1 0x7 SLOAD DUP2 JUMP JUMPDEST PUSH1 0x5 PUSH1 0x2 SWAP1 SLOAD SWAP1 PUSH2 0x100 EXP SWAP1 DIV PUSH1 0xFF AND DUP2 JUMP JUMPDEST PUSH0 PUSH0 SWAP1 SLOAD SWAP1 PUSH2 0x100 EXP SWAP1 DIV PUSH20 0xFFFFFFFFFFFFFFFFFFFFFFFFFFFFFFFFFFFFFFFF AND PUSH20 0xFFFFFFFFFFFFFFFFFFFFFFFFFFFFFFFFFFFFFFFF AND CALLER PUSH20 0xFFFFFFFFFFFFFFFFFFFFFFFFFFFFFFFFFFFFFFFF AND EQ DUP1 PUSH2 0x115E JUMPI POP PUSH1 0x1 PUSH0 SWAP1 SLOAD SWAP1 PUSH2 0x100 EXP SWAP1 DIV PUSH20 0xFFFFFFFFFFFFFFFFFFFFFFFFFFFFFFFFFFFFFFFF AND PUSH20 0xFFFFFFFFFFFFFFFFFFFFFFFFFFFFFFFFFFFFFFFF AND CALLER PUSH20 0xFFFFFFFFFFFFFFFFFFFFFFFFFFFFFFFFFFFFFFFF AND EQ JUMPDEST PUSH2 0x119D JUMPI PUSH1 0x40 MLOAD PUSH32 0x8C379A000000000000000000000000000000000000000000000000000000000 DUP2 MSTORE PUSH1 0x4 ADD PUSH2 0x1194 SWAP1 PUSH2 0x152E JUMP JUMPDEST PUSH1 0x40 MLOAD DUP1 SWAP2 SUB SWAP1 REVERT JUMPDEST PUSH1 0x7 SLOAD TIMESTAMP GT ISZERO PUSH2 0x11E2 JUMPI PUSH1 0x40 MLOAD PUSH32 0x8C379A000000000000000000000000000000000000000000000000000000000 DUP2 MSTORE PUSH1 0x4 ADD PUSH2 0x11D9 SWAP1 PUSH2 0x1DFE JUMP JUMPDEST PUSH1 0x40 MLOAD DUP1 SWAP2 SUB SWAP1 REVERT JUMPDEST PUSH0 DUP3 PUSH1 0xFF AND EQ DUP1 PUSH2 0x11F6 JUMPI POP PUSH1 0x1 DUP3 PUSH1 0xFF AND EQ JUMPDEST PUSH2 0x1235 JUMPI PUSH1 0x40 MLOAD PUSH32 0x8C379A000000000000000000000000000000000000000000000000000000000 DUP2 MSTORE PUSH1 0x4 ADD PUSH2 0x122C SWAP1 PUSH2 0x1B23 JUMP JUMPDEST PUSH1 0x40 MLOAD DUP1 SWAP2 SUB SWAP1 REVERT JUMPDEST PUSH0 DUP3 DUP3 PUSH1 0x40 MLOAD PUSH1 0x20 ADD PUSH2 0x1249 SWAP3 SWAP2 SWAP1 PUSH2 0x1BC7 JUMP JUMPDEST PUSH1 0x40 MLOAD PUSH1 0x20 DUP2 DUP4 SUB SUB DUP2 MSTORE SWAP1 PUSH1 0x40 MSTORE DUP1 MLOAD SWAP1 PUSH1 0x20 ADD KECCAK256 SWAP1 POP PUSH0 PUSH0 SWAP1 SLOAD SWAP1 PUSH2 0x100 EXP SWAP1 DIV PUSH20 0xFFFFFFFFFFFFFFFFFFFFFFFFFFFFFFFFFFFFFFFF AND PUSH20 0xFFFFFFFFFFFFFFFFFFFFFFFFFFFFFFFFFFFFFFFF AND CALLER PUSH20 0xFFFFFFFFFFFFFFFFFFFFFFFFFFFFFFFFFFFFFFFF AND SUB PUSH2 0x1382 JUMPI PUSH1 0x5 PUSH1 0x2 SWAP1 SLOAD SWAP1 PUSH2 0x100 EXP SWAP1 DIV PUSH1 0xFF AND ISZERO PUSH2 0x1304 JUMPI PUSH1 0x40 MLOAD PUSH32 0x8C379A000000000000000000000000000000000000000000000000000000000 DUP2 MSTORE PUSH1 0x4 ADD PUSH2 0x12FB SWAP1 PUSH2 0x1E66 JUMP JUMPDEST PUSH1 0x40 MLOAD DUP1 SWAP2 SUB SWAP1 REVERT JUMPDEST PUSH1 0x3 SLOAD DUP2 EQ PUSH2 0x1348 JUMPI PUSH1 0x40 MLOAD PUSH32 0x8C379A000000000000000000000000000000000000000000000000000000000 DUP2 MSTORE PUSH1 0x4 ADD PUSH2 0x133F SWAP1 PUSH2 0x1ECE JUMP JUMPDEST PUSH1 0x40 MLOAD DUP1 SWAP2 SUB SWAP1 REVERT JUMPDEST DUP3 PUSH1 0x5 PUSH0 PUSH2 0x100 EXP DUP2 SLOAD DUP2 PUSH1 0xFF MUL NOT AND SWAP1 DUP4 PUSH1 0xFF AND MUL OR SWAP1 SSTORE POP PUSH1 0x1 PUSH1 0x5 PUSH1 0x2 PUSH2 0x100 EXP DUP2 SLOAD DUP2 PUSH1 0xFF MUL NOT AND SWAP1 DUP4 ISZERO ISZERO MUL OR SWAP1 SSTORE POP PUSH2 0x144D JUMP JUMPDEST PUSH1 0x5 PUSH1 0x3 SWAP1 SLOAD SWAP1 PUSH2 0x100 EXP SWAP1 DIV PUSH1 0xFF AND ISZERO PUSH2 0x13D2 JUMPI PUSH1 0x40 MLOAD PUSH32 0x8C379A000000000000000000000000000000000000000000000000000000000 DUP2 MSTORE PUSH1 0x4 ADD PUSH2 0x13C9 SWAP1 PUSH2 0x1F36 JUMP JUMPDEST PUSH1 0x40 MLOAD DUP1 SWAP2 SUB SWAP1 REVERT JUMPDEST PUSH1 0x4 SLOAD DUP2 EQ PUSH2 0x1416 JUMPI PUSH1 0x40 MLOAD PUSH32 0x8C379A000000000000000000000000000000000000000000000000000000000 DUP2 MSTORE PUSH1 0x4 ADD PUSH2 0x140D SWAP1 PUSH2 0x1F9E JUMP JUMPDEST PUSH1 0x40 MLOAD DUP1 SWAP2 SUB SWAP1 REVERT JUMPDEST DUP3 PUSH1 0x5 PUSH1 0x1 PUSH2 0x100 EXP DUP2 SLOAD DUP2 PUSH1 0xFF MUL NOT AND SWAP1 DUP4 PUSH1 0xFF AND MUL OR SWAP1 SSTORE POP PUSH1 0x1 PUSH1 0x5 PUSH1 0x3 PUSH2 0x100 EXP DUP2 SLOAD DUP2 PUSH1 0xFF MUL NOT AND SWAP1 DUP4 ISZERO ISZERO MUL OR SWAP1 SSTORE POP JUMPDEST POP POP POP JUMP JUMPDEST PUSH1 0x2 PUSH1 0x20 MSTORE DUP1 PUSH0 MSTORE PUSH1 0x40 PUSH0 KECCAK256 PUSH0 SWAP2 POP SWAP1 POP SLOAD DUP2 JUMP JUMPDEST PUSH0 PUSH0 SHL PUSH1 0x3 SLOAD EQ ISZERO DUP1 ISZERO PUSH2 0x147F JUMPI POP PUSH0 PUSH0 SHL PUSH1 0x4 SLOAD EQ ISZERO JUMPDEST DUP1 ISZERO PUSH2 0x148C JUMPI POP PUSH0 PUSH1 0x6 SLOAD EQ JUMPDEST ISZERO PUSH2 0x14AC JUMPI TIMESTAMP PUSH1 0x6 DUP2 SWAP1 SSTORE POP PUSH1 0xB4 TIMESTAMP PUSH2 0x14A5 SWAP2 SWAP1 PUSH2 0x1FE9 JUMP JUMPDEST PUSH1 0x7 DUP2 SWAP1 SSTORE POP JUMPDEST JUMP JUMPDEST PUSH0 DUP3 DUP3 MSTORE PUSH1 0x20 DUP3 ADD SWAP1 POP SWAP3 SWAP2 POP POP JUMP JUMPDEST PUSH32 0x4F6E6C79206361707461696E732063616E2063616C6C20746869732066756E63 PUSH0 DUP3 ADD MSTORE PUSH32 0x74696F6E00000000000000000000000000000000000000000000000000000000 PUSH1 0x20 DUP3 ADD MSTORE POP JUMP JUMPDEST PUSH0 PUSH2 0x1518 PUSH1 0x24 DUP4 PUSH2 0x14AE JUMP JUMPDEST SWAP2 POP PUSH2 0x1523 DUP3 PUSH2 0x14BE JUMP JUMPDEST PUSH1 0x40 DUP3 ADD SWAP1 POP SWAP2 SWAP1 POP JUMP JUMPDEST PUSH0 PUSH1 0x20 DUP3 ADD SWAP1 POP DUP2 DUP2 SUB PUSH0 DUP4 ADD MSTORE PUSH2 0x1545 DUP2 PUSH2 0x150C JUMP JUMPDEST SWAP1 POP SWAP2 SWAP1 POP JUMP JUMPDEST PUSH32 0x4D7573742073656E642065786163746C7920302E303032204554480000000000 PUSH0 DUP3 ADD MSTORE POP JUMP JUMPDEST PUSH0 PUSH2 0x1580 PUSH1 0x1B DUP4 PUSH2 0x14AE JUMP JUMPDEST SWAP2 POP PUSH2 0x158B DUP3 PUSH2 0x154C JUMP JUMPDEST PUSH1 0x20 DUP3 ADD SWAP1 POP SWAP2 SWAP1 POP JUMP JUMPDEST PUSH0 PUSH1 0x20 DUP3 ADD SWAP1 POP DUP2 DUP2 SUB PUSH0 DUP4 ADD MSTORE PUSH2 0x15AD DUP2 PUSH2 0x1574 JUMP JUMPDEST SWAP1 POP SWAP2 SWAP1 POP JUMP JUMPDEST PUSH32 0x416C726561647920706169640000000000000000000000000000000000000000 PUSH0 DUP3 ADD MSTORE POP JUMP JUMPDEST PUSH0 PUSH2 0x15E8 PUSH1 0xC DUP4 PUSH2 0x14AE JUMP JUMPDEST SWAP2 POP PUSH2 0x15F3 DUP3 PUSH2 0x15B4 JUMP JUMPDEST PUSH1 0x20 DUP3 ADD SWAP1 POP SWAP2 SWAP1 POP JUMP JUMPDEST PUSH0 PUSH1 0x20 DUP3 ADD SWAP1 POP DUP2 DUP2 SUB PUSH0 DUP4 ADD MSTORE PUSH2 0x1615 DUP2 PUSH2 0x15DC JUMP JUMPDEST SWAP1 POP SWAP2 SWAP1 POP JUMP JUMPDEST PUSH0 DUP2 ISZERO ISZERO SWAP1 POP SWAP2 SWAP1 POP JUMP JUMPDEST PUSH2 0x1630 DUP2 PUSH2 0x161C JUMP JUMPDEST DUP3 MSTORE POP POP JUMP JUMPDEST PUSH0 PUSH1 0x20 DUP3 ADD SWAP1 POP PUSH2 0x1649 PUSH0 DUP4 ADD DUP5 PUSH2 0x1627 JUMP JUMPDEST SWAP3 SWAP2 POP POP JUMP JUMPDEST PUSH0 DUP2 SWAP1 POP SWAP2 SWAP1 POP JUMP JUMPDEST PUSH2 0x1661 DUP2 PUSH2 0x164F JUMP JUMPDEST DUP3 MSTORE POP POP JUMP JUMPDEST PUSH0 PUSH1 0x20 DUP3 ADD SWAP1 POP PUSH2 0x167A PUSH0 DUP4 ADD DUP5 PUSH2 0x1658 JUMP JUMPDEST SWAP3 SWAP2 POP POP JUMP JUMPDEST PUSH0 PUSH20 0xFFFFFFFFFFFFFFFFFFFFFFFFFFFFFFFFFFFFFFFF DUP3 AND SWAP1 POP SWAP2 SWAP1 POP JUMP JUMPDEST PUSH0 PUSH2 0x16A9 DUP3 PUSH2 0x1680 JUMP JUMPDEST SWAP1 POP SWAP2 SWAP1 POP JUMP JUMPDEST PUSH2 0x16B9 DUP2 PUSH2 0x169F JUMP JUMPDEST DUP3 MSTORE POP POP JUMP JUMPDEST PUSH0 PUSH1 0x20 DUP3 ADD SWAP1 POP PUSH2 0x16D2 PUSH0 DUP4 ADD DUP5 PUSH2 0x16B0 JUMP JUMPDEST SWAP3 SWAP2 POP POP JUMP JUMPDEST PUSH0 DUP2 SWAP1 POP SWAP2 SWAP1 POP JUMP JUMPDEST PUSH2 0x16EA DUP2 PUSH2 0x16D8 JUMP JUMPDEST DUP3 MSTORE POP POP JUMP JUMPDEST PUSH0 PUSH1 0x20 DUP3 ADD SWAP1 POP PUSH2 0x1703 PUSH0 DUP4 ADD DUP5 PUSH2 0x16E1 JUMP JUMPDEST SWAP3 SWAP2 POP POP JUMP JUMPDEST PUSH0 PUSH1 0x40 MLOAD SWAP1 POP SWAP1 JUMP JUMPDEST PUSH0 PUSH0 REVERT JUMPDEST PUSH0 PUSH0 REVERT JUMPDEST PUSH0 PUSH1 0xFF DUP3 AND SWAP1 POP SWAP2 SWAP1 POP JUMP JUMPDEST PUSH2 0x172F DUP2 PUSH2 0x171A JUMP JUMPDEST DUP2 EQ PUSH2 0x1739 JUMPI PUSH0 PUSH0 REVERT JUMPDEST POP JUMP JUMPDEST PUSH0 DUP2 CALLDATALOAD SWAP1 POP PUSH2 0x174A DUP2 PUSH2 0x1726 JUMP JUMPDEST SWAP3 SWAP2 POP POP JUMP JUMPDEST PUSH0 PUSH0 REVERT JUMPDEST PUSH0 PUSH0 REVERT JUMPDEST PUSH0 PUSH1 0x1F NOT PUSH1 0x1F DUP4 ADD AND SWAP1 POP SWAP2 SWAP1 POP JUMP JUMPDEST PUSH32 0x4E487B7100000000000000000000000000000000000000000000000000000000 PUSH0 MSTORE PUSH1 0x41 PUSH1 0x4 MSTORE PUSH1 0x24 PUSH0 REVERT JUMPDEST PUSH2 0x179E DUP3 PUSH2 0x1758 JUMP JUMPDEST DUP2 ADD DUP2 DUP2 LT PUSH8 0xFFFFFFFFFFFFFFFF DUP3 GT OR ISZERO PUSH2 0x17BD JUMPI PUSH2 0x17BC PUSH2 0x1768 JUMP JUMPDEST JUMPDEST DUP1 PUSH1 0x40 MSTORE POP POP POP JUMP JUMPDEST PUSH0 PUSH2 0x17CF PUSH2 0x1709 JUMP JUMPDEST SWAP1 POP PUSH2 0x17DB DUP3 DUP3 PUSH2 0x1795 JUMP JUMPDEST SWAP2 SWAP1 POP JUMP JUMPDEST PUSH0 PUSH8 0xFFFFFFFFFFFFFFFF DUP3 GT ISZERO PUSH2 0x17FA JUMPI PUSH2 0x17F9 PUSH2 0x1768 JUMP JUMPDEST JUMPDEST PUSH2 0x1803 DUP3 PUSH2 0x1758 JUMP JUMPDEST SWAP1 POP PUSH1 0x20 DUP2 ADD SWAP1 POP SWAP2 SWAP1 POP JUMP JUMPDEST DUP3 DUP2 DUP4 CALLDATACOPY PUSH0 DUP4 DUP4 ADD MSTORE POP POP POP JUMP JUMPDEST PUSH0 PUSH2 0x1830 PUSH2 0x182B DUP5 PUSH2 0x17E0 JUMP JUMPDEST PUSH2 0x17C6 JUMP JUMPDEST SWAP1 POP DUP3 DUP2 MSTORE PUSH1 0x20 DUP2 ADD DUP5 DUP5 DUP5 ADD GT ISZERO PUSH2 0x184C JUMPI PUSH2 0x184B PUSH2 0x1754 JUMP JUMPDEST JUMPDEST PUSH2 0x1857 DUP5 DUP3 DUP6 PUSH2 0x1810 JUMP JUMPDEST POP SWAP4 SWAP3 POP POP POP JUMP JUMPDEST PUSH0 DUP3 PUSH1 0x1F DUP4 ADD SLT PUSH2 0x1873 JUMPI PUSH2 0x1872 PUSH2 0x1750 JUMP JUMPDEST JUMPDEST DUP2 CALLDATALOAD PUSH2 0x1883 DUP5 DUP3 PUSH1 0x20 DUP7 ADD PUSH2 0x181E JUMP JUMPDEST SWAP2 POP POP SWAP3 SWAP2 POP POP JUMP JUMPDEST PUSH0 PUSH0 PUSH1 0x40 DUP4 DUP6 SUB SLT ISZERO PUSH2 0x18A2 JUMPI PUSH2 0x18A1 PUSH2 0x1712 JUMP JUMPDEST JUMPDEST PUSH0 PUSH2 0x18AF DUP6 DUP3 DUP7 ADD PUSH2 0x173C JUMP JUMPDEST SWAP3 POP POP PUSH1 0x20 DUP4 ADD CALLDATALOAD PUSH8 0xFFFFFFFFFFFFFFFF DUP2 GT ISZERO PUSH2 0x18D0 JUMPI PUSH2 0x18CF PUSH2 0x1716 JUMP JUMPDEST JUMPDEST PUSH2 0x18DC DUP6 DUP3 DUP7 ADD PUSH2 0x185F JUMP JUMPDEST SWAP2 POP POP SWAP3 POP SWAP3 SWAP1 POP JUMP JUMPDEST PUSH2 0x18EF DUP2 PUSH2 0x171A JUMP JUMPDEST DUP3 MSTORE POP POP JUMP JUMPDEST PUSH0 PUSH1 0x20 DUP3 ADD SWAP1 POP PUSH2 0x1908 PUSH0 DUP4 ADD DUP5 PUSH2 0x18E6 JUMP JUMPDEST SWAP3 SWAP2 POP POP JUMP JUMPDEST PUSH2 0x1917 DUP2 PUSH2 0x169F JUMP JUMPDEST DUP2 EQ PUSH2 0x1921 JUMPI PUSH0 PUSH0 REVERT JUMPDEST POP JUMP JUMPDEST PUSH0 DUP2 CALLDATALOAD SWAP1 POP PUSH2 0x1932 DUP2 PUSH2 0x190E JUMP JUMPDEST SWAP3 SWAP2 POP POP JUMP JUMPDEST PUSH0 PUSH0 PUSH1 0x40 DUP4 DUP6 SUB SLT ISZERO PUSH2 0x194E JUMPI PUSH2 0x194D PUSH2 0x1712 JUMP JUMPDEST JUMPDEST PUSH0 PUSH2 0x195B DUP6 DUP3 DUP7 ADD PUSH2 0x1924 JUMP JUMPDEST SWAP3 POP POP PUSH1 0x20 PUSH2 0x196C DUP6 DUP3 DUP7 ADD PUSH2 0x1924 JUMP JUMPDEST SWAP2 POP POP SWAP3 POP SWAP3 SWAP1 POP JUMP JUMPDEST PUSH0 PUSH1 0x20 DUP3 DUP5 SUB SLT ISZERO PUSH2 0x198B JUMPI PUSH2 0x198A PUSH2 0x1712 JUMP JUMPDEST JUMPDEST PUSH0 PUSH2 0x1998 DUP5 DUP3 DUP6 ADD PUSH2 0x1924 JUMP JUMPDEST SWAP2 POP POP SWAP3 SWAP2 POP POP JUMP JUMPDEST PUSH32 0x4F6E6C7920726566657265652063616E20736574746C65000000000000000000 PUSH0 DUP3 ADD MSTORE POP JUMP JUMPDEST PUSH0 PUSH2 0x19D5 PUSH1 0x17 DUP4 PUSH2 0x14AE JUMP JUMPDEST SWAP2 POP PUSH2 0x19E0 DUP3 PUSH2 0x19A1 JUMP JUMPDEST PUSH1 0x20 DUP3 ADD SWAP1 POP SWAP2 SWAP1 POP JUMP JUMPDEST PUSH0 PUSH1 0x20 DUP3 ADD SWAP1 POP DUP2 DUP2 SUB PUSH0 DUP4 ADD MSTORE PUSH2 0x1A02 DUP2 PUSH2 0x19C9 JUMP JUMPDEST SWAP1 POP SWAP2 SWAP1 POP JUMP JUMPDEST PUSH32 0x446561646C696E65206E6F742072656163686564207965740000000000000000 PUSH0 DUP3 ADD MSTORE POP JUMP JUMPDEST PUSH0 PUSH2 0x1A3D PUSH1 0x18 DUP4 PUSH2 0x14AE JUMP JUMPDEST SWAP2 POP PUSH2 0x1A48 DUP3 PUSH2 0x1A09 JUMP JUMPDEST PUSH1 0x20 DUP3 ADD SWAP1 POP SWAP2 SWAP1 POP JUMP JUMPDEST PUSH0 PUSH1 0x20 DUP3 ADD SWAP1 POP DUP2 DUP2 SUB PUSH0 DUP4 ADD MSTORE PUSH2 0x1A6A DUP2 PUSH2 0x1A31 JUMP JUMPDEST SWAP1 POP SWAP2 SWAP1 POP JUMP JUMPDEST PUSH32 0x426F7468206361707461696E73206D7573742070617920666972737400000000 PUSH0 DUP3 ADD MSTORE POP JUMP JUMPDEST PUSH0 PUSH2 0x1AA5 PUSH1 0x1C DUP4 PUSH2 0x14AE JUMP JUMPDEST SWAP2 POP PUSH2 0x1AB0 DUP3 PUSH2 0x1A71 JUMP JUMPDEST PUSH1 0x20 DUP3 ADD SWAP1 POP SWAP2 SWAP1 POP JUMP JUMPDEST PUSH0 PUSH1 0x20 DUP3 ADD SWAP1 POP DUP2 DUP2 SUB PUSH0 DUP4 ADD MSTORE PUSH2 0x1AD2 DUP2 PUSH2 0x1A99 JUMP JUMPDEST SWAP1 POP SWAP2 SWAP1 POP JUMP JUMPDEST PUSH32 0x43686F696365206D7573742062652030206F7220310000000000000000000000 PUSH0 DUP3 ADD MSTORE POP JUMP JUMPDEST PUSH0 PUSH2 0x1B0D PUSH1 0x15 DUP4 PUSH2 0x14AE JUMP JUMPDEST SWAP2 POP PUSH2 0x1B18 DUP3 PUSH2 0x1AD9 JUMP JUMPDEST PUSH1 0x20 DUP3 ADD SWAP1 POP SWAP2 SWAP1 POP JUMP JUMPDEST PUSH0 PUSH1 0x20 DUP3 ADD SWAP1 POP DUP2 DUP2 SUB PUSH0 DUP4 ADD MSTORE PUSH2 0x1B3A DUP2 PUSH2 0x1B01 JUMP JUMPDEST SWAP1 POP SWAP2 SWAP1 POP JUMP JUMPDEST PUSH0 DUP2 PUSH1 0xF8 SHL SWAP1 POP SWAP2 SWAP1 POP JUMP JUMPDEST PUSH0 PUSH2 0x1B57 DUP3 PUSH2 0x1B41 JUMP JUMPDEST SWAP1 POP SWAP2 SWAP1 POP JUMP JUMPDEST PUSH2 0x1B6F PUSH2 0x1B6A DUP3 PUSH2 0x171A JUMP JUMPDEST PUSH2 0x1B4D JUMP JUMPDEST DUP3 MSTORE POP POP JUMP JUMPDEST PUSH0 DUP2 MLOAD SWAP1 POP SWAP2 SWAP1 POP JUMP JUMPDEST PUSH0 DUP2 SWAP1 POP SWAP3 SWAP2 POP POP JUMP JUMPDEST DUP3 DUP2 DUP4 MCOPY PUSH0 DUP4 DUP4 ADD MSTORE POP POP POP JUMP JUMPDEST PUSH0 PUSH2 0x1BA1 DUP3 PUSH2 0x1B75 JUMP JUMPDEST PUSH2 0x1BAB DUP2 DUP6 PUSH2 0x1B7F JUMP JUMPDEST SWAP4 POP PUSH2 0x1BBB DUP2 DUP6 PUSH1 0x20 DUP7 ADD PUSH2 0x1B89 JUMP JUMPDEST DUP1 DUP5 ADD SWAP2 POP POP SWAP3 SWAP2 POP POP JUMP JUMPDEST PUSH0 PUSH2 0x1BD2 DUP3 DUP6 PUSH2 0x1B5E JUMP JUMPDEST PUSH1 0x1 DUP3 ADD SWAP2 POP PUSH2 0x1BE2 DUP3 DUP5 PUSH2 0x1B97 JUMP JUMPDEST SWAP2 POP DUP2 SWAP1 POP SWAP4 SWAP3 POP POP POP JUMP JUMPDEST PUSH32 0x496E6469616E206361707461696E20616C726561647920636F6D6D6974746564 PUSH0 DUP3 ADD MSTORE POP JUMP JUMPDEST PUSH0 PUSH2 0x1C22 PUSH1 0x20 DUP4 PUSH2 0x14AE JUMP JUMPDEST SWAP2 POP PUSH2 0x1C2D DUP3 PUSH2 0x1BEE JUMP JUMPDEST PUSH1 0x20 DUP3 ADD SWAP1 POP SWAP2 SWAP1 POP JUMP JUMPDEST PUSH0 PUSH1 0x20 DUP3 ADD SWAP1 POP DUP2 DUP2 SUB PUSH0 DUP4 ADD MSTORE PUSH2 0x1C4F DUP2 PUSH2 0x1C16 JUMP JUMPDEST SWAP1 POP SWAP2 SWAP1 POP JUMP JUMPDEST PUSH32 0x456E676C616E64206361707461696E20616C726561647920636F6D6D69747465 PUSH0 DUP3 ADD MSTORE PUSH32 0x6400000000000000000000000000000000000000000000000000000000000000 PUSH1 0x20 DUP3 ADD MSTORE POP JUMP JUMPDEST PUSH0 PUSH2 0x1CB0 PUSH1 0x21 DUP4 PUSH2 0x14AE JUMP JUMPDEST SWAP2 POP PUSH2 0x1CBB DUP3 PUSH2 0x1C56 JUMP JUMPDEST PUSH1 0x40 DUP3 ADD SWAP1 POP SWAP2 SWAP1 POP JUMP JUMPDEST PUSH0 PUSH1 0x20 DUP3 ADD SWAP1 POP DUP2 DUP2 SUB PUSH0 DUP4 ADD MSTORE PUSH2 0x1CDD DUP2 PUSH2 0x1CA4 JUMP JUMPDEST SWAP1 POP SWAP2 SWAP1 POP JUMP JUMPDEST PUSH32 0x4F6E6C7920726566657265652063616E20736574206361707461696E73000000 PUSH0 DUP3 ADD MSTORE POP JUMP JUMPDEST PUSH0 PUSH2 0x1D18 PUSH1 0x1D DUP4 PUSH2 0x14AE JUMP JUMPDEST SWAP2 POP PUSH2 0x1D23 DUP3 PUSH2 0x1CE4 JUMP JUMPDEST PUSH1 0x20 DUP3 ADD SWAP1 POP SWAP2 SWAP1 POP JUMP JUMPDEST PUSH0 PUSH1 0x20 DUP3 ADD SWAP1 POP DUP2 DUP2 SUB PUSH0 DUP4 ADD MSTORE PUSH2 0x1D45 DUP2 PUSH2 0x1D0C JUMP JUMPDEST SWAP1 POP SWAP2 SWAP1 POP JUMP JUMPDEST PUSH32 0x4361707461696E7320616C726561647920736574000000000000000000000000 PUSH0 DUP3 ADD MSTORE POP JUMP JUMPDEST PUSH0 PUSH2 0x1D80 PUSH1 0x14 DUP4 PUSH2 0x14AE JUMP JUMPDEST SWAP2 POP PUSH2 0x1D8B DUP3 PUSH2 0x1D4C JUMP JUMPDEST PUSH1 0x20 DUP3 ADD SWAP1 POP SWAP2 SWAP1 POP JUMP JUMPDEST PUSH0 PUSH1 0x20 DUP3 ADD SWAP1 POP DUP2 DUP2 SUB PUSH0 DUP4 ADD MSTORE PUSH2 0x1DAD DUP2 PUSH2 0x1D74 JUMP JUMPDEST SWAP1 POP SWAP2 SWAP1 POP JUMP JUMPDEST PUSH32 0x52657665616C20706572696F6420656E64656400000000000000000000000000 PUSH0 DUP3 ADD MSTORE POP JUMP JUMPDEST PUSH0 PUSH2 0x1DE8 PUSH1 0x13 DUP4 PUSH2 0x14AE JUMP JUMPDEST SWAP2 POP PUSH2 0x1DF3 DUP3 PUSH2 0x1DB4 JUMP JUMPDEST PUSH1 0x20 DUP3 ADD SWAP1 POP SWAP2 SWAP1 POP JUMP JUMPDEST PUSH0 PUSH1 0x20 DUP3 ADD SWAP1 POP DUP2 DUP2 SUB PUSH0 DUP4 ADD MSTORE PUSH2 0x1E15 DUP2 PUSH2 0x1DDC JUMP JUMPDEST SWAP1 POP SWAP2 SWAP1 POP JUMP JUMPDEST PUSH32 0x496E6469616E206361707461696E20616C72656164792072657665616C656400 PUSH0 DUP3 ADD MSTORE POP JUMP JUMPDEST PUSH0 PUSH2 0x1E50 PUSH1 0x1F DUP4 PUSH2 0x14AE JUMP JUMPDEST SWAP2 POP PUSH2 0x1E5B DUP3 PUSH2 0x1E1C JUMP JUMPDEST PUSH1 0x20 DUP3 ADD SWAP1 POP SWAP2 SWAP1 POP JUMP JUMPDEST PUSH0 PUSH1 0x20 DUP3 ADD SWAP1 POP DUP2 DUP2 SUB PUSH0 DUP4 ADD MSTORE PUSH2 0x1E7D DUP2 PUSH2 0x1E44 JUMP JUMPDEST SWAP1 POP SWAP2 SWAP1 POP JUMP JUMPDEST PUSH32 0x496E6469616E2068617368206D69736D61746368000000000000000000000000 PUSH0 DUP3 ADD MSTORE POP JUMP JUMPDEST PUSH0 PUSH2 0x1EB8 PUSH1 0x14 DUP4 PUSH2 0x14AE JUMP JUMPDEST SWAP2 POP PUSH2 0x1EC3 DUP3 PUSH2 0x1E84 JUMP JUMPDEST PUSH1 0x20 DUP3 ADD SWAP1 POP SWAP2 SWAP1 POP JUMP JUMPDEST PUSH0 PUSH1 0x20 DUP3 ADD SWAP1 POP DUP2 DUP2 SUB PUSH0 DUP4 ADD MSTORE PUSH2 0x1EE5 DUP2 PUSH2 0x1EAC JUMP JUMPDEST SWAP1 POP SWAP2 SWAP1 POP JUMP JUMPDEST PUSH32 0x456E676C616E64206361707461696E20616C72656164792072657665616C6564 PUSH0 DUP3 ADD MSTORE POP JUMP JUMPDEST PUSH0 PUSH2 0x1F20 PUSH1 0x20 DUP4 PUSH2 0x14AE JUMP JUMPDEST SWAP2 POP PUSH2 0x1F2B DUP3 PUSH2 0x1EEC JUMP JUMPDEST PUSH1 0x20 DUP3 ADD SWAP1 POP SWAP2 SWAP1 POP JUMP JUMPDEST PUSH0 PUSH1 0x20 DUP3 ADD SWAP1 POP DUP2 DUP2 SUB PUSH0 DUP4 ADD MSTORE PUSH2 0x1F4D DUP2 PUSH2 0x1F14 JUMP JUMPDEST SWAP1 POP SWAP2 SWAP1 POP JUMP JUMPDEST PUSH32 0x456E676C616E642068617368206D69736D617463680000000000000000000000 PUSH0 DUP3 ADD MSTORE POP JUMP JUMPDEST PUSH0 PUSH2 0x1F88 PUSH1 0x15 DUP4 PUSH2 0x14AE JUMP JUMPDEST SWAP2 POP PUSH2 0x1F93 DUP3 PUSH2 0x1F54 JUMP JUMPDEST PUSH1 0x20 DUP3 ADD SWAP1 POP SWAP2 SWAP1 POP JUMP JUMPDEST PUSH0 PUSH1 0x20 DUP3 ADD SWAP1 POP DUP2 DUP2 SUB PUSH0 DUP4 ADD MSTORE PUSH2 0x1FB5 DUP2 PUSH2 0x1F7C JUMP JUMPDEST SWAP1 POP SWAP2 SWAP1 POP JUMP JUMPDEST PUSH32 0x4E487B7100000000000000000000000000000000000000000000000000000000 PUSH0 MSTORE PUSH1 0x11 PUSH1 0x4 MSTORE PUSH1 0x24 PUSH0 REVERT JUMPDEST PUSH0 PUSH2 0x1FF3 DUP3 PUSH2 0x16D8 JUMP JUMPDEST SWAP2 POP PUSH2 0x1FFE DUP4 PUSH2 0x16D8 JUMP JUMPDEST SWAP3 POP DUP3 DUP3 ADD SWAP1 POP DUP1 DUP3 GT ISZERO PUSH2 0x2016 JUMPI PUSH2 0x2015 PUSH2 0x1FBC JUMP JUMPDEST JUMPDEST SWAP3 SWAP2 POP POP JUMP INVALID LOG2 PUSH5 0x6970667358 0x22 SLT KECCAK256 DUP16 0xE2 PUSH8 0xC228486BFC817FE6 0xC3 SUB 0xC6 INVALID 0xB4 0xD7 JUMPDEST SLOAD 0xCE SWAP2 LOG2 CALL PUSH8 0xC3619FFB942CAFC4 PUSH5 0x736F6C6343 STOP ADDMOD 0x1E STOP CALLER "
				},
				"gasEstimates": {
					"creation": {
						"codeDepositCost": "1654800",
						"executionCost": "infinite",
						"totalCost": "infinite"
					},
					"external": {
						"REQUIRED_AMOUNT()": "370",
						"bothPaid()": "9087",
						"commit(uint8,string)": "infinite",
						"commitTime()": "2514",
						"englandCaptain()": "2575",
						"englandChoice()": "2539",
						"englandHash()": "2493",
						"englandRevealed()": "2541",
						"indianCaptain()": "2597",
						"indianChoice()": "2489",
						"indianHash()": "2470",
						"indianRevealed()": "2583",
						"payments(address)": "2912",
						"referee()": "infinite",
						"reveal(uint8,string)": "infinite",
						"revealDeadline()": "2469",
						"setCaptains(address,address)": "infinite",
						"settle()": "infinite"
					},
					"internal": {
						"_checkStartDeadline()": "infinite"
					}
				},
				"methodIdentifiers": {
					"REQUIRED_AMOUNT()": "87e69625",
					"bothPaid()": "49c2bd83",
					"commit(uint8,string)": "737af77a",
					"commitTime()": "5e63d890",
					"englandCaptain()": "92881152",
					"englandChoice()": "a2485451",
					"englandHash()": "360eb12c",
					"englandRevealed()": "0f8f655e",
					"indianCaptain()": "38625556",
					"indianChoice()": "810a8999",
					"indianHash()": "458698ff",
					"indianRevealed()": "bd41d253",
					"payments(address)": "e2982c21",
					"referee()": "3b1bebd1",
					"reveal(uint8,string)": "ca3ed9e8",
					"revealDeadline()": "b14b28a3",
					"setCaptains(address,address)": "93d67246",
					"settle()": "11da60b4"
				}
			},
			"storageLayout": {
				"storage": [
					{
						"astId": 5,
						"contract": "CoinToss/CoinToss2.sol:CoinTossOptimized",
						"label": "indianCaptain",
						"offset": 0,
						"slot": "0",
						"type": "t_address"
					},
					{
						"astId": 7,
						"contract": "CoinToss/CoinToss2.sol:CoinTossOptimized",
						"label": "englandCaptain",
						"offset": 0,
						"slot": "1",
						"type": "t_address"
					},
					{
						"astId": 14,
						"contract": "CoinToss/CoinToss2.sol:CoinTossOptimized",
						"label": "payments",
						"offset": 0,
						"slot": "2",
						"type": "t_mapping(t_address,t_uint256)"
					},
					{
						"astId": 16,
						"contract": "CoinToss/CoinToss2.sol:CoinTossOptimized",
						"label": "indianHash",
						"offset": 0,
						"slot": "3",
						"type": "t_bytes32"
					},
					{
						"astId": 18,
						"contract": "CoinToss/CoinToss2.sol:CoinTossOptimized",
						"label": "englandHash",
						"offset": 0,
						"slot": "4",
						"type": "t_bytes32"
					},
					{
						"astId": 20,
						"contract": "CoinToss/CoinToss2.sol:CoinTossOptimized",
						"label": "indianChoice",
						"offset": 0,
						"slot": "5",
						"type": "t_uint8"
					},
					{
						"astId": 22,
						"contract": "CoinToss/CoinToss2.sol:CoinTossOptimized",
						"label": "englandChoice",
						"offset": 1,
						"slot": "5",
						"type": "t_uint8"
					},
					{
						"astId": 24,
						"contract": "CoinToss/CoinToss2.sol:CoinTossOptimized",
						"label": "indianRevealed",
						"offset": 2,
						"slot": "5",
						"type": "t_bool"
					},
					{
						"astId": 26,
						"contract": "CoinToss/CoinToss2.sol:CoinTossOptimized",
						"label": "englandRevealed",
						"offset": 3,
						"slot": "5",
						"type": "t_bool"
					},
					{
						"astId": 28,
						"contract": "CoinToss/CoinToss2.sol:CoinTossOptimized",
						"label": "commitTime",
						"offset": 0,
						"slot": "6",
						"type": "t_uint256"
					},
					{
						"astId": 30,
						"contract": "CoinToss/CoinToss2.sol:CoinTossOptimized",
						"label": "revealDeadline",
						"offset": 0,
						"slot": "7",
						"type": "t_uint256"
					}
				],
				"types": {
					"t_address": {
						"encoding": "inplace",
						"label": "address",
						"numberOfBytes": "20"
					},
					"t_bool": {
						"encoding": "inplace",
						"label": "bool",
						"numberOfBytes": "1"
					},
					"t_bytes32": {
						"encoding": "inplace",
						"label": "bytes32",
						"numberOfBytes": "32"
					},
					"t_mapping(t_address,t_uint256)": {
						"encoding": "mapping",
						"key": "t_address",
						"label": "mapping(address => uint256)",
						"numberOfBytes": "32",
						"value": "t_uint256"
					},
					"t_uint256": {
						"encoding": "inplace",
						"label": "uint256",
						"numberOfBytes": "32"
					},
					"t_uint8": {
						"encoding": "inplace",
						"label": "uint8",
						"numberOfBytes": "1"
					}
				}
			},
			"userdoc": {
				"kind": "user",
				"methods": {},
				"version": 1
			}
		}
	}
}