{
	"Lottery/Lottery.sol": {
		"Lottery": {
			"abi": [
				{
					"inputs": [],
					"stateMutability": "nonpayable",
					"type": "constructor"
				},
				{
					"anonymous": false,
					"inputs": [
						{
							"indexed": false,
							"internalType": "address",
							"name": "player",
							"type": "address"
						},
						{
							"indexed": false,
							"internalType": "uint256",
							"name": "number",
							"type": "uint256"
						}
					],
					"name": "PlayerRegistered",
					"type": "event"
				},
				{
					"anonymous": false,
					"inputs": [
						{
							"indexed": false,
							"internalType": "address",
							"name": "winner",
							"type": "address"
						},
						{
							"indexed": false,
							"internalType": "uint256",
							"name": "amount",
							"type": "uint256"
						}
					],
					"name": "WinnerDeclared",
					"type": "event"
				},
				{
					"inputs": [],
					"name": "TICKET_PRICE",
					"outputs": [
						{
							"internalType": "uint256",
							"name": "",
							"type": "uint256"
						}
					],
					"stateMutability": "view",
					"type": "function"
				},
				{
					"inputs": [],
					"name": "alice",
					"outputs": [
						{
							"internalType": "address",
							"name": "",
							"type": "address"
						}
					],
					"stateMutability": "view",
					"type": "function"
				},
				{
					"inputs": [],
					"name": "bob",
					"outputs": [
						{
							"internalType": "address",
							"name": "",
							"type": "address"
						}
					],
					"stateMutability": "view",
					"type": "function"
				},
				{
					"inputs": [],
					"name": "getAllNumbers",
					"outputs": [
						{
							"internalType": "uint256[]",
							"name": "",
							"type": "uint256[]"
						}
					],
					"stateMutability": "view",
					"type": "function"
				},
				{
					"inputs": [],
					"name": "getBalance",
					"outputs": [
						{
							"internalType": "uint256",
							"name": "",
							"type": "uint256"
						}
					],
					"stateMutability": "view",
					"type": "function"
				},
				{
					"inputs": [
						{
							"internalType": "uint256",
							"name": "",
							"type": "uint256"
						}
					],
					"name": "numbers",
					"outputs": [
						{
							"internalType": "uint256",
							"name": "",
							"type": "uint256"
						}
					],
					"stateMutability": "view",
					"type": "function"
				},
				{
					"inputs": [],
					"name": "oscar",
					"outputs": [
						{
							"internalType": "address",
							"name": "",
							"type": "address"
						}
					],
					"stateMutability": "view",
					"type": "function"
				},
				{
					"inputs": [
						{
							"internalType": "address",
							"name": "",
							"type": "address"
						}
					],
					"name": "playerNumber",
					"outputs": [
						{
							"internalType": "uint256",
							"name": "",
							"type": "uint256"
						}
					],
					"stateMutability": "view",
					"type": "function"
				},
				{
					"inputs": [
						{
							"internalType": "uint256",
							"name": "",
							"type": "uint256"
						}
					],
					"name": "players",
					"outputs": [
						{
							"internalType": "address",
							"name": "",
							"type": "address"
						}
					],
					"stateMutability": "view",
					"type": "function"
				},
				{
					"inputs": [],
					"name": "retailer",
					"outputs": [
						{
							"internalType": "address",
							"name": "",
							"type": "address"
						}
					],
					"stateMutability": "view",
					"type": "function"
				},
				{
					"inputs": [],
					"name": "selectWinner",
					"outputs": [],
					"stateMutability": "nonpayable",
					"type": "function"
				},
				{
					"inputs": [
						{
							"internalType": "address",
							"name": "_alice",
							"type": "address"
						},
						{
							"internalType": "address",
							"name": "_bob",
							"type": "address"
						},
						{
							"internalType": "address",
							"name": "_oscar",
							"type": "address"
						}
					],
					"name": "setPlayers",
					"outputs": [],
					"stateMutability": "nonpayable",
					"type": "function"
				},
				{
					"inputs": [],
					"name": "startTime",
					"outputs": [
						{
							"internalType": "uint256",
							"name": "",
							"type": "uint256"
						}
					],
					"stateMutability": "view",
					"type": "function"
				},
				{
					"inputs": [],
					"name": "winner",
					"outputs": [
						{
							"internalType": "address",
							"name": "",
							"type": "address"
						}
					],
					"stateMutability": "view",
					"type": "function"
				},
				{
					"inputs": [],
					"name": "winnerSelected",
					"outputs": [
						{
							"internalType": "bool",
							"name": "",
							"type": "bool"
						}
					],
					"stateMutability": "view",
					"type": "function"
				},
				{
					"stateMutability": "payable",
					"type": "receive"
				}
			],
			"devdoc": {
				"kind": "dev",
				"methods": {},
				"version": 1
			},
			"evm": {
				"assembly": "    /* \"Lottery/Lottery.sol\":61:3010  contract Lottery {... */\n  mstore(0x40, 0x80)\n    /* \"Lottery/Lottery.sol\":771:856  constructor() {... */\n  callvalue\n  dup1\n  iszero\n  tag_1\n  jumpi\n  revert(0x00, 0x00)\ntag_1:\n  pop\n    /* \"Lottery/Lottery.sol\":807:817  msg.sender */\n  caller\n    /* \"Lottery/Lottery.sol\":796:804  retailer */\n  0x00\n  0x00\n    /* \"Lottery/Lottery.sol\":796:817  retailer = msg.sender */\n  0x0100\n  exp\n  dup2\n  sload\n  dup2\n  0xffffffffffffffffffffffffffffffffffffffff\n  mul\n  not\n  and\n  swap1\n  dup4\n  0xffffffffffffffffffffffffffffffffffffffff\n  and\n  mul\n  or\n  swap1\n  sstore\n  pop\n    /* \"Lottery/Lottery.sol\":61:3010  contract Lottery {... */\n  dataSize(sub_0)\n  dup1\n  dataOffset(sub_0)\n  0x00\n  codecopy\n  0x00\n  return\nstop\n\nsub_0: assembly {\n        /* \"Lottery/Lottery.sol\":61:3010  contract Lottery {... */\n      mstore(0x40, 0x80)\n      jumpi(tag_1, lt(calldatasize, 0x04))\n      shr(0xe0, calldataload(0x00))\n      dup1\n      0x78e97925\n      gt\n      tag_18\n      jumpi\n      dup1\n      0xdfbf53ae\n      gt\n      tag_19\n      jumpi\n      dup1\n      0xdfbf53ae\n      eq\n      tag_14\n      jumpi\n      dup1\n      0xf57e54f3\n      eq\n      tag_15\n      jumpi\n      dup1\n      0xf71d96cb\n      eq\n      tag_16\n      jumpi\n      dup1\n      0xfb47e3a2\n      eq\n      tag_17\n      jumpi\n      jump(tag_2)\n    tag_19:\n      dup1\n      0x78e97925\n      eq\n      tag_10\n      jumpi\n      dup1\n      0x8d382812\n      eq\n      tag_11\n      jumpi\n      dup1\n      0xc09cec77\n      eq\n      tag_12\n      jumpi\n      dup1\n      0xd39fa233\n      eq\n      tag_13\n      jumpi\n      jump(tag_2)\n    tag_18:\n      dup1\n      0x33a99e04\n      gt\n      tag_20\n      jumpi\n      dup1\n      0x33a99e04\n      eq\n      tag_6\n      jumpi\n      dup1\n      0x3fc6105a\n      eq\n      tag_7\n      jumpi\n      dup1\n      0x4c1249fc\n      eq\n      tag_8\n      jumpi\n      dup1\n      0x74fddd21\n      eq\n      tag_9\n      jumpi\n      jump(tag_2)\n    tag_20:\n      dup1\n      0x04f35a57\n      eq\n      tag_3\n      jumpi\n      dup1\n      0x12065fe0\n      eq\n      tag_4\n      jumpi\n      dup1\n      0x1a95f15f\n      eq\n      tag_5\n      jumpi\n      jump(tag_2)\n    tag_1:\n      jumpi(tag_2, calldatasize)\n        /* \"Lottery/Lottery.sol\":235:245  0.01 ether */\n      0x2386f26fc10000\n        /* \"Lottery/Lottery.sol\":954:963  msg.value */\n      callvalue\n        /* \"Lottery/Lottery.sol\":954:979  msg.value == TICKET_PRICE */\n      eq\n        /* \"Lottery/Lottery.sol\":946:1005  require(msg.value == TICKET_PRICE, \"Send exactly 0.01 ETH\") */\n      tag_23\n      jumpi\n      mload(0x40)\n      0x08c379a000000000000000000000000000000000000000000000000000000000\n      dup2\n      mstore\n      0x04\n      add\n      tag_24\n      swap1\n      tag_25\n      jump\t// in\n    tag_24:\n      mload(0x40)\n      dup1\n      swap2\n      sub\n      swap1\n      revert\n    tag_23:\n        /* \"Lottery/Lottery.sol\":1041:1042  3 */\n      0x03\n        /* \"Lottery/Lottery.sol\":1024:1031  players */\n      0x07\n        /* \"Lottery/Lottery.sol\":1024:1038  players.length */\n      dup1\n      sload\n      swap1\n      pop\n        /* \"Lottery/Lottery.sol\":1024:1042  players.length < 3 */\n      lt\n        /* \"Lottery/Lottery.sol\":1016:1077  require(players.length < 3, \"All players already registered\") */\n      tag_26\n      jumpi\n      mload(0x40)\n      0x08c379a000000000000000000000000000000000000000000000000000000000\n      dup2\n      mstore\n      0x04\n      add\n      tag_27\n      swap1\n      tag_28\n      jump\t// in\n    tag_27:\n      mload(0x40)\n      dup1\n      swap2\n      sub\n      swap1\n      revert\n    tag_26:\n        /* \"Lottery/Lottery.sol\":1124:1125  0 */\n      0x00\n        /* \"Lottery/Lottery.sol\":1096:1108  playerNumber */\n      0x06\n        /* \"Lottery/Lottery.sol\":1096:1120  playerNumber[msg.sender] */\n      0x00\n        /* \"Lottery/Lottery.sol\":1109:1119  msg.sender */\n      caller\n        /* \"Lottery/Lottery.sol\":1096:1120  playerNumber[msg.sender] */\n      0xffffffffffffffffffffffffffffffffffffffff\n      and\n      0xffffffffffffffffffffffffffffffffffffffff\n      and\n      dup2\n      mstore\n      0x20\n      add\n      swap1\n      dup2\n      mstore\n      0x20\n      add\n      0x00\n      keccak256\n      sload\n        /* \"Lottery/Lottery.sol\":1096:1125  playerNumber[msg.sender] == 0 */\n      eq\n        /* \"Lottery/Lottery.sol\":1088:1148  require(playerNumber[msg.sender] == 0, \"Already registered\") */\n      tag_29\n      jumpi\n      mload(0x40)\n      0x08c379a000000000000000000000000000000000000000000000000000000000\n      dup2\n      mstore\n      0x04\n      add\n      tag_30\n      swap1\n      tag_31\n      jump\t// in\n    tag_30:\n      mload(0x40)\n      dup1\n      swap2\n      sub\n      swap1\n      revert\n    tag_29:\n        /* \"Lottery/Lottery.sol\":1222:1223  0 */\n      0x00\n        /* \"Lottery/Lottery.sol\":1209:1218  startTime */\n      sload(0x04)\n        /* \"Lottery/Lottery.sol\":1209:1223  startTime == 0 */\n      sub\n        /* \"Lottery/Lottery.sol\":1205:1279  if (startTime == 0) {... */\n      tag_32\n      jumpi\n        /* \"Lottery/Lottery.sol\":1252:1267  block.timestamp */\n      timestamp\n        /* \"Lottery/Lottery.sol\":1240:1249  startTime */\n      0x04\n        /* \"Lottery/Lottery.sol\":1240:1267  startTime = block.timestamp */\n      dup2\n      swap1\n      sstore\n      pop\n        /* \"Lottery/Lottery.sol\":1205:1279  if (startTime == 0) {... */\n    tag_32:\n        /* \"Lottery/Lottery.sol\":1332:1346  uint256 number */\n      0x00\n        /* \"Lottery/Lottery.sol\":1459:1465  100000 */\n      0x0186a0\n        /* \"Lottery/Lottery.sol\":1398:1413  block.timestamp */\n      timestamp\n        /* \"Lottery/Lottery.sol\":1415:1425  msg.sender */\n      caller\n        /* \"Lottery/Lottery.sol\":1427:1443  block.prevrandao */\n      prevrandao\n        /* \"Lottery/Lottery.sol\":1381:1444  abi.encodePacked(block.timestamp, msg.sender, block.prevrandao) */\n      add(0x20, mload(0x40))\n      tag_33\n      swap4\n      swap3\n      swap2\n      swap1\n      tag_34\n      jump\t// in\n    tag_33:\n      mload(0x40)\n      0x20\n      dup2\n      dup4\n      sub\n      sub\n      dup2\n      mstore\n      swap1\n      0x40\n      mstore\n        /* \"Lottery/Lottery.sol\":1371:1445  keccak256(abi.encodePacked(block.timestamp, msg.sender, block.prevrandao)) */\n      dup1\n      mload\n      swap1\n      0x20\n      add\n      keccak256\n        /* \"Lottery/Lottery.sol\":1349:1456  uint256(... */\n      0x00\n      shr\n        /* \"Lottery/Lottery.sol\":1349:1465  uint256(... */\n      tag_35\n      swap2\n      swap1\n      tag_36\n      jump\t// in\n    tag_35:\n        /* \"Lottery/Lottery.sol\":1332:1465  uint256 number = uint256(... */\n      swap1\n      pop\n        /* \"Lottery/Lottery.sol\":1505:1511  number */\n      dup1\n        /* \"Lottery/Lottery.sol\":1478:1490  playerNumber */\n      0x06\n        /* \"Lottery/Lottery.sol\":1478:1502  playerNumber[msg.sender] */\n      0x00\n        /* \"Lottery/Lottery.sol\":1491:1501  msg.sender */\n      caller\n        /* \"Lottery/Lottery.sol\":1478:1502  playerNumber[msg.sender] */\n      0xffffffffffffffffffffffffffffffffffffffff\n      and\n      0xffffffffffffffffffffffffffffffffffffffff\n      and\n      dup2\n      mstore\n      0x20\n      add\n      swap1\n      dup2\n      mstore\n      0x20\n      add\n      0x00\n      keccak256\n        /* \"Lottery/Lottery.sol\":1478:1511  playerNumber[msg.sender] = number */\n      dup2\n      swap1\n      sstore\n      pop\n        /* \"Lottery/Lottery.sol\":1522:1529  players */\n      0x07\n        /* \"Lottery/Lottery.sol\":1535:1545  msg.sender */\n      caller\n        /* \"Lottery/Lottery.sol\":1522:1546  players.push(msg.sender) */\n      swap1\n      dup1\n      0x01\n      dup2\n      sload\n      add\n      dup1\n      dup3\n      sstore\n      dup1\n      swap2\n      pop\n      pop\n      0x01\n      swap1\n      sub\n      swap1\n      0x00\n      mstore\n      keccak256(0x00, 0x20)\n      add\n      0x00\n      swap1\n      swap2\n      swap1\n      swap2\n      swap1\n      swap2\n      0x0100\n      exp\n      dup2\n      sload\n      dup2\n      0xffffffffffffffffffffffffffffffffffffffff\n      mul\n      not\n      and\n      swap1\n      dup4\n      0xffffffffffffffffffffffffffffffffffffffff\n      and\n      mul\n      or\n      swap1\n      sstore\n      pop\n        /* \"Lottery/Lottery.sol\":1557:1564  numbers */\n      0x08\n        /* \"Lottery/Lottery.sol\":1570:1576  number */\n      dup2\n        /* \"Lottery/Lottery.sol\":1557:1577  numbers.push(number) */\n      swap1\n      dup1\n      0x01\n      dup2\n      sload\n      add\n      dup1\n      dup3\n      sstore\n      dup1\n      swap2\n      pop\n      pop\n      0x01\n      swap1\n      sub\n      swap1\n      0x00\n      mstore\n      keccak256(0x00, 0x20)\n      add\n      0x00\n      swap1\n      swap2\n      swap1\n      swap2\n      swap1\n      swap2\n      pop\n      sstore\n        /* \"Lottery/Lottery.sol\":1595:1631  PlayerRegistered(msg.sender, number) */\n      0x324cb0062138d65997c86cd3012489ceb351d602f2f55c7408306e8040c79f3f\n        /* \"Lottery/Lottery.sol\":1612:1622  msg.sender */\n      caller\n        /* \"Lottery/Lottery.sol\":1624:1630  number */\n      dup3\n        /* \"Lottery/Lottery.sol\":1595:1631  PlayerRegistered(msg.sender, number) */\n      mload(0x40)\n      tag_39\n      swap3\n      swap2\n      swap1\n      tag_40\n      jump\t// in\n    tag_39:\n      mload(0x40)\n      dup1\n      swap2\n      sub\n      swap1\n      log1\n        /* \"Lottery/Lottery.sol\":935:1639  {... */\n      stop\n        /* \"Lottery/Lottery.sol\":61:3010  contract Lottery {... */\n    tag_2:\n      revert(0x00, 0x00)\n        /* \"Lottery/Lottery.sol\":167:187  address public oscar */\n    tag_3:\n      callvalue\n      dup1\n      iszero\n      tag_41\n      jumpi\n      revert(0x00, 0x00)\n    tag_41:\n      pop\n      tag_42\n      tag_43\n      jump\t// in\n    tag_42:\n      mload(0x40)\n      tag_44\n      swap2\n      swap1\n      tag_45\n      jump\t// in\n    tag_44:\n      mload(0x40)\n      dup1\n      swap2\n      sub\n      swap1\n      return\n        /* \"Lottery/Lottery.sol\":2906:3007  function getBalance() external view returns (uint256) {... */\n    tag_4:\n      callvalue\n      dup1\n      iszero\n      tag_46\n      jumpi\n      revert(0x00, 0x00)\n    tag_46:\n      pop\n      tag_47\n      tag_48\n      jump\t// in\n    tag_47:\n      mload(0x40)\n      tag_49\n      swap2\n      swap1\n      tag_50\n      jump\t// in\n    tag_49:\n      mload(0x40)\n      dup1\n      swap2\n      sub\n      swap1\n      return\n        /* \"Lottery/Lottery.sol\":196:245  uint256 public constant TICKET_PRICE = 0.01 ether */\n    tag_5:\n      callvalue\n      dup1\n      iszero\n      tag_51\n      jumpi\n      revert(0x00, 0x00)\n    tag_51:\n      pop\n      tag_52\n      tag_53\n      jump\t// in\n    tag_52:\n      mload(0x40)\n      tag_54\n      swap2\n      swap1\n      tag_50\n      jump\t// in\n    tag_54:\n      mload(0x40)\n      dup1\n      swap2\n      sub\n      swap1\n      return\n        /* \"Lottery/Lottery.sol\":1992:2725  function selectWinner() external onlyRetailer {... */\n    tag_6:\n      callvalue\n      dup1\n      iszero\n      tag_55\n      jumpi\n      revert(0x00, 0x00)\n    tag_55:\n      pop\n      tag_56\n      tag_57\n      jump\t// in\n    tag_56:\n      stop\n        /* \"Lottery/Lottery.sol\":346:393  mapping(address => uint256) public playerNumber */\n    tag_7:\n      callvalue\n      dup1\n      iszero\n      tag_58\n      jumpi\n      revert(0x00, 0x00)\n    tag_58:\n      pop\n      tag_59\n      0x04\n      dup1\n      calldatasize\n      sub\n      dup2\n      add\n      swap1\n      tag_60\n      swap2\n      swap1\n      tag_61\n      jump\t// in\n    tag_60:\n      tag_62\n      jump\t// in\n    tag_59:\n      mload(0x40)\n      tag_63\n      swap2\n      swap1\n      tag_50\n      jump\t// in\n    tag_63:\n      mload(0x40)\n      dup1\n      swap2\n      sub\n      swap1\n      return\n        /* \"Lottery/Lottery.sol\":85:108  address public retailer */\n    tag_8:\n      callvalue\n      dup1\n      iszero\n      tag_64\n      jumpi\n      revert(0x00, 0x00)\n    tag_64:\n      pop\n      tag_65\n      tag_66\n      jump\t// in\n    tag_65:\n      mload(0x40)\n      tag_67\n      swap2\n      swap1\n      tag_45\n      jump\t// in\n    tag_67:\n      mload(0x40)\n      dup1\n      swap2\n      sub\n      swap1\n      return\n        /* \"Lottery/Lottery.sol\":2768:2867  function getAllNumbers() external view returns (uint256[] memory) {... */\n    tag_9:\n      callvalue\n      dup1\n      iszero\n      tag_68\n      jumpi\n      revert(0x00, 0x00)\n    tag_68:\n      pop\n      tag_69\n      tag_70\n      jump\t// in\n    tag_69:\n      mload(0x40)\n      tag_71\n      swap2\n      swap1\n      tag_72\n      jump\t// in\n    tag_71:\n      mload(0x40)\n      dup1\n      swap2\n      sub\n      swap1\n      return\n        /* \"Lottery/Lottery.sol\":252:276  uint256 public startTime */\n    tag_10:\n      callvalue\n      dup1\n      iszero\n      tag_73\n      jumpi\n      revert(0x00, 0x00)\n    tag_73:\n      pop\n      tag_74\n      tag_75\n      jump\t// in\n    tag_74:\n      mload(0x40)\n      tag_76\n      swap2\n      swap1\n      tag_50\n      jump\t// in\n    tag_76:\n      mload(0x40)\n      dup1\n      swap2\n      sub\n      swap1\n      return\n        /* \"Lottery/Lottery.sol\":283:309  bool public winnerSelected */\n    tag_11:\n      callvalue\n      dup1\n      iszero\n      tag_77\n      jumpi\n      revert(0x00, 0x00)\n    tag_77:\n      pop\n      tag_78\n      tag_79\n      jump\t// in\n    tag_78:\n      mload(0x40)\n      tag_80\n      swap2\n      swap1\n      tag_81\n      jump\t// in\n    tag_80:\n      mload(0x40)\n      dup1\n      swap2\n      sub\n      swap1\n      return\n        /* \"Lottery/Lottery.sol\":142:160  address public bob */\n    tag_12:\n      callvalue\n      dup1\n      iszero\n      tag_82\n      jumpi\n      revert(0x00, 0x00)\n    tag_82:\n      pop\n      tag_83\n      tag_84\n      jump\t// in\n    tag_83:\n      mload(0x40)\n      tag_85\n      swap2\n      swap1\n      tag_45\n      jump\t// in\n    tag_85:\n      mload(0x40)\n      dup1\n      swap2\n      sub\n      swap1\n      return\n        /* \"Lottery/Lottery.sol\":458:482  uint256[] public numbers */\n    tag_13:\n      callvalue\n      dup1\n      iszero\n      tag_86\n      jumpi\n      revert(0x00, 0x00)\n    tag_86:\n      pop\n      tag_87\n      0x04\n      dup1\n      calldatasize\n      sub\n      dup2\n      add\n      swap1\n      tag_88\n      swap2\n      swap1\n      tag_89\n      jump\t// in\n    tag_88:\n      tag_90\n      jump\t// in\n    tag_87:\n      mload(0x40)\n      tag_91\n      swap2\n      swap1\n      tag_50\n      jump\t// in\n    tag_91:\n      mload(0x40)\n      dup1\n      swap2\n      sub\n      swap1\n      return\n        /* \"Lottery/Lottery.sol\":316:337  address public winner */\n    tag_14:\n      callvalue\n      dup1\n      iszero\n      tag_92\n      jumpi\n      revert(0x00, 0x00)\n    tag_92:\n      pop\n      tag_93\n      tag_94\n      jump\t// in\n    tag_93:\n      mload(0x40)\n      tag_95\n      swap2\n      swap1\n      tag_45\n      jump\t// in\n    tag_95:\n      mload(0x40)\n      dup1\n      swap2\n      sub\n      swap1\n      return\n        /* \"Lottery/Lottery.sol\":1700:1936  function setPlayers(address _alice, address _bob, address _oscar) external onlyRetailer {... */\n    tag_15:\n      callvalue\n      dup1\n      iszero\n      tag_96\n      jumpi\n      revert(0x00, 0x00)\n    tag_96:\n      pop\n      tag_97\n      0x04\n      dup1\n      calldatasize\n      sub\n      dup2\n      add\n      swap1\n      tag_98\n      swap2\n      swap1\n      tag_99\n      jump\t// in\n    tag_98:\n      tag_100\n      jump\t// in\n    tag_97:\n      stop\n        /* \"Lottery/Lottery.sol\":427:451  address[] public players */\n    tag_16:\n      callvalue\n      dup1\n      iszero\n      tag_101\n      jumpi\n      revert(0x00, 0x00)\n    tag_101:\n      pop\n      tag_102\n      0x04\n      dup1\n      calldatasize\n      sub\n      dup2\n      add\n      swap1\n      tag_103\n      swap2\n      swap1\n      tag_89\n      jump\t// in\n    tag_103:\n      tag_104\n      jump\t// in\n    tag_102:\n      mload(0x40)\n      tag_105\n      swap2\n      swap1\n      tag_45\n      jump\t// in\n    tag_105:\n      mload(0x40)\n      dup1\n      swap2\n      sub\n      swap1\n      return\n        /* \"Lottery/Lottery.sol\":115:135  address public alice */\n    tag_17:\n      callvalue\n      dup1\n      iszero\n      tag_106\n      jumpi\n      revert(0x00, 0x00)\n    tag_106:\n      pop\n      tag_107\n      tag_108\n      jump\t// in\n    tag_107:\n      mload(0x40)\n      tag_109\n      swap2\n      swap1\n      tag_45\n      jump\t// in\n    tag_109:\n      mload(0x40)\n      dup1\n      swap2\n      sub\n      swap1\n      return\n        /* \"Lottery/Lottery.sol\":167:187  address public oscar */\n    tag_43:\n      0x03\n      0x00\n      swap1\n      sload\n      swap1\n      0x0100\n      exp\n      swap1\n      div\n      0xffffffffffffffffffffffffffffffffffffffff\n      and\n      dup2\n      jump\t// out\n        /* \"Lottery/Lottery.sol\":2906:3007  function getBalance() external view returns (uint256) {... */\n    tag_48:\n        /* \"Lottery/Lottery.sol\":2951:2958  uint256 */\n      0x00\n        /* \"Lottery/Lottery.sol\":2978:2999  address(this).balance */\n      selfbalance\n        /* \"Lottery/Lottery.sol\":2971:2999  return address(this).balance */\n      swap1\n      pop\n        /* \"Lottery/Lottery.sol\":2906:3007  function getBalance() external view returns (uint256) {... */\n      swap1\n      jump\t// out\n        /* \"Lottery/Lottery.sol\":196:245  uint256 public constant TICKET_PRICE = 0.01 ether */\n    tag_53:\n        /* \"Lottery/Lottery.sol\":235:245  0.01 ether */\n      0x2386f26fc10000\n        /* \"Lottery/Lottery.sol\":196:245  uint256 public constant TICKET_PRICE = 0.01 ether */\n      dup2\n      jump\t// out\n        /* \"Lottery/Lottery.sol\":1992:2725  function selectWinner() external onlyRetailer {... */\n    tag_57:\n        /* \"Lottery/Lottery.sol\":703:711  retailer */\n      0x00\n      0x00\n      swap1\n      sload\n      swap1\n      0x0100\n      exp\n      swap1\n      div\n      0xffffffffffffffffffffffffffffffffffffffff\n      and\n        /* \"Lottery/Lottery.sol\":689:711  msg.sender == retailer */\n      0xffffffffffffffffffffffffffffffffffffffff\n      and\n        /* \"Lottery/Lottery.sol\":689:699  msg.sender */\n      caller\n        /* \"Lottery/Lottery.sol\":689:711  msg.sender == retailer */\n      0xffffffffffffffffffffffffffffffffffffffff\n      and\n      eq\n        /* \"Lottery/Lottery.sol\":681:743  require(msg.sender == retailer, \"Only retailer can call this\") */\n      tag_112\n      jumpi\n      mload(0x40)\n      0x08c379a000000000000000000000000000000000000000000000000000000000\n      dup2\n      mstore\n      0x04\n      add\n      tag_113\n      swap1\n      tag_114\n      jump\t// in\n    tag_113:\n      mload(0x40)\n      dup1\n      swap2\n      sub\n      swap1\n      revert\n    tag_112:\n        /* \"Lottery/Lottery.sol\":2075:2076  3 */\n      0x03\n        /* \"Lottery/Lottery.sol\":2057:2064  players */\n      0x07\n        /* \"Lottery/Lottery.sol\":2057:2071  players.length */\n      dup1\n      sload\n      swap1\n      pop\n        /* \"Lottery/Lottery.sol\":2057:2076  players.length == 3 */\n      eq\n        /* \"Lottery/Lottery.sol\":2049:2112  require(players.length == 3, \"All players must register first\") */\n      tag_116\n      jumpi\n      mload(0x40)\n      0x08c379a000000000000000000000000000000000000000000000000000000000\n      dup2\n      mstore\n      0x04\n      add\n      tag_117\n      swap1\n      tag_118\n      jump\t// in\n    tag_117:\n      mload(0x40)\n      dup1\n      swap2\n      sub\n      swap1\n      revert\n    tag_116:\n        /* \"Lottery/Lottery.sol\":2162:2171  2 minutes */\n      0x78\n        /* \"Lottery/Lottery.sol\":2150:2159  startTime */\n      sload(0x04)\n        /* \"Lottery/Lottery.sol\":2150:2171  startTime + 2 minutes */\n      tag_119\n      swap2\n      swap1\n      tag_120\n      jump\t// in\n    tag_119:\n        /* \"Lottery/Lottery.sol\":2131:2146  block.timestamp */\n      timestamp\n        /* \"Lottery/Lottery.sol\":2131:2171  block.timestamp >= startTime + 2 minutes */\n      lt\n      iszero\n        /* \"Lottery/Lottery.sol\":2123:2210  require(block.timestamp >= startTime + 2 minutes, \"Wait 2 minutes after first payment\") */\n      tag_121\n      jumpi\n      mload(0x40)\n      0x08c379a000000000000000000000000000000000000000000000000000000000\n      dup2\n      mstore\n      0x04\n      add\n      tag_122\n      swap1\n      tag_123\n      jump\t// in\n    tag_122:\n      mload(0x40)\n      dup1\n      swap2\n      sub\n      swap1\n      revert\n    tag_121:\n        /* \"Lottery/Lottery.sol\":2230:2244  winnerSelected */\n      0x05\n      0x00\n      swap1\n      sload\n      swap1\n      0x0100\n      exp\n      swap1\n      div\n      0xff\n      and\n        /* \"Lottery/Lottery.sol\":2229:2244  !winnerSelected */\n      iszero\n        /* \"Lottery/Lottery.sol\":2221:2272  require(!winnerSelected, \"Winner already selected\") */\n      tag_124\n      jumpi\n      mload(0x40)\n      0x08c379a000000000000000000000000000000000000000000000000000000000\n      dup2\n      mstore\n      0x04\n      add\n      tag_125\n      swap1\n      tag_126\n      jump\t// in\n    tag_125:\n      mload(0x40)\n      dup1\n      swap2\n      sub\n      swap1\n      revert\n    tag_124:\n        /* \"Lottery/Lottery.sol\":2333:2350  uint256 randIndex */\n      0x00\n        /* \"Lottery/Lottery.sol\":2451:2458  numbers */\n      0x08\n        /* \"Lottery/Lottery.sol\":2451:2465  numbers.length */\n      dup1\n      sload\n      swap1\n      pop\n        /* \"Lottery/Lottery.sol\":2402:2417  block.timestamp */\n      timestamp\n        /* \"Lottery/Lottery.sol\":2419:2435  block.prevrandao */\n      prevrandao\n        /* \"Lottery/Lottery.sol\":2385:2436  abi.encodePacked(block.timestamp, block.prevrandao) */\n      add(0x20, mload(0x40))\n      tag_127\n      swap3\n      swap2\n      swap1\n      tag_128\n      jump\t// in\n    tag_127:\n      mload(0x40)\n      0x20\n      dup2\n      dup4\n      sub\n      sub\n      dup2\n      mstore\n      swap1\n      0x40\n      mstore\n        /* \"Lottery/Lottery.sol\":2375:2437  keccak256(abi.encodePacked(block.timestamp, block.prevrandao)) */\n      dup1\n      mload\n      swap1\n      0x20\n      add\n      keccak256\n        /* \"Lottery/Lottery.sol\":2353:2448  uint256(... */\n      0x00\n      shr\n        /* \"Lottery/Lottery.sol\":2353:2465  uint256(... */\n      tag_129\n      swap2\n      swap1\n      tag_36\n      jump\t// in\n    tag_129:\n        /* \"Lottery/Lottery.sol\":2333:2465  uint256 randIndex = uint256(... */\n      swap1\n      pop\n        /* \"Lottery/Lottery.sol\":2487:2494  players */\n      0x07\n        /* \"Lottery/Lottery.sol\":2495:2504  randIndex */\n      dup2\n        /* \"Lottery/Lottery.sol\":2487:2505  players[randIndex] */\n      dup2\n      sload\n      dup2\n      lt\n      tag_130\n      jumpi\n      tag_131\n      tag_132\n      jump\t// in\n    tag_131:\n    tag_130:\n      swap1\n      0x00\n      mstore\n      keccak256(0x00, 0x20)\n      add\n      0x00\n      swap1\n      sload\n      swap1\n      0x0100\n      exp\n      swap1\n      div\n      0xffffffffffffffffffffffffffffffffffffffff\n      and\n        /* \"Lottery/Lottery.sol\":2478:2484  winner */\n      0x05\n      0x01\n        /* \"Lottery/Lottery.sol\":2478:2505  winner = players[randIndex] */\n      0x0100\n      exp\n      dup2\n      sload\n      dup2\n      0xffffffffffffffffffffffffffffffffffffffff\n      mul\n      not\n      and\n      swap1\n      dup4\n      0xffffffffffffffffffffffffffffffffffffffff\n      and\n      mul\n      or\n      swap1\n      sstore\n      pop\n        /* \"Lottery/Lottery.sol\":2533:2537  true */\n      0x01\n        /* \"Lottery/Lottery.sol\":2516:2530  winnerSelected */\n      0x05\n      0x00\n        /* \"Lottery/Lottery.sol\":2516:2537  winnerSelected = true */\n      0x0100\n      exp\n      dup2\n      sload\n      dup2\n      0xff\n      mul\n      not\n      and\n      swap1\n      dup4\n      iszero\n      iszero\n      mul\n      or\n      swap1\n      sstore\n      pop\n        /* \"Lottery/Lottery.sol\":2591:2604  uint256 prize */\n      0x00\n        /* \"Lottery/Lottery.sol\":2607:2628  address(this).balance */\n      selfbalance\n        /* \"Lottery/Lottery.sol\":2591:2628  uint256 prize = address(this).balance */\n      swap1\n      pop\n        /* \"Lottery/Lottery.sol\":2647:2653  winner */\n      0x05\n      0x01\n      swap1\n      sload\n      swap1\n      0x0100\n      exp\n      swap1\n      div\n      0xffffffffffffffffffffffffffffffffffffffff\n      and\n        /* \"Lottery/Lottery.sol\":2639:2663  payable(winner).transfer */\n      0xffffffffffffffffffffffffffffffffffffffff\n      and\n        /* \"Lottery/Lottery.sol\":2639:2670  payable(winner).transfer(prize) */\n      0x08fc\n        /* \"Lottery/Lottery.sol\":2664:2669  prize */\n      dup3\n        /* \"Lottery/Lottery.sol\":2639:2670  payable(winner).transfer(prize) */\n      swap1\n      dup2\n      iszero\n      mul\n      swap1\n      mload(0x40)\n      0x00\n      mload(0x40)\n      dup1\n      dup4\n      sub\n      dup2\n      dup6\n      dup9\n      dup9\n      call\n      swap4\n      pop\n      pop\n      pop\n      pop\n      iszero\n      dup1\n      iszero\n      tag_135\n      jumpi\n      returndatacopy(0x00, 0x00, returndatasize)\n      revert(0x00, returndatasize)\n    tag_135:\n      pop\n        /* \"Lottery/Lottery.sol\":2688:2717  WinnerDeclared(winner, prize) */\n      0x3cf1af53e79884a92609ce59db1ec9f584d88e2d14c8eaba43a21db81318301e\n        /* \"Lottery/Lottery.sol\":2703:2709  winner */\n      0x05\n      0x01\n      swap1\n      sload\n      swap1\n      0x0100\n      exp\n      swap1\n      div\n      0xffffffffffffffffffffffffffffffffffffffff\n      and\n        /* \"Lottery/Lottery.sol\":2711:2716  prize */\n      dup3\n        /* \"Lottery/Lottery.sol\":2688:2717  WinnerDeclared(winner, prize) */\n      mload(0x40)\n      tag_136\n      swap3\n      swap2\n      swap1\n      tag_40\n      jump\t// in\n    tag_136:\n      mload(0x40)\n      dup1\n      swap2\n      sub\n      swap1\n      log1\n        /* \"Lottery/Lottery.sol\":2038:2725  {... */\n      pop\n      pop\n        /* \"Lottery/Lottery.sol\":1992:2725  function selectWinner() external onlyRetailer {... */\n      jump\t// out\n        /* \"Lottery/Lottery.sol\":346:393  mapping(address => uint256) public playerNumber */\n    tag_62:\n      mstore(0x20, 0x06)\n      dup1\n      0x00\n      mstore\n      keccak256(0x00, 0x40)\n      0x00\n      swap2\n      pop\n      swap1\n      pop\n      sload\n      dup2\n      jump\t// out\n        /* \"Lottery/Lottery.sol\":85:108  address public retailer */\n    tag_66:\n      0x00\n      0x00\n      swap1\n      sload\n      swap1\n      0x0100\n      exp\n      swap1\n      div\n      0xffffffffffffffffffffffffffffffffffffffff\n      and\n      dup2\n      jump\t// out\n        /* \"Lottery/Lottery.sol\":2768:2867  function getAllNumbers() external view returns (uint256[] memory) {... */\n    tag_70:\n        /* \"Lottery/Lottery.sol\":2816:2832  uint256[] memory */\n      0x60\n        /* \"Lottery/Lottery.sol\":2852:2859  numbers */\n      0x08\n        /* \"Lottery/Lottery.sol\":2845:2859  return numbers */\n      dup1\n      sload\n      dup1\n      0x20\n      mul\n      0x20\n      add\n      mload(0x40)\n      swap1\n      dup2\n      add\n      0x40\n      mstore\n      dup1\n      swap3\n      swap2\n      swap1\n      dup2\n      dup2\n      mstore\n      0x20\n      add\n      dup3\n      dup1\n      sload\n      dup1\n      iszero\n      tag_138\n      jumpi\n      0x20\n      mul\n      dup3\n      add\n      swap2\n      swap1\n      0x00\n      mstore\n      keccak256(0x00, 0x20)\n      swap1\n    tag_139:\n      dup2\n      sload\n      dup2\n      mstore\n      0x20\n      add\n      swap1\n      0x01\n      add\n      swap1\n      dup1\n      dup4\n      gt\n      tag_139\n      jumpi\n    tag_138:\n      pop\n      pop\n      pop\n      pop\n      pop\n      swap1\n      pop\n        /* \"Lottery/Lottery.sol\":2768:2867  function getAllNumbers() external view returns (uint256[] memory) {... */\n      swap1\n      jump\t// out\n        /* \"Lottery/Lottery.sol\":252:276  uint256 public startTime */\n    tag_75:\n      sload(0x04)\n      dup2\n      jump\t// out\n        /* \"Lottery/Lottery.sol\":283:309  bool public winnerSelected */\n    tag_79:\n      0x05\n      0x00\n      swap1\n      sload\n      swap1\n      0x0100\n      exp\n      swap1\n      div\n      0xff\n      and\n      dup2\n      jump\t// out\n        /* \"Lottery/Lottery.sol\":142:160  address public bob */\n    tag_84:\n      0x02\n      0x00\n      swap1\n      sload\n      swap1\n      0x0100\n      exp\n      swap1\n      div\n      0xffffffffffffffffffffffffffffffffffffffff\n      and\n      dup2\n      jump\t// out\n        /* \"Lottery/Lottery.sol\":458:482  uint256[] public numbers */\n    tag_90:\n      0x08\n      dup2\n      dup2\n      sload\n      dup2\n      lt\n      tag_140\n      jumpi\n      0x00\n      dup1\n      revert\n    tag_140:\n      swap1\n      0x00\n      mstore\n      keccak256(0x00, 0x20)\n      add\n      0x00\n      swap2\n      pop\n      swap1\n      pop\n      sload\n      dup2\n      jump\t// out\n        /* \"Lottery/Lottery.sol\":316:337  address public winner */\n    tag_94:\n      0x05\n      0x01\n      swap1\n      sload\n      swap1\n      0x0100\n      exp\n      swap1\n      div\n      0xffffffffffffffffffffffffffffffffffffffff\n      and\n      dup2\n      jump\t// out\n        /* \"Lottery/Lottery.sol\":1700:1936  function setPlayers(address _alice, address _bob, address _oscar) external onlyRetailer {... */\n    tag_100:\n        /* \"Lottery/Lottery.sol\":703:711  retailer */\n      0x00\n      0x00\n      swap1\n      sload\n      swap1\n      0x0100\n      exp\n      swap1\n      div\n      0xffffffffffffffffffffffffffffffffffffffff\n      and\n        /* \"Lottery/Lottery.sol\":689:711  msg.sender == retailer */\n      0xffffffffffffffffffffffffffffffffffffffff\n      and\n        /* \"Lottery/Lottery.sol\":689:699  msg.sender */\n      caller\n        /* \"Lottery/Lottery.sol\":689:711  msg.sender == retailer */\n      0xffffffffffffffffffffffffffffffffffffffff\n      and\n      eq\n        /* \"Lottery/Lottery.sol\":681:743  require(msg.sender == retailer, \"Only retailer can call this\") */\n      tag_143\n      jumpi\n      mload(0x40)\n      0x08c379a000000000000000000000000000000000000000000000000000000000\n      dup2\n      mstore\n      0x04\n      add\n      tag_144\n      swap1\n      tag_114\n      jump\t// in\n    tag_144:\n      mload(0x40)\n      dup1\n      swap2\n      sub\n      swap1\n      revert\n    tag_143:\n        /* \"Lottery/Lottery.sol\":1825:1826  3 */\n      0x03\n        /* \"Lottery/Lottery.sol\":1807:1814  players */\n      0x07\n        /* \"Lottery/Lottery.sol\":1807:1821  players.length */\n      dup1\n      sload\n      swap1\n      pop\n        /* \"Lottery/Lottery.sol\":1807:1826  players.length == 3 */\n      eq\n        /* \"Lottery/Lottery.sol\":1799:1857  require(players.length == 3, \"All players must pay first\") */\n      tag_146\n      jumpi\n      mload(0x40)\n      0x08c379a000000000000000000000000000000000000000000000000000000000\n      dup2\n      mstore\n      0x04\n      add\n      tag_147\n      swap1\n      tag_148\n      jump\t// in\n    tag_147:\n      mload(0x40)\n      dup1\n      swap2\n      sub\n      swap1\n      revert\n    tag_146:\n        /* \"Lottery/Lottery.sol\":1876:1882  _alice */\n      dup3\n        /* \"Lottery/Lottery.sol\":1868:1873  alice */\n      0x01\n      0x00\n        /* \"Lottery/Lottery.sol\":1868:1882  alice = _alice */\n      0x0100\n      exp\n      dup2\n      sload\n      dup2\n      0xffffffffffffffffffffffffffffffffffffffff\n      mul\n      not\n      and\n      swap1\n      dup4\n      0xffffffffffffffffffffffffffffffffffffffff\n      and\n      mul\n      or\n      swap1\n      sstore\n      pop\n        /* \"Lottery/Lottery.sol\":1899:1903  _bob */\n      dup2\n        /* \"Lottery/Lottery.sol\":1893:1896  bob */\n      0x02\n      0x00\n        /* \"Lottery/Lottery.sol\":1893:1903  bob = _bob */\n      0x0100\n      exp\n      dup2\n      sload\n      dup2\n      0xffffffffffffffffffffffffffffffffffffffff\n      mul\n      not\n      and\n      swap1\n      dup4\n      0xffffffffffffffffffffffffffffffffffffffff\n      and\n      mul\n      or\n      swap1\n      sstore\n      pop\n        /* \"Lottery/Lottery.sol\":1922:1928  _oscar */\n      dup1\n        /* \"Lottery/Lottery.sol\":1914:1919  oscar */\n      0x03\n      0x00\n        /* \"Lottery/Lottery.sol\":1914:1928  oscar = _oscar */\n      0x0100\n      exp\n      dup2\n      sload\n      dup2\n      0xffffffffffffffffffffffffffffffffffffffff\n      mul\n      not\n      and\n      swap1\n      dup4\n      0xffffffffffffffffffffffffffffffffffffffff\n      and\n      mul\n      or\n      swap1\n      sstore\n      pop\n        /* \"Lottery/Lottery.sol\":1700:1936  function setPlayers(address _alice, address _bob, address _oscar) external onlyRetailer {... */\n      pop\n      pop\n      pop\n      jump\t// out\n        /* \"Lottery/Lottery.sol\":427:451  address[] public players */\n    tag_104:\n      0x07\n      dup2\n      dup2\n      sload\n      dup2\n      lt\n      tag_149\n      jumpi\n      0x00\n      dup1\n      revert\n    tag_149:\n      swap1\n      0x00\n      mstore\n      keccak256(0x00, 0x20)\n      add\n      0x00\n      swap2\n      pop\n      sload\n      swap1\n      0x0100\n      exp\n      swap1\n      div\n      0xffffffffffffffffffffffffffffffffffffffff\n      and\n      dup2\n      jump\t// out\n        /* \"Lottery/Lottery.sol\":115:135  address public alice */\n    tag_108:\n      0x01\n      0x00\n      swap1\n      sload\n      swap1\n      0x0100\n      exp\n      swap1\n      div\n      0xffffffffffffffffffffffffffffffffffffffff\n      and\n      dup2\n      jump\t// out\n        /* \"#utility.yul\":7:176   */\n    tag_151:\n        /* \"#utility.yul\":91:102   */\n      0x00\n        /* \"#utility.yul\":125:131   */\n      dup3\n        /* \"#utility.yul\":120:123   */\n      dup3\n        /* \"#utility.yul\":113:132   */\n      mstore\n        /* \"#utility.yul\":165:169   */\n      0x20\n        /* \"#utility.yul\":160:163   */\n      dup3\n        /* \"#utility.yul\":156:170   */\n      add\n        /* \"#utility.yul\":141:170   */\n      swap1\n      pop\n        /* \"#utility.yul\":7:176   */\n      swap3\n      swap2\n      pop\n      pop\n      jump\t// out\n        /* \"#utility.yul\":182:353   */\n    tag_152:\n        /* \"#utility.yul\":322:345   */\n      0x53656e642065786163746c7920302e3031204554480000000000000000000000\n        /* \"#utility.yul\":318:319   */\n      0x00\n        /* \"#utility.yul\":310:316   */\n      dup3\n        /* \"#utility.yul\":306:320   */\n      add\n        /* \"#utility.yul\":299:346   */\n      mstore\n        /* \"#utility.yul\":182:353   */\n      pop\n      jump\t// out\n        /* \"#utility.yul\":359:725   */\n    tag_153:\n        /* \"#utility.yul\":501:504   */\n      0x00\n        /* \"#utility.yul\":522:589   */\n      tag_201\n        /* \"#utility.yul\":586:588   */\n      0x15\n        /* \"#utility.yul\":581:584   */\n      dup4\n        /* \"#utility.yul\":522:589   */\n      tag_151\n      jump\t// in\n    tag_201:\n        /* \"#utility.yul\":515:589   */\n      swap2\n      pop\n        /* \"#utility.yul\":598:691   */\n      tag_202\n        /* \"#utility.yul\":687:690   */\n      dup3\n        /* \"#utility.yul\":598:691   */\n      tag_152\n      jump\t// in\n    tag_202:\n        /* \"#utility.yul\":716:718   */\n      0x20\n        /* \"#utility.yul\":711:714   */\n      dup3\n        /* \"#utility.yul\":707:719   */\n      add\n        /* \"#utility.yul\":700:719   */\n      swap1\n      pop\n        /* \"#utility.yul\":359:725   */\n      swap2\n      swap1\n      pop\n      jump\t// out\n        /* \"#utility.yul\":731:1150   */\n    tag_25:\n        /* \"#utility.yul\":897:901   */\n      0x00\n        /* \"#utility.yul\":935:937   */\n      0x20\n        /* \"#utility.yul\":924:933   */\n      dup3\n        /* \"#utility.yul\":920:938   */\n      add\n        /* \"#utility.yul\":912:938   */\n      swap1\n      pop\n        /* \"#utility.yul\":984:993   */\n      dup2\n        /* \"#utility.yul\":978:982   */\n      dup2\n        /* \"#utility.yul\":974:994   */\n      sub\n        /* \"#utility.yul\":970:971   */\n      0x00\n        /* \"#utility.yul\":959:968   */\n      dup4\n        /* \"#utility.yul\":955:972   */\n      add\n        /* \"#utility.yul\":948:995   */\n      mstore\n        /* \"#utility.yul\":1012:1143   */\n      tag_204\n        /* \"#utility.yul\":1138:1142   */\n      dup2\n        /* \"#utility.yul\":1012:1143   */\n      tag_153\n      jump\t// in\n    tag_204:\n        /* \"#utility.yul\":1004:1143   */\n      swap1\n      pop\n        /* \"#utility.yul\":731:1150   */\n      swap2\n      swap1\n      pop\n      jump\t// out\n        /* \"#utility.yul\":1156:1336   */\n    tag_154:\n        /* \"#utility.yul\":1296:1328   */\n      0x416c6c20706c617965727320616c726561647920726567697374657265640000\n        /* \"#utility.yul\":1292:1293   */\n      0x00\n        /* \"#utility.yul\":1284:1290   */\n      dup3\n        /* \"#utility.yul\":1280:1294   */\n      add\n        /* \"#utility.yul\":1273:1329   */\n      mstore\n        /* \"#utility.yul\":1156:1336   */\n      pop\n      jump\t// out\n        /* \"#utility.yul\":1342:1708   */\n    tag_155:\n        /* \"#utility.yul\":1484:1487   */\n      0x00\n        /* \"#utility.yul\":1505:1572   */\n      tag_207\n        /* \"#utility.yul\":1569:1571   */\n      0x1e\n        /* \"#utility.yul\":1564:1567   */\n      dup4\n        /* \"#utility.yul\":1505:1572   */\n      tag_151\n      jump\t// in\n    tag_207:\n        /* \"#utility.yul\":1498:1572   */\n      swap2\n      pop\n        /* \"#utility.yul\":1581:1674   */\n      tag_208\n        /* \"#utility.yul\":1670:1673   */\n      dup3\n        /* \"#utility.yul\":1581:1674   */\n      tag_154\n      jump\t// in\n    tag_208:\n        /* \"#utility.yul\":1699:1701   */\n      0x20\n        /* \"#utility.yul\":1694:1697   */\n      dup3\n        /* \"#utility.yul\":1690:1702   */\n      add\n        /* \"#utility.yul\":1683:1702   */\n      swap1\n      pop\n        /* \"#utility.yul\":1342:1708   */\n      swap2\n      swap1\n      pop\n      jump\t// out\n        /* \"#utility.yul\":1714:2133   */\n    tag_28:\n        /* \"#utility.yul\":1880:1884   */\n      0x00\n        /* \"#utility.yul\":1918:1920   */\n      0x20\n        /* \"#utility.yul\":1907:1916   */\n      dup3\n        /* \"#utility.yul\":1903:1921   */\n      add\n        /* \"#utility.yul\":1895:1921   */\n      swap1\n      pop\n        /* \"#utility.yul\":1967:1976   */\n      dup2\n        /* \"#utility.yul\":1961:1965   */\n      dup2\n        /* \"#utility.yul\":1957:1977   */\n      sub\n        /* \"#utility.yul\":1953:1954   */\n      0x00\n        /* \"#utility.yul\":1942:1951   */\n      dup4\n        /* \"#utility.yul\":1938:1955   */\n      add\n        /* \"#utility.yul\":1931:1978   */\n      mstore\n        /* \"#utility.yul\":1995:2126   */\n      tag_210\n        /* \"#utility.yul\":2121:2125   */\n      dup2\n        /* \"#utility.yul\":1995:2126   */\n      tag_155\n      jump\t// in\n    tag_210:\n        /* \"#utility.yul\":1987:2126   */\n      swap1\n      pop\n        /* \"#utility.yul\":1714:2133   */\n      swap2\n      swap1\n      pop\n      jump\t// out\n        /* \"#utility.yul\":2139:2307   */\n    tag_156:\n        /* \"#utility.yul\":2279:2299   */\n      0x416c726561647920726567697374657265640000000000000000000000000000\n        /* \"#utility.yul\":2275:2276   */\n      0x00\n        /* \"#utility.yul\":2267:2273   */\n      dup3\n        /* \"#utility.yul\":2263:2277   */\n      add\n        /* \"#utility.yul\":2256:2300   */\n      mstore\n        /* \"#utility.yul\":2139:2307   */\n      pop\n      jump\t// out\n        /* \"#utility.yul\":2313:2679   */\n    tag_157:\n        /* \"#utility.yul\":2455:2458   */\n      0x00\n        /* \"#utility.yul\":2476:2543   */\n      tag_213\n        /* \"#utility.yul\":2540:2542   */\n      0x12\n        /* \"#utility.yul\":2535:2538   */\n      dup4\n        /* \"#utility.yul\":2476:2543   */\n      tag_151\n      jump\t// in\n    tag_213:\n        /* \"#utility.yul\":2469:2543   */\n      swap2\n      pop\n        /* \"#utility.yul\":2552:2645   */\n      tag_214\n        /* \"#utility.yul\":2641:2644   */\n      dup3\n        /* \"#utility.yul\":2552:2645   */\n      tag_156\n      jump\t// in\n    tag_214:\n        /* \"#utility.yul\":2670:2672   */\n      0x20\n        /* \"#utility.yul\":2665:2668   */\n      dup3\n        /* \"#utility.yul\":2661:2673   */\n      add\n        /* \"#utility.yul\":2654:2673   */\n      swap1\n      pop\n        /* \"#utility.yul\":2313:2679   */\n      swap2\n      swap1\n      pop\n      jump\t// out\n        /* \"#utility.yul\":2685:3104   */\n    tag_31:\n        /* \"#utility.yul\":2851:2855   */\n      0x00\n        /* \"#utility.yul\":2889:2891   */\n      0x20\n        /* \"#utility.yul\":2878:2887   */\n      dup3\n        /* \"#utility.yul\":2874:2892   */\n      add\n        /* \"#utility.yul\":2866:2892   */\n      swap1\n      pop\n        /* \"#utility.yul\":2938:2947   */\n      dup2\n        /* \"#utility.yul\":2932:2936   */\n      dup2\n        /* \"#utility.yul\":2928:2948   */\n      sub\n        /* \"#utility.yul\":2924:2925   */\n      0x00\n        /* \"#utility.yul\":2913:2922   */\n      dup4\n        /* \"#utility.yul\":2909:2926   */\n      add\n        /* \"#utility.yul\":2902:2949   */\n      mstore\n        /* \"#utility.yul\":2966:3097   */\n      tag_216\n        /* \"#utility.yul\":3092:3096   */\n      dup2\n        /* \"#utility.yul\":2966:3097   */\n      tag_157\n      jump\t// in\n    tag_216:\n        /* \"#utility.yul\":2958:3097   */\n      swap1\n      pop\n        /* \"#utility.yul\":2685:3104   */\n      swap2\n      swap1\n      pop\n      jump\t// out\n        /* \"#utility.yul\":3110:3187   */\n    tag_158:\n        /* \"#utility.yul\":3147:3154   */\n      0x00\n        /* \"#utility.yul\":3176:3181   */\n      dup2\n        /* \"#utility.yul\":3165:3181   */\n      swap1\n      pop\n        /* \"#utility.yul\":3110:3187   */\n      swap2\n      swap1\n      pop\n      jump\t// out\n        /* \"#utility.yul\":3193:3272   */\n    tag_159:\n        /* \"#utility.yul\":3232:3239   */\n      0x00\n        /* \"#utility.yul\":3261:3266   */\n      dup2\n        /* \"#utility.yul\":3250:3266   */\n      swap1\n      pop\n        /* \"#utility.yul\":3193:3272   */\n      swap2\n      swap1\n      pop\n      jump\t// out\n        /* \"#utility.yul\":3278:3435   */\n    tag_160:\n        /* \"#utility.yul\":3383:3428   */\n      tag_220\n        /* \"#utility.yul\":3403:3427   */\n      tag_221\n        /* \"#utility.yul\":3421:3426   */\n      dup3\n        /* \"#utility.yul\":3403:3427   */\n      tag_158\n      jump\t// in\n    tag_221:\n        /* \"#utility.yul\":3383:3428   */\n      tag_159\n      jump\t// in\n    tag_220:\n        /* \"#utility.yul\":3378:3381   */\n      dup3\n        /* \"#utility.yul\":3371:3429   */\n      mstore\n        /* \"#utility.yul\":3278:3435   */\n      pop\n      pop\n      jump\t// out\n        /* \"#utility.yul\":3441:3567   */\n    tag_161:\n        /* \"#utility.yul\":3478:3485   */\n      0x00\n        /* \"#utility.yul\":3518:3560   */\n      0xffffffffffffffffffffffffffffffffffffffff\n        /* \"#utility.yul\":3511:3516   */\n      dup3\n        /* \"#utility.yul\":3507:3561   */\n      and\n        /* \"#utility.yul\":3496:3561   */\n      swap1\n      pop\n        /* \"#utility.yul\":3441:3567   */\n      swap2\n      swap1\n      pop\n      jump\t// out\n        /* \"#utility.yul\":3573:3669   */\n    tag_162:\n        /* \"#utility.yul\":3610:3617   */\n      0x00\n        /* \"#utility.yul\":3639:3663   */\n      tag_224\n        /* \"#utility.yul\":3657:3662   */\n      dup3\n        /* \"#utility.yul\":3639:3663   */\n      tag_161\n      jump\t// in\n    tag_224:\n        /* \"#utility.yul\":3628:3663   */\n      swap1\n      pop\n        /* \"#utility.yul\":3573:3669   */\n      swap2\n      swap1\n      pop\n      jump\t// out\n        /* \"#utility.yul\":3675:3769   */\n    tag_163:\n        /* \"#utility.yul\":3708:3716   */\n      0x00\n        /* \"#utility.yul\":3756:3761   */\n      dup2\n        /* \"#utility.yul\":3752:3754   */\n      0x60\n        /* \"#utility.yul\":3748:3762   */\n      shl\n        /* \"#utility.yul\":3727:3762   */\n      swap1\n      pop\n        /* \"#utility.yul\":3675:3769   */\n      swap2\n      swap1\n      pop\n      jump\t// out\n        /* \"#utility.yul\":3775:3869   */\n    tag_164:\n        /* \"#utility.yul\":3814:3821   */\n      0x00\n        /* \"#utility.yul\":3843:3863   */\n      tag_227\n        /* \"#utility.yul\":3857:3862   */\n      dup3\n        /* \"#utility.yul\":3843:3863   */\n      tag_163\n      jump\t// in\n    tag_227:\n        /* \"#utility.yul\":3832:3863   */\n      swap1\n      pop\n        /* \"#utility.yul\":3775:3869   */\n      swap2\n      swap1\n      pop\n      jump\t// out\n        /* \"#utility.yul\":3875:3975   */\n    tag_165:\n        /* \"#utility.yul\":3914:3921   */\n      0x00\n        /* \"#utility.yul\":3943:3969   */\n      tag_229\n        /* \"#utility.yul\":3963:3968   */\n      dup3\n        /* \"#utility.yul\":3943:3969   */\n      tag_164\n      jump\t// in\n    tag_229:\n        /* \"#utility.yul\":3932:3969   */\n      swap1\n      pop\n        /* \"#utility.yul\":3875:3975   */\n      swap2\n      swap1\n      pop\n      jump\t// out\n        /* \"#utility.yul\":3981:4138   */\n    tag_166:\n        /* \"#utility.yul\":4086:4131   */\n      tag_231\n        /* \"#utility.yul\":4106:4130   */\n      tag_232\n        /* \"#utility.yul\":4124:4129   */\n      dup3\n        /* \"#utility.yul\":4106:4130   */\n      tag_162\n      jump\t// in\n    tag_232:\n        /* \"#utility.yul\":4086:4131   */\n      tag_165\n      jump\t// in\n    tag_231:\n        /* \"#utility.yul\":4081:4084   */\n      dup3\n        /* \"#utility.yul\":4074:4132   */\n      mstore\n        /* \"#utility.yul\":3981:4138   */\n      pop\n      pop\n      jump\t// out\n        /* \"#utility.yul\":4144:4682   */\n    tag_34:\n        /* \"#utility.yul\":4312:4315   */\n      0x00\n        /* \"#utility.yul\":4327:4402   */\n      tag_234\n        /* \"#utility.yul\":4398:4401   */\n      dup3\n        /* \"#utility.yul\":4389:4395   */\n      dup7\n        /* \"#utility.yul\":4327:4402   */\n      tag_160\n      jump\t// in\n    tag_234:\n        /* \"#utility.yul\":4427:4429   */\n      0x20\n        /* \"#utility.yul\":4422:4425   */\n      dup3\n        /* \"#utility.yul\":4418:4430   */\n      add\n        /* \"#utility.yul\":4411:4430   */\n      swap2\n      pop\n        /* \"#utility.yul\":4440:4515   */\n      tag_235\n        /* \"#utility.yul\":4511:4514   */\n      dup3\n        /* \"#utility.yul\":4502:4508   */\n      dup6\n        /* \"#utility.yul\":4440:4515   */\n      tag_166\n      jump\t// in\n    tag_235:\n        /* \"#utility.yul\":4540:4542   */\n      0x14\n        /* \"#utility.yul\":4535:4538   */\n      dup3\n        /* \"#utility.yul\":4531:4543   */\n      add\n        /* \"#utility.yul\":4524:4543   */\n      swap2\n      pop\n        /* \"#utility.yul\":4553:4628   */\n      tag_236\n        /* \"#utility.yul\":4624:4627   */\n      dup3\n        /* \"#utility.yul\":4615:4621   */\n      dup5\n        /* \"#utility.yul\":4553:4628   */\n      tag_160\n      jump\t// in\n    tag_236:\n        /* \"#utility.yul\":4653:4655   */\n      0x20\n        /* \"#utility.yul\":4648:4651   */\n      dup3\n        /* \"#utility.yul\":4644:4656   */\n      add\n        /* \"#utility.yul\":4637:4656   */\n      swap2\n      pop\n        /* \"#utility.yul\":4673:4676   */\n      dup2\n        /* \"#utility.yul\":4666:4676   */\n      swap1\n      pop\n        /* \"#utility.yul\":4144:4682   */\n      swap5\n      swap4\n      pop\n      pop\n      pop\n      pop\n      jump\t// out\n        /* \"#utility.yul\":4688:4868   */\n    tag_167:\n        /* \"#utility.yul\":4736:4813   */\n      0x4e487b7100000000000000000000000000000000000000000000000000000000\n        /* \"#utility.yul\":4733:4734   */\n      0x00\n        /* \"#utility.yul\":4726:4814   */\n      mstore\n        /* \"#utility.yul\":4833:4837   */\n      0x12\n        /* \"#utility.yul\":4830:4831   */\n      0x04\n        /* \"#utility.yul\":4823:4838   */\n      mstore\n        /* \"#utility.yul\":4857:4861   */\n      0x24\n        /* \"#utility.yul\":4854:4855   */\n      0x00\n        /* \"#utility.yul\":4847:4862   */\n      revert\n        /* \"#utility.yul\":4874:5050   */\n    tag_36:\n        /* \"#utility.yul\":4906:4907   */\n      0x00\n        /* \"#utility.yul\":4923:4943   */\n      tag_239\n        /* \"#utility.yul\":4941:4942   */\n      dup3\n        /* \"#utility.yul\":4923:4943   */\n      tag_158\n      jump\t// in\n    tag_239:\n        /* \"#utility.yul\":4918:4943   */\n      swap2\n      pop\n        /* \"#utility.yul\":4957:4977   */\n      tag_240\n        /* \"#utility.yul\":4975:4976   */\n      dup4\n        /* \"#utility.yul\":4957:4977   */\n      tag_158\n      jump\t// in\n    tag_240:\n        /* \"#utility.yul\":4952:4977   */\n      swap3\n      pop\n        /* \"#utility.yul\":4996:4997   */\n      dup3\n        /* \"#utility.yul\":4986:5021   */\n      tag_241\n      jumpi\n        /* \"#utility.yul\":5001:5019   */\n      tag_242\n      tag_167\n      jump\t// in\n    tag_242:\n        /* \"#utility.yul\":4986:5021   */\n    tag_241:\n        /* \"#utility.yul\":5042:5043   */\n      dup3\n        /* \"#utility.yul\":5039:5040   */\n      dup3\n        /* \"#utility.yul\":5035:5044   */\n      mod\n        /* \"#utility.yul\":5030:5044   */\n      swap1\n      pop\n        /* \"#utility.yul\":4874:5050   */\n      swap3\n      swap2\n      pop\n      pop\n      jump\t// out\n        /* \"#utility.yul\":5056:5174   */\n    tag_168:\n        /* \"#utility.yul\":5143:5167   */\n      tag_244\n        /* \"#utility.yul\":5161:5166   */\n      dup2\n        /* \"#utility.yul\":5143:5167   */\n      tag_162\n      jump\t// in\n    tag_244:\n        /* \"#utility.yul\":5138:5141   */\n      dup3\n        /* \"#utility.yul\":5131:5168   */\n      mstore\n        /* \"#utility.yul\":5056:5174   */\n      pop\n      pop\n      jump\t// out\n        /* \"#utility.yul\":5180:5298   */\n    tag_169:\n        /* \"#utility.yul\":5267:5291   */\n      tag_246\n        /* \"#utility.yul\":5285:5290   */\n      dup2\n        /* \"#utility.yul\":5267:5291   */\n      tag_158\n      jump\t// in\n    tag_246:\n        /* \"#utility.yul\":5262:5265   */\n      dup3\n        /* \"#utility.yul\":5255:5292   */\n      mstore\n        /* \"#utility.yul\":5180:5298   */\n      pop\n      pop\n      jump\t// out\n        /* \"#utility.yul\":5304:5636   */\n    tag_40:\n        /* \"#utility.yul\":5425:5429   */\n      0x00\n        /* \"#utility.yul\":5463:5465   */\n      0x40\n        /* \"#utility.yul\":5452:5461   */\n      dup3\n        /* \"#utility.yul\":5448:5466   */\n      add\n        /* \"#utility.yul\":5440:5466   */\n      swap1\n      pop\n        /* \"#utility.yul\":5476:5547   */\n      tag_248\n        /* \"#utility.yul\":5544:5545   */\n      0x00\n        /* \"#utility.yul\":5533:5542   */\n      dup4\n        /* \"#utility.yul\":5529:5546   */\n      add\n        /* \"#utility.yul\":5520:5526   */\n      dup6\n        /* \"#utility.yul\":5476:5547   */\n      tag_168\n      jump\t// in\n    tag_248:\n        /* \"#utility.yul\":5557:5629   */\n      tag_249\n        /* \"#utility.yul\":5625:5627   */\n      0x20\n        /* \"#utility.yul\":5614:5623   */\n      dup4\n        /* \"#utility.yul\":5610:5628   */\n      add\n        /* \"#utility.yul\":5601:5607   */\n      dup5\n        /* \"#utility.yul\":5557:5629   */\n      tag_169\n      jump\t// in\n    tag_249:\n        /* \"#utility.yul\":5304:5636   */\n      swap4\n      swap3\n      pop\n      pop\n      pop\n      jump\t// out\n        /* \"#utility.yul\":5642:5864   */\n    tag_45:\n        /* \"#utility.yul\":5735:5739   */\n      0x00\n        /* \"#utility.yul\":5773:5775   */\n      0x20\n        /* \"#utility.yul\":5762:5771   */\n      dup3\n        /* \"#utility.yul\":5758:5776   */\n      add\n        /* \"#utility.yul\":5750:5776   */\n      swap1\n      pop\n        /* \"#utility.yul\":5786:5857   */\n      tag_251\n        /* \"#utility.yul\":5854:5855   */\n      0x00\n        /* \"#utility.yul\":5843:5852   */\n      dup4\n        /* \"#utility.yul\":5839:5856   */\n      add\n        /* \"#utility.yul\":5830:5836   */\n      dup5\n        /* \"#utility.yul\":5786:5857   */\n      tag_168\n      jump\t// in\n    tag_251:\n        /* \"#utility.yul\":5642:5864   */\n      swap3\n      swap2\n      pop\n      pop\n      jump\t// out\n        /* \"#utility.yul\":5870:6092   */\n    tag_50:\n        /* \"#utility.yul\":5963:5967   */\n      0x00\n        /* \"#utility.yul\":6001:6003   */\n      0x20\n        /* \"#utility.yul\":5990:5999   */\n      dup3\n        /* \"#utility.yul\":5986:6004   */\n      add\n        /* \"#utility.yul\":5978:6004   */\n      swap1\n      pop\n        /* \"#utility.yul\":6014:6085   */\n      tag_253\n        /* \"#utility.yul\":6082:6083   */\n      0x00\n        /* \"#utility.yul\":6071:6080   */\n      dup4\n        /* \"#utility.yul\":6067:6084   */\n      add\n        /* \"#utility.yul\":6058:6064   */\n      dup5\n        /* \"#utility.yul\":6014:6085   */\n      tag_169\n      jump\t// in\n    tag_253:\n        /* \"#utility.yul\":5870:6092   */\n      swap3\n      swap2\n      pop\n      pop\n      jump\t// out\n        /* \"#utility.yul\":6179:6296   */\n    tag_171:\n        /* \"#utility.yul\":6288:6289   */\n      0x00\n        /* \"#utility.yul\":6285:6286   */\n      0x00\n        /* \"#utility.yul\":6278:6290   */\n      revert\n        /* \"#utility.yul\":6425:6547   */\n    tag_173:\n        /* \"#utility.yul\":6498:6522   */\n      tag_258\n        /* \"#utility.yul\":6516:6521   */\n      dup2\n        /* \"#utility.yul\":6498:6522   */\n      tag_162\n      jump\t// in\n    tag_258:\n        /* \"#utility.yul\":6491:6496   */\n      dup2\n        /* \"#utility.yul\":6488:6523   */\n      eq\n        /* \"#utility.yul\":6478:6541   */\n      tag_259\n      jumpi\n        /* \"#utility.yul\":6537:6538   */\n      0x00\n        /* \"#utility.yul\":6534:6535   */\n      0x00\n        /* \"#utility.yul\":6527:6539   */\n      revert\n        /* \"#utility.yul\":6478:6541   */\n    tag_259:\n        /* \"#utility.yul\":6425:6547   */\n      pop\n      jump\t// out\n        /* \"#utility.yul\":6553:6692   */\n    tag_174:\n        /* \"#utility.yul\":6599:6604   */\n      0x00\n        /* \"#utility.yul\":6637:6643   */\n      dup2\n        /* \"#utility.yul\":6624:6644   */\n      calldataload\n        /* \"#utility.yul\":6615:6644   */\n      swap1\n      pop\n        /* \"#utility.yul\":6653:6686   */\n      tag_261\n        /* \"#utility.yul\":6680:6685   */\n      dup2\n        /* \"#utility.yul\":6653:6686   */\n      tag_173\n      jump\t// in\n    tag_261:\n        /* \"#utility.yul\":6553:6692   */\n      swap3\n      swap2\n      pop\n      pop\n      jump\t// out\n        /* \"#utility.yul\":6698:7027   */\n    tag_61:\n        /* \"#utility.yul\":6757:6763   */\n      0x00\n        /* \"#utility.yul\":6806:6808   */\n      0x20\n        /* \"#utility.yul\":6794:6803   */\n      dup3\n        /* \"#utility.yul\":6785:6792   */\n      dup5\n        /* \"#utility.yul\":6781:6804   */\n      sub\n        /* \"#utility.yul\":6777:6809   */\n      slt\n        /* \"#utility.yul\":6774:6893   */\n      iszero\n      tag_263\n      jumpi\n        /* \"#utility.yul\":6812:6891   */\n      tag_264\n      tag_171\n      jump\t// in\n    tag_264:\n        /* \"#utility.yul\":6774:6893   */\n    tag_263:\n        /* \"#utility.yul\":6932:6933   */\n      0x00\n        /* \"#utility.yul\":6957:7010   */\n      tag_265\n        /* \"#utility.yul\":7002:7009   */\n      dup5\n        /* \"#utility.yul\":6993:6999   */\n      dup3\n        /* \"#utility.yul\":6982:6991   */\n      dup6\n        /* \"#utility.yul\":6978:7000   */\n      add\n        /* \"#utility.yul\":6957:7010   */\n      tag_174\n      jump\t// in\n    tag_265:\n        /* \"#utility.yul\":6947:7010   */\n      swap2\n      pop\n        /* \"#utility.yul\":6903:7020   */\n      pop\n        /* \"#utility.yul\":6698:7027   */\n      swap3\n      swap2\n      pop\n      pop\n      jump\t// out\n        /* \"#utility.yul\":7033:7147   */\n    tag_175:\n        /* \"#utility.yul\":7100:7106   */\n      0x00\n        /* \"#utility.yul\":7134:7139   */\n      dup2\n        /* \"#utility.yul\":7128:7140   */\n      mload\n        /* \"#utility.yul\":7118:7140   */\n      swap1\n      pop\n        /* \"#utility.yul\":7033:7147   */\n      swap2\n      swap1\n      pop\n      jump\t// out\n        /* \"#utility.yul\":7153:7337   */\n    tag_176:\n        /* \"#utility.yul\":7252:7263   */\n      0x00\n        /* \"#utility.yul\":7286:7292   */\n      dup3\n        /* \"#utility.yul\":7281:7284   */\n      dup3\n        /* \"#utility.yul\":7274:7293   */\n      mstore\n        /* \"#utility.yul\":7326:7330   */\n      0x20\n        /* \"#utility.yul\":7321:7324   */\n      dup3\n        /* \"#utility.yul\":7317:7331   */\n      add\n        /* \"#utility.yul\":7302:7331   */\n      swap1\n      pop\n        /* \"#utility.yul\":7153:7337   */\n      swap3\n      swap2\n      pop\n      pop\n      jump\t// out\n        /* \"#utility.yul\":7343:7475   */\n    tag_177:\n        /* \"#utility.yul\":7410:7414   */\n      0x00\n        /* \"#utility.yul\":7433:7436   */\n      dup2\n        /* \"#utility.yul\":7425:7436   */\n      swap1\n      pop\n        /* \"#utility.yul\":7463:7467   */\n      0x20\n        /* \"#utility.yul\":7458:7461   */\n      dup3\n        /* \"#utility.yul\":7454:7468   */\n      add\n        /* \"#utility.yul\":7446:7468   */\n      swap1\n      pop\n        /* \"#utility.yul\":7343:7475   */\n      swap2\n      swap1\n      pop\n      jump\t// out\n        /* \"#utility.yul\":7481:7589   */\n    tag_178:\n        /* \"#utility.yul\":7558:7582   */\n      tag_270\n        /* \"#utility.yul\":7576:7581   */\n      dup2\n        /* \"#utility.yul\":7558:7582   */\n      tag_158\n      jump\t// in\n    tag_270:\n        /* \"#utility.yul\":7553:7556   */\n      dup3\n        /* \"#utility.yul\":7546:7583   */\n      mstore\n        /* \"#utility.yul\":7481:7589   */\n      pop\n      pop\n      jump\t// out\n        /* \"#utility.yul\":7595:7774   */\n    tag_179:\n        /* \"#utility.yul\":7664:7674   */\n      0x00\n        /* \"#utility.yul\":7685:7731   */\n      tag_272\n        /* \"#utility.yul\":7727:7730   */\n      dup4\n        /* \"#utility.yul\":7719:7725   */\n      dup4\n        /* \"#utility.yul\":7685:7731   */\n      tag_178\n      jump\t// in\n    tag_272:\n        /* \"#utility.yul\":7763:7767   */\n      0x20\n        /* \"#utility.yul\":7758:7761   */\n      dup4\n        /* \"#utility.yul\":7754:7768   */\n      add\n        /* \"#utility.yul\":7740:7768   */\n      swap1\n      pop\n        /* \"#utility.yul\":7595:7774   */\n      swap3\n      swap2\n      pop\n      pop\n      jump\t// out\n        /* \"#utility.yul\":7780:7893   */\n    tag_180:\n        /* \"#utility.yul\":7850:7854   */\n      0x00\n        /* \"#utility.yul\":7882:7886   */\n      0x20\n        /* \"#utility.yul\":7877:7880   */\n      dup3\n        /* \"#utility.yul\":7873:7887   */\n      add\n        /* \"#utility.yul\":7865:7887   */\n      swap1\n      pop\n        /* \"#utility.yul\":7780:7893   */\n      swap2\n      swap1\n      pop\n      jump\t// out\n        /* \"#utility.yul\":7929:8661   */\n    tag_181:\n        /* \"#utility.yul\":8048:8051   */\n      0x00\n        /* \"#utility.yul\":8077:8131   */\n      tag_275\n        /* \"#utility.yul\":8125:8130   */\n      dup3\n        /* \"#utility.yul\":8077:8131   */\n      tag_175\n      jump\t// in\n    tag_275:\n        /* \"#utility.yul\":8147:8233   */\n      tag_276\n        /* \"#utility.yul\":8226:8232   */\n      dup2\n        /* \"#utility.yul\":8221:8224   */\n      dup6\n        /* \"#utility.yul\":8147:8233   */\n      tag_176\n      jump\t// in\n    tag_276:\n        /* \"#utility.yul\":8140:8233   */\n      swap4\n      pop\n        /* \"#utility.yul\":8257:8313   */\n      tag_277\n        /* \"#utility.yul\":8307:8312   */\n      dup4\n        /* \"#utility.yul\":8257:8313   */\n      tag_177\n      jump\t// in\n    tag_277:\n        /* \"#utility.yul\":8336:8343   */\n      dup1\n        /* \"#utility.yul\":8367:8368   */\n      0x00\n        /* \"#utility.yul\":8352:8636   */\n    tag_278:\n        /* \"#utility.yul\":8377:8383   */\n      dup4\n        /* \"#utility.yul\":8374:8375   */\n      dup2\n        /* \"#utility.yul\":8371:8384   */\n      lt\n        /* \"#utility.yul\":8352:8636   */\n      iszero\n      tag_280\n      jumpi\n        /* \"#utility.yul\":8453:8459   */\n      dup2\n        /* \"#utility.yul\":8447:8460   */\n      mload\n        /* \"#utility.yul\":8480:8543   */\n      tag_281\n        /* \"#utility.yul\":8539:8542   */\n      dup9\n        /* \"#utility.yul\":8524:8537   */\n      dup3\n        /* \"#utility.yul\":8480:8543   */\n      tag_179\n      jump\t// in\n    tag_281:\n        /* \"#utility.yul\":8473:8543   */\n      swap8\n      pop\n        /* \"#utility.yul\":8566:8626   */\n      tag_282\n        /* \"#utility.yul\":8619:8625   */\n      dup4\n        /* \"#utility.yul\":8566:8626   */\n      tag_180\n      jump\t// in\n    tag_282:\n        /* \"#utility.yul\":8556:8626   */\n      swap3\n      pop\n        /* \"#utility.yul\":8412:8636   */\n      pop\n        /* \"#utility.yul\":8399:8400   */\n      0x01\n        /* \"#utility.yul\":8396:8397   */\n      dup2\n        /* \"#utility.yul\":8392:8401   */\n      add\n        /* \"#utility.yul\":8387:8401   */\n      swap1\n      pop\n        /* \"#utility.yul\":8352:8636   */\n      jump(tag_278)\n    tag_280:\n        /* \"#utility.yul\":8356:8370   */\n      pop\n        /* \"#utility.yul\":8652:8655   */\n      dup6\n        /* \"#utility.yul\":8645:8655   */\n      swap4\n      pop\n        /* \"#utility.yul\":8053:8661   */\n      pop\n      pop\n      pop\n        /* \"#utility.yul\":7929:8661   */\n      swap3\n      swap2\n      pop\n      pop\n      jump\t// out\n        /* \"#utility.yul\":8667:9040   */\n    tag_72:\n        /* \"#utility.yul\":8810:8814   */\n      0x00\n        /* \"#utility.yul\":8848:8850   */\n      0x20\n        /* \"#utility.yul\":8837:8846   */\n      dup3\n        /* \"#utility.yul\":8833:8851   */\n      add\n        /* \"#utility.yul\":8825:8851   */\n      swap1\n      pop\n        /* \"#utility.yul\":8897:8906   */\n      dup2\n        /* \"#utility.yul\":8891:8895   */\n      dup2\n        /* \"#utility.yul\":8887:8907   */\n      sub\n        /* \"#utility.yul\":8883:8884   */\n      0x00\n        /* \"#utility.yul\":8872:8881   */\n      dup4\n        /* \"#utility.yul\":8868:8885   */\n      add\n        /* \"#utility.yul\":8861:8908   */\n      mstore\n        /* \"#utility.yul\":8925:9033   */\n      tag_284\n        /* \"#utility.yul\":9028:9032   */\n      dup2\n        /* \"#utility.yul\":9019:9025   */\n      dup5\n        /* \"#utility.yul\":8925:9033   */\n      tag_181\n      jump\t// in\n    tag_284:\n        /* \"#utility.yul\":8917:9033   */\n      swap1\n      pop\n        /* \"#utility.yul\":8667:9040   */\n      swap3\n      swap2\n      pop\n      pop\n      jump\t// out\n        /* \"#utility.yul\":9046:9136   */\n    tag_182:\n        /* \"#utility.yul\":9080:9087   */\n      0x00\n        /* \"#utility.yul\":9123:9128   */\n      dup2\n        /* \"#utility.yul\":9116:9129   */\n      iszero\n        /* \"#utility.yul\":9109:9130   */\n      iszero\n        /* \"#utility.yul\":9098:9130   */\n      swap1\n      pop\n        /* \"#utility.yul\":9046:9136   */\n      swap2\n      swap1\n      pop\n      jump\t// out\n        /* \"#utility.yul\":9142:9251   */\n    tag_183:\n        /* \"#utility.yul\":9223:9244   */\n      tag_287\n        /* \"#utility.yul\":9238:9243   */\n      dup2\n        /* \"#utility.yul\":9223:9244   */\n      tag_182\n      jump\t// in\n    tag_287:\n        /* \"#utility.yul\":9218:9221   */\n      dup3\n        /* \"#utility.yul\":9211:9245   */\n      mstore\n        /* \"#utility.yul\":9142:9251   */\n      pop\n      pop\n      jump\t// out\n        /* \"#utility.yul\":9257:9467   */\n    tag_81:\n        /* \"#utility.yul\":9344:9348   */\n      0x00\n        /* \"#utility.yul\":9382:9384   */\n      0x20\n        /* \"#utility.yul\":9371:9380   */\n      dup3\n        /* \"#utility.yul\":9367:9385   */\n      add\n        /* \"#utility.yul\":9359:9385   */\n      swap1\n      pop\n        /* \"#utility.yul\":9395:9460   */\n      tag_289\n        /* \"#utility.yul\":9457:9458   */\n      0x00\n        /* \"#utility.yul\":9446:9455   */\n      dup4\n        /* \"#utility.yul\":9442:9459   */\n      add\n        /* \"#utility.yul\":9433:9439   */\n      dup5\n        /* \"#utility.yul\":9395:9460   */\n      tag_183\n      jump\t// in\n    tag_289:\n        /* \"#utility.yul\":9257:9467   */\n      swap3\n      swap2\n      pop\n      pop\n      jump\t// out\n        /* \"#utility.yul\":9473:9595   */\n    tag_184:\n        /* \"#utility.yul\":9546:9570   */\n      tag_291\n        /* \"#utility.yul\":9564:9569   */\n      dup2\n        /* \"#utility.yul\":9546:9570   */\n      tag_158\n      jump\t// in\n    tag_291:\n        /* \"#utility.yul\":9539:9544   */\n      dup2\n        /* \"#utility.yul\":9536:9571   */\n      eq\n        /* \"#utility.yul\":9526:9589   */\n      tag_292\n      jumpi\n        /* \"#utility.yul\":9585:9586   */\n      0x00\n        /* \"#utility.yul\":9582:9583   */\n      0x00\n        /* \"#utility.yul\":9575:9587   */\n      revert\n        /* \"#utility.yul\":9526:9589   */\n    tag_292:\n        /* \"#utility.yul\":9473:9595   */\n      pop\n      jump\t// out\n        /* \"#utility.yul\":9601:9740   */\n    tag_185:\n        /* \"#utility.yul\":9647:9652   */\n      0x00\n        /* \"#utility.yul\":9685:9691   */\n      dup2\n        /* \"#utility.yul\":9672:9692   */\n      calldataload\n        /* \"#utility.yul\":9663:9692   */\n      swap1\n      pop\n        /* \"#utility.yul\":9701:9734   */\n      tag_294\n        /* \"#utility.yul\":9728:9733   */\n      dup2\n        /* \"#utility.yul\":9701:9734   */\n      tag_184\n      jump\t// in\n    tag_294:\n        /* \"#utility.yul\":9601:9740   */\n      swap3\n      swap2\n      pop\n      pop\n      jump\t// out\n        /* \"#utility.yul\":9746:10075   */\n    tag_89:\n        /* \"#utility.yul\":9805:9811   */\n      0x00\n        /* \"#utility.yul\":9854:9856   */\n      0x20\n        /* \"#utility.yul\":9842:9851   */\n      dup3\n        /* \"#utility.yul\":9833:9840   */\n      dup5\n        /* \"#utility.yul\":9829:9852   */\n      sub\n        /* \"#utility.yul\":9825:9857   */\n      slt\n        /* \"#utility.yul\":9822:9941   */\n      iszero\n      tag_296\n      jumpi\n        /* \"#utility.yul\":9860:9939   */\n      tag_297\n      tag_171\n      jump\t// in\n    tag_297:\n        /* \"#utility.yul\":9822:9941   */\n    tag_296:\n        /* \"#utility.yul\":9980:9981   */\n      0x00\n        /* \"#utility.yul\":10005:10058   */\n      tag_298\n        /* \"#utility.yul\":10050:10057   */\n      dup5\n        /* \"#utility.yul\":10041:10047   */\n      dup3\n        /* \"#utility.yul\":10030:10039   */\n      dup6\n        /* \"#utility.yul\":10026:10048   */\n      add\n        /* \"#utility.yul\":10005:10058   */\n      tag_185\n      jump\t// in\n    tag_298:\n        /* \"#utility.yul\":9995:10058   */\n      swap2\n      pop\n        /* \"#utility.yul\":9951:10068   */\n      pop\n        /* \"#utility.yul\":9746:10075   */\n      swap3\n      swap2\n      pop\n      pop\n      jump\t// out\n        /* \"#utility.yul\":10081:10700   */\n    tag_99:\n        /* \"#utility.yul\":10158:10164   */\n      0x00\n        /* \"#utility.yul\":10166:10172   */\n      0x00\n        /* \"#utility.yul\":10174:10180   */\n      0x00\n        /* \"#utility.yul\":10223:10225   */\n      0x60\n        /* \"#utility.yul\":10211:10220   */\n      dup5\n        /* \"#utility.yul\":10202:10209   */\n      dup7\n        /* \"#utility.yul\":10198:10221   */\n      sub\n        /* \"#utility.yul\":10194:10226   */\n      slt\n        /* \"#utility.yul\":10191:10310   */\n      iszero\n      tag_300\n      jumpi\n        /* \"#utility.yul\":10229:10308   */\n      tag_301\n      tag_171\n      jump\t// in\n    tag_301:\n        /* \"#utility.yul\":10191:10310   */\n    tag_300:\n        /* \"#utility.yul\":10349:10350   */\n      0x00\n        /* \"#utility.yul\":10374:10427   */\n      tag_302\n        /* \"#utility.yul\":10419:10426   */\n      dup7\n        /* \"#utility.yul\":10410:10416   */\n      dup3\n        /* \"#utility.yul\":10399:10408   */\n      dup8\n        /* \"#utility.yul\":10395:10417   */\n      add\n        /* \"#utility.yul\":10374:10427   */\n      tag_174\n      jump\t// in\n    tag_302:\n        /* \"#utility.yul\":10364:10427   */\n      swap4\n      pop\n        /* \"#utility.yul\":10320:10437   */\n      pop\n        /* \"#utility.yul\":10476:10478   */\n      0x20\n        /* \"#utility.yul\":10502:10555   */\n      tag_303\n        /* \"#utility.yul\":10547:10554   */\n      dup7\n        /* \"#utility.yul\":10538:10544   */\n      dup3\n        /* \"#utility.yul\":10527:10536   */\n      dup8\n        /* \"#utility.yul\":10523:10545   */\n      add\n        /* \"#utility.yul\":10502:10555   */\n      tag_174\n      jump\t// in\n    tag_303:\n        /* \"#utility.yul\":10492:10555   */\n      swap3\n      pop\n        /* \"#utility.yul\":10447:10565   */\n      pop\n        /* \"#utility.yul\":10604:10606   */\n      0x40\n        /* \"#utility.yul\":10630:10683   */\n      tag_304\n        /* \"#utility.yul\":10675:10682   */\n      dup7\n        /* \"#utility.yul\":10666:10672   */\n      dup3\n        /* \"#utility.yul\":10655:10664   */\n      dup8\n        /* \"#utility.yul\":10651:10673   */\n      add\n        /* \"#utility.yul\":10630:10683   */\n      tag_174\n      jump\t// in\n    tag_304:\n        /* \"#utility.yul\":10620:10683   */\n      swap2\n      pop\n        /* \"#utility.yul\":10575:10693   */\n      pop\n        /* \"#utility.yul\":10081:10700   */\n      swap3\n      pop\n      swap3\n      pop\n      swap3\n      jump\t// out\n        /* \"#utility.yul\":10706:10883   */\n    tag_186:\n        /* \"#utility.yul\":10846:10875   */\n      0x4f6e6c792072657461696c65722063616e2063616c6c20746869730000000000\n        /* \"#utility.yul\":10842:10843   */\n      0x00\n        /* \"#utility.yul\":10834:10840   */\n      dup3\n        /* \"#utility.yul\":10830:10844   */\n      add\n        /* \"#utility.yul\":10823:10876   */\n      mstore\n        /* \"#utility.yul\":10706:10883   */\n      pop\n      jump\t// out\n        /* \"#utility.yul\":10889:11255   */\n    tag_187:\n        /* \"#utility.yul\":11031:11034   */\n      0x00\n        /* \"#utility.yul\":11052:11119   */\n      tag_307\n        /* \"#utility.yul\":11116:11118   */\n      0x1b\n        /* \"#utility.yul\":11111:11114   */\n      dup4\n        /* \"#utility.yul\":11052:11119   */\n      tag_151\n      jump\t// in\n    tag_307:\n        /* \"#utility.yul\":11045:11119   */\n      swap2\n      pop\n        /* \"#utility.yul\":11128:11221   */\n      tag_308\n        /* \"#utility.yul\":11217:11220   */\n      dup3\n        /* \"#utility.yul\":11128:11221   */\n      tag_186\n      jump\t// in\n    tag_308:\n        /* \"#utility.yul\":11246:11248   */\n      0x20\n        /* \"#utility.yul\":11241:11244   */\n      dup3\n        /* \"#utility.yul\":11237:11249   */\n      add\n        /* \"#utility.yul\":11230:11249   */\n      swap1\n      pop\n        /* \"#utility.yul\":10889:11255   */\n      swap2\n      swap1\n      pop\n      jump\t// out\n        /* \"#utility.yul\":11261:11680   */\n    tag_114:\n        /* \"#utility.yul\":11427:11431   */\n      0x00\n        /* \"#utility.yul\":11465:11467   */\n      0x20\n        /* \"#utility.yul\":11454:11463   */\n      dup3\n        /* \"#utility.yul\":11450:11468   */\n      add\n        /* \"#utility.yul\":11442:11468   */\n      swap1\n      pop\n        /* \"#utility.yul\":11514:11523   */\n      dup2\n        /* \"#utility.yul\":11508:11512   */\n      dup2\n        /* \"#utility.yul\":11504:11524   */\n      sub\n        /* \"#utility.yul\":11500:11501   */\n      0x00\n        /* \"#utility.yul\":11489:11498   */\n      dup4\n        /* \"#utility.yul\":11485:11502   */\n      add\n        /* \"#utility.yul\":11478:11525   */\n      mstore\n        /* \"#utility.yul\":11542:11673   */\n      tag_310\n        /* \"#utility.yul\":11668:11672   */\n      dup2\n        /* \"#utility.yul\":11542:11673   */\n      tag_187\n      jump\t// in\n    tag_310:\n        /* \"#utility.yul\":11534:11673   */\n      swap1\n      pop\n        /* \"#utility.yul\":11261:11680   */\n      swap2\n      swap1\n      pop\n      jump\t// out\n        /* \"#utility.yul\":11686:11867   */\n    tag_188:\n        /* \"#utility.yul\":11826:11859   */\n      0x416c6c20706c6179657273206d75737420726567697374657220666972737400\n        /* \"#utility.yul\":11822:11823   */\n      0x00\n        /* \"#utility.yul\":11814:11820   */\n      dup3\n        /* \"#utility.yul\":11810:11824   */\n      add\n        /* \"#utility.yul\":11803:11860   */\n      mstore\n        /* \"#utility.yul\":11686:11867   */\n      pop\n      jump\t// out\n        /* \"#utility.yul\":11873:12239   */\n    tag_189:\n        /* \"#utility.yul\":12015:12018   */\n      0x00\n        /* \"#utility.yul\":12036:12103   */\n      tag_313\n        /* \"#utility.yul\":12100:12102   */\n      0x1f\n        /* \"#utility.yul\":12095:12098   */\n      dup4\n        /* \"#utility.yul\":12036:12103   */\n      tag_151\n      jump\t// in\n    tag_313:\n        /* \"#utility.yul\":12029:12103   */\n      swap2\n      pop\n        /* \"#utility.yul\":12112:12205   */\n      tag_314\n        /* \"#utility.yul\":12201:12204   */\n      dup3\n        /* \"#utility.yul\":12112:12205   */\n      tag_188\n      jump\t// in\n    tag_314:\n        /* \"#utility.yul\":12230:12232   */\n      0x20\n        /* \"#utility.yul\":12225:12228   */\n      dup3\n        /* \"#utility.yul\":12221:12233   */\n      add\n        /* \"#utility.yul\":12214:12233   */\n      swap1\n      pop\n        /* \"#utility.yul\":11873:12239   */\n      swap2\n      swap1\n      pop\n      jump\t// out\n        /* \"#utility.yul\":12245:12664   */\n    tag_118:\n        /* \"#utility.yul\":12411:12415   */\n      0x00\n        /* \"#utility.yul\":12449:12451   */\n      0x20\n        /* \"#utility.yul\":12438:12447   */\n      dup3\n        /* \"#utility.yul\":12434:12452   */\n      add\n        /* \"#utility.yul\":12426:12452   */\n      swap1\n      pop\n        /* \"#utility.yul\":12498:12507   */\n      dup2\n        /* \"#utility.yul\":12492:12496   */\n      dup2\n        /* \"#utility.yul\":12488:12508   */\n      sub\n        /* \"#utility.yul\":12484:12485   */\n      0x00\n        /* \"#utility.yul\":12473:12482   */\n      dup4\n        /* \"#utility.yul\":12469:12486   */\n      add\n        /* \"#utility.yul\":12462:12509   */\n      mstore\n        /* \"#utility.yul\":12526:12657   */\n      tag_316\n        /* \"#utility.yul\":12652:12656   */\n      dup2\n        /* \"#utility.yul\":12526:12657   */\n      tag_189\n      jump\t// in\n    tag_316:\n        /* \"#utility.yul\":12518:12657   */\n      swap1\n      pop\n        /* \"#utility.yul\":12245:12664   */\n      swap2\n      swap1\n      pop\n      jump\t// out\n        /* \"#utility.yul\":12670:12850   */\n    tag_190:\n        /* \"#utility.yul\":12718:12795   */\n      0x4e487b7100000000000000000000000000000000000000000000000000000000\n        /* \"#utility.yul\":12715:12716   */\n      0x00\n        /* \"#utility.yul\":12708:12796   */\n      mstore\n        /* \"#utility.yul\":12815:12819   */\n      0x11\n        /* \"#utility.yul\":12812:12813   */\n      0x04\n        /* \"#utility.yul\":12805:12820   */\n      mstore\n        /* \"#utility.yul\":12839:12843   */\n      0x24\n        /* \"#utility.yul\":12836:12837   */\n      0x00\n        /* \"#utility.yul\":12829:12844   */\n      revert\n        /* \"#utility.yul\":12856:13047   */\n    tag_120:\n        /* \"#utility.yul\":12896:12899   */\n      0x00\n        /* \"#utility.yul\":12915:12935   */\n      tag_319\n        /* \"#utility.yul\":12933:12934   */\n      dup3\n        /* \"#utility.yul\":12915:12935   */\n      tag_158\n      jump\t// in\n    tag_319:\n        /* \"#utility.yul\":12910:12935   */\n      swap2\n      pop\n        /* \"#utility.yul\":12949:12969   */\n      tag_320\n        /* \"#utility.yul\":12967:12968   */\n      dup4\n        /* \"#utility.yul\":12949:12969   */\n      tag_158\n      jump\t// in\n    tag_320:\n        /* \"#utility.yul\":12944:12969   */\n      swap3\n      pop\n        /* \"#utility.yul\":12992:12993   */\n      dup3\n        /* \"#utility.yul\":12989:12990   */\n      dup3\n        /* \"#utility.yul\":12985:12994   */\n      add\n        /* \"#utility.yul\":12978:12994   */\n      swap1\n      pop\n        /* \"#utility.yul\":13013:13016   */\n      dup1\n        /* \"#utility.yul\":13010:13011   */\n      dup3\n        /* \"#utility.yul\":13007:13017   */\n      gt\n        /* \"#utility.yul\":13004:13040   */\n      iszero\n      tag_321\n      jumpi\n        /* \"#utility.yul\":13020:13038   */\n      tag_322\n      tag_190\n      jump\t// in\n    tag_322:\n        /* \"#utility.yul\":13004:13040   */\n    tag_321:\n        /* \"#utility.yul\":12856:13047   */\n      swap3\n      swap2\n      pop\n      pop\n      jump\t// out\n        /* \"#utility.yul\":13053:13274   */\n    tag_191:\n        /* \"#utility.yul\":13193:13227   */\n      0x576169742032206d696e75746573206166746572206669727374207061796d65\n        /* \"#utility.yul\":13189:13190   */\n      0x00\n        /* \"#utility.yul\":13181:13187   */\n      dup3\n        /* \"#utility.yul\":13177:13191   */\n      add\n        /* \"#utility.yul\":13170:13228   */\n      mstore\n        /* \"#utility.yul\":13262:13266   */\n      0x6e74000000000000000000000000000000000000000000000000000000000000\n        /* \"#utility.yul\":13257:13259   */\n      0x20\n        /* \"#utility.yul\":13249:13255   */\n      dup3\n        /* \"#utility.yul\":13245:13260   */\n      add\n        /* \"#utility.yul\":13238:13267   */\n      mstore\n        /* \"#utility.yul\":13053:13274   */\n      pop\n      jump\t// out\n        /* \"#utility.yul\":13280:13646   */\n    tag_192:\n        /* \"#utility.yul\":13422:13425   */\n      0x00\n        /* \"#utility.yul\":13443:13510   */\n      tag_325\n        /* \"#utility.yul\":13507:13509   */\n      0x22\n        /* \"#utility.yul\":13502:13505   */\n      dup4\n        /* \"#utility.yul\":13443:13510   */\n      tag_151\n      jump\t// in\n    tag_325:\n        /* \"#utility.yul\":13436:13510   */\n      swap2\n      pop\n        /* \"#utility.yul\":13519:13612   */\n      tag_326\n        /* \"#utility.yul\":13608:13611   */\n      dup3\n        /* \"#utility.yul\":13519:13612   */\n      tag_191\n      jump\t// in\n    tag_326:\n        /* \"#utility.yul\":13637:13639   */\n      0x40\n        /* \"#utility.yul\":13632:13635   */\n      dup3\n        /* \"#utility.yul\":13628:13640   */\n      add\n        /* \"#utility.yul\":13621:13640   */\n      swap1\n      pop\n        /* \"#utility.yul\":13280:13646   */\n      swap2\n      swap1\n      pop\n      jump\t// out\n        /* \"#utility.yul\":13652:14071   */\n    tag_123:\n        /* \"#utility.yul\":13818:13822   */\n      0x00\n        /* \"#utility.yul\":13856:13858   */\n      0x20\n        /* \"#utility.yul\":13845:13854   */\n      dup3\n        /* \"#utility.yul\":13841:13859   */\n      add\n        /* \"#utility.yul\":13833:13859   */\n      swap1\n      pop\n        /* \"#utility.yul\":13905:13914   */\n      dup2\n        /* \"#utility.yul\":13899:13903   */\n      dup2\n        /* \"#utility.yul\":13895:13915   */\n      sub\n        /* \"#utility.yul\":13891:13892   */\n      0x00\n        /* \"#utility.yul\":13880:13889   */\n      dup4\n        /* \"#utility.yul\":13876:13893   */\n      add\n        /* \"#utility.yul\":13869:13916   */\n      mstore\n        /* \"#utility.yul\":13933:14064   */\n      tag_328\n        /* \"#utility.yul\":14059:14063   */\n      dup2\n        /* \"#utility.yul\":13933:14064   */\n      tag_192\n      jump\t// in\n    tag_328:\n        /* \"#utility.yul\":13925:14064   */\n      swap1\n      pop\n        /* \"#utility.yul\":13652:14071   */\n      swap2\n      swap1\n      pop\n      jump\t// out\n        /* \"#utility.yul\":14077:14250   */\n    tag_193:\n        /* \"#utility.yul\":14217:14242   */\n      0x57696e6e657220616c72656164792073656c6563746564000000000000000000\n        /* \"#utility.yul\":14213:14214   */\n      0x00\n        /* \"#utility.yul\":14205:14211   */\n      dup3\n        /* \"#utility.yul\":14201:14215   */\n      add\n        /* \"#utility.yul\":14194:14243   */\n      mstore\n        /* \"#utility.yul\":14077:14250   */\n      pop\n      jump\t// out\n        /* \"#utility.yul\":14256:14622   */\n    tag_194:\n        /* \"#utility.yul\":14398:14401   */\n      0x00\n        /* \"#utility.yul\":14419:14486   */\n      tag_331\n        /* \"#utility.yul\":14483:14485   */\n      0x17\n        /* \"#utility.yul\":14478:14481   */\n      dup4\n        /* \"#utility.yul\":14419:14486   */\n      tag_151\n      jump\t// in\n    tag_331:\n        /* \"#utility.yul\":14412:14486   */\n      swap2\n      pop\n        /* \"#utility.yul\":14495:14588   */\n      tag_332\n        /* \"#utility.yul\":14584:14587   */\n      dup3\n        /* \"#utility.yul\":14495:14588   */\n      tag_193\n      jump\t// in\n    tag_332:\n        /* \"#utility.yul\":14613:14615   */\n      0x20\n        /* \"#utility.yul\":14608:14611   */\n      dup3\n        /* \"#utility.yul\":14604:14616   */\n      add\n        /* \"#utility.yul\":14597:14616   */\n      swap1\n      pop\n        /* \"#utility.yul\":14256:14622   */\n      swap2\n      swap1\n      pop\n      jump\t// out\n        /* \"#utility.yul\":14628:15047   */\n    tag_126:\n        /* \"#utility.yul\":14794:14798   */\n      0x00\n        /* \"#utility.yul\":14832:14834   */\n      0x20\n        /* \"#utility.yul\":14821:14830   */\n      dup3\n        /* \"#utility.yul\":14817:14835   */\n      add\n        /* \"#utility.yul\":14809:14835   */\n      swap1\n      pop\n        /* \"#utility.yul\":14881:14890   */\n      dup2\n        /* \"#utility.yul\":14875:14879   */\n      dup2\n        /* \"#utility.yul\":14871:14891   */\n      sub\n        /* \"#utility.yul\":14867:14868   */\n      0x00\n        /* \"#utility.yul\":14856:14865   */\n      dup4\n        /* \"#utility.yul\":14852:14869   */\n      add\n        /* \"#utility.yul\":14845:14892   */\n      mstore\n        /* \"#utility.yul\":14909:15040   */\n      tag_334\n        /* \"#utility.yul\":15035:15039   */\n      dup2\n        /* \"#utility.yul\":14909:15040   */\n      tag_194\n      jump\t// in\n    tag_334:\n        /* \"#utility.yul\":14901:15040   */\n      swap1\n      pop\n        /* \"#utility.yul\":14628:15047   */\n      swap2\n      swap1\n      pop\n      jump\t// out\n        /* \"#utility.yul\":15053:15450   */\n    tag_128:\n        /* \"#utility.yul\":15193:15196   */\n      0x00\n        /* \"#utility.yul\":15208:15283   */\n      tag_336\n        /* \"#utility.yul\":15279:15282   */\n      dup3\n        /* \"#utility.yul\":15270:15276   */\n      dup6\n        /* \"#utility.yul\":15208:15283   */\n      tag_160\n      jump\t// in\n    tag_336:\n        /* \"#utility.yul\":15308:15310   */\n      0x20\n        /* \"#utility.yul\":15303:15306   */\n      dup3\n        /* \"#utility.yul\":15299:15311   */\n      add\n        /* \"#utility.yul\":15292:15311   */\n      swap2\n      pop\n        /* \"#utility.yul\":15321:15396   */\n      tag_337\n        /* \"#utility.yul\":15392:15395   */\n      dup3\n        /* \"#utility.yul\":15383:15389   */\n      dup5\n        /* \"#utility.yul\":15321:15396   */\n      tag_160\n      jump\t// in\n    tag_337:\n        /* \"#utility.yul\":15421:15423   */\n      0x20\n        /* \"#utility.yul\":15416:15419   */\n      dup3\n        /* \"#utility.yul\":15412:15424   */\n      add\n        /* \"#utility.yul\":15405:15424   */\n      swap2\n      pop\n        /* \"#utility.yul\":15441:15444   */\n      dup2\n        /* \"#utility.yul\":15434:15444   */\n      swap1\n      pop\n        /* \"#utility.yul\":15053:15450   */\n      swap4\n      swap3\n      pop\n      pop\n      pop\n      jump\t// out\n        /* \"#utility.yul\":15456:15636   */\n    tag_132:\n        /* \"#utility.yul\":15504:15581   */\n      0x4e487b7100000000000000000000000000000000000000000000000000000000\n        /* \"#utility.yul\":15501:15502   */\n      0x00\n        /* \"#utility.yul\":15494:15582   */\n      mstore\n        /* \"#utility.yul\":15601:15605   */\n      0x32\n        /* \"#utility.yul\":15598:15599   */\n      0x04\n        /* \"#utility.yul\":15591:15606   */\n      mstore\n        /* \"#utility.yul\":15625:15629   */\n      0x24\n        /* \"#utility.yul\":15622:15623   */\n      0x00\n        /* \"#utility.yul\":15615:15630   */\n      revert\n        /* \"#utility.yul\":15642:15818   */\n    tag_195:\n        /* \"#utility.yul\":15782:15810   */\n      0x416c6c20706c6179657273206d75737420706179206669727374000000000000\n        /* \"#utility.yul\":15778:15779   */\n      0x00\n        /* \"#utility.yul\":15770:15776   */\n      dup3\n        /* \"#utility.yul\":15766:15780   */\n      add\n        /* \"#utility.yul\":15759:15811   */\n      mstore\n        /* \"#utility.yul\":15642:15818   */\n      pop\n      jump\t// out\n        /* \"#utility.yul\":15824:16190   */\n    tag_196:\n        /* \"#utility.yul\":15966:15969   */\n      0x00\n        /* \"#utility.yul\":15987:16054   */\n      tag_341\n        /* \"#utility.yul\":16051:16053   */\n      0x1a\n        /* \"#utility.yul\":16046:16049   */\n      dup4\n        /* \"#utility.yul\":15987:16054   */\n      tag_151\n      jump\t// in\n    tag_341:\n        /* \"#utility.yul\":15980:16054   */\n      swap2\n      pop\n        /* \"#utility.yul\":16063:16156   */\n      tag_342\n        /* \"#utility.yul\":16152:16155   */\n      dup3\n        /* \"#utility.yul\":16063:16156   */\n      tag_195\n      jump\t// in\n    tag_342:\n        /* \"#utility.yul\":16181:16183   */\n      0x20\n        /* \"#utility.yul\":16176:16179   */\n      dup3\n        /* \"#utility.yul\":16172:16184   */\n      add\n        /* \"#utility.yul\":16165:16184   */\n      swap1\n      pop\n        /* \"#utility.yul\":15824:16190   */\n      swap2\n      swap1\n      pop\n      jump\t// out\n        /* \"#utility.yul\":16196:16615   */\n    tag_148:\n        /* \"#utility.yul\":16362:16366   */\n      0x00\n        /* \"#utility.yul\":16400:16402   */\n      0x20\n        /* \"#utility.yul\":16389:16398   */\n      dup3\n        /* \"#utility.yul\":16385:16403   */\n      add\n        /* \"#utility.yul\":16377:16403   */\n      swap1\n      pop\n        /* \"#utility.yul\":16449:16458   */\n      dup2\n        /* \"#utility.yul\":16443:16447   */\n      dup2\n        /* \"#utility.yul\":16439:16459   */\n      sub\n        /* \"#utility.yul\":16435:16436   */\n      0x00\n        /* \"#utility.yul\":16424:16433   */\n      dup4\n        /* \"#utility.yul\":16420:16437   */\n      add\n        /* \"#utility.yul\":16413:16460   */\n      mstore\n        /* \"#utility.yul\":16477:16608   */\n      tag_344\n        /* \"#utility.yul\":16603:16607   */\n      dup2\n        /* \"#utility.yul\":16477:16608   */\n      tag_196\n      jump\t// in\n    tag_344:\n        /* \"#utility.yul\":16469:16608   */\n      swap1\n      pop\n        /* \"#utility.yul\":16196:16615   */\n      swap2\n      swap1\n      pop\n      jump\t// out\n\n    auxdata: 0xa2646970667358221220298152c563fc421f61286d05b0494f03b8f55a2c3b2760f1671f4bf90335d7ce64736f6c634300081e0033\n}\n",
				"bytecode": {
					"linkReferences": {},
					"object": "6080604052348015600e575f5ffd5b50335f5f6101000a81548173ffffffffffffffffffffffffffffffffffffffff021916908373ffffffffffffffffffffffffffffffffffffffff16021790555061145d8061005b5f395ff3fe6080604052600436106100eb575f3560e01c806378e9792511610089578063dfbf53ae11610058578063dfbf53ae14610534578063f57e54f31461055e578063f71d96cb14610586578063fb47e3a2146105c257610352565b806378e979251461047a5780638d382812146104a4578063c09cec77146104ce578063d39fa233146104f857610352565b806333a99e04116100c557806333a99e04146103d45780633fc6105a146103ea5780634c1249fc1461042657806374fddd211461045057610352565b806304f35a571461035657806312065fe0146103805780631a95f15f146103aa57610352565b3661035257662386f26fc100003414610139576040517f08c379a000000000000000000000000000000000000000000000000000000000815260040161013090610c9d565b60405180910390fd5b600360078054905010610181576040517f08c379a000000000000000000000000000000000000000000000000000000000815260040161017890610d05565b60405180910390fd5b5f60065f3373ffffffffffffffffffffffffffffffffffffffff1673ffffffffffffffffffffffffffffffffffffffff1681526020019081526020015f205414610200576040517f08c379a00000000000000000000000000000000000000000000000000000000081526004016101f790610d6d565b60405180910390fd5b5f6004540361021157426004819055505b5f620186a042334460405160200161022b93929190610e29565b604051602081830303815290604052805190602001205f1c61024d9190610e92565b90508060065f3373ffffffffffffffffffffffffffffffffffffffff1673ffffffffffffffffffffffffffffffffffffffff1681526020019081526020015f2081905550600733908060018154018082558091505060019003905f5260205f20015f9091909190916101000a81548173ffffffffffffffffffffffffffffffffffffffff021916908373ffffffffffffffffffffffffffffffffffffffff160217905550600881908060018154018082558091505060019003905f5260205f20015f90919091909150557f324cb0062138d65997c86cd3012489ceb351d602f2f55c7408306e8040c79f3f3382604051610348929190610ee0565b60405180910390a1005b5f5ffd5b348015610361575f5ffd5b5061036a6105ec565b6040516103779190610f07565b60405180910390f35b34801561038b575f5ffd5b50610394610611565b6040516103a19190610f20565b60405180910390f35b3480156103b5575f5ffd5b506103be610618565b6040516103cb9190610f20565b60405180910390f35b3480156103df575f5ffd5b506103e8610623565b005b3480156103f5575f5ffd5b50610410600480360381019061040b9190610f67565b610936565b60405161041d9190610f20565b60405180910390f35b348015610431575f5ffd5b5061043a61094b565b6040516104479190610f07565b60405180910390f35b34801561045b575f5ffd5b5061046461096f565b6040516104719190611049565b60405180910390f35b348015610485575f5ffd5b5061048e6109c5565b60405161049b9190610f20565b60405180910390f35b3480156104af575f5ffd5b506104b86109cb565b6040516104c59190611083565b60405180910390f35b3480156104d9575f5ffd5b506104e26109dd565b6040516104ef9190610f07565b60405180910390f35b348015610503575f5ffd5b5061051e600480360381019061051991906110c6565b610a02565b60405161052b9190610f20565b60405180910390f35b34801561053f575f5ffd5b50610548610a22565b6040516105559190610f07565b60405180910390f35b348015610569575f5ffd5b50610584600480360381019061057f91906110f1565b610a48565b005b348015610591575f5ffd5b506105ac60048036038101906105a791906110c6565b610be3565b6040516105b99190610f07565b60405180910390f35b3480156105cd575f5ffd5b506105d6610c1e565b6040516105e39190610f07565b60405180910390f35b60035f9054906101000a900473ffffffffffffffffffffffffffffffffffffffff1681565b5f47905090565b662386f26fc1000081565b5f5f9054906101000a900473ffffffffffffffffffffffffffffffffffffffff1673ffffffffffffffffffffffffffffffffffffffff163373ffffffffffffffffffffffffffffffffffffffff16146106b1576040517f08c379a00000000000000000000000000000000000000000000000000000000081526004016106a89061118b565b60405180910390fd5b6003600780549050146106f9576040517f08c379a00000000000000000000000000000000000000000000000000000000081526004016106f0906111f3565b60405180910390fd5b6078600454610708919061123e565b42101561074a576040517f08c379a0000000000000000000000000000000000000000000000000000000008152600401610741906112e1565b60405180910390fd5b60055f9054906101000a900460ff1615610799576040517f08c379a000000000000000000000000000000000000000000000000000000000815260040161079090611349565b60405180910390fd5b5f60088054905042446040516020016107b3929190611367565b604051602081830303815290604052805190602001205f1c6107d59190610e92565b9050600781815481106107eb576107ea611392565b5b905f5260205f20015f9054906101000a900473ffffffffffffffffffffffffffffffffffffffff16600560016101000a81548173ffffffffffffffffffffffffffffffffffffffff021916908373ffffffffffffffffffffffffffffffffffffffff160217905550600160055f6101000a81548160ff0219169083151502179055505f479050600560019054906101000a900473ffffffffffffffffffffffffffffffffffffffff1673ffffffffffffffffffffffffffffffffffffffff166108fc8290811502906040515f60405180830381858888f193505050501580156108d6573d5f5f3e3d5ffd5b507f3cf1af53e79884a92609ce59db1ec9f584d88e2d14c8eaba43a21db81318301e600560019054906101000a900473ffffffffffffffffffffffffffffffffffffffff168260405161092a929190610ee0565b60405180910390a15050565b6006602052805f5260405f205f915090505481565b5f5f9054906101000a900473ffffffffffffffffffffffffffffffffffffffff1681565b606060088054806020026020016040519081016040528092919081815260200182805480156109bb57602002820191905f5260205f20905b8154815260200190600101908083116109a7575b5050505050905090565b60045481565b60055f9054906101000a900460ff1681565b60025f9054906101000a900473ffffffffffffffffffffffffffffffffffffffff1681565b60088181548110610a11575f80fd5b905f5260205f20015f915090505481565b600560019054906101000a900473ffffffffffffffffffffffffffffffffffffffff1681565b5f5f9054906101000a900473ffffffffffffffffffffffffffffffffffffffff1673ffffffffffffffffffffffffffffffffffffffff163373ffffffffffffffffffffffffffffffffffffffff1614610ad6576040517f08c379a0000000000000000000000000000000000000000000000000000000008152600401610acd9061118b565b60405180910390fd5b600360078054905014610b1e576040517f08c379a0000000000000000000000000000000000000000000000000000000008152600401610b1590611409565b60405180910390fd5b8260015f6101000a81548173ffffffffffffffffffffffffffffffffffffffff021916908373ffffffffffffffffffffffffffffffffffffffff1602179055508160025f6101000a81548173ffffffffffffffffffffffffffffffffffffffff021916908373ffffffffffffffffffffffffffffffffffffffff1602179055508060035f6101000a81548173ffffffffffffffffffffffffffffffffffffffff021916908373ffffffffffffffffffffffffffffffffffffffff160217905550505050565b60078181548110610bf2575f80fd5b905f5260205f20015f915054906101000a900473ffffffffffffffffffffffffffffffffffffffff1681565b60015f9054906101000a900473ffffffffffffffffffffffffffffffffffffffff1681565b5f82825260208201905092915050565b7f53656e642065786163746c7920302e30312045544800000000000000000000005f82015250565b5f610c87601583610c43565b9150610c9282610c53565b602082019050919050565b5f6020820190508181035f830152610cb481610c7b565b9050919050565b7f416c6c20706c617965727320616c7265616479207265676973746572656400005f82015250565b5f610cef601e83610c43565b9150610cfa82610cbb565b602082019050919050565b5f6020820190508181035f830152610d1c81610ce3565b9050919050565b7f416c7265616479207265676973746572656400000000000000000000000000005f82015250565b5f610d57601283610c43565b9150610d6282610d23565b602082019050919050565b5f6020820190508181035f830152610d8481610d4b565b9050919050565b5f819050919050565b5f819050919050565b610dae610da982610d8b565b610d94565b82525050565b5f73ffffffffffffffffffffffffffffffffffffffff82169050919050565b5f610ddd82610db4565b9050919050565b5f8160601b9050919050565b5f610dfa82610de4565b9050919050565b5f610e0b82610df0565b9050919050565b610e23610e1e82610dd3565b610e01565b82525050565b5f610e348286610d9d565b602082019150610e448285610e12565b601482019150610e548284610d9d565b602082019150819050949350505050565b7f4e487b71000000000000000000000000000000000000000000000000000000005f52601260045260245ffd5b5f610e9c82610d8b565b9150610ea783610d8b565b925082610eb757610eb6610e65565b5b828206905092915050565b610ecb81610dd3565b82525050565b610eda81610d8b565b82525050565b5f604082019050610ef35f830185610ec2565b610f006020830184610ed1565b9392505050565b5f602082019050610f1a5f830184610ec2565b92915050565b5f602082019050610f335f830184610ed1565b92915050565b5f5ffd5b610f4681610dd3565b8114610f50575f5ffd5b50565b5f81359050610f6181610f3d565b92915050565b5f60208284031215610f7c57610f7b610f39565b5b5f610f8984828501610f53565b91505092915050565b5f81519050919050565b5f82825260208201905092915050565b5f819050602082019050919050565b610fc481610d8b565b82525050565b5f610fd58383610fbb565b60208301905092915050565b5f602082019050919050565b5f610ff782610f92565b6110018185610f9c565b935061100c83610fac565b805f5b8381101561103c5781516110238882610fca565b975061102e83610fe1565b92505060018101905061100f565b5085935050505092915050565b5f6020820190508181035f8301526110618184610fed565b905092915050565b5f8115159050919050565b61107d81611069565b82525050565b5f6020820190506110965f830184611074565b92915050565b6110a581610d8b565b81146110af575f5ffd5b50565b5f813590506110c08161109c565b92915050565b5f602082840312156110db576110da610f39565b5b5f6110e8848285016110b2565b91505092915050565b5f5f5f6060848603121561110857611107610f39565b5b5f61111586828701610f53565b935050602061112686828701610f53565b925050604061113786828701610f53565b9150509250925092565b7f4f6e6c792072657461696c65722063616e2063616c6c207468697300000000005f82015250565b5f611175601b83610c43565b915061118082611141565b602082019050919050565b5f6020820190508181035f8301526111a281611169565b9050919050565b7f416c6c20706c6179657273206d757374207265676973746572206669727374005f82015250565b5f6111dd601f83610c43565b91506111e8826111a9565b602082019050919050565b5f6020820190508181035f83015261120a816111d1565b9050919050565b7f4e487b71000000000000000000000000000000000000000000000000000000005f52601160045260245ffd5b5f61124882610d8b565b915061125383610d8b565b925082820190508082111561126b5761126a611211565b5b92915050565b7f576169742032206d696e75746573206166746572206669727374207061796d655f8201527f6e74000000000000000000000000000000000000000000000000000000000000602082015250565b5f6112cb602283610c43565b91506112d682611271565b604082019050919050565b5f6020820190508181035f8301526112f8816112bf565b9050919050565b7f57696e6e657220616c72656164792073656c65637465640000000000000000005f82015250565b5f611333601783610c43565b915061133e826112ff565b602082019050919050565b5f6020820190508181035f83015261136081611327565b9050919050565b5f6113728285610d9d565b6020820191506113828284610d9d565b6020820191508190509392505050565b7f4e487b71000000000000000000000000000000000000000000000000000000005f52603260045260245ffd5b7f416c6c20706c6179657273206d757374207061792066697273740000000000005f82015250565b5f6113f3601a83610c43565b91506113fe826113bf565b602082019050919050565b5f6020820190508181035f830152611420816113e7565b905091905056fea2646970667358221220298152c563fc421f61286d05b0494f03b8f55a2c3b2760f1671f4bf90335d7ce64736f6c634300081e0033",
					"opcodes": "PUSH1 0x80 PUSH1 0x40 MSTORE CALLVALUE DUP1 ISZERO PUSH1 0xE JUMPI PUSH0 PUSH0 REVERT JUMPDEST POP CALLER PUSH0 PUSH0 PUSH2 0x100 EXP DUP2 SLOAD DUP2 PUSH20 0xFFFFFFFFFFFFFFFFFFFFFFFFFFFFFFFFFFFFFFFF MUL NOT AND SWAP1 DUP4 PUSH20 0xFFFFFFFFFFFFFFFFFFFFFFFFFFFFFFFFFFFFFFFF AND MUL OR SWAP1 SSTORE POP PUSH2 0x145D DUP1 PUSH2 0x5B PUSH0 CODECOPY PUSH0 RETURN INVALID PUSH1 0x80 PUSH1 0x40 MSTORE PUSH1 0x4 CALLDATASIZE LT PUSH2 0xEB JUMPI PUSH0 CALLDATALOAD PUSH1 0xE0 SHR DUP1 PUSH4 0x78E97925 GT PUSH2 0x89 JUMPI DUP1 PUSH4 0xDFBF53AE GT PUSH2 0x58 JUMPI DUP1 PUSH4 0xDFBF53AE EQ PUSH2 0x534 JUMPI DUP1 PUSH4 0xF57E54F3 EQ PUSH2 0x55E JUMPI DUP1 PUSH4 0xF71D96CB EQ PUSH2 0x586 JUMPI DUP1 PUSH4 0xFB47E3A2 EQ PUSH2 0x5C2 JUMPI PUSH2 0x352 JUMP JUMPDEST DUP1 PUSH4 0x78E97925 EQ PUSH2 0x47A JUMPI DUP1 PUSH4 0x8D382812 EQ PUSH2 0x4A4 JUMPI DUP1 PUSH4 0xC09CEC77 EQ PUSH2 0x4CE JUMPI DUP1 PUSH4 0xD39FA233 EQ PUSH2 0x4F8 JUMPI PUSH2 0x352 JUMP JUMPDEST DUP1 PUSH4 0x33A99E04 GT PUSH2 0xC5 JUMPI DUP1 PUSH4 0x33A99E04 EQ PUSH2 0x3D4 JUMPI DUP1 PUSH4 0x3FC6105A EQ PUSH2 0x3EA JUMPI DUP1 PUSH4 0x4C1249FC EQ PUSH2 0x426 JUMPI DUP1 PUSH4 0x74FDDD21 EQ PUSH2 0x450 JUMPI PUSH2 0x352 JUMP JUMPDEST DUP1 PUSH4 0x4F35A57 EQ PUSH2 0x356 JUMPI DUP1 PUSH4 0x12065FE0 EQ PUSH2 0x380 JUMPI DUP1 PUSH4 0x1A95F15F EQ PUSH2 0x3AA JUMPI PUSH2 0x352 JUMP JUMPDEST CALLDATASIZE PUSH2 0x352 JUMPI PUSH7 0x2386F26FC10000 CALLVALUE EQ PUSH2 0x139 JUMPI PUSH1 0x40 MLOAD PUSH32 0x8C379A000000000000000000000000000000000000000000000000000000000 DUP2 MSTORE PUSH1 0x4 ADD PUSH2 0x130 SWAP1 PUSH2 0xC9D JUMP JUMPDEST PUSH1 0x40 MLOAD DUP1 SWAP2 SUB SWAP1 REVERT JUMPDEST PUSH1 0x3 PUSH1 0x7 DUP1 SLOAD SWAP1 POP LT PUSH2 0x181 JUMPI PUSH1 0x40 MLOAD PUSH32 0x8C379A000000000000000000000000000000000000000000000000000000000 DUP2 MSTORE PUSH1 0x4 ADD PUSH2 0x178 SWAP1 PUSH2 0xD05 JUMP JUMPDEST PUSH1 0x40 MLOAD DUP1 SWAP2 SUB SWAP1 REVERT JUMPDEST PUSH0 PUSH1 0x6 PUSH0 CALLER PUSH20 0xFFFFFFFFFFFFFFFFFFFFFFFFFFFFFFFFFFFFFFFF AND PUSH20 0xFFFFFFFFFFFFFFFFFFFFFFFFFFFFFFFFFFFFFFFF AND DUP2 MSTORE PUSH1 0x20 ADD SWAP1 DUP2 MSTORE PUSH1 0x20 ADD PUSH0 KECCAK256 SLOAD EQ PUSH2 0x200 JUMPI PUSH1 0x40 MLOAD PUSH32 0x8C379A000000000000000000000000000000000000000000000000000000000 DUP2 MSTORE PUSH1 0x4 ADD PUSH2 0x1F7 SWAP1 PUSH2 0xD6D JUMP JUMPDEST PUSH1 0x40 MLOAD DUP1 SWAP2 SUB SWAP1 REVERT JUMPDEST PUSH0 PUSH1 0x4 SLOAD SUB PUSH2 0x211 JUMPI TIMESTAMP PUSH1 0x4 DUP2 SWAP1 SSTORE POP JUMPDEST PUSH0 PUSH3 0x186A0 TIMESTAMP CALLER PREVRANDAO PUSH1 0x40 MLOAD PUSH1 0x20 ADD PUSH2 0x22B SWAP4 SWAP3 SWAP2 SWAP1 PUSH2 0xE29 JUMP JUMPDEST PUSH1 0x40 MLOAD PUSH1 0x20 DUP2 DUP4 SUB SUB DUP2 MSTORE SWAP1 PUSH1 0x40 MSTORE DUP1 MLOAD SWAP1 PUSH1 0x20 ADD KECCAK256 PUSH0 SHR PUSH2 0x24D SWAP2 SWAP1 PUSH2 0xE92 JUMP JUMPDEST SWAP1 POP DUP1 PUSH1 0x6 PUSH0 CALLER PUSH20 0xFFFFFFFFFFFFFFFFFFFFFFFFFFFFFFFFFFFFFFFF AND PUSH20 0xFFFFFFFFFFFFFFFFFFFFFFFFFFFFFFFFFFFFFFFF AND DUP2 MSTORE PUSH1 0x20 ADD SWAP1 DUP2 MSTORE PUSH1 0x20 ADD PUSH0 KECCAK256 DUP2 SWAP1 SSTORE POP PUSH1 0x7 CALLER SWAP1 DUP1 PUSH1 0x1 DUP2 SLOAD ADD DUP1 DUP3 SSTORE DUP1 SWAP2 POP POP PUSH1 0x1 SWAP1 SUB SWAP1 PUSH0 MSTORE PUSH1 0x20 PUSH0 KECCAK256 ADD PUSH0 SWAP1 SWAP2 SWAP1 SWAP2 SWAP1 SWAP2 PUSH2 0x100 EXP DUP2 SLOAD DUP2 PUSH20 0xFFFFFFFFFFFFFFFFFFFFFFFFFFFFFFFFFFFFFFFF MUL NOT AND SWAP1 DUP4 PUSH20 0xFFFFFFFFFFFFFFFFFFFFFFFFFFFFFFFFFFFFFFFF AND MUL OR SWAP1 SSTORE POP PUSH1 0x8 DUP2 SWAP1 DUP1 PUSH1 0x1 DUP2 SLOAD ADD DUP1 DUP3 SSTORE DUP1 SWAP2 POP POP PUSH1 0x1 SWAP1 SUB SWAP1 PUSH0 MSTORE PUSH1 0x20 PUSH0 KECCAK256 ADD PUSH0 SWAP1 SWAP2 SWAP1 SWAP2 SWAP1 SWAP2 POP SSTORE PUSH32 0x324CB0062138D65997C86CD3012489CEB351D602F2F55C7408306E8040C79F3F CALLER DUP3 PUSH1 0x40 MLOAD PUSH2 0x348 SWAP3 SWAP2 SWAP1 PUSH2 0xEE0 JUMP JUMPDEST PUSH1 0x40 MLOAD DUP1 SWAP2 SUB SWAP1 LOG1 STOP JUMPDEST PUSH0 PUSH0 REVERT JUMPDEST CALLVALUE DUP1 ISZERO PUSH2 0x361 JUMPI PUSH0 PUSH0 REVERT JUMPDEST POP PUSH2 0x36A PUSH2 0x5EC JUMP JUMPDEST PUSH1 0x40 MLOAD PUSH2 0x377 SWAP2 SWAP1 PUSH2 0xF07 JUMP JUMPDEST PUSH1 0x40 MLOAD DUP1 SWAP2 SUB SWAP1 RETURN JUMPDEST CALLVALUE DUP1 ISZERO PUSH2 0x38B JUMPI PUSH0 PUSH0 REVERT JUMPDEST POP PUSH2 0x394 PUSH2 0x611 JUMP JUMPDEST PUSH1 0x40 MLOAD PUSH2 0x3A1 SWAP2 SWAP1 PUSH2 0xF20 JUMP JUMPDEST PUSH1 0x40 MLOAD DUP1 SWAP2 SUB SWAP1 RETURN JUMPDEST CALLVALUE DUP1 ISZERO PUSH2 0x3B5 JUMPI PUSH0 PUSH0 REVERT JUMPDEST POP PUSH2 0x3BE PUSH2 0x618 JUMP JUMPDEST PUSH1 0x40 MLOAD PUSH2 0x3CB SWAP2 SWAP1 PUSH2 0xF20 JUMP JUMPDEST PUSH1 0x40 MLOAD DUP1 SWAP2 SUB SWAP1 RETURN JUMPDEST CALLVALUE DUP1 ISZERO PUSH2 0x3DF JUMPI PUSH0 PUSH0 REVERT JUMPDEST POP PUSH2 0x3E8 PUSH2 0x623 JUMP JUMPDEST STOP JUMPDEST CALLVALUE DUP1 ISZERO PUSH2 0x3F5 JUMPI PUSH0 PUSH0 REVERT JUMPDEST POP PUSH2 0x410 PUSH1 0x4 DUP1 CALLDATASIZE SUB DUP2 ADD SWAP1 PUSH2 0x40B SWAP2 SWAP1 PUSH2 0xF67 JUMP JUMPDEST PUSH2 0x936 JUMP JUMPDEST PUSH1 0x40 MLOAD PUSH2 0x41D SWAP2 SWAP1 PUSH2 0xF20 JUMP JUMPDEST PUSH1 0x40 MLOAD DUP1 SWAP2 SUB SWAP1 RETURN JUMPDEST CALLVALUE DUP1 ISZERO PUSH2 0x431 JUMPI PUSH0 PUSH0 REVERT JUMPDEST POP PUSH2 0x43A PUSH2 0x94B JUMP JUMPDEST PUSH1 0x40 MLOAD PUSH2 0x447 SWAP2 SWAP1 PUSH2 0xF07 JUMP JUMPDEST PUSH1 0x40 MLOAD DUP1 SWAP2 SUB SWAP1 RETURN JUMPDEST CALLVALUE DUP1 ISZERO PUSH2 0x45B JUMPI PUSH0 PUSH0 REVERT JUMPDEST POP PUSH2 0x464 PUSH2 0x96F JUMP JUMPDEST PUSH1 0x40 MLOAD PUSH2 0x471 SWAP2 SWAP1 PUSH2 0x1049 JUMP JUMPDEST PUSH1 0x40 MLOAD DUP1 SWAP2 SUB SWAP1 RETURN JUMPDEST CALLVALUE DUP1 ISZERO PUSH2 0x485 JUMPI PUSH0 PUSH0 REVERT JUMPDEST POP PUSH2 0x48E PUSH2 0x9C5 JUMP JUMPDEST PUSH1 0x40 MLOAD PUSH2 0x49B SWAP2 SWAP1 PUSH2 0xF20 JUMP JUMPDEST PUSH1 0x40 MLOAD DUP1 SWAP2 SUB SWAP1 RETURN JUMPDEST CALLVALUE DUP1 ISZERO PUSH2 0x4AF JUMPI PUSH0 PUSH0 REVERT JUMPDEST POP PUSH2 0x4B8 PUSH2 0x9CB JUMP JUMPDEST PUSH1 0x40 MLOAD PUSH2 0x4C5 SWAP2 SWAP1 PUSH2 0x1083 JUMP JUMPDEST PUSH1 0x40 MLOAD DUP1 SWAP2 SUB SWAP1 RETURN JUMPDEST CALLVALUE DUP1 ISZERO PUSH2 0x4D9 JUMPI PUSH0 PUSH0 REVERT JUMPDEST POP PUSH2 0x4E2 PUSH2 0x9DD JUMP JUMPDEST PUSH1 0x40 MLOAD PUSH2 0x4EF SWAP2 SWAP1 PUSH2 0xF07 JUMP JUMPDEST PUSH1 0x40 MLOAD DUP1 SWAP2 SUB SWAP1 RETURN JUMPDEST CALLVALUE DUP1 ISZERO PUSH2 0x503 JUMPI PUSH0 PUSH0 REVERT JUMPDEST POP PUSH2 0x51E PUSH1 0x4 DUP1 CALLDATASIZE SUB DUP2 ADD SWAP1 PUSH2 0x519 SWAP2 SWAP1 PUSH2 0x10C6 JUMP JUMPDEST PUSH2 0xA02 JUMP JUMPDEST PUSH1 0x40 MLOAD PUSH2 0x52B SWAP2 SWAP1 PUSH2 0xF20 JUMP JUMPDEST PUSH1 0x40 MLOAD DUP1 SWAP2 SUB SWAP1 RETURN JUMPDEST CALLVALUE DUP1 ISZERO PUSH2 0x53F JUMPI PUSH0 PUSH0 REVERT JUMPDEST POP PUSH2 0x548 PUSH2 0xA22 JUMP JUMPDEST PUSH1 0x40 MLOAD PUSH2 0x555 SWAP2 SWAP1 PUSH2 0xF07 JUMP JUMPDEST PUSH1 0x40 MLOAD DUP1 SWAP2 SUB SWAP1 RETURN JUMPDEST CALLVALUE DUP1 ISZERO PUSH2 0x569 JUMPI PUSH0 PUSH0 REVERT JUMPDEST POP PUSH2 0x584 PUSH1 0x4 DUP1 CALLDATASIZE SUB DUP2 ADD SWAP1 PUSH2 0x57F SWAP2 SWAP1 PUSH2 0x10F1 JUMP JUMPDEST PUSH2 0xA48 JUMP JUMPDEST STOP JUMPDEST CALLVALUE DUP1 ISZERO PUSH2 0x591 JUMPI PUSH0 PUSH0 REVERT JUMPDEST POP PUSH2 0x5AC PUSH1 0x4 DUP1 CALLDATASIZE SUB DUP2 ADD SWAP1 PUSH2 0x5A7 SWAP2 SWAP1 PUSH2 0x10C6 JUMP JUMPDEST PUSH2 0xBE3 JUMP JUMPDEST PUSH1 0x40 MLOAD PUSH2 0x5B9 SWAP2 SWAP1 PUSH2 0xF07 JUMP JUMPDEST PUSH1 0x40 MLOAD DUP1 SWAP2 SUB SWAP1 RETURN JUMPDEST CALLVALUE DUP1 ISZERO PUSH2 0x5CD JUMPI PUSH0 PUSH0 REVERT JUMPDEST POP PUSH2 0x5D6 PUSH2 0xC1E JUMP JUMPDEST PUSH1 0x40 MLOAD PUSH2 0x5E3 SWAP2 SWAP1 PUSH2 0xF07 JUMP JUMPDEST PUSH1 0x40 MLOAD DUP1 SWAP2 SUB SWAP1 RETURN JUMPDEST PUSH1 0x3 PUSH0 SWAP1 SLOAD SWAP1 PUSH2 0x100 EXP SWAP1 DIV PUSH20 0xFFFFFFFFFFFFFFFFFFFFFFFFFFFFFFFFFFFFFFFF AND DUP2 JUMP JUMPDEST PUSH0 SELFBALANCE SWAP1 POP SWAP1 JUMP JUMPDEST PUSH7 0x2386F26FC10000 DUP2 JUMP JUMPDEST PUSH0 PUSH0 SWAP1 SLOAD SWAP1 PUSH2 0x100 EXP SWAP1 DIV PUSH20 0xFFFFFFFFFFFFFFFFFFFFFFFFFFFFFFFFFFFFFFFF AND PUSH20 0xFFFFFFFFFFFFFFFFFFFFFFFFFFFFFFFFFFFFFFFF AND CALLER PUSH20 0xFFFFFFFFFFFFFFFFFFFFFFFFFFFFFFFFFFFFFFFF AND EQ PUSH2 0x6B1 JUMPI PUSH1 0x40 MLOAD PUSH32 0x8C379A000000000000000000000000000000000000000000000000000000000 DUP2 MSTORE PUSH1 0x4 ADD PUSH2 0x6A8 SWAP1 PUSH2 0x118B JUMP JUMPDEST PUSH1 0x40 MLOAD DUP1 SWAP2 SUB SWAP1 REVERT JUMPDEST PUSH1 0x3 PUSH1 0x7 DUP1 SLOAD SWAP1 POP EQ PUSH2 0x6F9 JUMPI PUSH1 0x40 MLOAD PUSH32 0x8C379A000000000000000000000000000000000000000000000000000000000 DUP2 MSTORE PUSH1 0x4 ADD PUSH2 0x6F0 SWAP1 PUSH2 0x11F3 JUMP JUMPDEST PUSH1 0x40 MLOAD DUP1 SWAP2 SUB SWAP1 REVERT JUMPDEST PUSH1 0x78 PUSH1 0x4 SLOAD PUSH2 0x708 SWAP2 SWAP1 PUSH2 0x123E JUMP JUMPDEST TIMESTAMP LT ISZERO PUSH2 0x74A JUMPI PUSH1 0x40 MLOAD PUSH32 0x8C379A000000000000000000000000000000000000000000000000000000000 DUP2 MSTORE PUSH1 0x4 ADD PUSH2 0x741 SWAP1 PUSH2 0x12E1 JUMP JUMPDEST PUSH1 0x40 MLOAD DUP1 SWAP2 SUB SWAP1 REVERT JUMPDEST PUSH1 0x5 PUSH0 SWAP1 SLOAD SWAP1 PUSH2 0x100 EXP SWAP1 DIV PUSH1 0xFF AND ISZERO PUSH2 0x799 JUMPI PUSH1 0x40 MLOAD PUSH32 0x8C379A000000000000000000000000000000000000000000000000000000000 DUP2 MSTORE PUSH1 0x4 ADD PUSH2 0x790 SWAP1 PUSH2 0x1349 JUMP JUMPDEST PUSH1 0x40 MLOAD DUP1 SWAP2 SUB SWAP1 REVERT JUMPDEST PUSH0 PUSH1 0x8 DUP1 SLOAD SWAP1 POP TIMESTAMP PREVRANDAO PUSH1 0x40 MLOAD PUSH1 0x20 ADD PUSH2 0x7B3 SWAP3 SWAP2 SWAP1 PUSH2 0x1367 JUMP JUMPDEST PUSH1 0x40 MLOAD PUSH1 0x20 DUP2 DUP4 SUB SUB DUP2 MSTORE SWAP1 PUSH1 0x40 MSTORE DUP1 MLOAD SWAP1 PUSH1 0x20 ADD KECCAK256 PUSH0 SHR PUSH2 0x7D5 SWAP2 SWAP1 PUSH2 0xE92 JUMP JUMPDEST SWAP1 POP PUSH1 0x7 DUP2 DUP2 SLOAD DUP2 LT PUSH2 0x7EB JUMPI PUSH2 0x7EA PUSH2 0x1392 JUMP JUMPDEST JUMPDEST SWAP1 PUSH0 MSTORE PUSH1 0x20 PUSH0 KECCAK256 ADD PUSH0 SWAP1 SLOAD SWAP1 PUSH2 0x100 EXP SWAP1 DIV PUSH20 0xFFFFFFFFFFFFFFFFFFFFFFFFFFFFFFFFFFFFFFFF AND PUSH1 0x5 PUSH1 0x1 PUSH2 0x100 EXP DUP2 SLOAD DUP2 PUSH20 0xFFFFFFFFFFFFFFFFFFFFFFFFFFFFFFFFFFFFFFFF MUL NOT AND SWAP1 DUP4 PUSH20 0xFFFFFFFFFFFFFFFFFFFFFFFFFFFFFFFFFFFFFFFF AND MUL OR SWAP1 SSTORE POP PUSH1 0x1 PUSH1 0x5 PUSH0 PUSH2 0x100 EXP DUP2 SLOAD DUP2 PUSH1 0xFF MUL NOT AND SWAP1 DUP4 ISZERO ISZERO MUL OR SWAP1 SSTORE POP PUSH0 SELFBALANCE SWAP1 POP PUSH1 0x5 PUSH1 0x1 SWAP1 SLOAD SWAP1 PUSH2 0x100 EXP SWAP1 DIV PUSH20 0xFFFFFFFFFFFFFFFFFFFFFFFFFFFFFFFFFFFFFFFF AND PUSH20 0xFFFFFFFFFFFFFFFFFFFFFFFFFFFFFFFFFFFFFFFF AND PUSH2 0x8FC DUP3 SWAP1 DUP2 ISZERO MUL SWAP1 PUSH1 0x40 MLOAD PUSH0 PUSH1 0x40 MLOAD DUP1 DUP4 SUB DUP2 DUP6 DUP9 DUP9 CALL SWAP4 POP POP POP POP ISZERO DUP1 ISZERO PUSH2 0x8D6 JUMPI RETURNDATASIZE PUSH0 PUSH0 RETURNDATACOPY RETURNDATASIZE PUSH0 REVERT JUMPDEST POP PUSH32 0x3CF1AF53E79884A92609CE59DB1EC9F584D88E2D14C8EABA43A21DB81318301E PUSH1 0x5 PUSH1 0x1 SWAP1 SLOAD SWAP1 PUSH2 0x100 EXP SWAP1 DIV PUSH20 0xFFFFFFFFFFFFFFFFFFFFFFFFFFFFFFFFFFFFFFFF AND DUP3 PUSH1 0x40 MLOAD PUSH2 0x92A SWAP3 SWAP2 SWAP1 PUSH2 0xEE0 JUMP JUMPDEST PUSH1 0x40 MLOAD DUP1 SWAP2 SUB SWAP1 LOG1 POP POP JUMP JUMPDEST PUSH1 0x6 PUSH1 0x20 MSTORE DUP1 PUSH0 MSTORE PUSH1 0x40 PUSH0 KECCAK256 PUSH0 SWAP2 POP SWAP1 POP SLOAD DUP2 JUMP JUMPDEST PUSH0 PUSH0 SWAP1 SLOAD SWAP1 PUSH2 0x100 EXP SWAP1 DIV PUSH20 0xFFFFFFFFFFFFFFFFFFFFFFFFFFFFFFFFFFFFFFFF AND DUP2 JUMP JUMPDEST PUSH1 0x60 PUSH1 0x8 DUP1 SLOAD DUP1 PUSH1 0x20 MUL PUSH1 0x20 ADD PUSH1 0x40 MLOAD SWAP1 DUP2 ADD PUSH1 0x40 MSTORE DUP1 SWAP3 SWAP2 SWAP1 DUP2 DUP2 MSTORE PUSH1 0x20 ADD DUP3 DUP1 SLOAD DUP1 ISZERO PUSH2 0x9BB JUMPI PUSH1 0x20 MUL DUP3 ADD SWAP2 SWAP1 PUSH0 MSTORE PUSH1 0x20 PUSH0 KECCAK256 SWAP1 JUMPDEST DUP2 SLOAD DUP2 MSTORE PUSH1 0x20 ADD SWAP1 PUSH1 0x1 ADD SWAP1 DUP1 DUP4 GT PUSH2 0x9A7 JUMPI JUMPDEST POP POP POP POP POP SWAP1 POP SWAP1 JUMP JUMPDEST PUSH1 0x4 SLOAD DUP2 JUMP JUMPDEST PUSH1 0x5 PUSH0 SWAP1 SLOAD SWAP1 PUSH2 0x100 EXP SWAP1 DIV PUSH1 0xFF AND DUP2 JUMP JUMPDEST PUSH1 0x2 PUSH0 SWAP1 SLOAD SWAP1 PUSH2 0x100 EXP SWAP1 DIV PUSH20 0xFFFFFFFFFFFFFFFFFFFFFFFFFFFFFFFFFFFFFFFF AND DUP2 JUMP JUMPDEST PUSH1 0x8 DUP2 DUP2 SLOAD DUP2 LT PUSH2 0xA11 JUMPI PUSH0 DUP1 REVERT JUMPDEST SWAP1 PUSH0 MSTORE PUSH1 0x20 PUSH0 KECCAK256 ADD PUSH0 SWAP2 POP SWAP1 POP SLOAD DUP2 JUMP JUMPDEST PUSH1 0x5 PUSH1 0x1 SWAP1 SLOAD SWAP1 PUSH2 0x100 EXP SWAP1 DIV PUSH20 0xFFFFFFFFFFFFFFFFFFFFFFFFFFFFFFFFFFFFFFFF AND DUP2 JUMP JUMPDEST PUSH0 PUSH0 SWAP1 SLOAD SWAP1 PUSH2 0x100 EXP SWAP1 DIV PUSH20 0xFFFFFFFFFFFFFFFFFFFFFFFFFFFFFFFFFFFFFFFF AND PUSH20 0xFFFFFFFFFFFFFFFFFFFFFFFFFFFFFFFFFFFFFFFF AND CALLER PUSH20 0xFFFFFFFFFFFFFFFFFFFFFFFFFFFFFFFFFFFFFFFF AND EQ PUSH2 0xAD6 JUMPI PUSH1 0x40 MLOAD PUSH32 0x8C379A000000000000000000000000000000000000000000000000000000000 DUP2 MSTORE PUSH1 0x4 ADD PUSH2 0xACD SWAP1 PUSH2 0x118B JUMP JUMPDEST PUSH1 0x40 MLOAD DUP1 SWAP2 SUB SWAP1 REVERT JUMPDEST PUSH1 0x3 PUSH1 0x7 DUP1 SLOAD SWAP1 POP EQ PUSH2 0xB1E JUMPI PUSH1 0x40 MLOAD PUSH32 0x8C379A000000000000000000000000000000000000000000000000000000000 DUP2 MSTORE PUSH1 0x4 ADD PUSH2 0xB15 SWAP1 PUSH2 0x1409 JUMP JUMPDEST PUSH1 0x40 MLOAD DUP1 SWAP2 SUB SWAP1 REVERT JUMPDEST DUP3 PUSH1 0x1 PUSH0 PUSH2 0x100 EXP DUP2 SLOAD DUP2 PUSH20 0xFFFFFFFFFFFFFFFFFFFFFFFFFFFFFFFFFFFFFFFF MUL NOT AND SWAP1 DUP4 PUSH20 0xFFFFFFFFFFFFFFFFFFFFFFFFFFFFFFFFFFFFFFFF AND MUL OR SWAP1 SSTORE POP DUP2 PUSH1 0x2 PUSH0 PUSH2 0x100 EXP DUP2 SLOAD DUP2 PUSH20 0xFFFFFFFFFFFFFFFFFFFFFFFFFFFFFFFFFFFFFFFF MUL NOT AND SWAP1 DUP4 PUSH20 0xFFFFFFFFFFFFFFFFFFFFFFFFFFFFFFFFFFFFFFFF AND MUL OR SWAP1 SSTORE POP DUP1 PUSH1 0x3 PUSH0 PUSH2 0x100 EXP DUP2 SLOAD DUP2 PUSH20 0xFFFFFFFFFFFFFFFFFFFFFFFFFFFFFFFFFFFFFFFF MUL NOT AND SWAP1 DUP4 PUSH20 0xFFFFFFFFFFFFFFFFFFFFFFFFFFFFFFFFFFFFFFFF AND MUL OR SWAP1 SSTORE POP POP POP POP JUMP JUMPDEST PUSH1 0x7 DUP2 DUP2 SLOAD DUP2 LT PUSH2 0xBF2 JUMPI PUSH0 DUP1 REVERT JUMPDEST SWAP1 PUSH0 MSTORE PUSH1 0x20 PUSH0 KECCAK256 ADD PUSH0 SWAP2 POP SLOAD SWAP1 PUSH2 0x100 EXP SWAP1 DIV PUSH20 0xFFFFFFFFFFFFFFFFFFFFFFFFFFFFFFFFFFFFFFFF AND DUP2 JUMP JUMPDEST PUSH1 0x1 PUSH0 SWAP1 SLOAD SWAP1 PUSH2 0x100 EXP SWAP1 DIV PUSH20 0xFFFFFFFFFFFFFFFFFFFFFFFFFFFFFFFFFFFFFFFF AND DUP2 JUMP JUMPDEST PUSH0 DUP3 DUP3 MSTORE PUSH1 0x20 DUP3 ADD SWAP1 POP SWAP3 SWAP2 POP POP JUMP JUMPDEST PUSH32 0x53656E642065786163746C7920302E3031204554480000000000000000000000 PUSH0 DUP3 ADD MSTORE POP JUMP JUMPDEST PUSH0 PUSH2 0xC87 PUSH1 0x15 DUP4 PUSH2 0xC43 JUMP JUMPDEST SWAP2 POP PUSH2 0xC92 DUP3 PUSH2 0xC53 JUMP JUMPDEST PUSH1 0x20 DUP3 ADD SWAP1 POP SWAP2 SWAP1 POP JUMP JUMPDEST PUSH0 PUSH1 0x20 DUP3 ADD SWAP1 POP DUP2 DUP2 SUB PUSH0 DUP4 ADD MSTORE PUSH2 0xCB4 DUP2 PUSH2 0xC7B JUMP JUMPDEST SWAP1 POP SWAP2 SWAP1 POP JUMP JUMPDEST PUSH32 0x416C6C20706C617965727320616C726561647920726567697374657265640000 PUSH0 DUP3 ADD MSTORE POP JUMP JUMPDEST PUSH0 PUSH2 0xCEF PUSH1 0x1E DUP4 PUSH2 0xC43 JUMP JUMPDEST SWAP2 POP PUSH2 0xCFA DUP3 PUSH2 0xCBB JUMP JUMPDEST PUSH1 0x20 DUP3 ADD SWAP1 POP SWAP2 SWAP1 POP JUMP JUMPDEST PUSH0 PUSH1 0x20 DUP3 ADD SWAP1 POP DUP2 DUP2 SUB PUSH0 DUP4 ADD MSTORE PUSH2 0xD1C DUP2 PUSH2 0xCE3 JUMP JUMPDEST SWAP1 POP SWAP2 SWAP1 POP JUMP JUMPDEST PUSH32 0x416C726561647920726567697374657265640000000000000000000000000000 PUSH0 DUP3 ADD MSTORE POP JUMP JUMPDEST PUSH0 PUSH2 0xD57 PUSH1 0x12 DUP4 PUSH2 0xC43 JUMP JUMPDEST SWAP2 POP PUSH2 0xD62 DUP3 PUSH2 0xD23 JUMP JUMPDEST PUSH1 0x20 DUP3 ADD SWAP1 POP SWAP2 SWAP1 POP JUMP JUMPDEST PUSH0 PUSH1 0x20 DUP3 ADD SWAP1 POP DUP2 DUP2 SUB PUSH0 DUP4 ADD MSTORE PUSH2 0xD84 DUP2 PUSH2 0xD4B JUMP JUMPDEST SWAP1 POP SWAP2 SWAP1 POP JUMP JUMPDEST PUSH0 DUP2 SWAP1 POP SWAP2 SWAP1 POP JUMP JUMPDEST PUSH0 DUP2 SWAP1 POP SWAP2 SWAP1 POP JUMP JUMPDEST PUSH2 0xDAE PUSH2 0xDA9 DUP3 PUSH2 0xD8B JUMP JUMPDEST PUSH2 0xD94 JUMP JUMPDEST DUP3 MSTORE POP POP JUMP JUMPDEST PUSH0 PUSH20 0xFFFFFFFFFFFFFFFFFFFFFFFFFFFFFFFFFFFFFFFF DUP3 AND SWAP1 POP SWAP2 SWAP1 POP JUMP JUMPDEST PUSH0 PUSH2 0xDDD DUP3 PUSH2 0xDB4 JUMP JUMPDEST SWAP1 POP SWAP2 SWAP1 POP JUMP JUMPDEST PUSH0 DUP2 PUSH1 0x60 SHL SWAP1 POP SWAP2 SWAP1 POP JUMP JUMPDEST PUSH0 PUSH2 0xDFA DUP3 PUSH2 0xDE4 JUMP JUMPDEST SWAP1 POP SWAP2 SWAP1 POP JUMP JUMPDEST PUSH0 PUSH2 0xE0B DUP3 PUSH2 0xDF0 JUMP JUMPDEST SWAP1 POP SWAP2 SWAP1 POP JUMP JUMPDEST PUSH2 0xE23 PUSH2 0xE1E DUP3 PUSH2 0xDD3 JUMP JUMPDEST PUSH2 0xE01 JUMP JUMPDEST DUP3 MSTORE POP POP JUMP JUMPDEST PUSH0 PUSH2 0xE34 DUP3 DUP7 PUSH2 0xD9D JUMP JUMPDEST PUSH1 0x20 DUP3 ADD SWAP2 POP PUSH2 0xE44 DUP3 DUP6 PUSH2 0xE12 JUMP JUMPDEST PUSH1 0x14 DUP3 ADD SWAP2 POP PUSH2 0xE54 DUP3 DUP5 PUSH2 0xD9D JUMP JUMPDEST PUSH1 0x20 DUP3 ADD SWAP2 POP DUP2 SWAP1 POP SWAP5 SWAP4 POP POP POP POP JUMP JUMPDEST PUSH32 0x4E487B7100000000000000000000000000000000000000000000000000000000 PUSH0 MSTORE PUSH1 0x12 PUSH1 0x4 MSTORE PUSH1 0x24 PUSH0 REVERT JUMPDEST PUSH0 PUSH2 0xE9C DUP3 PUSH2 0xD8B JUMP JUMPDEST SWAP2 POP PUSH2 0xEA7 DUP4 PUSH2 0xD8B JUMP JUMPDEST SWAP3 POP DUP3 PUSH2 0xEB7 JUMPI PUSH2 0xEB6 PUSH2 0xE65 JUMP JUMPDEST JUMPDEST DUP3 DUP3 MOD SWAP1 POP SWAP3 SWAP2 POP POP JUMP JUMPDEST PUSH2 0xECB DUP2 PUSH2 0xDD3 JUMP JUMPDEST DUP3 MSTORE POP POP JUMP JUMPDEST PUSH2 0xEDA DUP2 PUSH2 0xD8B JUMP JUMPDEST DUP3 MSTORE POP POP JUMP JUMPDEST PUSH0 PUSH1 0x40 DUP3 ADD SWAP1 POP PUSH2 0xEF3 PUSH0 DUP4 ADD DUP6 PUSH2 0xEC2 JUMP JUMPDEST PUSH2 0xF00 PUSH1 0x20 DUP4 ADD DUP5 PUSH2 0xED1 JUMP JUMPDEST SWAP4 SWAP3 POP POP POP JUMP JUMPDEST PUSH0 PUSH1 0x20 DUP3 ADD SWAP1 POP PUSH2 0xF1A PUSH0 DUP4 ADD DUP5 PUSH2 0xEC2 JUMP JUMPDEST SWAP3 SWAP2 POP POP JUMP JUMPDEST PUSH0 PUSH1 0x20 DUP3 ADD SWAP1 POP PUSH2 0xF33 PUSH0 DUP4 ADD DUP5 PUSH2 0xED1 JUMP JUMPDEST SWAP3 SWAP2 POP POP JUMP JUMPDEST PUSH0 PUSH0 REVERT JUMPDEST PUSH2 0xF46 DUP2 PUSH2 0xDD3 JUMP JUMPDEST DUP2 EQ PUSH2 0xF50 JUMPI PUSH0 PUSH0 REVERT JUMPDEST POP JUMP JUMPDEST PUSH0 DUP2 CALLDATALOAD SWAP1 POP PUSH2 0xF61 DUP2 PUSH2 0xF3D JUMP JUMPDEST SWAP3 SWAP2 POP POP JUMP JUMPDEST PUSH0 PUSH1 0x20 DUP3 DUP5 SUB SLT ISZERO PUSH2 0xF7C JUMPI PUSH2 0xF7B PUSH2 0xF39 JUMP JUMPDEST JUMPDEST PUSH0 PUSH2 0xF89 DUP5 DUP3 DUP6 ADD PUSH2 0xF53 JUMP JUMPDEST SWAP2 POP POP SWAP3 SWAP2 POP POP JUMP JUMPDEST PUSH0 DUP2 MLOAD SWAP1 POP SWAP2 SWAP1 POP JUMP JUMPDEST PUSH0 DUP3 DUP3 MSTORE PUSH1 0x20 DUP3 ADD SWAP1 POP SWAP3 SWAP2 POP POP JUMP JUMPDEST PUSH0 DUP2 SWAP1 POP PUSH1 0x20 DUP3 ADD SWAP1 POP SWAP2 SWAP1 POP JUMP JUMPDEST PUSH2 0xFC4 DUP2 PUSH2 0xD8B JUMP JUMPDEST DUP3 MSTORE POP POP JUMP JUMPDEST PUSH0 PUSH2 0xFD5 DUP4 DUP4 PUSH2 0xFBB JUMP JUMPDEST PUSH1 0x20 DUP4 ADD SWAP1 POP SWAP3 SWAP2 POP POP JUMP JUMPDEST PUSH0 PUSH1 0x20 DUP3 ADD SWAP1 POP SWAP2 SWAP1 POP JUMP JUMPDEST PUSH0 PUSH2 0xFF7 DUP3 PUSH2 0xF92 JUMP JUMPDEST PUSH2 0x1001 DUP2 DUP6 PUSH2 0xF9C JUMP JUMPDEST SWAP4 POP PUSH2 0x100C DUP4 PUSH2 0xFAC JUMP JUMPDEST DUP1 PUSH0 JUMPDEST DUP4 DUP2 LT ISZERO PUSH2 0x103C JUMPI DUP2 MLOAD PUSH2 0x1023 DUP9 DUP3 PUSH2 0xFCA JUMP JUMPDEST SWAP8 POP PUSH2 0x102E DUP4 PUSH2 0xFE1 JUMP JUMPDEST SWAP3 POP POP PUSH1 0x1 DUP2 ADD SWAP1 POP PUSH2 0x100F JUMP JUMPDEST POP DUP6 SWAP4 POP POP POP POP SWAP3 SWAP2 POP POP JUMP JUMPDEST PUSH0 PUSH1 0x20 DUP3 ADD SWAP1 POP DUP2 DUP2 SUB PUSH0 DUP4 ADD MSTORE PUSH2 0x1061 DUP2 DUP5 PUSH2 0xFED JUMP JUMPDEST SWAP1 POP SWAP3 SWAP2 POP POP JUMP JUMPDEST PUSH0 DUP2 ISZERO ISZERO SWAP1 POP SWAP2 SWAP1 POP JUMP JUMPDEST PUSH2 0x107D DUP2 PUSH2 0x1069 JUMP JUMPDEST DUP3 MSTORE POP POP JUMP JUMPDEST PUSH0 PUSH1 0x20 DUP3 ADD SWAP1 POP PUSH2 0x1096 PUSH0 DUP4 ADD DUP5 PUSH2 0x1074 JUMP JUMPDEST SWAP3 SWAP2 POP POP JUMP JUMPDEST PUSH2 0x10A5 DUP2 PUSH2 0xD8B JUMP JUMPDEST DUP2 EQ PUSH2 0x10AF JUMPI PUSH0 PUSH0 REVERT JUMPDEST POP JUMP JUMPDEST PUSH0 DUP2 CALLDATALOAD SWAP1 POP PUSH2 0x10C0 DUP2 PUSH2 0x109C JUMP JUMPDEST SWAP3 SWAP2 POP POP JUMP JUMPDEST PUSH0 PUSH1 0x20 DUP3 DUP5 SUB SLT ISZERO PUSH2 0x10DB JUMPI PUSH2 0x10DA PUSH2 0xF39 JUMP JUMPDEST JUMPDEST PUSH0 PUSH2 0x10E8 DUP5 DUP3 DUP6 ADD PUSH2 0x10B2 JUMP JUMPDEST SWAP2 POP POP SWAP3 SWAP2 POP POP JUMP JUMPDEST PUSH0 PUSH0 PUSH0 PUSH1 0x60 DUP5 DUP7 SUB SLT ISZERO PUSH2 0x1108 JUMPI PUSH2 0x1107 PUSH2 0xF39 JUMP JUMPDEST JUMPDEST PUSH0 PUSH2 0x1115 DUP7 DUP3 DUP8 ADD PUSH2 0xF53 JUMP JUMPDEST SWAP4 POP POP PUSH1 0x20 PUSH2 0x1126 DUP7 DUP3 DUP8 ADD PUSH2 0xF53 JUMP JUMPDEST SWAP3 POP POP PUSH1 0x40 PUSH2 0x1137 DUP7 DUP3 DUP8 ADD PUSH2 0xF53 JUMP JUMPDEST SWAP2 POP POP SWAP3 POP SWAP3 POP SWAP3 JUMP JUMPDEST PUSH32 0x4F6E6C792072657461696C65722063616E2063616C6C20746869730000000000 PUSH0 DUP3 ADD MSTORE POP JUMP JUMPDEST PUSH0 PUSH2 0x1175 PUSH1 0x1B DUP4 PUSH2 0xC43 JUMP JUMPDEST SWAP2 POP PUSH2 0x1180 DUP3 PUSH2 0x1141 JUMP JUMPDEST PUSH1 0x20 DUP3 ADD SWAP1 POP SWAP2 SWAP1 POP JUMP JUMPDEST PUSH0 PUSH1 0x20 DUP3 ADD SWAP1 POP DUP2 DUP2 SUB PUSH0 DUP4 ADD MSTORE PUSH2 0x11A2 DUP2 PUSH2 0x1169 JUMP JUMPDEST SWAP1 POP SWAP2 SWAP1 POP JUMP JUMPDEST PUSH32 0x416C6C20706C6179657273206D75737420726567697374657220666972737400 PUSH0 DUP3 ADD MSTORE POP JUMP JUMPDEST PUSH0 PUSH2 0x11DD PUSH1 0x1F DUP4 PUSH2 0xC43 JUMP JUMPDEST SWAP2 POP PUSH2 0x11E8 DUP3 PUSH2 0x11A9 JUMP JUMPDEST PUSH1 0x20 DUP3 ADD SWAP1 POP SWAP2 SWAP1 POP JUMP JUMPDEST PUSH0 PUSH1 0x20 DUP3 ADD SWAP1 POP DUP2 DUP2 SUB PUSH0 DUP4 ADD MSTORE PUSH2 0x120A DUP2 PUSH2 0x11D1 JUMP JUMPDEST SWAP1 POP SWAP2 SWAP1 POP JUMP JUMPDEST PUSH32 0x4E487B7100000000000000000000000000000000000000000000000000000000 PUSH0 MSTORE PUSH1 0x11 PUSH1 0x4 MSTORE PUSH1 0x24 PUSH0 REVERT JUMPDEST PUSH0 PUSH2 0x1248 DUP3 PUSH2 0xD8B JUMP JUMPDEST SWAP2 POP PUSH2 0x1253 DUP4 PUSH2 0xD8B JUMP JUMPDEST SWAP3 POP DUP3 DUP3 ADD SWAP1 POP DUP1 DUP3 GT ISZERO PUSH2 0x126B JUMPI PUSH2 0x126A PUSH2 0x1211 JUMP JUMPDEST JUMPDEST SWAP3 SWAP2 POP POP JUMP JUMPDEST PUSH32 0x576169742032206D696E75746573206166746572206669727374207061796D65 PUSH0 DUP3 ADD MSTORE PUSH32 0x6E74000000000000000000000000000000000000000000000000000000000000 PUSH1 0x20 DUP3 ADD MSTORE POP JUMP JUMPDEST PUSH0 PUSH2 0x12CB PUSH1 0x22 DUP4 PUSH2 0xC43 JUMP JUMPDEST SWAP2 POP PUSH2 0x12D6 DUP3 PUSH2 0x1271 JUMP JUMPDEST PUSH1 0x40 DUP3 ADD SWAP1 POP SWAP2 SWAP1 POP JUMP JUMPDEST PUSH0 PUSH1 0x20 DUP3 ADD SWAP1 POP DUP2 DUP2 SUB PUSH0 DUP4 ADD MSTORE PUSH2 0x12F8 DUP2 PUSH2 0x12BF JUMP JUMPDEST SWAP1 POP SWAP2 SWAP1 POP JUMP JUMPDEST PUSH32 0x57696E6E657220616C72656164792073656C6563746564000000000000000000 PUSH0 DUP3 ADD MSTORE POP JUMP JUMPDEST PUSH0 PUSH2 0x1333 PUSH1 0x17 DUP4 PUSH2 0xC43 JUMP JUMPDEST SWAP2 POP PUSH2 0x133E DUP3 PUSH2 0x12FF JUMP JUMPDEST PUSH1 0x20 DUP3 ADD SWAP1 POP SWAP2 SWAP1 POP JUMP JUMPDEST PUSH0 PUSH1 0x20 DUP3 ADD SWAP1 POP DUP2 DUP2 SUB PUSH0 DUP4 ADD MSTORE PUSH2 0x1360 DUP2 PUSH2 0x1327 JUMP JUMPDEST SWAP1 POP SWAP2 SWAP1 POP JUMP JUMPDEST PUSH0 PUSH2 0x1372 DUP3 DUP6 PUSH2 0xD9D JUMP JUMPDEST PUSH1 0x20 DUP3 ADD SWAP2 POP PUSH2 0x1382 DUP3 DUP5 PUSH2 0xD9D JUMP JUMPDEST PUSH1 0x20 DUP3 ADD SWAP2 POP DUP2 SWAP1 POP SWAP4 SWAP3 POP POP POP JUMP JUMPDEST PUSH32 0x4E487B7100000000000000000000000000000000000000000000000000000000 PUSH0 MSTORE PUSH1 0x32 PUSH1 0x4 MSTORE PUSH1 0x24 PUSH0 REVERT JUMPDEST PUSH32 0x416C6C20706C6179657273206D75737420706179206669727374000000000000 PUSH0 DUP3 ADD MSTORE POP JUMP JUMPDEST PUSH0 PUSH2 0x13F3 PUSH1 0x1A DUP4 PUSH2 0xC43 JUMP JUMPDEST SWAP2 POP PUSH2 0x13FE DUP3 PUSH2 0x13BF JUMP JUMPDEST PUSH1 0x20 DUP3 ADD SWAP1 POP SWAP2 SWAP1 POP JUMP JUMPDEST PUSH0 PUSH1 0x20 DUP3 ADD SWAP1 POP DUP2 DUP2 SUB PUSH0 DUP4 ADD MSTORE PUSH2 0x1420 DUP2 PUSH2 0x13E7 JUMP JUMPDEST SWAP1 POP SWAP2 SWAP1 POP JUMP INVALID LOG2 PUSH5 0x6970667358 0x22 SLT KECCAK256 0x29 DUP2 MSTORE 0xC5 PUSH4 0xFC421F61 0x28 PUSH14 0x5B0494F03B8F55A2C3B2760F167 0x1F 0x4B EXTDELEGATECALL SUB CALLDATALOAD 0xD7 0xCE PUSH5 0x736F6C6343 STOP ADDMOD 0x1E STOP CALLER "
				},
				"gasEstimates": {
					"creation": {
						"codeDepositCost": "1042600",
						"executionCost": "25342",
						"totalCost": "1067942"
					},
					"external": {
						"TICKET_PRICE()": "393",
						"alice()": "2596",
						"bob()": "2575",
						"getAllNumbers()": "infinite",
						"getBalance()": "380",
						"numbers(uint256)": "infinite",
						"oscar()": "2532",
						"playerNumber(address)": "2847",
						"players(uint256)": "5010",
						"retailer()": "2574",
						"selectWinner()": "infinite",
						"setPlayers(address,address,address)": "infinite",
						"startTime()": "2448",
						"winner()": "2581",
						"winnerSelected()": "2511"
					}
				},
				"methodIdentifiers": {
					"TICKET_PRICE()": "1a95f15f",
					"alice()": "fb47e3a2",
					"bob()": "c09cec77",
					"getAllNumbers()": "74fddd21",
					"getBalance()": "12065fe0",
					"numbers(uint256)": "d39fa233",
					"oscar()": "04f35a57",
					"playerNumber(address)": "3fc6105a",
					"players(uint256)": "f71d96cb",
					"retailer()": "4c1249fc",
					"selectWinner()": "33a99e04",
					"setPlayers(address,address,address)": "f57e54f3",
					"startTime()": "78e97925",
					"winner()": "dfbf53ae",
					"winnerSelected()": "8d382812"
				}
			},
			"storageLayout": {
				"storage": [
					{
						"astId": 3,
						"contract": "Lottery/Lottery.sol:Lottery",
						"label": "retailer",
						"offset": 0,
						"slot": "0",
						"type": "t_address"
					},
					{
						"astId": 5,
						"contract": "Lottery/Lottery.sol:Lottery",
						"label": "alice",
						"offset": 0,
						"slot": "1",
						"type": "t_address"
					},
					{
						"astId": 7,
						"contract": "Lottery/Lottery.sol:Lottery",
						"label": "bob",
						"offset": 0,
						"slot": "2",
						"type": "t_address"
					},
					{
						"astId": 9,
						"contract": "Lottery/Lottery.sol:Lottery",
						"label": "oscar",
						"offset": 0,
						"slot": "3",
						"type": "t_address"
					},
					{
						"astId": 14,
						"contract": "Lottery/Lottery.sol:Lottery",
						"label": "startTime",
						"offset": 0,
						"slot": "4",
						"type": "t_uint256"
					},
					{
						"astId": 16,
						"contract": "Lottery/Lottery.sol:Lottery",
						"label": "winnerSelected",
						"offset": 0,
						"slot": "5",
						"type": "t_bool"
					},
					{
						"astId": 18,
						"contract": "Lottery/Lottery.sol:Lottery",
						"label": "winner",
						"offset": 1,
						"slot": "5",
						"type": "t_address"
					},
					{
						"astId": 22,
						"contract": "Lottery/Lottery.sol:Lottery",
						"label": "playerNumber",
						"offset": 0,
						"slot": "6",
						"type": "t_mapping(t_address,t_uint256)"
					},
					{
						"astId": 25,
						"contract": "Lottery/Lottery.sol:Lottery",
						"label": "players",
						"offset": 0,
						"slot": "7",
						"type": "t_array(t_address)dyn_storage"
					},
					{
						"astId": 28,
						"contract": "Lottery/Lottery.sol:Lottery",
						"label": "numbers",
						"offset": 0,
						"slot": "8",
						"type": "t_array(t_uint256)dyn_storage"
					}
				],
				"types": {
					"t_address": {
						"encoding": "inplace",
						"label": "address",
						"numberOfBytes": "20"
					},
					"t_array(t_address)dyn_storage": {
						"base": "t_address",
						"encoding": "dynamic_array",
						"label": "address[]",
						"numberOfBytes": "32"
					},
					"t_array(t_uint256)dyn_storage": {
						"base": "t_uint256",
						"encoding": "dynamic_array",
						"label": "uint256[]",
						"numberOfBytes": "32"
					},
					"t_bool": {
						"encoding": "inplace",
						"label": "bool",
						"numberOfBytes": "1"
					},
					"t_mapping(t_address,t_uint256)": {
						"encoding": "mapping",
						"key": "t_address",
						"label": "mapping(address => uint256)",
						"numberOfBytes": "32",
						"value": "t_uint256"
					},
					"t_uint256": {
						"encoding": "inplace",
						"label": "uint256",
						"numberOfBytes": "32"
					}
				}
			},
			"userdoc": {
				"kind": "user",
				"methods": {},
				"version": 1
			}
		}
	}
}